{
  "_format": "hh-sol-artifact-1",
  "contractName": "SilicaModelRegistry",
  "sourceName": "contracts/SilicaModelRegistry.sol",
  "abi": [
    {
      "inputs": [],
      "stateMutability": "nonpayable",
      "type": "constructor"
    },
    {
      "anonymous": false,
      "inputs": [
        {
          "indexed": true,
          "internalType": "uint256",
          "name": "modelId",
          "type": "uint256"
        },
        {
          "indexed": false,
          "internalType": "uint256",
          "name": "newFee",
          "type": "uint256"
        }
      ],
      "name": "FeeUpdated",
      "type": "event"
    },
    {
      "anonymous": false,
      "inputs": [
        {
          "indexed": true,
          "internalType": "uint256",
          "name": "modelId",
          "type": "uint256"
        },
        {
          "indexed": true,
          "internalType": "address",
          "name": "creator",
          "type": "address"
        },
        {
          "indexed": false,
          "internalType": "string",
          "name": "name",
          "type": "string"
        },
        {
          "indexed": false,
          "internalType": "string",
          "name": "modelType",
          "type": "string"
        }
      ],
      "name": "ModelRegistered",
      "type": "event"
    },
    {
      "anonymous": false,
      "inputs": [
        {
          "indexed": true,
          "internalType": "uint256",
          "name": "modelId",
          "type": "uint256"
        },
        {
          "indexed": false,
          "internalType": "bool",
          "name": "isActive",
          "type": "bool"
        }
      ],
      "name": "ModelStatusChanged",
      "type": "event"
    },
    {
      "anonymous": false,
      "inputs": [
        {
          "indexed": true,
          "internalType": "uint256",
          "name": "modelId",
          "type": "uint256"
        },
        {
          "indexed": false,
          "internalType": "string",
          "name": "version",
          "type": "string"
        },
        {
          "indexed": false,
          "internalType": "string",
          "name": "storageURI",
          "type": "string"
        }
      ],
      "name": "ModelUpdated",
      "type": "event"
    },
    {
      "anonymous": false,
      "inputs": [
        {
          "indexed": true,
          "internalType": "uint256",
          "name": "modelId",
          "type": "uint256"
        },
        {
          "indexed": true,
          "internalType": "address",
          "name": "user",
          "type": "address"
        },
        {
          "indexed": false,
          "internalType": "uint256",
          "name": "fee",
          "type": "uint256"
        }
      ],
      "name": "ModelUsed",
      "type": "event"
    },
    {
      "anonymous": false,
      "inputs": [
        {
          "indexed": true,
          "internalType": "bytes32",
          "name": "role",
          "type": "bytes32"
        },
        {
          "indexed": true,
          "internalType": "bytes32",
          "name": "previousAdminRole",
          "type": "bytes32"
        },
        {
          "indexed": true,
          "internalType": "bytes32",
          "name": "newAdminRole",
          "type": "bytes32"
        }
      ],
      "name": "RoleAdminChanged",
      "type": "event"
    },
    {
      "anonymous": false,
      "inputs": [
        {
          "indexed": true,
          "internalType": "bytes32",
          "name": "role",
          "type": "bytes32"
        },
        {
          "indexed": true,
          "internalType": "address",
          "name": "account",
          "type": "address"
        },
        {
          "indexed": true,
          "internalType": "address",
          "name": "sender",
          "type": "address"
        }
      ],
      "name": "RoleGranted",
      "type": "event"
    },
    {
      "anonymous": false,
      "inputs": [
        {
          "indexed": true,
          "internalType": "bytes32",
          "name": "role",
          "type": "bytes32"
        },
        {
          "indexed": true,
          "internalType": "address",
          "name": "account",
          "type": "address"
        },
        {
          "indexed": true,
          "internalType": "address",
          "name": "sender",
          "type": "address"
        }
      ],
      "name": "RoleRevoked",
      "type": "event"
    },
    {
      "inputs": [],
      "name": "ADMIN_ROLE",
      "outputs": [
        {
          "internalType": "bytes32",
          "name": "",
          "type": "bytes32"
        }
      ],
      "stateMutability": "view",
      "type": "function"
    },
    {
      "inputs": [],
      "name": "DEFAULT_ADMIN_ROLE",
      "outputs": [
        {
          "internalType": "bytes32",
          "name": "",
          "type": "bytes32"
        }
      ],
      "stateMutability": "view",
      "type": "function"
    },
    {
      "inputs": [],
      "name": "MODEL_CREATOR_ROLE",
      "outputs": [
        {
          "internalType": "bytes32",
          "name": "",
          "type": "bytes32"
        }
      ],
      "stateMutability": "view",
      "type": "function"
    },
    {
      "inputs": [
        {
          "internalType": "address",
          "name": "account",
          "type": "address"
        }
      ],
      "name": "addModelCreator",
      "outputs": [],
      "stateMutability": "nonpayable",
      "type": "function"
    },
    {
      "inputs": [
        {
          "internalType": "address",
          "name": "",
          "type": "address"
        },
        {
          "internalType": "uint256",
          "name": "",
          "type": "uint256"
        }
      ],
      "name": "creatorModels",
      "outputs": [
        {
          "internalType": "uint256",
          "name": "",
          "type": "uint256"
        }
      ],
      "stateMutability": "view",
      "type": "function"
    },
    {
      "inputs": [
        {
          "internalType": "uint256",
          "name": "modelId",
          "type": "uint256"
        }
      ],
      "name": "getModel",
      "outputs": [
        {
          "components": [
            {
              "internalType": "uint256",
              "name": "id",
              "type": "uint256"
            },
            {
              "internalType": "address",
              "name": "creator",
              "type": "address"
            },
            {
              "internalType": "string",
              "name": "name",
              "type": "string"
            },
            {
              "internalType": "string",
              "name": "description",
              "type": "string"
            },
            {
              "internalType": "string",
              "name": "modelType",
              "type": "string"
            },
            {
              "internalType": "string",
              "name": "version",
              "type": "string"
            },
            {
              "internalType": "string",
              "name": "storageURI",
              "type": "string"
            },
            {
              "internalType": "string",
              "name": "apiEndpoint",
              "type": "string"
            },
            {
              "internalType": "bool",
              "name": "isActive",
              "type": "bool"
            },
            {
              "internalType": "uint256",
              "name": "createdAt",
              "type": "uint256"
            },
            {
              "internalType": "uint256",
              "name": "updatedAt",
              "type": "uint256"
            },
            {
              "internalType": "uint256",
              "name": "usageCount",
              "type": "uint256"
            },
            {
              "internalType": "uint256",
              "name": "feePerCall",
              "type": "uint256"
            }
          ],
          "internalType": "struct SilicaModelRegistry.ModelMetadata",
          "name": "",
          "type": "tuple"
        }
      ],
      "stateMutability": "view",
      "type": "function"
    },
    {
      "inputs": [],
      "name": "getModelCount",
      "outputs": [
        {
          "internalType": "uint256",
          "name": "",
          "type": "uint256"
        }
      ],
      "stateMutability": "view",
      "type": "function"
    },
    {
      "inputs": [
        {
          "internalType": "address",
          "name": "creator",
          "type": "address"
        }
      ],
      "name": "getModelsByCreator",
      "outputs": [
        {
          "internalType": "uint256[]",
          "name": "",
          "type": "uint256[]"
        }
      ],
      "stateMutability": "view",
      "type": "function"
    },
    {
      "inputs": [
        {
          "internalType": "bytes32",
          "name": "role",
          "type": "bytes32"
        }
      ],
      "name": "getRoleAdmin",
      "outputs": [
        {
          "internalType": "bytes32",
          "name": "",
          "type": "bytes32"
        }
      ],
      "stateMutability": "view",
      "type": "function"
    },
    {
      "inputs": [
        {
          "internalType": "bytes32",
          "name": "role",
          "type": "bytes32"
        },
        {
          "internalType": "address",
          "name": "account",
          "type": "address"
        }
      ],
      "name": "grantRole",
      "outputs": [],
      "stateMutability": "nonpayable",
      "type": "function"
    },
    {
      "inputs": [
        {
          "internalType": "bytes32",
          "name": "role",
          "type": "bytes32"
        },
        {
          "internalType": "address",
          "name": "account",
          "type": "address"
        }
      ],
      "name": "hasRole",
      "outputs": [
        {
          "internalType": "bool",
          "name": "",
          "type": "bool"
        }
      ],
      "stateMutability": "view",
      "type": "function"
    },
    {
      "inputs": [
        {
          "internalType": "string",
          "name": "",
          "type": "string"
        }
      ],
      "name": "modelNameExists",
      "outputs": [
        {
          "internalType": "bool",
          "name": "",
          "type": "bool"
        }
      ],
      "stateMutability": "view",
      "type": "function"
    },
    {
      "inputs": [
        {
          "internalType": "uint256",
          "name": "",
          "type": "uint256"
        }
      ],
      "name": "modelStats",
      "outputs": [
        {
          "internalType": "uint256",
          "name": "totalCalls",
          "type": "uint256"
        },
        {
          "internalType": "uint256",
          "name": "totalRevenue",
          "type": "uint256"
        },
        {
          "internalType": "uint256",
          "name": "lastUsedTimestamp",
          "type": "uint256"
        }
      ],
      "stateMutability": "view",
      "type": "function"
    },
    {
      "inputs": [
        {
          "internalType": "uint256",
          "name": "",
          "type": "uint256"
        }
      ],
      "name": "models",
      "outputs": [
        {
          "internalType": "uint256",
          "name": "id",
          "type": "uint256"
        },
        {
          "internalType": "address",
          "name": "creator",
          "type": "address"
        },
        {
          "internalType": "string",
          "name": "name",
          "type": "string"
        },
        {
          "internalType": "string",
          "name": "description",
          "type": "string"
        },
        {
          "internalType": "string",
          "name": "modelType",
          "type": "string"
        },
        {
          "internalType": "string",
          "name": "version",
          "type": "string"
        },
        {
          "internalType": "string",
          "name": "storageURI",
          "type": "string"
        },
        {
          "internalType": "string",
          "name": "apiEndpoint",
          "type": "string"
        },
        {
          "internalType": "bool",
          "name": "isActive",
          "type": "bool"
        },
        {
          "internalType": "uint256",
          "name": "createdAt",
          "type": "uint256"
        },
        {
          "internalType": "uint256",
          "name": "updatedAt",
          "type": "uint256"
        },
        {
          "internalType": "uint256",
          "name": "usageCount",
          "type": "uint256"
        },
        {
          "internalType": "uint256",
          "name": "feePerCall",
          "type": "uint256"
        }
      ],
      "stateMutability": "view",
      "type": "function"
    },
    {
      "inputs": [
        {
          "internalType": "uint256",
          "name": "modelId",
          "type": "uint256"
        },
        {
          "internalType": "address",
          "name": "user",
          "type": "address"
        },
        {
          "internalType": "address",
          "name": "_paymentToken",
          "type": "address"
        }
      ],
      "name": "recordModelUsage",
      "outputs": [],
      "stateMutability": "nonpayable",
      "type": "function"
    },
    {
      "inputs": [
        {
          "internalType": "string",
          "name": "name",
          "type": "string"
        },
        {
          "internalType": "string",
          "name": "description",
          "type": "string"
        },
        {
          "internalType": "string",
          "name": "modelType",
          "type": "string"
        },
        {
          "internalType": "string",
          "name": "version",
          "type": "string"
        },
        {
          "internalType": "string",
          "name": "storageURI",
          "type": "string"
        },
        {
          "internalType": "string",
          "name": "apiEndpoint",
          "type": "string"
        },
        {
          "internalType": "uint256",
          "name": "feePerCall",
          "type": "uint256"
        }
      ],
      "name": "registerModel",
      "outputs": [
        {
          "internalType": "uint256",
          "name": "",
          "type": "uint256"
        }
      ],
      "stateMutability": "nonpayable",
      "type": "function"
    },
    {
      "inputs": [
        {
          "internalType": "address",
          "name": "account",
          "type": "address"
        }
      ],
      "name": "removeModelCreator",
      "outputs": [],
      "stateMutability": "nonpayable",
      "type": "function"
    },
    {
      "inputs": [
        {
          "internalType": "bytes32",
          "name": "role",
          "type": "bytes32"
        },
        {
          "internalType": "address",
          "name": "account",
          "type": "address"
        }
      ],
      "name": "renounceRole",
      "outputs": [],
      "stateMutability": "nonpayable",
      "type": "function"
    },
    {
      "inputs": [
        {
          "internalType": "bytes32",
          "name": "role",
          "type": "bytes32"
        },
        {
          "internalType": "address",
          "name": "account",
          "type": "address"
        }
      ],
      "name": "revokeRole",
      "outputs": [],
      "stateMutability": "nonpayable",
      "type": "function"
    },
    {
      "inputs": [
        {
          "internalType": "uint256",
          "name": "modelId",
          "type": "uint256"
        },
        {
          "internalType": "bool",
          "name": "isActive",
          "type": "bool"
        }
      ],
      "name": "setModelStatus",
      "outputs": [],
      "stateMutability": "nonpayable",
      "type": "function"
    },
    {
      "inputs": [
        {
          "internalType": "bytes4",
          "name": "interfaceId",
          "type": "bytes4"
        }
      ],
      "name": "supportsInterface",
      "outputs": [
        {
          "internalType": "bool",
          "name": "",
          "type": "bool"
        }
      ],
      "stateMutability": "view",
      "type": "function"
    },
    {
      "inputs": [
        {
          "internalType": "uint256",
          "name": "modelId",
          "type": "uint256"
        },
        {
          "internalType": "string",
          "name": "version",
          "type": "string"
        },
        {
          "internalType": "string",
          "name": "storageURI",
          "type": "string"
        },
        {
          "internalType": "string",
          "name": "apiEndpoint",
          "type": "string"
        }
      ],
      "name": "updateModel",
      "outputs": [],
      "stateMutability": "nonpayable",
      "type": "function"
    },
    {
      "inputs": [
        {
          "internalType": "uint256",
          "name": "modelId",
          "type": "uint256"
        },
        {
          "internalType": "uint256",
          "name": "newFee",
          "type": "uint256"
        }
      ],
      "name": "updateModelFee",
      "outputs": [],
      "stateMutability": "nonpayable",
      "type": "function"
    }
  ],
  "bytecode": "0x608060405234610192576001805533600090815260008051602061243f833981519152602052604090205460ff1615610152575b33600090815260008051602061241f833981519152602052604090205460ff16156100f0575b33600090815260008051602061245f833981519152602052604090205460ff161561008e575b60405161226790816101988239f35b33600081815260008051602061245f83398151915260205260408120805460ff1916600117905581907fb82ec2848b2a2960ee0564ace40057f4a1067567f252cc1f31685ab2f15b1205906000805160206123ff8339815191529080a461007f565b33600081815260008051602061241f83398151915260205260408120805460ff1916600117905581907fa49807205ce4d355092ef5a8a18f56e8913cf4a201fbe287825b095693c21775906000805160206123ff8339815191529080a4610059565b33600081815260008051602061243f83398151915260205260408120805460ff1916600117905581906000805160206123ff8339815191528180a4610033565b600080fdfe608080604052600436101561001357600080fd5b60003560e01c90816301ffc9a714611ae25750806312afeae214611a29578063248a9ca3146119f45780632d8cf8ff1461187b5780632f2ff15d146117bf57806336568abe1461172d57806339b711f214611704578063408abc9f1461164a57806341c675b41461159d5780634989dbb01461157f5780636a030ca9146114425780636d361694146111d057806375b238fc146111a75780637ba8ee4714610e045780637bf7c843146104605780637f40f6f1146103ab57806391d148541461035e57806398d926d71461031b578063a217fddf146102ff578063a8e215a81461028d578063c271f1bc14610234578063d547741f146101ed5763ddb4e00c1461011c57600080fd5b346101e85760403660031901126101e857600435602435801515908181036101e8577fe7539b0899ca5a57a1675dfb6cf15cdde410461e8d402f2be83b5292c5b367a5916101b260209285600052600384526008604060002060018060a01b03600182015416331480156101bb575b61019490611dd9565b6101a088825414611d87565b019060ff801983541691151516179055565b604051908152a2005b506000805160206121d283398151915260009081528087526040808220338352885290205460ff1661018b565b600080fd5b346101e85760403660031901126101e85761023260043561020c611b4b565b9061022d61022882600052600060205260016040600020015490565b611f14565b611f52565b005b346101e85760403660031901126101e85761024d611b35565b6001600160a01b03166000908152600560205260409020805460243591908210156101e85760209161027e91611d59565b90549060031b1c604051908152f35b346101e85760203660031901126101e8576004356001600160401b0381116101e857366023820112156101e85760ff6102e960206102d681943690602481600401359101611d22565b8160405193828580945193849201611c92565b8101600681520301902054166040519015158152f35b346101e85760003660031901126101e857602060405160008152f35b346101e85760203660031901126101e857600435600052600460205260606040600020805490600260018201549101549060405192835260208301526040820152f35b346101e85760403660031901126101e857610377611b4b565b600435600052600060205260406000209060018060a01b0316600052602052602060ff604060002054166040519015158152f35b346101e85760203660031901126101e8576103c4611b35565b6103cc611eb3565b6001600160a01b03811660009081526000805160206121f2833981519152602052604090205460ff166103fb57005b6001600160a01b031660008181526000805160206121f283398151915260205260408120805460ff19169055339190600080516020612212833981519152907ff6391f5c32d9c69d2a47ea670b442974b53935d1edc7fd64eb21e047a839171b9080a4005b346101e85760e03660031901126101e8576004356001600160401b0381116101e857610490903690600401611cda565b906024356001600160401b0381116101e8576104b0903690600401611cda565b91906044356001600160401b0381116101e8576104d1903690600401611cda565b916064356001600160401b0381116101e8576104f1903690600401611cda565b6084356001600160401b0381116101e857610510903690600401611cda565b97909260a4356001600160401b0381116101e857610532903690600401611cda565b3360009081526000805160206121f28339815191526020526040902054919a90949160ff1615610d36578b15610cf1578015610cac5760405160ff906020818f808f8337810160068152030190205416610c67578b946002549b8c9761059789611dca565b600255604051996105a78b611bb1565b898b528d60208c0199338b5236906105be92611d22565b9760408c0198895236906105d192611d22565b60608b01908152956105e4368e8e611d22565b9560808c0196875236906105f792611d22565b9360a08b01948552369061060a92611d22565b9160c08a01928352369061061d92611d22565b9160e08901928352610100890193600185526101208a01954287526101408b01974289526101608c019960008b526101808d019b60c4358d52600052600360205260406000209c518d5560018d0190600160a01b600190039051166bffffffffffffffffffffffff60a01b82541617905560028c0190518051906001600160401b0382116109d1576106b9826106b38554611b77565b85611e16565b602090601f8311600114610c00576106ea9291600091836109e7575b50508160011b916000199060031b1c19161790565b90555b51805160038c01916001600160401b0382116109d157610711826106b38554611b77565b602090601f8311600114610b99576107419291600091836109e75750508160011b916000199060031b1c19161790565b90555b51805160048b01916001600160401b0382116109d157610768826106b38554611b77565b602090601f8311600114610b32576107989291600091836109e75750508160011b916000199060031b1c19161790565b90555b51805160058a01916001600160401b0382116109d1576107bf826106b38554611b77565b602090601f8311600114610acb576107ef9291600091836109e75750508160011b916000199060031b1c19161790565b90555b51805160068901916001600160401b0382116109d157610816826106b38554611b77565b602090601f8311600114610a64576108469291600091836109e75750508160011b916000199060031b1c19161790565b90555b51805160078801916001600160401b0382116109d15761086d826106b38554611b77565b602090601f83116001146109f25782600c9998979695936108c495936108a9936000926109e75750508160011b916000199060031b1c19161790565b90555b511515600888019060ff801983541691151516179055565b51600986015551600a85015551600b84015551910155604051606081018181106001600160401b038211176109d157604052600081526002602082016000815260408301906000825287600052600460205260406000209351845551600184015551910155336000526005602052604060002090815495680100000000000000008710156109d1576109c68694610984897fd942d684be94c8a3e39416fe95cb641ed85794834191c1ea248951c91898159d96600160209c018155611d59565b81549060031b9088821b91600019901b19161790556040518388823789818581016006815203019020600160ff19825416179055604051938493339885611e89565b0390a3604051908152f35b634e487b7160e01b600052604160045260246000fd5b0151905038806106d5565b90601f1983169184600052816000209260005b818110610a4c5750926001928592600c9c9b9a9998966108c4989610610a33575b505050811b0190556108ac565b015160001960f88460031b161c19169055388080610a26565b92936020600181928786015181550195019301610a05565b90601f1983169184600052816000209260005b818110610ab35750908460019594939210610a9a575b505050811b019055610849565b015160001960f88460031b161c191690558f8080610a8d565b92936020600181928786015181550195019301610a77565b90601f1983169184600052816000209260005b818110610b1a5750908460019594939210610b01575b505050811b0190556107f2565b015160001960f88460031b161c19169055388080610af4565b92936020600181928786015181550195019301610ade565b90601f1983169184600052816000209260005b818110610b815750908460019594939210610b68575b505050811b01905561079b565b015160001960f88460031b161c19169055388080610b5b565b92936020600181928786015181550195019301610b45565b90601f1983169184600052816000209260005b818110610be85750908460019594939210610bcf575b505050811b019055610744565b015160001960f88460031b161c19169055388080610bc2565b92936020600181928786015181550195019301610bac565b90601f1983169184600052816000209260005b818110610c4f5750908460019594939210610c36575b505050811b0190556106ed565b015160001960f88460031b161c19169055388080610c29565b92936020600181928786015181550195019301610c13565b60405162461bcd60e51b815260206004820152601960248201527f4d6f64656c206e616d6520616c726561647920657869737473000000000000006044820152606490fd5b60405162461bcd60e51b815260206004820152601b60248201527f53746f72616765205552492063616e6e6f7420626520656d70747900000000006044820152606490fd5b60405162461bcd60e51b815260206004820152601a60248201527f4d6f64656c206e616d652063616e6e6f7420626520656d7074790000000000006044820152606490fd5b610e00610d4233611fe5565b610de06011610d5e600080516020612212833981519152612125565b9260376040519485927f416363657373436f6e74726f6c3a206163636f756e74200000000000000000006020850152610da08151809260208688019101611c92565b83017001034b99036b4b9b9b4b733903937b6329607d1b83820152610dcf825180936020604885019101611c92565b01010301601f198101835282611bcd565b60405162461bcd60e51b8152602060048201529182916024830190611cb5565b0390fd5b346101e85760803660031901126101e8576004356024356001600160401b0381116101e857610e37903690600401611cda565b6044929192356001600160401b0381116101e857610e59903690600401611cda565b6064949194356001600160401b0381116101e857610e7b903690600401611cda565b85600097929752600360205260406000209060018060a01b036001830154163314801561116f575b610eac90611dd9565b610eb887835414611d87565b600582016001600160401b0387116109d157610ede87610ed88354611b77565b83611e16565b600087601f811160011461110c5780610f0d92600091611101575b508160011b916000199060031b1c19161790565b90555b600682016001600160401b0385116109d157610f3085610ed88354611b77565b600085601f811160011461109e5780610f5e9260009161109357508160011b916000199060031b1c19161790565b90555b60078201906001600160401b0381116109d157610f8881610f828454611b77565b84611e16565b6000601f82116001146110065781610ff69695949392610fe1927fe7af39a16dc477d0ffd3a154d963329fb58db1d8394b37160c209b8cd713bc139b9c600092610ffb5750508160011b916000199060031b1c19161790565b90555b600a4291015560405194859485611e89565b0390a2005b013590508c806106d5565b8281526020812090601f198316815b81811061107b5750917fe7af39a16dc477d0ffd3a154d963329fb58db1d8394b37160c209b8cd713bc139a9b8492610ff6999897969560019510611061575b505050811b019055610fe4565b0135600019600384901b60f8161c191690558b8080611054565b91926020600181928f87013581550194019201611015565b90508601358c610ef9565b50818152602081209086601f198116825b8181106110e65750106110cc575b5050600185811b019055610f61565b850135600019600388901b60f8161c1916905589806110bd565b8884013585556001909401936020938401938a9350016110af565b90508801358c610ef9565b50818152602081209088601f198116825b81811061115457501061113a575b5050600187811b019055610f10565b87013560001960038a901b60f8161c19169055898061112b565b8a84013585556001909401936020938401938c93500161111d565b503360009081527f7d7ffb7a348e1c6a02869081a26547b49160dd3df72d1d75a570eb9b698292ec602052604090205460ff16610ea3565b346101e85760003660031901126101e85760206040516000805160206121d28339815191528152f35b346101e85760203660031901126101e8576004356040516111f081611bb1565b60008152602081016000905260408101606090526060810160609052608081016060905260a081016060905260c081016060905260e08101606090526101008101600090526101208101600090526101408101600090526101608101600090526101800160009052806000526003602052806040600020541461127290611d87565b6000526003602052604060002060405161128b81611bb1565b8154815260018201546001600160a01b031660208201908152916112b160028201611bee565b604083019081526112c460038301611bee565b60608401908152916112d860048201611bee565b60808501908152926112ec60058301611bee565b60a086019081529361130060068401611bee565b60c0870190815261131360078501611bee565b9060e08801918252600885015460ff1696610100890197151588526009860154936101208a01948552600a870154956101408b01968752600b880154976101608c01988952600c0154986101808c01998a526040519c8d809d60208252519060200152600160a01b6001900390511660408d01525160608c016101a090526101c08c0161139f91611cb5565b90518b8203601f190160808d01526113b79190611cb5565b90518a8203601f190160a08c01526113cf9190611cb5565b9051898203601f190160c08b01526113e79190611cb5565b9051888203601f190160e08a01526113ff9190611cb5565b9051878203601f19016101008901526114189190611cb5565b94511515610120870152516101408601525161016085015251610180840152516101a08301520390f35b346101e85760203660031901126101e8576004356000908152600360205260409020805460018201546001600160a01b03169161148160028201611bee565b61148d60038301611bee565b9161149a60048201611bee565b926114a760058301611bee565b936114b460068401611bee565b6114c060078501611bee565b90600885015460ff1696600986015493600a87015495600b88015497600c0154986040519c8d9c8d5260208d015260408c016101a090526101a08c0161150591611cb5565b8b810360608d015261151691611cb5565b8a810360808c015261152791611cb5565b89810360a08b015261153891611cb5565b88810360c08a015261154991611cb5565b87810360e089015261155a91611cb5565b9415156101008701526101208601526101408501526101608401526101808301520390f35b346101e85760003660031901126101e8576020600254604051908152f35b346101e85760403660031901126101e8576004357f528d9479e9f9889a87a3c30c7f7ba537e5e59c4c85a37733b16e57c62df613026020602435836000526003825280600c604060002060018060a01b036001820154163314801561161d575b61160690611dd9565b61161287825414611d87565b0155604051908152a2005b506000805160206121d283398151915260009081528086526040808220338352875290205460ff166115fd565b346101e85760203660031901126101e8576001600160a01b0361166b611b35565b16600052600560205260406000206040518060208354918281520190819360005260206000209060005b8181106116ee57505050816116ab910382611bcd565b6040519182916020830190602084525180915260408301919060005b8181106116d5575050500390f35b82518452859450602093840193909201916001016116c7565b8254845260209093019260019283019201611695565b346101e85760003660031901126101e85760206040516000805160206122128339815191528152f35b346101e85760403660031901126101e857611746611b4b565b336001600160a01b038216036117625761023290600435611f52565b60405162461bcd60e51b815260206004820152602f60248201527f416363657373436f6e74726f6c3a2063616e206f6e6c792072656e6f756e636560448201526e103937b632b9903337b91039b2b63360891b6064820152608490fd5b346101e85760403660031901126101e8576004356117db611b4b565b906117f761022882600052600060205260016040600020015490565b6000818152602081815260408083206001600160a01b038616845290915290205460ff161561182257005b6000818152602081815260408083206001600160a01b0395909516808452949091528120805460ff19166001179055339291907f2f8788117e7eff1d82e926ec794901d17c78024a50270940304540a733656f0d9080a4005b346101e85760603660031901126101e857600435611897611b4b565b906118a0611b61565b506002600154146119af57600260015580600052600360205260406000206118ca82825414611d87565b60ff6008820154161561197457600b81016118e58154611dca565b9055816000526004602052600c6040600020916119028354611dca565b835501908154916001820191825493840180941161195e577f89f8ee66cc6df04f60436a259f4cf166bf30ad0c4debea721445202b324245249360209355600242910155549360405194855260018060a01b031693a360018055005b634e487b7160e01b600052601160045260246000fd5b60405162461bcd60e51b81526020600482015260136024820152724d6f64656c206973206e6f742061637469766560681b6044820152606490fd5b60405162461bcd60e51b815260206004820152601f60248201527f5265656e7472616e637947756172643a207265656e7472616e742063616c6c006044820152606490fd5b346101e85760203660031901126101e8576020611a21600435600052600060205260016040600020015490565b604051908152f35b346101e85760203660031901126101e857611a42611b35565b611a4a611eb3565b6001600160a01b03811660009081526000805160206121f2833981519152602052604090205460ff1615611a7a57005b6001600160a01b031660008181526000805160206121f283398151915260205260408120805460ff19166001179055339190600080516020612212833981519152907f2f8788117e7eff1d82e926ec794901d17c78024a50270940304540a733656f0d9080a4005b346101e85760203660031901126101e8576004359063ffffffff60e01b82168092036101e857602091637965db0b60e01b8114908115611b24575b5015158152f35b6301ffc9a760e01b14905083611b1d565b600435906001600160a01b03821682036101e857565b602435906001600160a01b03821682036101e857565b604435906001600160a01b03821682036101e857565b90600182811c92168015611ba7575b6020831014611b9157565b634e487b7160e01b600052602260045260246000fd5b91607f1691611b86565b6101a081019081106001600160401b038211176109d157604052565b90601f801991011681019081106001600160401b038211176109d157604052565b9060405191826000825492611c0284611b77565b8084529360018116908115611c705750600114611c29575b50611c2792500383611bcd565b565b90506000929192526020600020906000915b818310611c54575050906020611c279282010138611c1a565b6020919350806001915483858901015201910190918492611c3b565b905060209250611c2794915060ff191682840152151560051b82010138611c1a565b60005b838110611ca55750506000910152565b8181015183820152602001611c95565b90602091611cce81518092818552858086019101611c92565b601f01601f1916010190565b9181601f840112156101e8578235916001600160401b0383116101e857602083818601950101116101e857565b6001600160401b0381116109d157601f01601f191660200190565b929192611d2e82611d07565b91611d3c6040519384611bcd565b8294818452818301116101e8578281602093846000960137010152565b8054821015611d715760005260206000200190600090565b634e487b7160e01b600052603260045260246000fd5b15611d8e57565b60405162461bcd60e51b8152602060048201526014602482015273135bd9195b08191bd95cc81b9bdd08195e1a5cdd60621b6044820152606490fd5b600019811461195e5760010190565b15611de057565b60405162461bcd60e51b815260206004820152600e60248201526d139bdd08185d5d1a1bdc9a5e995960921b6044820152606490fd5b601f8211611e2357505050565b6000526020600020906020601f840160051c83019310611e5e575b601f0160051c01905b818110611e52575050565b60008155600101611e47565b9091508190611e3e565b908060209392818452848401376000828201840152601f01601f1916010190565b9290611ea290611eb09593604086526040860191611e68565b926020818503910152611e68565b90565b3360009081527f7d7ffb7a348e1c6a02869081a26547b49160dd3df72d1d75a570eb9b698292ec602052604090205460ff1615611eec57565b610e00611ef833611fe5565b610de06011610d5e6000805160206121d2833981519152612125565b60008181526020818152604080832033845290915290205460ff1615611f375750565b610e0090610de06011610d5e611f4c33611fe5565b93612125565b6000818152602081815260408083206001600160a01b038616845290915290205460ff16611f7e575050565b6000818152602081815260408083206001600160a01b0395909516808452949091528120805460ff19169055339291907ff6391f5c32d9c69d2a47ea670b442974b53935d1edc7fd64eb21e047a839171b9080a4565b908151811015611d71570160200190565b600090611ff2602a611d07565b916120006040519384611bcd565b602a835261200e602a611d07565b6020840190601f190136823783511561211157603090538251600110156120fd576078602184015350602960005b6001821161209157505061204d5790565b606460405162461bcd60e51b815260206004820152602060248201527f537472696e67733a20686578206c656e67746820696e73756666696369656e746044820152fd5b9091600f811660108110156120e9576f181899199a1a9b1b9c1cb0b131b232b360811b901a6120c08486611fd4565b5360041c9180156120d557600019019061203c565b634e487b7160e01b82526011600452602482fd5b634e487b7160e01b83526032600452602483fd5b634e487b7160e01b81526032600452602490fd5b634e487b7160e01b82526032600452602482fd5b6000906121326042611d07565b916121406040519384611bcd565b6042835261214e6042611d07565b6020840190601f190136823783511561211157603090538251600110156120fd576078602184015350604160005b6001821161218d57505061204d5790565b9091600f811660108110156120e9576f181899199a1a9b1b9c1cb0b131b232b360811b901a6121bc8486611fd4565b5360041c9180156120d557600019019061217c56fea49807205ce4d355092ef5a8a18f56e8913cf4a201fbe287825b095693c217755efd393733146c9f5f151bcdfa0150ad844998f9f664e12fd5666abed6b02104b82ec2848b2a2960ee0564ace40057f4a1067567f252cc1f31685ab2f15b1205a2646970667358221220e1ebc1f87187b5988c7b1110fbbd1a9ed4013ef4d6b0e5a264fe96ba340ce28164736f6c634300081c00332f8788117e7eff1d82e926ec794901d17c78024a50270940304540a733656f0d7d7ffb7a348e1c6a02869081a26547b49160dd3df72d1d75a570eb9b698292ecad3228b676f7d3cd4284a5443f17f1962b36e491b30a40b2405849e597ba5fb55efd393733146c9f5f151bcdfa0150ad844998f9f664e12fd5666abed6b02104",
  "linkReferences": {},
  "deployedLinkReferences": {}
}