{"contracts/SilicaToken.sol":{"SilicaToken":{"abi":[{"inputs":[],"stateMutability":"nonpayable","type":"constructor"},{"inputs":[],"name":"InvalidShortString","type":"error"},{"inputs":[{"internalType":"string","name":"str","type":"string"}],"name":"StringTooLong","type":"error"},{"anonymous":false,"inputs":[{"indexed":true,"internalType":"address","name":"owner","type":"address"},{"indexed":true,"internalType":"address","name":"spender","type":"address"},{"indexed":false,"internalType":"uint256","name":"value","type":"uint256"}],"name":"Approval","type":"event"},{"anonymous":false,"inputs":[{"indexed":true,"internalType":"address","name":"delegator","type":"address"},{"indexed":true,"internalType":"address","name":"fromDelegate","type":"address"},{"indexed":true,"internalType":"address","name":"toDelegate","type":"address"}],"name":"DelegateChanged","type":"event"},{"anonymous":false,"inputs":[{"indexed":true,"internalType":"address","name":"delegate","type":"address"},{"indexed":false,"internalType":"uint256","name":"previousBalance","type":"uint256"},{"indexed":false,"internalType":"uint256","name":"newBalance","type":"uint256"}],"name":"DelegateVotesChanged","type":"event"},{"anonymous":false,"inputs":[],"name":"EIP712DomainChanged","type":"event"},{"anonymous":false,"inputs":[{"indexed":true,"internalType":"address","name":"previousOwner","type":"address"},{"indexed":true,"internalType":"address","name":"newOwner","type":"address"}],"name":"OwnershipTransferred","type":"event"},{"anonymous":false,"inputs":[{"indexed":true,"internalType":"bytes32","name":"role","type":"bytes32"},{"indexed":true,"internalType":"bytes32","name":"previousAdminRole","type":"bytes32"},{"indexed":true,"internalType":"bytes32","name":"newAdminRole","type":"bytes32"}],"name":"RoleAdminChanged","type":"event"},{"anonymous":false,"inputs":[{"indexed":true,"internalType":"bytes32","name":"role","type":"bytes32"},{"indexed":true,"internalType":"address","name":"account","type":"address"},{"indexed":true,"internalType":"address","name":"sender","type":"address"}],"name":"RoleGranted","type":"event"},{"anonymous":false,"inputs":[{"indexed":true,"internalType":"bytes32","name":"role","type":"bytes32"},{"indexed":true,"internalType":"address","name":"account","type":"address"},{"indexed":true,"internalType":"address","name":"sender","type":"address"}],"name":"RoleRevoked","type":"event"},{"anonymous":false,"inputs":[{"indexed":false,"internalType":"address","name":"from","type":"address"},{"indexed":false,"internalType":"uint256","name":"amount","type":"uint256"}],"name":"TokensBurned","type":"event"},{"anonymous":false,"inputs":[{"indexed":false,"internalType":"address","name":"to","type":"address"},{"indexed":false,"internalType":"uint256","name":"amount","type":"uint256"}],"name":"TokensMinted","type":"event"},{"anonymous":false,"inputs":[{"indexed":true,"internalType":"address","name":"from","type":"address"},{"indexed":true,"internalType":"address","name":"to","type":"address"},{"indexed":false,"internalType":"uint256","name":"value","type":"uint256"}],"name":"Transfer","type":"event"},{"inputs":[],"name":"AI_CONTROLLER_ROLE","outputs":[{"internalType":"bytes32","name":"","type":"bytes32"}],"stateMutability":"view","type":"function"},{"inputs":[],"name":"CLOCK_MODE","outputs":[{"internalType":"string","name":"","type":"string"}],"stateMutability":"view","type":"function"},{"inputs":[],"name":"DEFAULT_ADMIN_ROLE","outputs":[{"internalType":"bytes32","name":"","type":"bytes32"}],"stateMutability":"view","type":"function"},{"inputs":[],"name":"DOMAIN_SEPARATOR","outputs":[{"internalType":"bytes32","name":"","type":"bytes32"}],"stateMutability":"view","type":"function"},{"inputs":[],"name":"INITIAL_SUPPLY","outputs":[{"internalType":"uint256","name":"","type":"uint256"}],"stateMutability":"view","type":"function"},{"inputs":[{"internalType":"address","name":"controller","type":"address"}],"name":"addAIController","outputs":[],"stateMutability":"nonpayable","type":"function"},{"inputs":[{"internalType":"address","name":"from","type":"address"},{"internalType":"uint256","name":"amount","type":"uint256"}],"name":"aiBurn","outputs":[],"stateMutability":"nonpayable","type":"function"},{"inputs":[{"internalType":"address","name":"to","type":"address"},{"internalType":"uint256","name":"amount","type":"uint256"}],"name":"aiMint","outputs":[],"stateMutability":"nonpayable","type":"function"},{"inputs":[{"internalType":"address","name":"owner","type":"address"},{"internalType":"address","name":"spender","type":"address"}],"name":"allowance","outputs":[{"internalType":"uint256","name":"","type":"uint256"}],"stateMutability":"view","type":"function"},{"inputs":[{"internalType":"address","name":"spender","type":"address"},{"internalType":"uint256","name":"amount","type":"uint256"}],"name":"approve","outputs":[{"internalType":"bool","name":"","type":"bool"}],"stateMutability":"nonpayable","type":"function"},{"inputs":[{"internalType":"address","name":"account","type":"address"}],"name":"balanceOf","outputs":[{"internalType":"uint256","name":"","type":"uint256"}],"stateMutability":"view","type":"function"},{"inputs":[{"internalType":"address","name":"account","type":"address"},{"internalType":"uint32","name":"pos","type":"uint32"}],"name":"checkpoints","outputs":[{"components":[{"internalType":"uint32","name":"fromBlock","type":"uint32"},{"internalType":"uint224","name":"votes","type":"uint224"}],"internalType":"struct ERC20Votes.Checkpoint","name":"","type":"tuple"}],"stateMutability":"view","type":"function"},{"inputs":[],"name":"clock","outputs":[{"internalType":"uint48","name":"","type":"uint48"}],"stateMutability":"view","type":"function"},{"inputs":[],"name":"decimals","outputs":[{"internalType":"uint8","name":"","type":"uint8"}],"stateMutability":"view","type":"function"},{"inputs":[{"internalType":"address","name":"spender","type":"address"},{"internalType":"uint256","name":"subtractedValue","type":"uint256"}],"name":"decreaseAllowance","outputs":[{"internalType":"bool","name":"","type":"bool"}],"stateMutability":"nonpayable","type":"function"},{"inputs":[{"internalType":"address","name":"delegatee","type":"address"}],"name":"delegate","outputs":[],"stateMutability":"nonpayable","type":"function"},{"inputs":[{"internalType":"address","name":"delegatee","type":"address"},{"internalType":"uint256","name":"nonce","type":"uint256"},{"internalType":"uint256","name":"expiry","type":"uint256"},{"internalType":"uint8","name":"v","type":"uint8"},{"internalType":"bytes32","name":"r","type":"bytes32"},{"internalType":"bytes32","name":"s","type":"bytes32"}],"name":"delegateBySig","outputs":[],"stateMutability":"nonpayable","type":"function"},{"inputs":[{"internalType":"address","name":"account","type":"address"}],"name":"delegates","outputs":[{"internalType":"address","name":"","type":"address"}],"stateMutability":"view","type":"function"},{"inputs":[],"name":"eip712Domain","outputs":[{"internalType":"bytes1","name":"fields","type":"bytes1"},{"internalType":"string","name":"name","type":"string"},{"internalType":"string","name":"version","type":"string"},{"internalType":"uint256","name":"chainId","type":"uint256"},{"internalType":"address","name":"verifyingContract","type":"address"},{"internalType":"bytes32","name":"salt","type":"bytes32"},{"internalType":"uint256[]","name":"extensions","type":"uint256[]"}],"stateMutability":"view","type":"function"},{"inputs":[{"internalType":"uint256","name":"timepoint","type":"uint256"}],"name":"getPastTotalSupply","outputs":[{"internalType":"uint256","name":"","type":"uint256"}],"stateMutability":"view","type":"function"},{"inputs":[{"internalType":"address","name":"account","type":"address"},{"internalType":"uint256","name":"timepoint","type":"uint256"}],"name":"getPastVotes","outputs":[{"internalType":"uint256","name":"","type":"uint256"}],"stateMutability":"view","type":"function"},{"inputs":[{"internalType":"bytes32","name":"role","type":"bytes32"}],"name":"getRoleAdmin","outputs":[{"internalType":"bytes32","name":"","type":"bytes32"}],"stateMutability":"view","type":"function"},{"inputs":[{"internalType":"address","name":"account","type":"address"}],"name":"getVotes","outputs":[{"internalType":"uint256","name":"","type":"uint256"}],"stateMutability":"view","type":"function"},{"inputs":[{"internalType":"bytes32","name":"role","type":"bytes32"},{"internalType":"address","name":"account","type":"address"}],"name":"grantRole","outputs":[],"stateMutability":"nonpayable","type":"function"},{"inputs":[{"internalType":"bytes32","name":"role","type":"bytes32"},{"internalType":"address","name":"account","type":"address"}],"name":"hasRole","outputs":[{"internalType":"bool","name":"","type":"bool"}],"stateMutability":"view","type":"function"},{"inputs":[{"internalType":"address","name":"spender","type":"address"},{"internalType":"uint256","name":"addedValue","type":"uint256"}],"name":"increaseAllowance","outputs":[{"internalType":"bool","name":"","type":"bool"}],"stateMutability":"nonpayable","type":"function"},{"inputs":[],"name":"maxSupply","outputs":[{"internalType":"uint256","name":"","type":"uint256"}],"stateMutability":"view","type":"function"},{"inputs":[{"internalType":"address","name":"to","type":"address"},{"internalType":"uint256","name":"amount","type":"uint256"}],"name":"mint","outputs":[],"stateMutability":"nonpayable","type":"function"},{"inputs":[],"name":"name","outputs":[{"internalType":"string","name":"","type":"string"}],"stateMutability":"view","type":"function"},{"inputs":[{"internalType":"address","name":"owner","type":"address"}],"name":"nonces","outputs":[{"internalType":"uint256","name":"","type":"uint256"}],"stateMutability":"view","type":"function"},{"inputs":[{"internalType":"address","name":"account","type":"address"}],"name":"numCheckpoints","outputs":[{"internalType":"uint32","name":"","type":"uint32"}],"stateMutability":"view","type":"function"},{"inputs":[],"name":"owner","outputs":[{"internalType":"address","name":"","type":"address"}],"stateMutability":"view","type":"function"},{"inputs":[{"internalType":"address","name":"owner","type":"address"},{"internalType":"address","name":"spender","type":"address"},{"internalType":"uint256","name":"value","type":"uint256"},{"internalType":"uint256","name":"deadline","type":"uint256"},{"internalType":"uint8","name":"v","type":"uint8"},{"internalType":"bytes32","name":"r","type":"bytes32"},{"internalType":"bytes32","name":"s","type":"bytes32"}],"name":"permit","outputs":[],"stateMutability":"nonpayable","type":"function"},{"inputs":[{"internalType":"address","name":"controller","type":"address"}],"name":"removeAIController","outputs":[],"stateMutability":"nonpayable","type":"function"},{"inputs":[],"name":"renounceOwnership","outputs":[],"stateMutability":"nonpayable","type":"function"},{"inputs":[{"internalType":"bytes32","name":"role","type":"bytes32"},{"internalType":"address","name":"account","type":"address"}],"name":"renounceRole","outputs":[],"stateMutability":"nonpayable","type":"function"},{"inputs":[{"internalType":"bytes32","name":"role","type":"bytes32"},{"internalType":"address","name":"account","type":"address"}],"name":"revokeRole","outputs":[],"stateMutability":"nonpayable","type":"function"},{"inputs":[{"internalType":"uint256","name":"newMaxSupply","type":"uint256"}],"name":"setMaxSupply","outputs":[],"stateMutability":"nonpayable","type":"function"},{"inputs":[{"internalType":"bytes4","name":"interfaceId","type":"bytes4"}],"name":"supportsInterface","outputs":[{"internalType":"bool","name":"","type":"bool"}],"stateMutability":"view","type":"function"},{"inputs":[],"name":"symbol","outputs":[{"internalType":"string","name":"","type":"string"}],"stateMutability":"view","type":"function"},{"inputs":[],"name":"totalSupply","outputs":[{"internalType":"uint256","name":"","type":"uint256"}],"stateMutability":"view","type":"function"},{"inputs":[{"internalType":"address","name":"to","type":"address"},{"internalType":"uint256","name":"amount","type":"uint256"}],"name":"transfer","outputs":[{"internalType":"bool","name":"","type":"bool"}],"stateMutability":"nonpayable","type":"function"},{"inputs":[{"internalType":"address","name":"from","type":"address"},{"internalType":"address","name":"to","type":"address"},{"internalType":"uint256","name":"amount","type":"uint256"}],"name":"transferFrom","outputs":[{"internalType":"bool","name":"","type":"bool"}],"stateMutability":"nonpayable","type":"function"},{"inputs":[{"internalType":"address","name":"newOwner","type":"address"}],"name":"transferOwnership","outputs":[],"stateMutability":"nonpayable","type":"function"}],"evm":{"bytecode":{"linkReferences":{},"object":"6101606040523461020d57610012610286565b61001a610286565b9061002361025c565b906214d25360ea1b6020830152610038610271565b603160f81b60208201908152845190949193916001600160401b0382116102085761006d826100686003546102aa565b6102e4565b602090601f831160011461017e5791806100a3926100ab9594600092610173575b50508160011b916000199060031b1c19161790565b600355610389565b6100b4816104b0565b610120526100c1826105ab565b610140526020815191012060e052519020610100524660a0526100e26106a3565b6080523060c0526100f233610467565b6101076b033b2e3c9fd0803ce8000000600e55565b61011033610766565b6101193361085a565b610122336108f5565b6040516132e2908161103682396080518161224a015260a05181612307015260c05181612214015260e05181612299015261010051816122bf01526101205181610e6501526101405181610e8e0152f35b01519050388061008e565b6003600052601f19831691907fc2575a0e9e593c00f959f8c92f12db2869c3395a3b0502d05e2516446f71f85b9260005b8181106101f057509160019391856100ab979694106101d7575b505050811b01600355610389565b015160001960f88460031b161c191690553880806101c9565b929360206001819287860151815501950193016101af565b610212565b600080fd5b634e487b7160e01b600052604160045260246000fd5b601f909101601f19168101906001600160401b0382119082101761020857604052565b6040519061025a604083610228565b565b6040519061026b604083610228565b60038252565b60405190610280604083610228565b60018252565b60405190610295604083610228565b600682526553696c69636160d01b6020830152565b90600182811c921680156102da575b60208310146102c457565b634e487b7160e01b600052602260045260246000fd5b91607f16916102b9565b601f81116102f0575050565b60036000526020600020906020601f840160051c8301931061032d575b601f0160051c01905b818110610321575050565b60008155600101610316565b909150819061030d565b601f821161034457505050565b6000526020600020906020601f840160051c8301931061037f575b601f0160051c01905b818110610373575050565b60008155600101610368565b909150819061035f565b80519091906001600160401b038111610208576103b2816103ab6004546102aa565b6004610337565b602092601f82116001146103e8576103e3929382916000926101735750508160011b916000199060031b1c19161790565b600455565b6004600052601f198216937f8a35acfbc15ff81a39ae7d344fd709f28e8600b4aa8c65c6b64bfe7fe36bd19b9160005b86811061044f5750836001959610610436575b505050811b01600455565b015160001960f88460031b161c1916905538808061042b565b91926020600181928685015181550194019201610418565b600d80546001600160a01b039283166001600160a01b0319821681179092559091167f8be0079c531659141344cd1fd0a4f28419497f9722a3daafe3b4186f6b6457e0600080a3565b908151602081106000146104cc5750906104c9906109ba565b90565b6001600160401b038111610208576104f0816104e96005546102aa565b6005610337565b602092601f821160011461052957610521929382916000926101735750508160011b916000199060031b1c19161790565b60055560ff90565b6005600052601f198216937f036b6384b5eca791c62761152d0c79bb0604c104a5fb6f4eb0703f3154bb3db09160005b868110610593575083600195961061057a575b505050811b0160055560ff90565b015160001960f88460031b161c1916905538808061056c565b91926020600181928685015181550194019201610559565b908151602081106000146105c45750906104c9906109ba565b6001600160401b038111610208576105e8816105e16006546102aa565b6006610337565b602092601f821160011461062157610619929382916000926101735750508160011b916000199060031b1c19161790565b60065560ff90565b6006600052601f198216937ff652222313e28459528d920b65115c16c04f3efc82aaedc97be59f3f377c0d3f9160005b86811061068b5750836001959610610672575b505050811b0160065560ff90565b015160001960f88460031b161c19169055388080610664565b91926020600181928685015181550194019201610651565b60e051610100516040519060208201927f8b73c3c69bb8fe3d512ecc4cf759cc79239f7b179b0ffacaa9a75d522b39400f8452604083015260608201524660808201523060a082015260a081526106fb60c082610228565b51902090565b1561070857565b60405162461bcd60e51b815260206004820152603060248201527f4552433230566f7465733a20746f74616c20737570706c79207269736b73206f60448201526f766572666c6f77696e6720766f74657360801b6064820152608490fd5b6001600160a01b0381168015610815576107e7916a52b7d2dcc80cd2e40000009161079b61079684600254610a44565b600255565b6001600160a01b038216600090815260208181526040808320805487019055518581527fddf252ad1be2c89b69c2b068fc378daa952ba7f163c4a11628f55a4df523b3ef9190a3610e9a565b6002546107fd906001600160e01b031015610701565b6108116a52b7d2dcc80cd2e4000000610aef565b5050565b60405162461bcd60e51b815260206004820152601f60248201527f45524332303a206d696e7420746f20746865207a65726f2061646472657373006044820152606490fd5b6001600160a01b03811660009081527f13649b2456f1b42fef0f0040b3aaeabcd21a76a0f3f5defd4f583839455116e8602052604090205460ff161561089d5750565b6001600160a01b031660008181527f13649b2456f1b42fef0f0040b3aaeabcd21a76a0f3f5defd4f583839455116e860205260408120805460ff191660011790553391906000805160206143188339815191528180a4565b6001600160a01b0381166000908152600080516020614338833981519152602052604090205460ff16156109265750565b6001600160a01b038116600090815260008051602061433883398151915260205260409020805460ff1916600117905533906001600160a01b03167fb0f8576b4ab6d387749a5acd70a6324b30741718c2a117c20e001efd848a4dd4600080516020614318833981519152600080a4565b6020815191015190602081106109ab575090565b6000199060200360031b1b1690565b601f8151116109d2576109cc81610997565b90511790565b6040519063305a27a960e01b8252602060048301528181519182602483015260005b838110610a165750508160006044809484010152601f80199101168101030190fd5b602082820181015160448784010152859350016109f4565b634e487b7160e01b600052601160045260246000fd5b91908201809211610a5157565b610a2e565b604080519192919081016001600160401b0381118282101761020857604052602081935463ffffffff81168352811c910152565b908154680100000000000000008110156102085760018101808455811015610ad957600092835260209283902082519284015190931b63ffffffff191663ffffffff9290921691909117910155565b634e487b7160e01b600052603260045260246000fd5b600b5490918115918215610c1e57610b0561024b565b60008152600060208201525b6020810151610b3d90610b34906001600160e01b03165b6001600160e01b031690565b95866001610ff4565b93159081610bfb575b5015610b9e5761025a90610b87610b5c85610e2b565b600b600052917f0175b7a638427703f0dbe7bb9bbf987a2551717b34e79f33b5b1008d1fa01db80190565b9063ffffffff82549181199060201b169116179055565b5061025a610bc1610bbc610bb143610f88565b65ffffffffffff1690565b610dc3565b610bf4610bcd85610e2b565b610be4610bd861024b565b63ffffffff9094168452565b6001600160e01b03166020830152565b600b610a8a565b5163ffffffff16905063ffffffff610c15610bb143610f88565b91161438610b46565b600b600052610c537f0175b7a638427703f0dbe7bb9bbf987a2551717b34e79f33b5b1008d1fa01db88201610a56565b610a56565b610b11565b909181549182159283600014610d4157610c7061024b565b60008152600060208201525b6020810151610ca090610c97906001600160e01b0316610b28565b96876002610ff4565b94159081610d1e575b5015610cd157610b8761025a92610cbf86610e2b565b92600019019060005260206000200190565b5061025a90610ce5610bbc610bb143610f88565b90610d19610cf286610e2b565b610d09610cfd61024b565b63ffffffff9095168552565b6001600160e01b03166020840152565b610a8a565b5163ffffffff16905063ffffffff610d38610bb143610f88565b91161438610ca9565b610d59610c4e60001983018460005260206000200190565b610c7c565b909181549182159283600014610da657610d7661024b565b60008152600060208201525b6020810151610ca090610d9d906001600160e01b0316610b28565b96876001610ff4565b610dbe610c4e60001983018460005260206000200190565b610d82565b63ffffffff8111610dd75763ffffffff1690565b60405162461bcd60e51b815260206004820152602660248201527f53616665436173743a2076616c756520646f65736e27742066697420696e203360448201526532206269747360d01b6064820152608490fd5b6001600160e01b038111610e45576001600160e01b031690565b60405162461bcd60e51b815260206004820152602760248201527f53616665436173743a2076616c756520646f65736e27742066697420696e20326044820152663234206269747360c81b6064820152608490fd5b60096020527fec8156718a8372b1db44bb411437d0870f3e3790d4a08526d024ce1b0b668f6b546001600160a01b039182166000908152604090205482169291168281141580610f7f575b610eee57505050565b80610f42575b5081610efe575050565b6001600160a01b0382166000908152600a6020526040902060008051602061435883398151915291610f2f91610d5e565b60408051928352602083019190915290a2565b80600052600a602052600080516020614358833981519152610f68836040600020610c58565b60408051928352602083019190915290a238610ef4565b50811515610ee5565b65ffffffffffff8111610fa05765ffffffffffff1690565b60405162461bcd60e51b815260206004820152602660248201527f53616665436173743a2076616c756520646f65736e27742066697420696e203460448201526538206269747360d01b6064820152608490fd5b919091806001146110285760021461101c57634e487b7160e01b600052605160045260246000fd5b8103908111610a515790565b508101809111610a51579056fe6080604052600436101561001257600080fd5b60003560e01c806301ffc9a7146102d7578063027f5176146102d257806306fdde03146102cd578063095ea7b3146102c857806318160ddd146102c357806323b872dd146102be578063248a9ca3146102b95780632699026e146102b45780632f2ff15d146102af5780632ff2e9dc146102aa578063313ce567146102a55780633644e515146102a057806336568abe1461029b57806339509351146102965780633a46b1a81461029157806340c10f191461028c5780634bf5d7e914610287578063587cde1e146102825780635c19a95c1461027d57806366975a48146102785780636f8b44b0146102735780636fcfff451461026e57806370a0823114610269578063715018a6146102645780637ecebe001461025f57806384b0196e1461025a5780638da5cb5b146102555780638e539e8c1461025057806391d148541461024b57806391ddadf41461024657806395d89b41146102415780639ab24eb01461023c578063a217fddf14610237578063a457c2d714610232578063a9059cbb1461022d578063bb0f6d8814610228578063c3cda52014610223578063d505accf1461021e578063d547741f14610219578063d5abeb0114610214578063dbff0d481461020f578063dd62ed3e1461020a578063f1127ed8146102055763f2fde38b1461020057600080fd5b6118a8565b611818565b6117c0565b611798565b61177a565b61173a565b6115fd565b6114d2565b61135b565b611335565b611287565b61126b565b6111e4565b61113c565b611110565b6110bd565b610f76565b610f4d565b610e4c565b610e12565b610db5565b610d7b565b610d33565b610cb9565b610c90565b610c6e565b610c2c565b610b79565b610b4c565b6109fa565b61099b565b610907565b6108ec565b6108d0565b6108aa565b6107e5565b6106ee565b6106b9565b6105ef565b6105d1565b6105a0565b6104c3565b61035e565b3461032d57602036600319011261032d5760043563ffffffff60e01b811680910361032d57602090637965db0b60e01b811490811561031c575b506040519015158152f35b6301ffc9a760e01b14905038610311565b600080fd5b600435906001600160a01b038216820361032d57565b602435906001600160a01b038216820361032d57565b3461032d57602036600319011261032d57610377610332565b61037f611da5565b60008051602061324d833981519152600052600c6020527f5b4bbf45e48bd99ef708406cf3c7f065bddb024b8d8fc47ec74ea4913d095ee4546103c6906121ce565b6121ce565b6001600160a01b038116600090815260008051602061328d833981519152602052604090205460ff16156103f657005b6001600160a01b038116600090815260008051602061328d83398151915260205260409020805460ff1916600117905533906001600160a01b031660008051602061324d8339815191527f2f8788117e7eff1d82e926ec794901d17c78024a50270940304540a733656f0d600080a4005b60005b83811061047a5750506000910152565b818101518382015260200161046a565b906020916104a381518092818552858086019101610467565b601f01601f1916010190565b9060206104c092818152019061048a565b90565b3461032d57600036600319011261032d5760405160006003546104e5816119c1565b808452906001811690811561057c575060011461051d575b6105198361050d81850382611ab5565b604051918291826104af565b0390f35b600360009081527fc2575a0e9e593c00f959f8c92f12db2869c3395a3b0502d05e2516446f71f85b939250905b8082106105625750909150810160200161050d6104fd565b91926001816020925483858801015201910190929161054a565b60ff191660208086019190915291151560051b8401909101915061050d90506104fd565b3461032d57604036600319011261032d576105c66105bc610332565b6024359033611dfd565b602060405160018152f35b3461032d57600036600319011261032d576020600254604051908152f35b3461032d57606036600319011261032d57610608610332565b610610610348565b6001600160a01b0382166000908152600160208181526040808420338552909152909120549260443592918401610658575b61064c9350611fe6565b60405160018152602090f35b8284106106745761066f8361064c95033383611dfd565b610642565b60405162461bcd60e51b815260206004820152601d60248201527f45524332303a20696e73756666696369656e7420616c6c6f77616e63650000006044820152606490fd5b3461032d57602036600319011261032d5760206106e6600435600052600c60205260016040600020015490565b604051908152f35b3461032d57602036600319011261032d57610707610332565b61070f611da5565b60008051602061324d833981519152600052600c6020527f5b4bbf45e48bd99ef708406cf3c7f065bddb024b8d8fc47ec74ea4913d095ee454610751906121ce565b6001600160a01b038116600090815260008051602061328d833981519152602052604090205460ff1661078057005b6001600160a01b0316600081815260008051602061328d83398151915260205260408120805460ff1916905533919060008051602061324d833981519152907ff6391f5c32d9c69d2a47ea670b442974b53935d1edc7fd64eb21e047a839171b9080a4005b3461032d57604036600319011261032d57600435610801610348565b9061081d6103c182600052600c60205260016040600020015490565b6000818152600c602090815260408083206001600160a01b038616845290915290205460ff161561084a57005b6000818152600c602090815260408083206001600160a01b03861684529091529020805460ff1916600117905533916001600160a01b0316907f2f8788117e7eff1d82e926ec794901d17c78024a50270940304540a733656f0d600080a4005b3461032d57600036600319011261032d5760206040516a52b7d2dcc80cd2e40000008152f35b3461032d57600036600319011261032d57602060405160128152f35b3461032d57600036600319011261032d5760206106e6612211565b3461032d57604036600319011261032d57600435610923610348565b336001600160a01b0382160361093e5761093c9161232d565b005b60405162461bcd60e51b815260206004820152602f60248201527f416363657373436f6e74726f6c3a2063616e206f6e6c792072656e6f756e636560448201526e103937b632b9903337b91039b2b63360891b6064820152608490fd5b3461032d57604036600319011261032d576109b4610332565b6024353360005260016020526109e08260406000209060018060a01b0316600052602052604060002090565b549081018091116109f5576105c69133611dfd565b611975565b3461032d57604036600319011261032d57610a13610332565b60243590610a3265ffffffffffff610a2a4361252f565b168310611ad7565b6001600160a01b03166000908152600a6020526040812080549290918360058111610afb575b50905b838210610aaa57505081610a83575050602060005b6040516001600160e01b03919091168152f35b610a9e610aa591602093600019019060005260206000200190565b5460201c90565b610a70565b9092610ab68185612784565b908263ffffffff610adb610ad1858860005260206000200190565b5463ffffffff1690565b161115610aeb5750925b90610a5b565b9350610af69061198b565b610ae5565b80610b0b610b119296939661260f565b906119b4565b908263ffffffff610b2c610ad1858860005260206000200190565b161115610b3c5750925b38610a58565b9350610b479061198b565b610b36565b3461032d57604036600319011261032d5761093c610b68610332565b60243590610b74611da5565b611b23565b3461032d57600036600319011261032d574365ffffffffffff610b9b4361252f565b1603610be7576105196040805190610bb38183611ab5565b601d82527f6d6f64653d626c6f636b6e756d6265722666726f6d3d64656661756c74000000602083015251918291826104af565b60405162461bcd60e51b815260206004820152601d60248201527f4552433230566f7465733a2062726f6b656e20636c6f636b206d6f64650000006044820152606490fd5b3461032d57602036600319011261032d576001600160a01b03610c4d610332565b166000526009602052602060018060a01b0360406000205416604051908152f35b3461032d57602036600319011261032d5761093c610c8a610332565b336123b8565b3461032d57600036600319011261032d57602060405160008051602061324d8339815191528152f35b3461032d57602036600319011261032d57600435610cd56120f9565b6002548110610ce357600e55005b60405162461bcd60e51b815260206004820152602260248201527f4e6577206d617820737570706c792062656c6f772063757272656e7420746f74604482015261185b60f21b6064820152608490fd5b3461032d57602036600319011261032d576001600160a01b03610d54610332565b16600052600a6020526020610d6d60406000205461242c565b63ffffffff60405191168152f35b3461032d57602036600319011261032d576001600160a01b03610d9c610332565b1660005260006020526020604060002054604051908152f35b3461032d57600036600319011261032d57610dce611da5565b600d80546001600160a01b031981169091556000906001600160a01b03167f8be0079c531659141344cd1fd0a4f28419497f9722a3daafe3b4186f6b6457e08280a3005b3461032d57602036600319011261032d576001600160a01b03610e33610332565b1660005260076020526020604060002054604051908152f35b3461032d57600036600319011261032d57610ef2610e897f0000000000000000000000000000000000000000000000000000000000000000612494565b610eb27f00000000000000000000000000000000000000000000000000000000000000006124f8565b6020604051610ec18282611ab5565b6000815281610f0081830194601f198301368737604051978897600f60f81b895260e0858a015260e089019061048a565b90878203604089015261048a565b91466060870152306080870152600060a087015285830360c0870152519182815201929160005b828110610f3657505050500390f35b835185528695509381019392810192600101610f27565b3461032d57600036600319011261032d57600d546040516001600160a01b039091168152602090f35b3461032d57602036600319011261032d57600435610fa565ffffffffffff610f9d4361252f565b168210611ad7565b600b549060008260058111611056575b50905b828210610ff3578280610fd2575060405160008152602090f35b600b600052602090610aa59060008051602061326d83398151915201610a9e565b9091610fff8184612784565b600b600052908263ffffffff6110367f0175b7a638427703f0dbe7bb9bbf987a2551717b34e79f33b5b1008d1fa01db98501610ad1565b1611156110465750915b90610fb8565b92506110519061198b565b611040565b80610b0b6110669295939561260f565b600b600052908263ffffffff61109d7f0175b7a638427703f0dbe7bb9bbf987a2551717b34e79f33b5b1008d1fa01db98501610ad1565b1611156110ad5750915b38610fb5565b92506110b89061198b565b6110a7565b3461032d57604036600319011261032d57602060ff6111046004356110e0610348565b90600052600c845260406000209060018060a01b0316600052602052604060002090565b54166040519015158152f35b3461032d57600036600319011261032d57602061112c4361252f565b65ffffffffffff60405191168152f35b3461032d57600036600319011261032d57604051600060045461115e816119c1565b808452906001811690811561057c5750600114611185576105198361050d81850382611ab5565b600460009081527f8a35acfbc15ff81a39ae7d344fd709f28e8600b4aa8c65c6b64bfe7fe36bd19b939250905b8082106111ca5750909150810160200161050d6104fd565b9192600181602092548385880101520191019092916111b2565b3461032d57602036600319011261032d576001600160a01b03611205610332565b1680600052600a60205260406000205490811560001461124157505061051960005b6040516001600160e01b0390911681529081906020820190565b6105199161126191600052600a6020526040600020906000190190611cce565b505460201c611227565b3461032d57600036600319011261032d57602060405160008152f35b3461032d57604036600319011261032d576112a0610332565b602435903360005260016020526112cd8160406000209060018060a01b0316600052602052604060002090565b54918083106112e25761064c92039033611dfd565b60405162461bcd60e51b815260206004820152602560248201527f45524332303a2064656372656173656420616c6c6f77616e63652062656c6f77604482015264207a65726f60d81b6064820152608490fd5b3461032d57604036600319011261032d576105c6611351610332565b6024359033611fe6565b3461032d57604036600319011261032d57611374610332565b60243561137f6120f9565b6001600160a01b038216918215611463576001600160a01b03811660009081526020819052604081207ffd38818f5291bf0bb3a2a48aadc06ba8757865d1dabd804585338aab3009dcb694908490546113da82821015613145565b036113f78460018060a01b03166000526000602052604060002090565b556114058460025403600255565b6040518481527fddf252ad1be2c89b69c2b068fc378daa952ba7f163c4a11628f55a4df523b3ef90602090a361143b8282612be7565b61144482612f10565b5050604080516001600160a01b039290921682526020820192909252a1005b60405162461bcd60e51b815260206004820152602160248201527f45524332303a206275726e2066726f6d20746865207a65726f206164647265736044820152607360f81b6064820152608490fd5b6064359060ff8216820361032d57565b6084359060ff8216820361032d57565b3461032d5760c036600319011261032d576114eb610332565b604435906024356114fa6114b2565b6084359360a4358142116115b85761093c956115b3936115858761156f61157d61158a976040519283918c60208401968760609194939260808201957fe48329057bfd03d55e49b547132e39cffd9c1820ad7b9d4c5307691425d15adf835260018060a01b0316602083015260408201520152565b03601f198101835282611ab5565b51902061259b565b6125c1565b6001600160a01b0381166000908152600760205260409020805460018101909155909214611ceb565b6123b8565b60405162461bcd60e51b815260206004820152601d60248201527f4552433230566f7465733a207369676e617475726520657870697265640000006044820152606490fd5b3461032d5760e036600319011261032d57611616610332565b61161e610348565b604435906064359261162e6114c2565b60a4359460c4358142116116f55761093c966116f093611585868961157d8a61156f6116dd996116798660018060a01b03166000526007602052604060002090815491600183019055565b604051958694602086019889919260a093969594919660c08401977f6e71edae12b1b97f4d1f60370fef10105fa2faae0126114a169c64845d6126c98552600180871b03166020850152600180861b03166040840152606083015260808201520152565b6001600160a01b03838116911614611d37565b611dfd565b60405162461bcd60e51b815260206004820152601d60248201527f45524332305065726d69743a206578706972656420646561646c696e650000006044820152606490fd5b3461032d57604036600319011261032d5761093c600435611759610348565b906117756103c182600052600c60205260016040600020015490565b61232d565b3461032d57600036600319011261032d576020600e54604051908152f35b3461032d57604036600319011261032d5761093c6117b4610332565b60243590610b746120f9565b3461032d57604036600319011261032d57602061180f6117de610332565b6117e6610348565b6001600160a01b0391821660009081526001855260408082209290931681526020919091522090565b54604051908152f35b3461032d57604036600319011261032d57611831610332565b6024359063ffffffff8216820361032d576118819161187b916000602060405161185a81611a94565b82815201526001600160a01b03166000908152600a60205260409020611cce565b50611d83565b60408051825163ffffffff1681526020928301516001600160e01b03169281019290925290f35b3461032d57602036600319011261032d576118c1610332565b6118c9611da5565b6001600160a01b0381161561192157600d80546001600160a01b039283166001600160a01b0319821681179092559091167f8be0079c531659141344cd1fd0a4f28419497f9722a3daafe3b4186f6b6457e0600080a3005b60405162461bcd60e51b815260206004820152602660248201527f4f776e61626c653a206e6577206f776e657220697320746865207a65726f206160448201526564647265737360d01b6064820152608490fd5b634e487b7160e01b600052601160045260246000fd5b90600182018092116109f557565b90600282018092116109f557565b919082018092116109f557565b919082039182116109f557565b90600182811c921680156119f1575b60208310146119db57565b634e487b7160e01b600052602260045260246000fd5b91607f16916119d0565b60009291815491611a0b836119c1565b8083529260018116908115611a615750600114611a2757505050565b60009081526020812093945091925b838310611a47575060209250010190565b600181602092949394548385870101520191019190611a36565b915050602093945060ff929192191683830152151560051b010190565b634e487b7160e01b600052604160045260246000fd5b6040810190811067ffffffffffffffff821117611ab057604052565b611a7e565b90601f8019910116810190811067ffffffffffffffff821117611ab057604052565b15611ade57565b60405162461bcd60e51b815260206004820152601960248201527f4552433230566f7465733a20667574757265206c6f6f6b7570000000000000006044820152606490fd5b90600254918183018084116109f557600e5410611c51576001600160a01b0381168015611c0c57611b7d611b78847f3f2c9d57c068687834f0de942a9babb9e5acab57d516d3480a3c16ee165a4273966119a7565b600255565b6001600160a01b038216600090815260208181526040808320805487019055518581527fddf252ad1be2c89b69c2b068fc378daa952ba7f163c4a11628f55a4df523b3ef9190a3611bce8282612c35565b600254611be4906001600160e01b031015612799565b611bed82613021565b5050604080516001600160a01b039290921682526020820192909252a1565b60405162461bcd60e51b815260206004820152601f60248201527f45524332303a206d696e7420746f20746865207a65726f2061646472657373006044820152606490fd5b60405162461bcd60e51b815260206004820152601260248201527145786365656473206d617820737570706c7960701b6044820152606490fd5b60405190611c9a604083611ab5565b565b67ffffffffffffffff8111611ab057601f01601f191660200190565b634e487b7160e01b600052603260045260246000fd5b8054821015611ce65760005260206000200190600090565b611cb8565b15611cf257565b60405162461bcd60e51b815260206004820152601960248201527f4552433230566f7465733a20696e76616c6964206e6f6e6365000000000000006044820152606490fd5b15611d3e57565b60405162461bcd60e51b815260206004820152601e60248201527f45524332305065726d69743a20696e76616c6964207369676e617475726500006044820152606490fd5b90604051611d9081611a94565b602081935463ffffffff81168352811c910152565b600d546001600160a01b03163303611db957565b606460405162461bcd60e51b815260206004820152602060248201527f4f776e61626c653a2063616c6c6572206973206e6f7420746865206f776e65726044820152fd5b6001600160a01b03811691908215611ee2576001600160a01b038216938415611e925780611e7c7f8c5be1e5ebec7d5bd14f71427d1e84f3dd0314c0f7b2291e5b200ac8c7c3b92594611e65611e8d9560018060a01b03166000526001602052604060002090565b9060018060a01b0316600052602052604060002090565b556040519081529081906020820190565b0390a3565b60405162461bcd60e51b815260206004820152602260248201527f45524332303a20617070726f766520746f20746865207a65726f206164647265604482015261737360f01b6064820152608490fd5b60405162461bcd60e51b8152602060048201526024808201527f45524332303a20617070726f76652066726f6d20746865207a65726f206164646044820152637265737360e01b6064820152608490fd5b15611f3a57565b60405162461bcd60e51b815260206004820152602360248201527f45524332303a207472616e7366657220746f20746865207a65726f206164647260448201526265737360e81b6064820152608490fd5b15611f9257565b60405162461bcd60e51b815260206004820152602660248201527f45524332303a207472616e7366657220616d6f756e7420657863656564732062604482015265616c616e636560d01b6064820152608490fd5b6001600160a01b03811692919083156120a657611c9a936001600160a01b03831690612013821515611f33565b6001600160a01b038316600090815260208190526040902085905461203a82821015611f8b565b036120578460018060a01b03166000526000602052604060002090565b556001600160a01b0384166000908152602081815260409182902080548801905590518681527fddf252ad1be2c89b69c2b068fc378daa952ba7f163c4a11628f55a4df523b3ef9190a3612c80565b60405162461bcd60e51b815260206004820152602560248201527f45524332303a207472616e736665722066726f6d20746865207a65726f206164604482015264647265737360d81b6064820152608490fd5b33600090815260008051602061328d833981519152602052604090205460ff161561212057565b6121ca60206121b261213133612d82565b61156f61214b60008051602061324d833981519152612e1c565b6121ac60405195869461218d60178388017f416363657373436f6e74726f6c3a206163636f756e74200000000000000000008152019182815194859201610467565b016011907001034b99036b4b9b9b4b733903937b6329607d1b81520190565b906125d8565b60405162461bcd60e51b8152918291600483016104af565b0390fd5b6000818152600c6020908152604080832033845290915290205460ff16156121f35750565b60206121b26121ca9261156f61214b61220b33612d82565b92612e1c565b307f00000000000000000000000000000000000000000000000000000000000000006001600160a01b03161480612304575b1561226c577f000000000000000000000000000000000000000000000000000000000000000090565b60405160208101907f8b73c3c69bb8fe3d512ecc4cf759cc79239f7b179b0ffacaa9a75d522b39400f82527f000000000000000000000000000000000000000000000000000000000000000060408201527f000000000000000000000000000000000000000000000000000000000000000060608201524660808201523060a082015260a081526122fe60c082611ab5565b51902090565b507f00000000000000000000000000000000000000000000000000000000000000004614612243565b6000818152600c602090815260408083206001600160a01b038616845290915290205460ff1661235b575050565b6000818152600c602090815260408083206001600160a01b03861684529091529020805460ff1916905533916001600160a01b0316907ff6391f5c32d9c69d2a47ea670b442974b53935d1edc7fd64eb21e047a839171b600080a4565b6001600160a01b039081166000818152600960208181526040808420805485845291852054939092528686166001600160a01b031982168117909255611c9a9692959294921692909183917f3134e8a2e6d97e929a7e54011ea5485d7d196dd5f0ba4d4ef95803e8e3fc257f9080a46127fe565b63ffffffff81116124405763ffffffff1690565b60405162461bcd60e51b815260206004820152602660248201527f53616665436173743a2076616c756520646f65736e27742066697420696e203360448201526532206269747360d01b6064820152608490fd5b60ff81146124de5760ff811690601f82116124cd5760408051926124b88285611ab5565b6020808552840191601f190136833783525290565b632cd44ac360e21b60005260046000fd5b506040516104c0816124f18160056119fb565b0382611ab5565b60ff811461251c5760ff811690601f82116124cd5760408051926124b88285611ab5565b506040516104c0816124f18160066119fb565b65ffffffffffff81116125475765ffffffffffff1690565b60405162461bcd60e51b815260206004820152602660248201527f53616665436173743a2076616c756520646f65736e27742066697420696e203460448201526538206269747360d01b6064820152608490fd5b6042906125a6612211565b906040519161190160f01b8352600283015260228201522090565b916104c093916125d093612a1b565b919091612ac7565b906125eb60209282815194859201610467565b0190565b81156125f9570490565b634e487b7160e01b600052601260045260246000fd5b801561277e576104c09061271461270d6127036126f96126ef6126e56126db6126d160016126bf60008b608081901c80612770575b50806126536126b59260401c90565b80612763575b506126648160201c90565b80612756575b506126758160101c90565b80612749575b506126868160081c90565b8061273c575b506126978160041c90565b8061272f575b506126a88160021c90565b80612722575b5060011c90565b61271a5760011c90565b1b6126ca818b6125ef565b0160011c90565b6126ca818a6125ef565b6126ca81896125ef565b6126ca81886125ef565b6126ca81876125ef565b6126ca81866125ef565b6126ca81856125ef565b80926125ef565b90612e9f565b820160011c90565b60029150920191386126ae565b600491509201913861269d565b600891509201913861268c565b601091509201913861267b565b602091509201913861266a565b6040915092019138612659565b6080925090506126b5612644565b50600090565b90808216911860011c81018091116109f55790565b156127a057565b60405162461bcd60e51b815260206004820152603060248201527f4552433230566f7465733a20746f74616c20737570706c79207269736b73206f60448201526f766572666c6f77696e6720766f74657360801b6064820152608490fd5b6001600160a01b03808316939291168084141580612a12575b612822575b50505050565b80612890575b5082612835575b8061281c565b6001600160a01b03166000908152600a602052604090207fdec2bacdd2f05b59de34da9b523dff8be42e5e38e818c82fdb0bae774387a724916128779161308a565b60408051928352602083019190915290a238808061282f565b6000818152600a6020526040812080547fdec2bacdd2f05b59de34da9b523dff8be42e5e38e818c82fdb0bae774387a724928115929083156129ee576128d4611c8b565b908082526020820152915b60208301516128fe906001600160e01b03165b6001600160e01b031690565b9261290b8985600261320b565b941590816129cb575b50156129695761293c6129539261292a8661319c565b92600019019060005260206000200190565b9063ffffffff82549181199060201b169116179055565b604080519182526020820192909252a238612828565b506129c69061298d61298861297d4361252f565b65ffffffffffff1690565b61242c565b906129c161299a8661319c565b6129b16129a5611c8b565b63ffffffff9095168552565b6001600160e01b03166020840152565b612eb1565b612953565b5163ffffffff16905063ffffffff6129e561297d4361252f565b91161438612914565b50612a0c612a0760001984018360005260206000200190565b611d83565b916128df565b50821515612817565b7f7fffffffffffffffffffffffffffffff5d576e7357a4501ddfe92f46681b20a08411612a9b5760209360009360ff60809460405194855216868401526040830152606082015282805260015afa15612a8f576000516001600160a01b03811615612a865790600090565b50600090600190565b6040513d6000823e3d90fd5b50505050600090600390565b60051115612ab157565b634e487b7160e01b600052602160045260246000fd5b612ad081612aa7565b80612ad85750565b612ae181612aa7565b60018103612b2e5760405162461bcd60e51b815260206004820152601860248201527f45434453413a20696e76616c6964207369676e617475726500000000000000006044820152606490fd5b612b3781612aa7565b60028103612b845760405162461bcd60e51b815260206004820152601f60248201527f45434453413a20696e76616c6964207369676e6174757265206c656e677468006044820152606490fd5b80612b90600392612aa7565b14612b9757565b60405162461bcd60e51b815260206004820152602260248201527f45434453413a20696e76616c6964207369676e6174757265202773272076616c604482015261756560f01b6064820152608490fd5b6001600160a01b039081166000908152600960205260408120549080527fec8156718a8372b1db44bb411437d0870f3e3790d4a08526d024ce1b0b668f6b54611c9a939290811691166127fe565b60096020527fec8156718a8372b1db44bb411437d0870f3e3790d4a08526d024ce1b0b668f6b546001600160a01b0391821660009081526040902054611c9a939290811691166127fe565b6001600160a01b03908116600090815260096020526040808220549383168252902054611c9a939290821691166127fe565b600181901b91906001600160ff1b038116036109f557565b90612cd482611c9c565b612ce16040519182611ab5565b8281528092612cf2601f1991611c9c565b0190602036910137565b805115611ce65760200190565b805160011015611ce65760210190565b908151811015611ce6570160200190565b80156109f5576000190190565b15612d3e57565b606460405162461bcd60e51b815260206004820152602060248201527f537472696e67733a20686578206c656e67746820696e73756666696369656e746044820152fd5b612d94612d8f6028611999565b612cca565b906030612da083612cfc565b536078612dac83612d09565b53612dbf612dba6014612cb2565b61198b565b905b60018211612dd4576104c0915015612d37565b600f81166010811015611ce657612e1691612e10916f181899199a1a9b1b9c1cb0b131b232b360811b901a612e098587612d19565b5360041c90565b91612d2a565b90612dc1565b612e29612d8f6040611999565b906030612e3583612cfc565b536078612e4183612d09565b53612e4f612dba6020612cb2565b905b60018211612e64576104c0915015612d37565b600f81166010811015611ce657612e9991612e10916f181899199a1a9b1b9c1cb0b131b232b360811b901a612e098587612d19565b90612e51565b9080821015612eac575090565b905090565b805468010000000000000000811015611ab057612ed391600182018155611cce565b612efa57815160209283015190921b63ffffffff191663ffffffff92909216919091179055565b634e487b7160e01b600052600060045260246000fd5b600b5490918115918215612ffe57612f26611c8b565b60008152600060208201525b6020810151612f5690612f4d906001600160e01b03166128f2565b9586600261320b565b93159081612fdb575b5015612f8e57611c9a9061293c612f758561319c565b600b6000529160008051602061326d8339815191520190565b50611c9a612fa161298861297d4361252f565b612fd4612fad8561319c565b612fc4612fb8611c8b565b63ffffffff9094168452565b6001600160e01b03166020830152565b600b612eb1565b5163ffffffff16905063ffffffff612ff561297d4361252f565b91161438612f5f565b600b60005261301c60008051602061326d8339815191528201611d83565b612f32565b600b549091811591821561306757613037611c8b565b60008152600060208201525b6020810151612f569061305e906001600160e01b03166128f2565b9586600161320b565b600b60005261308560008051602061326d8339815191528201611d83565b613043565b909181549182159283600014613128576130a2611c8b565b60008152600060208201525b60208101516130d2906130c9906001600160e01b03166128f2565b9687600161320b565b94159081613105575b50156130f15761293c611c9a9261292a8661319c565b50611c9a9061298d61298861297d4361252f565b5163ffffffff16905063ffffffff61311f61297d4361252f565b911614386130db565b613140612a0760001983018460005260206000200190565b6130ae565b1561314c57565b60405162461bcd60e51b815260206004820152602260248201527f45524332303a206275726e20616d6f756e7420657863656564732062616c616e604482015261636560f01b6064820152608490fd5b6001600160e01b0381116131b6576001600160e01b031690565b60405162461bcd60e51b815260206004820152602760248201527f53616665436173743a2076616c756520646f65736e27742066697420696e20326044820152663234206269747360c81b6064820152608490fd5b9190918060011461323f5760021461323357634e487b7160e01b600052605160045260246000fd5b81039081116109f55790565b5081018091116109f5579056feb0f8576b4ab6d387749a5acd70a6324b30741718c2a117c20e001efd848a4dd40175b7a638427703f0dbe7bb9bbf987a2551717b34e79f33b5b1008d1fa01db85b4bbf45e48bd99ef708406cf3c7f065bddb024b8d8fc47ec74ea4913d095ee3a2646970667358221220ff1372ead25ca732d9b2ed53616748808fd30c45c75de0b942ee5e77fb91eff764736f6c634300081c00332f8788117e7eff1d82e926ec794901d17c78024a50270940304540a733656f0d5b4bbf45e48bd99ef708406cf3c7f065bddb024b8d8fc47ec74ea4913d095ee3dec2bacdd2f05b59de34da9b523dff8be42e5e38e818c82fdb0bae774387a724","opcodes":"PUSH2 0x160 PUSH1 0x40 MSTORE CALLVALUE PUSH2 0x20D JUMPI PUSH2 0x12 PUSH2 0x286 JUMP JUMPDEST PUSH2 0x1A PUSH2 0x286 JUMP JUMPDEST SWAP1 PUSH2 0x23 PUSH2 0x25C JUMP JUMPDEST SWAP1 PUSH3 0x14D253 PUSH1 0xEA SHL PUSH1 0x20 DUP4 ADD MSTORE PUSH2 0x38 PUSH2 0x271 JUMP JUMPDEST PUSH1 0x31 PUSH1 0xF8 SHL PUSH1 0x20 DUP3 ADD SWAP1 DUP2 MSTORE DUP5 MLOAD SWAP1 SWAP5 SWAP2 SWAP4 SWAP2 PUSH1 0x1 PUSH1 0x1 PUSH1 0x40 SHL SUB DUP3 GT PUSH2 0x208 JUMPI PUSH2 0x6D DUP3 PUSH2 0x68 PUSH1 0x3 SLOAD PUSH2 0x2AA JUMP JUMPDEST PUSH2 0x2E4 JUMP JUMPDEST PUSH1 0x20 SWAP1 PUSH1 0x1F DUP4 GT PUSH1 0x1 EQ PUSH2 0x17E JUMPI SWAP2 DUP1 PUSH2 0xA3 SWAP3 PUSH2 0xAB SWAP6 SWAP5 PUSH1 0x0 SWAP3 PUSH2 0x173 JUMPI JUMPDEST POP POP DUP2 PUSH1 0x1 SHL SWAP2 PUSH1 0x0 NOT SWAP1 PUSH1 0x3 SHL SHR NOT AND OR SWAP1 JUMP JUMPDEST PUSH1 0x3 SSTORE PUSH2 0x389 JUMP JUMPDEST PUSH2 0xB4 DUP2 PUSH2 0x4B0 JUMP JUMPDEST PUSH2 0x120 MSTORE PUSH2 0xC1 DUP3 PUSH2 0x5AB JUMP JUMPDEST PUSH2 0x140 MSTORE PUSH1 0x20 DUP2 MLOAD SWAP2 ADD KECCAK256 PUSH1 0xE0 MSTORE MLOAD SWAP1 KECCAK256 PUSH2 0x100 MSTORE CHAINID PUSH1 0xA0 MSTORE PUSH2 0xE2 PUSH2 0x6A3 JUMP JUMPDEST PUSH1 0x80 MSTORE ADDRESS PUSH1 0xC0 MSTORE PUSH2 0xF2 CALLER PUSH2 0x467 JUMP JUMPDEST PUSH2 0x107 PUSH12 0x33B2E3C9FD0803CE8000000 PUSH1 0xE SSTORE JUMP JUMPDEST PUSH2 0x110 CALLER PUSH2 0x766 JUMP JUMPDEST PUSH2 0x119 CALLER PUSH2 0x85A JUMP JUMPDEST PUSH2 0x122 CALLER PUSH2 0x8F5 JUMP JUMPDEST PUSH1 0x40 MLOAD PUSH2 0x32E2 SWAP1 DUP2 PUSH2 0x1036 DUP3 CODECOPY PUSH1 0x80 MLOAD DUP2 PUSH2 0x224A ADD MSTORE PUSH1 0xA0 MLOAD DUP2 PUSH2 0x2307 ADD MSTORE PUSH1 0xC0 MLOAD DUP2 PUSH2 0x2214 ADD MSTORE PUSH1 0xE0 MLOAD DUP2 PUSH2 0x2299 ADD MSTORE PUSH2 0x100 MLOAD DUP2 PUSH2 0x22BF ADD MSTORE PUSH2 0x120 MLOAD DUP2 PUSH2 0xE65 ADD MSTORE PUSH2 0x140 MLOAD DUP2 PUSH2 0xE8E ADD MSTORE RETURN JUMPDEST ADD MLOAD SWAP1 POP CODESIZE DUP1 PUSH2 0x8E JUMP JUMPDEST PUSH1 0x3 PUSH1 0x0 MSTORE PUSH1 0x1F NOT DUP4 AND SWAP2 SWAP1 PUSH32 0xC2575A0E9E593C00F959F8C92F12DB2869C3395A3B0502D05E2516446F71F85B SWAP3 PUSH1 0x0 JUMPDEST DUP2 DUP2 LT PUSH2 0x1F0 JUMPI POP SWAP2 PUSH1 0x1 SWAP4 SWAP2 DUP6 PUSH2 0xAB SWAP8 SWAP7 SWAP5 LT PUSH2 0x1D7 JUMPI JUMPDEST POP POP POP DUP2 SHL ADD PUSH1 0x3 SSTORE PUSH2 0x389 JUMP JUMPDEST ADD MLOAD PUSH1 0x0 NOT PUSH1 0xF8 DUP5 PUSH1 0x3 SHL AND SHR NOT AND SWAP1 SSTORE CODESIZE DUP1 DUP1 PUSH2 0x1C9 JUMP JUMPDEST SWAP3 SWAP4 PUSH1 0x20 PUSH1 0x1 DUP2 SWAP3 DUP8 DUP7 ADD MLOAD DUP2 SSTORE ADD SWAP6 ADD SWAP4 ADD PUSH2 0x1AF JUMP JUMPDEST PUSH2 0x212 JUMP JUMPDEST PUSH1 0x0 DUP1 REVERT JUMPDEST PUSH4 0x4E487B71 PUSH1 0xE0 SHL PUSH1 0x0 MSTORE PUSH1 0x41 PUSH1 0x4 MSTORE PUSH1 0x24 PUSH1 0x0 REVERT JUMPDEST PUSH1 0x1F SWAP1 SWAP2 ADD PUSH1 0x1F NOT AND DUP2 ADD SWAP1 PUSH1 0x1 PUSH1 0x1 PUSH1 0x40 SHL SUB DUP3 GT SWAP1 DUP3 LT OR PUSH2 0x208 JUMPI PUSH1 0x40 MSTORE JUMP JUMPDEST PUSH1 0x40 MLOAD SWAP1 PUSH2 0x25A PUSH1 0x40 DUP4 PUSH2 0x228 JUMP JUMPDEST JUMP JUMPDEST PUSH1 0x40 MLOAD SWAP1 PUSH2 0x26B PUSH1 0x40 DUP4 PUSH2 0x228 JUMP JUMPDEST PUSH1 0x3 DUP3 MSTORE JUMP JUMPDEST PUSH1 0x40 MLOAD SWAP1 PUSH2 0x280 PUSH1 0x40 DUP4 PUSH2 0x228 JUMP JUMPDEST PUSH1 0x1 DUP3 MSTORE JUMP JUMPDEST PUSH1 0x40 MLOAD SWAP1 PUSH2 0x295 PUSH1 0x40 DUP4 PUSH2 0x228 JUMP JUMPDEST PUSH1 0x6 DUP3 MSTORE PUSH6 0x53696C696361 PUSH1 0xD0 SHL PUSH1 0x20 DUP4 ADD MSTORE JUMP JUMPDEST SWAP1 PUSH1 0x1 DUP3 DUP2 SHR SWAP3 AND DUP1 ISZERO PUSH2 0x2DA JUMPI JUMPDEST PUSH1 0x20 DUP4 LT EQ PUSH2 0x2C4 JUMPI JUMP JUMPDEST PUSH4 0x4E487B71 PUSH1 0xE0 SHL PUSH1 0x0 MSTORE PUSH1 0x22 PUSH1 0x4 MSTORE PUSH1 0x24 PUSH1 0x0 REVERT JUMPDEST SWAP2 PUSH1 0x7F AND SWAP2 PUSH2 0x2B9 JUMP JUMPDEST PUSH1 0x1F DUP2 GT PUSH2 0x2F0 JUMPI POP POP JUMP JUMPDEST PUSH1 0x3 PUSH1 0x0 MSTORE PUSH1 0x20 PUSH1 0x0 KECCAK256 SWAP1 PUSH1 0x20 PUSH1 0x1F DUP5 ADD PUSH1 0x5 SHR DUP4 ADD SWAP4 LT PUSH2 0x32D JUMPI JUMPDEST PUSH1 0x1F ADD PUSH1 0x5 SHR ADD SWAP1 JUMPDEST DUP2 DUP2 LT PUSH2 0x321 JUMPI POP POP JUMP JUMPDEST PUSH1 0x0 DUP2 SSTORE PUSH1 0x1 ADD PUSH2 0x316 JUMP JUMPDEST SWAP1 SWAP2 POP DUP2 SWAP1 PUSH2 0x30D JUMP JUMPDEST PUSH1 0x1F DUP3 GT PUSH2 0x344 JUMPI POP POP POP JUMP JUMPDEST PUSH1 0x0 MSTORE PUSH1 0x20 PUSH1 0x0 KECCAK256 SWAP1 PUSH1 0x20 PUSH1 0x1F DUP5 ADD PUSH1 0x5 SHR DUP4 ADD SWAP4 LT PUSH2 0x37F JUMPI JUMPDEST PUSH1 0x1F ADD PUSH1 0x5 SHR ADD SWAP1 JUMPDEST DUP2 DUP2 LT PUSH2 0x373 JUMPI POP POP JUMP JUMPDEST PUSH1 0x0 DUP2 SSTORE PUSH1 0x1 ADD PUSH2 0x368 JUMP JUMPDEST SWAP1 SWAP2 POP DUP2 SWAP1 PUSH2 0x35F JUMP JUMPDEST DUP1 MLOAD SWAP1 SWAP2 SWAP1 PUSH1 0x1 PUSH1 0x1 PUSH1 0x40 SHL SUB DUP2 GT PUSH2 0x208 JUMPI PUSH2 0x3B2 DUP2 PUSH2 0x3AB PUSH1 0x4 SLOAD PUSH2 0x2AA JUMP JUMPDEST PUSH1 0x4 PUSH2 0x337 JUMP JUMPDEST PUSH1 0x20 SWAP3 PUSH1 0x1F DUP3 GT PUSH1 0x1 EQ PUSH2 0x3E8 JUMPI PUSH2 0x3E3 SWAP3 SWAP4 DUP3 SWAP2 PUSH1 0x0 SWAP3 PUSH2 0x173 JUMPI POP POP DUP2 PUSH1 0x1 SHL SWAP2 PUSH1 0x0 NOT SWAP1 PUSH1 0x3 SHL SHR NOT AND OR SWAP1 JUMP JUMPDEST PUSH1 0x4 SSTORE JUMP JUMPDEST PUSH1 0x4 PUSH1 0x0 MSTORE PUSH1 0x1F NOT DUP3 AND SWAP4 PUSH32 0x8A35ACFBC15FF81A39AE7D344FD709F28E8600B4AA8C65C6B64BFE7FE36BD19B SWAP2 PUSH1 0x0 JUMPDEST DUP7 DUP2 LT PUSH2 0x44F JUMPI POP DUP4 PUSH1 0x1 SWAP6 SWAP7 LT PUSH2 0x436 JUMPI JUMPDEST POP POP POP DUP2 SHL ADD PUSH1 0x4 SSTORE JUMP JUMPDEST ADD MLOAD PUSH1 0x0 NOT PUSH1 0xF8 DUP5 PUSH1 0x3 SHL AND SHR NOT AND SWAP1 SSTORE CODESIZE DUP1 DUP1 PUSH2 0x42B JUMP JUMPDEST SWAP2 SWAP3 PUSH1 0x20 PUSH1 0x1 DUP2 SWAP3 DUP7 DUP6 ADD MLOAD DUP2 SSTORE ADD SWAP5 ADD SWAP3 ADD PUSH2 0x418 JUMP JUMPDEST PUSH1 0xD DUP1 SLOAD PUSH1 0x1 PUSH1 0x1 PUSH1 0xA0 SHL SUB SWAP3 DUP4 AND PUSH1 0x1 PUSH1 0x1 PUSH1 0xA0 SHL SUB NOT DUP3 AND DUP2 OR SWAP1 SWAP3 SSTORE SWAP1 SWAP2 AND PUSH32 0x8BE0079C531659141344CD1FD0A4F28419497F9722A3DAAFE3B4186F6B6457E0 PUSH1 0x0 DUP1 LOG3 JUMP JUMPDEST SWAP1 DUP2 MLOAD PUSH1 0x20 DUP2 LT PUSH1 0x0 EQ PUSH2 0x4CC JUMPI POP SWAP1 PUSH2 0x4C9 SWAP1 PUSH2 0x9BA JUMP JUMPDEST SWAP1 JUMP JUMPDEST PUSH1 0x1 PUSH1 0x1 PUSH1 0x40 SHL SUB DUP2 GT PUSH2 0x208 JUMPI PUSH2 0x4F0 DUP2 PUSH2 0x4E9 PUSH1 0x5 SLOAD PUSH2 0x2AA JUMP JUMPDEST PUSH1 0x5 PUSH2 0x337 JUMP JUMPDEST PUSH1 0x20 SWAP3 PUSH1 0x1F DUP3 GT PUSH1 0x1 EQ PUSH2 0x529 JUMPI PUSH2 0x521 SWAP3 SWAP4 DUP3 SWAP2 PUSH1 0x0 SWAP3 PUSH2 0x173 JUMPI POP POP DUP2 PUSH1 0x1 SHL SWAP2 PUSH1 0x0 NOT SWAP1 PUSH1 0x3 SHL SHR NOT AND OR SWAP1 JUMP JUMPDEST PUSH1 0x5 SSTORE PUSH1 0xFF SWAP1 JUMP JUMPDEST PUSH1 0x5 PUSH1 0x0 MSTORE PUSH1 0x1F NOT DUP3 AND SWAP4 PUSH32 0x36B6384B5ECA791C62761152D0C79BB0604C104A5FB6F4EB0703F3154BB3DB0 SWAP2 PUSH1 0x0 JUMPDEST DUP7 DUP2 LT PUSH2 0x593 JUMPI POP DUP4 PUSH1 0x1 SWAP6 SWAP7 LT PUSH2 0x57A JUMPI JUMPDEST POP POP POP DUP2 SHL ADD PUSH1 0x5 SSTORE PUSH1 0xFF SWAP1 JUMP JUMPDEST ADD MLOAD PUSH1 0x0 NOT PUSH1 0xF8 DUP5 PUSH1 0x3 SHL AND SHR NOT AND SWAP1 SSTORE CODESIZE DUP1 DUP1 PUSH2 0x56C JUMP JUMPDEST SWAP2 SWAP3 PUSH1 0x20 PUSH1 0x1 DUP2 SWAP3 DUP7 DUP6 ADD MLOAD DUP2 SSTORE ADD SWAP5 ADD SWAP3 ADD PUSH2 0x559 JUMP JUMPDEST SWAP1 DUP2 MLOAD PUSH1 0x20 DUP2 LT PUSH1 0x0 EQ PUSH2 0x5C4 JUMPI POP SWAP1 PUSH2 0x4C9 SWAP1 PUSH2 0x9BA JUMP JUMPDEST PUSH1 0x1 PUSH1 0x1 PUSH1 0x40 SHL SUB DUP2 GT PUSH2 0x208 JUMPI PUSH2 0x5E8 DUP2 PUSH2 0x5E1 PUSH1 0x6 SLOAD PUSH2 0x2AA JUMP JUMPDEST PUSH1 0x6 PUSH2 0x337 JUMP JUMPDEST PUSH1 0x20 SWAP3 PUSH1 0x1F DUP3 GT PUSH1 0x1 EQ PUSH2 0x621 JUMPI PUSH2 0x619 SWAP3 SWAP4 DUP3 SWAP2 PUSH1 0x0 SWAP3 PUSH2 0x173 JUMPI POP POP DUP2 PUSH1 0x1 SHL SWAP2 PUSH1 0x0 NOT SWAP1 PUSH1 0x3 SHL SHR NOT AND OR SWAP1 JUMP JUMPDEST PUSH1 0x6 SSTORE PUSH1 0xFF SWAP1 JUMP JUMPDEST PUSH1 0x6 PUSH1 0x0 MSTORE PUSH1 0x1F NOT DUP3 AND SWAP4 PUSH32 0xF652222313E28459528D920B65115C16C04F3EFC82AAEDC97BE59F3F377C0D3F SWAP2 PUSH1 0x0 JUMPDEST DUP7 DUP2 LT PUSH2 0x68B JUMPI POP DUP4 PUSH1 0x1 SWAP6 SWAP7 LT PUSH2 0x672 JUMPI JUMPDEST POP POP POP DUP2 SHL ADD PUSH1 0x6 SSTORE PUSH1 0xFF SWAP1 JUMP JUMPDEST ADD MLOAD PUSH1 0x0 NOT PUSH1 0xF8 DUP5 PUSH1 0x3 SHL AND SHR NOT AND SWAP1 SSTORE CODESIZE DUP1 DUP1 PUSH2 0x664 JUMP JUMPDEST SWAP2 SWAP3 PUSH1 0x20 PUSH1 0x1 DUP2 SWAP3 DUP7 DUP6 ADD MLOAD DUP2 SSTORE ADD SWAP5 ADD SWAP3 ADD PUSH2 0x651 JUMP JUMPDEST PUSH1 0xE0 MLOAD PUSH2 0x100 MLOAD PUSH1 0x40 MLOAD SWAP1 PUSH1 0x20 DUP3 ADD SWAP3 PUSH32 0x8B73C3C69BB8FE3D512ECC4CF759CC79239F7B179B0FFACAA9A75D522B39400F DUP5 MSTORE PUSH1 0x40 DUP4 ADD MSTORE PUSH1 0x60 DUP3 ADD MSTORE CHAINID PUSH1 0x80 DUP3 ADD MSTORE ADDRESS PUSH1 0xA0 DUP3 ADD MSTORE PUSH1 0xA0 DUP2 MSTORE PUSH2 0x6FB PUSH1 0xC0 DUP3 PUSH2 0x228 JUMP JUMPDEST MLOAD SWAP1 KECCAK256 SWAP1 JUMP JUMPDEST ISZERO PUSH2 0x708 JUMPI JUMP JUMPDEST PUSH1 0x40 MLOAD PUSH3 0x461BCD PUSH1 0xE5 SHL DUP2 MSTORE PUSH1 0x20 PUSH1 0x4 DUP3 ADD MSTORE PUSH1 0x30 PUSH1 0x24 DUP3 ADD MSTORE PUSH32 0x4552433230566F7465733A20746F74616C20737570706C79207269736B73206F PUSH1 0x44 DUP3 ADD MSTORE PUSH16 0x766572666C6F77696E6720766F746573 PUSH1 0x80 SHL PUSH1 0x64 DUP3 ADD MSTORE PUSH1 0x84 SWAP1 REVERT JUMPDEST PUSH1 0x1 PUSH1 0x1 PUSH1 0xA0 SHL SUB DUP2 AND DUP1 ISZERO PUSH2 0x815 JUMPI PUSH2 0x7E7 SWAP2 PUSH11 0x52B7D2DCC80CD2E4000000 SWAP2 PUSH2 0x79B PUSH2 0x796 DUP5 PUSH1 0x2 SLOAD PUSH2 0xA44 JUMP JUMPDEST PUSH1 0x2 SSTORE JUMP JUMPDEST PUSH1 0x1 PUSH1 0x1 PUSH1 0xA0 SHL SUB DUP3 AND PUSH1 0x0 SWAP1 DUP2 MSTORE PUSH1 0x20 DUP2 DUP2 MSTORE PUSH1 0x40 DUP1 DUP4 KECCAK256 DUP1 SLOAD DUP8 ADD SWAP1 SSTORE MLOAD DUP6 DUP2 MSTORE PUSH32 0xDDF252AD1BE2C89B69C2B068FC378DAA952BA7F163C4A11628F55A4DF523B3EF SWAP2 SWAP1 LOG3 PUSH2 0xE9A JUMP JUMPDEST PUSH1 0x2 SLOAD PUSH2 0x7FD SWAP1 PUSH1 0x1 PUSH1 0x1 PUSH1 0xE0 SHL SUB LT ISZERO PUSH2 0x701 JUMP JUMPDEST PUSH2 0x811 PUSH11 0x52B7D2DCC80CD2E4000000 PUSH2 0xAEF JUMP JUMPDEST POP POP JUMP JUMPDEST PUSH1 0x40 MLOAD PUSH3 0x461BCD PUSH1 0xE5 SHL DUP2 MSTORE PUSH1 0x20 PUSH1 0x4 DUP3 ADD MSTORE PUSH1 0x1F PUSH1 0x24 DUP3 ADD MSTORE PUSH32 0x45524332303A206D696E7420746F20746865207A65726F206164647265737300 PUSH1 0x44 DUP3 ADD MSTORE PUSH1 0x64 SWAP1 REVERT JUMPDEST PUSH1 0x1 PUSH1 0x1 PUSH1 0xA0 SHL SUB DUP2 AND PUSH1 0x0 SWAP1 DUP2 MSTORE PUSH32 0x13649B2456F1B42FEF0F0040B3AAEABCD21A76A0F3F5DEFD4F583839455116E8 PUSH1 0x20 MSTORE PUSH1 0x40 SWAP1 KECCAK256 SLOAD PUSH1 0xFF AND ISZERO PUSH2 0x89D JUMPI POP JUMP JUMPDEST PUSH1 0x1 PUSH1 0x1 PUSH1 0xA0 SHL SUB AND PUSH1 0x0 DUP2 DUP2 MSTORE PUSH32 0x13649B2456F1B42FEF0F0040B3AAEABCD21A76A0F3F5DEFD4F583839455116E8 PUSH1 0x20 MSTORE PUSH1 0x40 DUP2 KECCAK256 DUP1 SLOAD PUSH1 0xFF NOT AND PUSH1 0x1 OR SWAP1 SSTORE CALLER SWAP2 SWAP1 PUSH1 0x0 DUP1 MLOAD PUSH1 0x20 PUSH2 0x4318 DUP4 CODECOPY DUP2 MLOAD SWAP2 MSTORE DUP2 DUP1 LOG4 JUMP JUMPDEST PUSH1 0x1 PUSH1 0x1 PUSH1 0xA0 SHL SUB DUP2 AND PUSH1 0x0 SWAP1 DUP2 MSTORE PUSH1 0x0 DUP1 MLOAD PUSH1 0x20 PUSH2 0x4338 DUP4 CODECOPY DUP2 MLOAD SWAP2 MSTORE PUSH1 0x20 MSTORE PUSH1 0x40 SWAP1 KECCAK256 SLOAD PUSH1 0xFF AND ISZERO PUSH2 0x926 JUMPI POP JUMP JUMPDEST PUSH1 0x1 PUSH1 0x1 PUSH1 0xA0 SHL SUB DUP2 AND PUSH1 0x0 SWAP1 DUP2 MSTORE PUSH1 0x0 DUP1 MLOAD PUSH1 0x20 PUSH2 0x4338 DUP4 CODECOPY DUP2 MLOAD SWAP2 MSTORE PUSH1 0x20 MSTORE PUSH1 0x40 SWAP1 KECCAK256 DUP1 SLOAD PUSH1 0xFF NOT AND PUSH1 0x1 OR SWAP1 SSTORE CALLER SWAP1 PUSH1 0x1 PUSH1 0x1 PUSH1 0xA0 SHL SUB AND PUSH32 0xB0F8576B4AB6D387749A5ACD70A6324B30741718C2A117C20E001EFD848A4DD4 PUSH1 0x0 DUP1 MLOAD PUSH1 0x20 PUSH2 0x4318 DUP4 CODECOPY DUP2 MLOAD SWAP2 MSTORE PUSH1 0x0 DUP1 LOG4 JUMP JUMPDEST PUSH1 0x20 DUP2 MLOAD SWAP2 ADD MLOAD SWAP1 PUSH1 0x20 DUP2 LT PUSH2 0x9AB JUMPI POP SWAP1 JUMP JUMPDEST PUSH1 0x0 NOT SWAP1 PUSH1 0x20 SUB PUSH1 0x3 SHL SHL AND SWAP1 JUMP JUMPDEST PUSH1 0x1F DUP2 MLOAD GT PUSH2 0x9D2 JUMPI PUSH2 0x9CC DUP2 PUSH2 0x997 JUMP JUMPDEST SWAP1 MLOAD OR SWAP1 JUMP JUMPDEST PUSH1 0x40 MLOAD SWAP1 PUSH4 0x305A27A9 PUSH1 0xE0 SHL DUP3 MSTORE PUSH1 0x20 PUSH1 0x4 DUP4 ADD MSTORE DUP2 DUP2 MLOAD SWAP2 DUP3 PUSH1 0x24 DUP4 ADD MSTORE PUSH1 0x0 JUMPDEST DUP4 DUP2 LT PUSH2 0xA16 JUMPI POP POP DUP2 PUSH1 0x0 PUSH1 0x44 DUP1 SWAP5 DUP5 ADD ADD MSTORE PUSH1 0x1F DUP1 NOT SWAP2 ADD AND DUP2 ADD SUB ADD SWAP1 REVERT JUMPDEST PUSH1 0x20 DUP3 DUP3 ADD DUP2 ADD MLOAD PUSH1 0x44 DUP8 DUP5 ADD ADD MSTORE DUP6 SWAP4 POP ADD PUSH2 0x9F4 JUMP JUMPDEST PUSH4 0x4E487B71 PUSH1 0xE0 SHL PUSH1 0x0 MSTORE PUSH1 0x11 PUSH1 0x4 MSTORE PUSH1 0x24 PUSH1 0x0 REVERT JUMPDEST SWAP2 SWAP1 DUP3 ADD DUP1 SWAP3 GT PUSH2 0xA51 JUMPI JUMP JUMPDEST PUSH2 0xA2E JUMP JUMPDEST PUSH1 0x40 DUP1 MLOAD SWAP2 SWAP3 SWAP2 SWAP1 DUP2 ADD PUSH1 0x1 PUSH1 0x1 PUSH1 0x40 SHL SUB DUP2 GT DUP3 DUP3 LT OR PUSH2 0x208 JUMPI PUSH1 0x40 MSTORE PUSH1 0x20 DUP2 SWAP4 SLOAD PUSH4 0xFFFFFFFF DUP2 AND DUP4 MSTORE DUP2 SHR SWAP2 ADD MSTORE JUMP JUMPDEST SWAP1 DUP2 SLOAD PUSH9 0x10000000000000000 DUP2 LT ISZERO PUSH2 0x208 JUMPI PUSH1 0x1 DUP2 ADD DUP1 DUP5 SSTORE DUP2 LT ISZERO PUSH2 0xAD9 JUMPI PUSH1 0x0 SWAP3 DUP4 MSTORE PUSH1 0x20 SWAP3 DUP4 SWAP1 KECCAK256 DUP3 MLOAD SWAP3 DUP5 ADD MLOAD SWAP1 SWAP4 SHL PUSH4 0xFFFFFFFF NOT AND PUSH4 0xFFFFFFFF SWAP3 SWAP1 SWAP3 AND SWAP2 SWAP1 SWAP2 OR SWAP2 ADD SSTORE JUMP JUMPDEST PUSH4 0x4E487B71 PUSH1 0xE0 SHL PUSH1 0x0 MSTORE PUSH1 0x32 PUSH1 0x4 MSTORE PUSH1 0x24 PUSH1 0x0 REVERT JUMPDEST PUSH1 0xB SLOAD SWAP1 SWAP2 DUP2 ISZERO SWAP2 DUP3 ISZERO PUSH2 0xC1E JUMPI PUSH2 0xB05 PUSH2 0x24B JUMP JUMPDEST PUSH1 0x0 DUP2 MSTORE PUSH1 0x0 PUSH1 0x20 DUP3 ADD MSTORE JUMPDEST PUSH1 0x20 DUP2 ADD MLOAD PUSH2 0xB3D SWAP1 PUSH2 0xB34 SWAP1 PUSH1 0x1 PUSH1 0x1 PUSH1 0xE0 SHL SUB AND JUMPDEST PUSH1 0x1 PUSH1 0x1 PUSH1 0xE0 SHL SUB AND SWAP1 JUMP JUMPDEST SWAP6 DUP7 PUSH1 0x1 PUSH2 0xFF4 JUMP JUMPDEST SWAP4 ISZERO SWAP1 DUP2 PUSH2 0xBFB JUMPI JUMPDEST POP ISZERO PUSH2 0xB9E JUMPI PUSH2 0x25A SWAP1 PUSH2 0xB87 PUSH2 0xB5C DUP6 PUSH2 0xE2B JUMP JUMPDEST PUSH1 0xB PUSH1 0x0 MSTORE SWAP2 PUSH32 0x175B7A638427703F0DBE7BB9BBF987A2551717B34E79F33B5B1008D1FA01DB8 ADD SWAP1 JUMP JUMPDEST SWAP1 PUSH4 0xFFFFFFFF DUP3 SLOAD SWAP2 DUP2 NOT SWAP1 PUSH1 0x20 SHL AND SWAP2 AND OR SWAP1 SSTORE JUMP JUMPDEST POP PUSH2 0x25A PUSH2 0xBC1 PUSH2 0xBBC PUSH2 0xBB1 NUMBER PUSH2 0xF88 JUMP JUMPDEST PUSH6 0xFFFFFFFFFFFF AND SWAP1 JUMP JUMPDEST PUSH2 0xDC3 JUMP JUMPDEST PUSH2 0xBF4 PUSH2 0xBCD DUP6 PUSH2 0xE2B JUMP JUMPDEST PUSH2 0xBE4 PUSH2 0xBD8 PUSH2 0x24B JUMP JUMPDEST PUSH4 0xFFFFFFFF SWAP1 SWAP5 AND DUP5 MSTORE JUMP JUMPDEST PUSH1 0x1 PUSH1 0x1 PUSH1 0xE0 SHL SUB AND PUSH1 0x20 DUP4 ADD MSTORE JUMP JUMPDEST PUSH1 0xB PUSH2 0xA8A JUMP JUMPDEST MLOAD PUSH4 0xFFFFFFFF AND SWAP1 POP PUSH4 0xFFFFFFFF PUSH2 0xC15 PUSH2 0xBB1 NUMBER PUSH2 0xF88 JUMP JUMPDEST SWAP2 AND EQ CODESIZE PUSH2 0xB46 JUMP JUMPDEST PUSH1 0xB PUSH1 0x0 MSTORE PUSH2 0xC53 PUSH32 0x175B7A638427703F0DBE7BB9BBF987A2551717B34E79F33B5B1008D1FA01DB8 DUP3 ADD PUSH2 0xA56 JUMP JUMPDEST PUSH2 0xA56 JUMP JUMPDEST PUSH2 0xB11 JUMP JUMPDEST SWAP1 SWAP2 DUP2 SLOAD SWAP2 DUP3 ISZERO SWAP3 DUP4 PUSH1 0x0 EQ PUSH2 0xD41 JUMPI PUSH2 0xC70 PUSH2 0x24B JUMP JUMPDEST PUSH1 0x0 DUP2 MSTORE PUSH1 0x0 PUSH1 0x20 DUP3 ADD MSTORE JUMPDEST PUSH1 0x20 DUP2 ADD MLOAD PUSH2 0xCA0 SWAP1 PUSH2 0xC97 SWAP1 PUSH1 0x1 PUSH1 0x1 PUSH1 0xE0 SHL SUB AND PUSH2 0xB28 JUMP JUMPDEST SWAP7 DUP8 PUSH1 0x2 PUSH2 0xFF4 JUMP JUMPDEST SWAP5 ISZERO SWAP1 DUP2 PUSH2 0xD1E JUMPI JUMPDEST POP ISZERO PUSH2 0xCD1 JUMPI PUSH2 0xB87 PUSH2 0x25A SWAP3 PUSH2 0xCBF DUP7 PUSH2 0xE2B JUMP JUMPDEST SWAP3 PUSH1 0x0 NOT ADD SWAP1 PUSH1 0x0 MSTORE PUSH1 0x20 PUSH1 0x0 KECCAK256 ADD SWAP1 JUMP JUMPDEST POP PUSH2 0x25A SWAP1 PUSH2 0xCE5 PUSH2 0xBBC PUSH2 0xBB1 NUMBER PUSH2 0xF88 JUMP JUMPDEST SWAP1 PUSH2 0xD19 PUSH2 0xCF2 DUP7 PUSH2 0xE2B JUMP JUMPDEST PUSH2 0xD09 PUSH2 0xCFD PUSH2 0x24B JUMP JUMPDEST PUSH4 0xFFFFFFFF SWAP1 SWAP6 AND DUP6 MSTORE JUMP JUMPDEST PUSH1 0x1 PUSH1 0x1 PUSH1 0xE0 SHL SUB AND PUSH1 0x20 DUP5 ADD MSTORE JUMP JUMPDEST PUSH2 0xA8A JUMP JUMPDEST MLOAD PUSH4 0xFFFFFFFF AND SWAP1 POP PUSH4 0xFFFFFFFF PUSH2 0xD38 PUSH2 0xBB1 NUMBER PUSH2 0xF88 JUMP JUMPDEST SWAP2 AND EQ CODESIZE PUSH2 0xCA9 JUMP JUMPDEST PUSH2 0xD59 PUSH2 0xC4E PUSH1 0x0 NOT DUP4 ADD DUP5 PUSH1 0x0 MSTORE PUSH1 0x20 PUSH1 0x0 KECCAK256 ADD SWAP1 JUMP JUMPDEST PUSH2 0xC7C JUMP JUMPDEST SWAP1 SWAP2 DUP2 SLOAD SWAP2 DUP3 ISZERO SWAP3 DUP4 PUSH1 0x0 EQ PUSH2 0xDA6 JUMPI PUSH2 0xD76 PUSH2 0x24B JUMP JUMPDEST PUSH1 0x0 DUP2 MSTORE PUSH1 0x0 PUSH1 0x20 DUP3 ADD MSTORE JUMPDEST PUSH1 0x20 DUP2 ADD MLOAD PUSH2 0xCA0 SWAP1 PUSH2 0xD9D SWAP1 PUSH1 0x1 PUSH1 0x1 PUSH1 0xE0 SHL SUB AND PUSH2 0xB28 JUMP JUMPDEST SWAP7 DUP8 PUSH1 0x1 PUSH2 0xFF4 JUMP JUMPDEST PUSH2 0xDBE PUSH2 0xC4E PUSH1 0x0 NOT DUP4 ADD DUP5 PUSH1 0x0 MSTORE PUSH1 0x20 PUSH1 0x0 KECCAK256 ADD SWAP1 JUMP JUMPDEST PUSH2 0xD82 JUMP JUMPDEST PUSH4 0xFFFFFFFF DUP2 GT PUSH2 0xDD7 JUMPI PUSH4 0xFFFFFFFF AND SWAP1 JUMP JUMPDEST PUSH1 0x40 MLOAD PUSH3 0x461BCD PUSH1 0xE5 SHL DUP2 MSTORE PUSH1 0x20 PUSH1 0x4 DUP3 ADD MSTORE PUSH1 0x26 PUSH1 0x24 DUP3 ADD MSTORE PUSH32 0x53616665436173743A2076616C756520646F65736E27742066697420696E2033 PUSH1 0x44 DUP3 ADD MSTORE PUSH6 0x322062697473 PUSH1 0xD0 SHL PUSH1 0x64 DUP3 ADD MSTORE PUSH1 0x84 SWAP1 REVERT JUMPDEST PUSH1 0x1 PUSH1 0x1 PUSH1 0xE0 SHL SUB DUP2 GT PUSH2 0xE45 JUMPI PUSH1 0x1 PUSH1 0x1 PUSH1 0xE0 SHL SUB AND SWAP1 JUMP JUMPDEST PUSH1 0x40 MLOAD PUSH3 0x461BCD PUSH1 0xE5 SHL DUP2 MSTORE PUSH1 0x20 PUSH1 0x4 DUP3 ADD MSTORE PUSH1 0x27 PUSH1 0x24 DUP3 ADD MSTORE PUSH32 0x53616665436173743A2076616C756520646F65736E27742066697420696E2032 PUSH1 0x44 DUP3 ADD MSTORE PUSH7 0x32342062697473 PUSH1 0xC8 SHL PUSH1 0x64 DUP3 ADD MSTORE PUSH1 0x84 SWAP1 REVERT JUMPDEST PUSH1 0x9 PUSH1 0x20 MSTORE PUSH32 0xEC8156718A8372B1DB44BB411437D0870F3E3790D4A08526D024CE1B0B668F6B SLOAD PUSH1 0x1 PUSH1 0x1 PUSH1 0xA0 SHL SUB SWAP2 DUP3 AND PUSH1 0x0 SWAP1 DUP2 MSTORE PUSH1 0x40 SWAP1 KECCAK256 SLOAD DUP3 AND SWAP3 SWAP2 AND DUP3 DUP2 EQ ISZERO DUP1 PUSH2 0xF7F JUMPI JUMPDEST PUSH2 0xEEE JUMPI POP POP POP JUMP JUMPDEST DUP1 PUSH2 0xF42 JUMPI JUMPDEST POP DUP2 PUSH2 0xEFE JUMPI POP POP JUMP JUMPDEST PUSH1 0x1 PUSH1 0x1 PUSH1 0xA0 SHL SUB DUP3 AND PUSH1 0x0 SWAP1 DUP2 MSTORE PUSH1 0xA PUSH1 0x20 MSTORE PUSH1 0x40 SWAP1 KECCAK256 PUSH1 0x0 DUP1 MLOAD PUSH1 0x20 PUSH2 0x4358 DUP4 CODECOPY DUP2 MLOAD SWAP2 MSTORE SWAP2 PUSH2 0xF2F SWAP2 PUSH2 0xD5E JUMP JUMPDEST PUSH1 0x40 DUP1 MLOAD SWAP3 DUP4 MSTORE PUSH1 0x20 DUP4 ADD SWAP2 SWAP1 SWAP2 MSTORE SWAP1 LOG2 JUMP JUMPDEST DUP1 PUSH1 0x0 MSTORE PUSH1 0xA PUSH1 0x20 MSTORE PUSH1 0x0 DUP1 MLOAD PUSH1 0x20 PUSH2 0x4358 DUP4 CODECOPY DUP2 MLOAD SWAP2 MSTORE PUSH2 0xF68 DUP4 PUSH1 0x40 PUSH1 0x0 KECCAK256 PUSH2 0xC58 JUMP JUMPDEST PUSH1 0x40 DUP1 MLOAD SWAP3 DUP4 MSTORE PUSH1 0x20 DUP4 ADD SWAP2 SWAP1 SWAP2 MSTORE SWAP1 LOG2 CODESIZE PUSH2 0xEF4 JUMP JUMPDEST POP DUP2 ISZERO ISZERO PUSH2 0xEE5 JUMP JUMPDEST PUSH6 0xFFFFFFFFFFFF DUP2 GT PUSH2 0xFA0 JUMPI PUSH6 0xFFFFFFFFFFFF AND SWAP1 JUMP JUMPDEST PUSH1 0x40 MLOAD PUSH3 0x461BCD PUSH1 0xE5 SHL DUP2 MSTORE PUSH1 0x20 PUSH1 0x4 DUP3 ADD MSTORE PUSH1 0x26 PUSH1 0x24 DUP3 ADD MSTORE PUSH32 0x53616665436173743A2076616C756520646F65736E27742066697420696E2034 PUSH1 0x44 DUP3 ADD MSTORE PUSH6 0x382062697473 PUSH1 0xD0 SHL PUSH1 0x64 DUP3 ADD MSTORE PUSH1 0x84 SWAP1 REVERT JUMPDEST SWAP2 SWAP1 SWAP2 DUP1 PUSH1 0x1 EQ PUSH2 0x1028 JUMPI PUSH1 0x2 EQ PUSH2 0x101C JUMPI PUSH4 0x4E487B71 PUSH1 0xE0 SHL PUSH1 0x0 MSTORE PUSH1 0x51 PUSH1 0x4 MSTORE PUSH1 0x24 PUSH1 0x0 REVERT JUMPDEST DUP2 SUB SWAP1 DUP2 GT PUSH2 0xA51 JUMPI SWAP1 JUMP JUMPDEST POP DUP2 ADD DUP1 SWAP2 GT PUSH2 0xA51 JUMPI SWAP1 JUMP INVALID PUSH1 0x80 PUSH1 0x40 MSTORE PUSH1 0x4 CALLDATASIZE LT ISZERO PUSH2 0x12 JUMPI PUSH1 0x0 DUP1 REVERT JUMPDEST PUSH1 0x0 CALLDATALOAD PUSH1 0xE0 SHR DUP1 PUSH4 0x1FFC9A7 EQ PUSH2 0x2D7 JUMPI DUP1 PUSH4 0x27F5176 EQ PUSH2 0x2D2 JUMPI DUP1 PUSH4 0x6FDDE03 EQ PUSH2 0x2CD JUMPI DUP1 PUSH4 0x95EA7B3 EQ PUSH2 0x2C8 JUMPI DUP1 PUSH4 0x18160DDD EQ PUSH2 0x2C3 JUMPI DUP1 PUSH4 0x23B872DD EQ PUSH2 0x2BE JUMPI DUP1 PUSH4 0x248A9CA3 EQ PUSH2 0x2B9 JUMPI DUP1 PUSH4 0x2699026E EQ PUSH2 0x2B4 JUMPI DUP1 PUSH4 0x2F2FF15D EQ PUSH2 0x2AF JUMPI DUP1 PUSH4 0x2FF2E9DC EQ PUSH2 0x2AA JUMPI DUP1 PUSH4 0x313CE567 EQ PUSH2 0x2A5 JUMPI DUP1 PUSH4 0x3644E515 EQ PUSH2 0x2A0 JUMPI DUP1 PUSH4 0x36568ABE EQ PUSH2 0x29B JUMPI DUP1 PUSH4 0x39509351 EQ PUSH2 0x296 JUMPI DUP1 PUSH4 0x3A46B1A8 EQ PUSH2 0x291 JUMPI DUP1 PUSH4 0x40C10F19 EQ PUSH2 0x28C JUMPI DUP1 PUSH4 0x4BF5D7E9 EQ PUSH2 0x287 JUMPI DUP1 PUSH4 0x587CDE1E EQ PUSH2 0x282 JUMPI DUP1 PUSH4 0x5C19A95C EQ PUSH2 0x27D JUMPI DUP1 PUSH4 0x66975A48 EQ PUSH2 0x278 JUMPI DUP1 PUSH4 0x6F8B44B0 EQ PUSH2 0x273 JUMPI DUP1 PUSH4 0x6FCFFF45 EQ PUSH2 0x26E JUMPI DUP1 PUSH4 0x70A08231 EQ PUSH2 0x269 JUMPI DUP1 PUSH4 0x715018A6 EQ PUSH2 0x264 JUMPI DUP1 PUSH4 0x7ECEBE00 EQ PUSH2 0x25F JUMPI DUP1 PUSH4 0x84B0196E EQ PUSH2 0x25A JUMPI DUP1 PUSH4 0x8DA5CB5B EQ PUSH2 0x255 JUMPI DUP1 PUSH4 0x8E539E8C EQ PUSH2 0x250 JUMPI DUP1 PUSH4 0x91D14854 EQ PUSH2 0x24B JUMPI DUP1 PUSH4 0x91DDADF4 EQ PUSH2 0x246 JUMPI DUP1 PUSH4 0x95D89B41 EQ PUSH2 0x241 JUMPI DUP1 PUSH4 0x9AB24EB0 EQ PUSH2 0x23C JUMPI DUP1 PUSH4 0xA217FDDF EQ PUSH2 0x237 JUMPI DUP1 PUSH4 0xA457C2D7 EQ PUSH2 0x232 JUMPI DUP1 PUSH4 0xA9059CBB EQ PUSH2 0x22D JUMPI DUP1 PUSH4 0xBB0F6D88 EQ PUSH2 0x228 JUMPI DUP1 PUSH4 0xC3CDA520 EQ PUSH2 0x223 JUMPI DUP1 PUSH4 0xD505ACCF EQ PUSH2 0x21E JUMPI DUP1 PUSH4 0xD547741F EQ PUSH2 0x219 JUMPI DUP1 PUSH4 0xD5ABEB01 EQ PUSH2 0x214 JUMPI DUP1 PUSH4 0xDBFF0D48 EQ PUSH2 0x20F JUMPI DUP1 PUSH4 0xDD62ED3E EQ PUSH2 0x20A JUMPI DUP1 PUSH4 0xF1127ED8 EQ PUSH2 0x205 JUMPI PUSH4 0xF2FDE38B EQ PUSH2 0x200 JUMPI PUSH1 0x0 DUP1 REVERT JUMPDEST PUSH2 0x18A8 JUMP JUMPDEST PUSH2 0x1818 JUMP JUMPDEST PUSH2 0x17C0 JUMP JUMPDEST PUSH2 0x1798 JUMP JUMPDEST PUSH2 0x177A JUMP JUMPDEST PUSH2 0x173A JUMP JUMPDEST PUSH2 0x15FD JUMP JUMPDEST PUSH2 0x14D2 JUMP JUMPDEST PUSH2 0x135B JUMP JUMPDEST PUSH2 0x1335 JUMP JUMPDEST PUSH2 0x1287 JUMP JUMPDEST PUSH2 0x126B JUMP JUMPDEST PUSH2 0x11E4 JUMP JUMPDEST PUSH2 0x113C JUMP JUMPDEST PUSH2 0x1110 JUMP JUMPDEST PUSH2 0x10BD JUMP JUMPDEST PUSH2 0xF76 JUMP JUMPDEST PUSH2 0xF4D JUMP JUMPDEST PUSH2 0xE4C JUMP JUMPDEST PUSH2 0xE12 JUMP JUMPDEST PUSH2 0xDB5 JUMP JUMPDEST PUSH2 0xD7B JUMP JUMPDEST PUSH2 0xD33 JUMP JUMPDEST PUSH2 0xCB9 JUMP JUMPDEST PUSH2 0xC90 JUMP JUMPDEST PUSH2 0xC6E JUMP JUMPDEST PUSH2 0xC2C JUMP JUMPDEST PUSH2 0xB79 JUMP JUMPDEST PUSH2 0xB4C JUMP JUMPDEST PUSH2 0x9FA JUMP JUMPDEST PUSH2 0x99B JUMP JUMPDEST PUSH2 0x907 JUMP JUMPDEST PUSH2 0x8EC JUMP JUMPDEST PUSH2 0x8D0 JUMP JUMPDEST PUSH2 0x8AA JUMP JUMPDEST PUSH2 0x7E5 JUMP JUMPDEST PUSH2 0x6EE JUMP JUMPDEST PUSH2 0x6B9 JUMP JUMPDEST PUSH2 0x5EF JUMP JUMPDEST PUSH2 0x5D1 JUMP JUMPDEST PUSH2 0x5A0 JUMP JUMPDEST PUSH2 0x4C3 JUMP JUMPDEST PUSH2 0x35E JUMP JUMPDEST CALLVALUE PUSH2 0x32D JUMPI PUSH1 0x20 CALLDATASIZE PUSH1 0x3 NOT ADD SLT PUSH2 0x32D JUMPI PUSH1 0x4 CALLDATALOAD PUSH4 0xFFFFFFFF PUSH1 0xE0 SHL DUP2 AND DUP1 SWAP2 SUB PUSH2 0x32D JUMPI PUSH1 0x20 SWAP1 PUSH4 0x7965DB0B PUSH1 0xE0 SHL DUP2 EQ SWAP1 DUP2 ISZERO PUSH2 0x31C JUMPI JUMPDEST POP PUSH1 0x40 MLOAD SWAP1 ISZERO ISZERO DUP2 MSTORE RETURN JUMPDEST PUSH4 0x1FFC9A7 PUSH1 0xE0 SHL EQ SWAP1 POP CODESIZE PUSH2 0x311 JUMP JUMPDEST PUSH1 0x0 DUP1 REVERT JUMPDEST PUSH1 0x4 CALLDATALOAD SWAP1 PUSH1 0x1 PUSH1 0x1 PUSH1 0xA0 SHL SUB DUP3 AND DUP3 SUB PUSH2 0x32D JUMPI JUMP JUMPDEST PUSH1 0x24 CALLDATALOAD SWAP1 PUSH1 0x1 PUSH1 0x1 PUSH1 0xA0 SHL SUB DUP3 AND DUP3 SUB PUSH2 0x32D JUMPI JUMP JUMPDEST CALLVALUE PUSH2 0x32D JUMPI PUSH1 0x20 CALLDATASIZE PUSH1 0x3 NOT ADD SLT PUSH2 0x32D JUMPI PUSH2 0x377 PUSH2 0x332 JUMP JUMPDEST PUSH2 0x37F PUSH2 0x1DA5 JUMP JUMPDEST PUSH1 0x0 DUP1 MLOAD PUSH1 0x20 PUSH2 0x324D DUP4 CODECOPY DUP2 MLOAD SWAP2 MSTORE PUSH1 0x0 MSTORE PUSH1 0xC PUSH1 0x20 MSTORE PUSH32 0x5B4BBF45E48BD99EF708406CF3C7F065BDDB024B8D8FC47EC74EA4913D095EE4 SLOAD PUSH2 0x3C6 SWAP1 PUSH2 0x21CE JUMP JUMPDEST PUSH2 0x21CE JUMP JUMPDEST PUSH1 0x1 PUSH1 0x1 PUSH1 0xA0 SHL SUB DUP2 AND PUSH1 0x0 SWAP1 DUP2 MSTORE PUSH1 0x0 DUP1 MLOAD PUSH1 0x20 PUSH2 0x328D DUP4 CODECOPY DUP2 MLOAD SWAP2 MSTORE PUSH1 0x20 MSTORE PUSH1 0x40 SWAP1 KECCAK256 SLOAD PUSH1 0xFF AND ISZERO PUSH2 0x3F6 JUMPI STOP JUMPDEST PUSH1 0x1 PUSH1 0x1 PUSH1 0xA0 SHL SUB DUP2 AND PUSH1 0x0 SWAP1 DUP2 MSTORE PUSH1 0x0 DUP1 MLOAD PUSH1 0x20 PUSH2 0x328D DUP4 CODECOPY DUP2 MLOAD SWAP2 MSTORE PUSH1 0x20 MSTORE PUSH1 0x40 SWAP1 KECCAK256 DUP1 SLOAD PUSH1 0xFF NOT AND PUSH1 0x1 OR SWAP1 SSTORE CALLER SWAP1 PUSH1 0x1 PUSH1 0x1 PUSH1 0xA0 SHL SUB AND PUSH1 0x0 DUP1 MLOAD PUSH1 0x20 PUSH2 0x324D DUP4 CODECOPY DUP2 MLOAD SWAP2 MSTORE PUSH32 0x2F8788117E7EFF1D82E926EC794901D17C78024A50270940304540A733656F0D PUSH1 0x0 DUP1 LOG4 STOP JUMPDEST PUSH1 0x0 JUMPDEST DUP4 DUP2 LT PUSH2 0x47A JUMPI POP POP PUSH1 0x0 SWAP2 ADD MSTORE JUMP JUMPDEST DUP2 DUP2 ADD MLOAD DUP4 DUP3 ADD MSTORE PUSH1 0x20 ADD PUSH2 0x46A JUMP JUMPDEST SWAP1 PUSH1 0x20 SWAP2 PUSH2 0x4A3 DUP2 MLOAD DUP1 SWAP3 DUP2 DUP6 MSTORE DUP6 DUP1 DUP7 ADD SWAP2 ADD PUSH2 0x467 JUMP JUMPDEST PUSH1 0x1F ADD PUSH1 0x1F NOT AND ADD ADD SWAP1 JUMP JUMPDEST SWAP1 PUSH1 0x20 PUSH2 0x4C0 SWAP3 DUP2 DUP2 MSTORE ADD SWAP1 PUSH2 0x48A JUMP JUMPDEST SWAP1 JUMP JUMPDEST CALLVALUE PUSH2 0x32D JUMPI PUSH1 0x0 CALLDATASIZE PUSH1 0x3 NOT ADD SLT PUSH2 0x32D JUMPI PUSH1 0x40 MLOAD PUSH1 0x0 PUSH1 0x3 SLOAD PUSH2 0x4E5 DUP2 PUSH2 0x19C1 JUMP JUMPDEST DUP1 DUP5 MSTORE SWAP1 PUSH1 0x1 DUP2 AND SWAP1 DUP2 ISZERO PUSH2 0x57C JUMPI POP PUSH1 0x1 EQ PUSH2 0x51D JUMPI JUMPDEST PUSH2 0x519 DUP4 PUSH2 0x50D DUP2 DUP6 SUB DUP3 PUSH2 0x1AB5 JUMP JUMPDEST PUSH1 0x40 MLOAD SWAP2 DUP3 SWAP2 DUP3 PUSH2 0x4AF JUMP JUMPDEST SUB SWAP1 RETURN JUMPDEST PUSH1 0x3 PUSH1 0x0 SWAP1 DUP2 MSTORE PUSH32 0xC2575A0E9E593C00F959F8C92F12DB2869C3395A3B0502D05E2516446F71F85B SWAP4 SWAP3 POP SWAP1 JUMPDEST DUP1 DUP3 LT PUSH2 0x562 JUMPI POP SWAP1 SWAP2 POP DUP2 ADD PUSH1 0x20 ADD PUSH2 0x50D PUSH2 0x4FD JUMP JUMPDEST SWAP2 SWAP3 PUSH1 0x1 DUP2 PUSH1 0x20 SWAP3 SLOAD DUP4 DUP6 DUP9 ADD ADD MSTORE ADD SWAP2 ADD SWAP1 SWAP3 SWAP2 PUSH2 0x54A JUMP JUMPDEST PUSH1 0xFF NOT AND PUSH1 0x20 DUP1 DUP7 ADD SWAP2 SWAP1 SWAP2 MSTORE SWAP2 ISZERO ISZERO PUSH1 0x5 SHL DUP5 ADD SWAP1 SWAP2 ADD SWAP2 POP PUSH2 0x50D SWAP1 POP PUSH2 0x4FD JUMP JUMPDEST CALLVALUE PUSH2 0x32D JUMPI PUSH1 0x40 CALLDATASIZE PUSH1 0x3 NOT ADD SLT PUSH2 0x32D JUMPI PUSH2 0x5C6 PUSH2 0x5BC PUSH2 0x332 JUMP JUMPDEST PUSH1 0x24 CALLDATALOAD SWAP1 CALLER PUSH2 0x1DFD JUMP JUMPDEST PUSH1 0x20 PUSH1 0x40 MLOAD PUSH1 0x1 DUP2 MSTORE RETURN JUMPDEST CALLVALUE PUSH2 0x32D JUMPI PUSH1 0x0 CALLDATASIZE PUSH1 0x3 NOT ADD SLT PUSH2 0x32D JUMPI PUSH1 0x20 PUSH1 0x2 SLOAD PUSH1 0x40 MLOAD SWAP1 DUP2 MSTORE RETURN JUMPDEST CALLVALUE PUSH2 0x32D JUMPI PUSH1 0x60 CALLDATASIZE PUSH1 0x3 NOT ADD SLT PUSH2 0x32D JUMPI PUSH2 0x608 PUSH2 0x332 JUMP JUMPDEST PUSH2 0x610 PUSH2 0x348 JUMP JUMPDEST PUSH1 0x1 PUSH1 0x1 PUSH1 0xA0 SHL SUB DUP3 AND PUSH1 0x0 SWAP1 DUP2 MSTORE PUSH1 0x1 PUSH1 0x20 DUP2 DUP2 MSTORE PUSH1 0x40 DUP1 DUP5 KECCAK256 CALLER DUP6 MSTORE SWAP1 SWAP2 MSTORE SWAP1 SWAP2 KECCAK256 SLOAD SWAP3 PUSH1 0x44 CALLDATALOAD SWAP3 SWAP2 DUP5 ADD PUSH2 0x658 JUMPI JUMPDEST PUSH2 0x64C SWAP4 POP PUSH2 0x1FE6 JUMP JUMPDEST PUSH1 0x40 MLOAD PUSH1 0x1 DUP2 MSTORE PUSH1 0x20 SWAP1 RETURN JUMPDEST DUP3 DUP5 LT PUSH2 0x674 JUMPI PUSH2 0x66F DUP4 PUSH2 0x64C SWAP6 SUB CALLER DUP4 PUSH2 0x1DFD JUMP JUMPDEST PUSH2 0x642 JUMP JUMPDEST PUSH1 0x40 MLOAD PUSH3 0x461BCD PUSH1 0xE5 SHL DUP2 MSTORE PUSH1 0x20 PUSH1 0x4 DUP3 ADD MSTORE PUSH1 0x1D PUSH1 0x24 DUP3 ADD MSTORE PUSH32 0x45524332303A20696E73756666696369656E7420616C6C6F77616E6365000000 PUSH1 0x44 DUP3 ADD MSTORE PUSH1 0x64 SWAP1 REVERT JUMPDEST CALLVALUE PUSH2 0x32D JUMPI PUSH1 0x20 CALLDATASIZE PUSH1 0x3 NOT ADD SLT PUSH2 0x32D JUMPI PUSH1 0x20 PUSH2 0x6E6 PUSH1 0x4 CALLDATALOAD PUSH1 0x0 MSTORE PUSH1 0xC PUSH1 0x20 MSTORE PUSH1 0x1 PUSH1 0x40 PUSH1 0x0 KECCAK256 ADD SLOAD SWAP1 JUMP JUMPDEST PUSH1 0x40 MLOAD SWAP1 DUP2 MSTORE RETURN JUMPDEST CALLVALUE PUSH2 0x32D JUMPI PUSH1 0x20 CALLDATASIZE PUSH1 0x3 NOT ADD SLT PUSH2 0x32D JUMPI PUSH2 0x707 PUSH2 0x332 JUMP JUMPDEST PUSH2 0x70F PUSH2 0x1DA5 JUMP JUMPDEST PUSH1 0x0 DUP1 MLOAD PUSH1 0x20 PUSH2 0x324D DUP4 CODECOPY DUP2 MLOAD SWAP2 MSTORE PUSH1 0x0 MSTORE PUSH1 0xC PUSH1 0x20 MSTORE PUSH32 0x5B4BBF45E48BD99EF708406CF3C7F065BDDB024B8D8FC47EC74EA4913D095EE4 SLOAD PUSH2 0x751 SWAP1 PUSH2 0x21CE JUMP JUMPDEST PUSH1 0x1 PUSH1 0x1 PUSH1 0xA0 SHL SUB DUP2 AND PUSH1 0x0 SWAP1 DUP2 MSTORE PUSH1 0x0 DUP1 MLOAD PUSH1 0x20 PUSH2 0x328D DUP4 CODECOPY DUP2 MLOAD SWAP2 MSTORE PUSH1 0x20 MSTORE PUSH1 0x40 SWAP1 KECCAK256 SLOAD PUSH1 0xFF AND PUSH2 0x780 JUMPI STOP JUMPDEST PUSH1 0x1 PUSH1 0x1 PUSH1 0xA0 SHL SUB AND PUSH1 0x0 DUP2 DUP2 MSTORE PUSH1 0x0 DUP1 MLOAD PUSH1 0x20 PUSH2 0x328D DUP4 CODECOPY DUP2 MLOAD SWAP2 MSTORE PUSH1 0x20 MSTORE PUSH1 0x40 DUP2 KECCAK256 DUP1 SLOAD PUSH1 0xFF NOT AND SWAP1 SSTORE CALLER SWAP2 SWAP1 PUSH1 0x0 DUP1 MLOAD PUSH1 0x20 PUSH2 0x324D DUP4 CODECOPY DUP2 MLOAD SWAP2 MSTORE SWAP1 PUSH32 0xF6391F5C32D9C69D2A47EA670B442974B53935D1EDC7FD64EB21E047A839171B SWAP1 DUP1 LOG4 STOP JUMPDEST CALLVALUE PUSH2 0x32D JUMPI PUSH1 0x40 CALLDATASIZE PUSH1 0x3 NOT ADD SLT PUSH2 0x32D JUMPI PUSH1 0x4 CALLDATALOAD PUSH2 0x801 PUSH2 0x348 JUMP JUMPDEST SWAP1 PUSH2 0x81D PUSH2 0x3C1 DUP3 PUSH1 0x0 MSTORE PUSH1 0xC PUSH1 0x20 MSTORE PUSH1 0x1 PUSH1 0x40 PUSH1 0x0 KECCAK256 ADD SLOAD SWAP1 JUMP JUMPDEST PUSH1 0x0 DUP2 DUP2 MSTORE PUSH1 0xC PUSH1 0x20 SWAP1 DUP2 MSTORE PUSH1 0x40 DUP1 DUP4 KECCAK256 PUSH1 0x1 PUSH1 0x1 PUSH1 0xA0 SHL SUB DUP7 AND DUP5 MSTORE SWAP1 SWAP2 MSTORE SWAP1 KECCAK256 SLOAD PUSH1 0xFF AND ISZERO PUSH2 0x84A JUMPI STOP JUMPDEST PUSH1 0x0 DUP2 DUP2 MSTORE PUSH1 0xC PUSH1 0x20 SWAP1 DUP2 MSTORE PUSH1 0x40 DUP1 DUP4 KECCAK256 PUSH1 0x1 PUSH1 0x1 PUSH1 0xA0 SHL SUB DUP7 AND DUP5 MSTORE SWAP1 SWAP2 MSTORE SWAP1 KECCAK256 DUP1 SLOAD PUSH1 0xFF NOT AND PUSH1 0x1 OR SWAP1 SSTORE CALLER SWAP2 PUSH1 0x1 PUSH1 0x1 PUSH1 0xA0 SHL SUB AND SWAP1 PUSH32 0x2F8788117E7EFF1D82E926EC794901D17C78024A50270940304540A733656F0D PUSH1 0x0 DUP1 LOG4 STOP JUMPDEST CALLVALUE PUSH2 0x32D JUMPI PUSH1 0x0 CALLDATASIZE PUSH1 0x3 NOT ADD SLT PUSH2 0x32D JUMPI PUSH1 0x20 PUSH1 0x40 MLOAD PUSH11 0x52B7D2DCC80CD2E4000000 DUP2 MSTORE RETURN JUMPDEST CALLVALUE PUSH2 0x32D JUMPI PUSH1 0x0 CALLDATASIZE PUSH1 0x3 NOT ADD SLT PUSH2 0x32D JUMPI PUSH1 0x20 PUSH1 0x40 MLOAD PUSH1 0x12 DUP2 MSTORE RETURN JUMPDEST CALLVALUE PUSH2 0x32D JUMPI PUSH1 0x0 CALLDATASIZE PUSH1 0x3 NOT ADD SLT PUSH2 0x32D JUMPI PUSH1 0x20 PUSH2 0x6E6 PUSH2 0x2211 JUMP JUMPDEST CALLVALUE PUSH2 0x32D JUMPI PUSH1 0x40 CALLDATASIZE PUSH1 0x3 NOT ADD SLT PUSH2 0x32D JUMPI PUSH1 0x4 CALLDATALOAD PUSH2 0x923 PUSH2 0x348 JUMP JUMPDEST CALLER PUSH1 0x1 PUSH1 0x1 PUSH1 0xA0 SHL SUB DUP3 AND SUB PUSH2 0x93E JUMPI PUSH2 0x93C SWAP2 PUSH2 0x232D JUMP JUMPDEST STOP JUMPDEST PUSH1 0x40 MLOAD PUSH3 0x461BCD PUSH1 0xE5 SHL DUP2 MSTORE PUSH1 0x20 PUSH1 0x4 DUP3 ADD MSTORE PUSH1 0x2F PUSH1 0x24 DUP3 ADD MSTORE PUSH32 0x416363657373436F6E74726F6C3A2063616E206F6E6C792072656E6F756E6365 PUSH1 0x44 DUP3 ADD MSTORE PUSH15 0x103937B632B9903337B91039B2B633 PUSH1 0x89 SHL PUSH1 0x64 DUP3 ADD MSTORE PUSH1 0x84 SWAP1 REVERT JUMPDEST CALLVALUE PUSH2 0x32D JUMPI PUSH1 0x40 CALLDATASIZE PUSH1 0x3 NOT ADD SLT PUSH2 0x32D JUMPI PUSH2 0x9B4 PUSH2 0x332 JUMP JUMPDEST PUSH1 0x24 CALLDATALOAD CALLER PUSH1 0x0 MSTORE PUSH1 0x1 PUSH1 0x20 MSTORE PUSH2 0x9E0 DUP3 PUSH1 0x40 PUSH1 0x0 KECCAK256 SWAP1 PUSH1 0x1 DUP1 PUSH1 0xA0 SHL SUB AND PUSH1 0x0 MSTORE PUSH1 0x20 MSTORE PUSH1 0x40 PUSH1 0x0 KECCAK256 SWAP1 JUMP JUMPDEST SLOAD SWAP1 DUP2 ADD DUP1 SWAP2 GT PUSH2 0x9F5 JUMPI PUSH2 0x5C6 SWAP2 CALLER PUSH2 0x1DFD JUMP JUMPDEST PUSH2 0x1975 JUMP JUMPDEST CALLVALUE PUSH2 0x32D JUMPI PUSH1 0x40 CALLDATASIZE PUSH1 0x3 NOT ADD SLT PUSH2 0x32D JUMPI PUSH2 0xA13 PUSH2 0x332 JUMP JUMPDEST PUSH1 0x24 CALLDATALOAD SWAP1 PUSH2 0xA32 PUSH6 0xFFFFFFFFFFFF PUSH2 0xA2A NUMBER PUSH2 0x252F JUMP JUMPDEST AND DUP4 LT PUSH2 0x1AD7 JUMP JUMPDEST PUSH1 0x1 PUSH1 0x1 PUSH1 0xA0 SHL SUB AND PUSH1 0x0 SWAP1 DUP2 MSTORE PUSH1 0xA PUSH1 0x20 MSTORE PUSH1 0x40 DUP2 KECCAK256 DUP1 SLOAD SWAP3 SWAP1 SWAP2 DUP4 PUSH1 0x5 DUP2 GT PUSH2 0xAFB JUMPI JUMPDEST POP SWAP1 JUMPDEST DUP4 DUP3 LT PUSH2 0xAAA JUMPI POP POP DUP2 PUSH2 0xA83 JUMPI POP POP PUSH1 0x20 PUSH1 0x0 JUMPDEST PUSH1 0x40 MLOAD PUSH1 0x1 PUSH1 0x1 PUSH1 0xE0 SHL SUB SWAP2 SWAP1 SWAP2 AND DUP2 MSTORE RETURN JUMPDEST PUSH2 0xA9E PUSH2 0xAA5 SWAP2 PUSH1 0x20 SWAP4 PUSH1 0x0 NOT ADD SWAP1 PUSH1 0x0 MSTORE PUSH1 0x20 PUSH1 0x0 KECCAK256 ADD SWAP1 JUMP JUMPDEST SLOAD PUSH1 0x20 SHR SWAP1 JUMP JUMPDEST PUSH2 0xA70 JUMP JUMPDEST SWAP1 SWAP3 PUSH2 0xAB6 DUP2 DUP6 PUSH2 0x2784 JUMP JUMPDEST SWAP1 DUP3 PUSH4 0xFFFFFFFF PUSH2 0xADB PUSH2 0xAD1 DUP6 DUP9 PUSH1 0x0 MSTORE PUSH1 0x20 PUSH1 0x0 KECCAK256 ADD SWAP1 JUMP JUMPDEST SLOAD PUSH4 0xFFFFFFFF AND SWAP1 JUMP JUMPDEST AND GT ISZERO PUSH2 0xAEB JUMPI POP SWAP3 JUMPDEST SWAP1 PUSH2 0xA5B JUMP JUMPDEST SWAP4 POP PUSH2 0xAF6 SWAP1 PUSH2 0x198B JUMP JUMPDEST PUSH2 0xAE5 JUMP JUMPDEST DUP1 PUSH2 0xB0B PUSH2 0xB11 SWAP3 SWAP7 SWAP4 SWAP7 PUSH2 0x260F JUMP JUMPDEST SWAP1 PUSH2 0x19B4 JUMP JUMPDEST SWAP1 DUP3 PUSH4 0xFFFFFFFF PUSH2 0xB2C PUSH2 0xAD1 DUP6 DUP9 PUSH1 0x0 MSTORE PUSH1 0x20 PUSH1 0x0 KECCAK256 ADD SWAP1 JUMP JUMPDEST AND GT ISZERO PUSH2 0xB3C JUMPI POP SWAP3 JUMPDEST CODESIZE PUSH2 0xA58 JUMP JUMPDEST SWAP4 POP PUSH2 0xB47 SWAP1 PUSH2 0x198B JUMP JUMPDEST PUSH2 0xB36 JUMP JUMPDEST CALLVALUE PUSH2 0x32D JUMPI PUSH1 0x40 CALLDATASIZE PUSH1 0x3 NOT ADD SLT PUSH2 0x32D JUMPI PUSH2 0x93C PUSH2 0xB68 PUSH2 0x332 JUMP JUMPDEST PUSH1 0x24 CALLDATALOAD SWAP1 PUSH2 0xB74 PUSH2 0x1DA5 JUMP JUMPDEST PUSH2 0x1B23 JUMP JUMPDEST CALLVALUE PUSH2 0x32D JUMPI PUSH1 0x0 CALLDATASIZE PUSH1 0x3 NOT ADD SLT PUSH2 0x32D JUMPI NUMBER PUSH6 0xFFFFFFFFFFFF PUSH2 0xB9B NUMBER PUSH2 0x252F JUMP JUMPDEST AND SUB PUSH2 0xBE7 JUMPI PUSH2 0x519 PUSH1 0x40 DUP1 MLOAD SWAP1 PUSH2 0xBB3 DUP2 DUP4 PUSH2 0x1AB5 JUMP JUMPDEST PUSH1 0x1D DUP3 MSTORE PUSH32 0x6D6F64653D626C6F636B6E756D6265722666726F6D3D64656661756C74000000 PUSH1 0x20 DUP4 ADD MSTORE MLOAD SWAP2 DUP3 SWAP2 DUP3 PUSH2 0x4AF JUMP JUMPDEST PUSH1 0x40 MLOAD PUSH3 0x461BCD PUSH1 0xE5 SHL DUP2 MSTORE PUSH1 0x20 PUSH1 0x4 DUP3 ADD MSTORE PUSH1 0x1D PUSH1 0x24 DUP3 ADD MSTORE PUSH32 0x4552433230566F7465733A2062726F6B656E20636C6F636B206D6F6465000000 PUSH1 0x44 DUP3 ADD MSTORE PUSH1 0x64 SWAP1 REVERT JUMPDEST CALLVALUE PUSH2 0x32D JUMPI PUSH1 0x20 CALLDATASIZE PUSH1 0x3 NOT ADD SLT PUSH2 0x32D JUMPI PUSH1 0x1 PUSH1 0x1 PUSH1 0xA0 SHL SUB PUSH2 0xC4D PUSH2 0x332 JUMP JUMPDEST AND PUSH1 0x0 MSTORE PUSH1 0x9 PUSH1 0x20 MSTORE PUSH1 0x20 PUSH1 0x1 DUP1 PUSH1 0xA0 SHL SUB PUSH1 0x40 PUSH1 0x0 KECCAK256 SLOAD AND PUSH1 0x40 MLOAD SWAP1 DUP2 MSTORE RETURN JUMPDEST CALLVALUE PUSH2 0x32D JUMPI PUSH1 0x20 CALLDATASIZE PUSH1 0x3 NOT ADD SLT PUSH2 0x32D JUMPI PUSH2 0x93C PUSH2 0xC8A PUSH2 0x332 JUMP JUMPDEST CALLER PUSH2 0x23B8 JUMP JUMPDEST CALLVALUE PUSH2 0x32D JUMPI PUSH1 0x0 CALLDATASIZE PUSH1 0x3 NOT ADD SLT PUSH2 0x32D JUMPI PUSH1 0x20 PUSH1 0x40 MLOAD PUSH1 0x0 DUP1 MLOAD PUSH1 0x20 PUSH2 0x324D DUP4 CODECOPY DUP2 MLOAD SWAP2 MSTORE DUP2 MSTORE RETURN JUMPDEST CALLVALUE PUSH2 0x32D JUMPI PUSH1 0x20 CALLDATASIZE PUSH1 0x3 NOT ADD SLT PUSH2 0x32D JUMPI PUSH1 0x4 CALLDATALOAD PUSH2 0xCD5 PUSH2 0x20F9 JUMP JUMPDEST PUSH1 0x2 SLOAD DUP2 LT PUSH2 0xCE3 JUMPI PUSH1 0xE SSTORE STOP JUMPDEST PUSH1 0x40 MLOAD PUSH3 0x461BCD PUSH1 0xE5 SHL DUP2 MSTORE PUSH1 0x20 PUSH1 0x4 DUP3 ADD MSTORE PUSH1 0x22 PUSH1 0x24 DUP3 ADD MSTORE PUSH32 0x4E6577206D617820737570706C792062656C6F772063757272656E7420746F74 PUSH1 0x44 DUP3 ADD MSTORE PUSH2 0x185B PUSH1 0xF2 SHL PUSH1 0x64 DUP3 ADD MSTORE PUSH1 0x84 SWAP1 REVERT JUMPDEST CALLVALUE PUSH2 0x32D JUMPI PUSH1 0x20 CALLDATASIZE PUSH1 0x3 NOT ADD SLT PUSH2 0x32D JUMPI PUSH1 0x1 PUSH1 0x1 PUSH1 0xA0 SHL SUB PUSH2 0xD54 PUSH2 0x332 JUMP JUMPDEST AND PUSH1 0x0 MSTORE PUSH1 0xA PUSH1 0x20 MSTORE PUSH1 0x20 PUSH2 0xD6D PUSH1 0x40 PUSH1 0x0 KECCAK256 SLOAD PUSH2 0x242C JUMP JUMPDEST PUSH4 0xFFFFFFFF PUSH1 0x40 MLOAD SWAP2 AND DUP2 MSTORE RETURN JUMPDEST CALLVALUE PUSH2 0x32D JUMPI PUSH1 0x20 CALLDATASIZE PUSH1 0x3 NOT ADD SLT PUSH2 0x32D JUMPI PUSH1 0x1 PUSH1 0x1 PUSH1 0xA0 SHL SUB PUSH2 0xD9C PUSH2 0x332 JUMP JUMPDEST AND PUSH1 0x0 MSTORE PUSH1 0x0 PUSH1 0x20 MSTORE PUSH1 0x20 PUSH1 0x40 PUSH1 0x0 KECCAK256 SLOAD PUSH1 0x40 MLOAD SWAP1 DUP2 MSTORE RETURN JUMPDEST CALLVALUE PUSH2 0x32D JUMPI PUSH1 0x0 CALLDATASIZE PUSH1 0x3 NOT ADD SLT PUSH2 0x32D JUMPI PUSH2 0xDCE PUSH2 0x1DA5 JUMP JUMPDEST PUSH1 0xD DUP1 SLOAD PUSH1 0x1 PUSH1 0x1 PUSH1 0xA0 SHL SUB NOT DUP2 AND SWAP1 SWAP2 SSTORE PUSH1 0x0 SWAP1 PUSH1 0x1 PUSH1 0x1 PUSH1 0xA0 SHL SUB AND PUSH32 0x8BE0079C531659141344CD1FD0A4F28419497F9722A3DAAFE3B4186F6B6457E0 DUP3 DUP1 LOG3 STOP JUMPDEST CALLVALUE PUSH2 0x32D JUMPI PUSH1 0x20 CALLDATASIZE PUSH1 0x3 NOT ADD SLT PUSH2 0x32D JUMPI PUSH1 0x1 PUSH1 0x1 PUSH1 0xA0 SHL SUB PUSH2 0xE33 PUSH2 0x332 JUMP JUMPDEST AND PUSH1 0x0 MSTORE PUSH1 0x7 PUSH1 0x20 MSTORE PUSH1 0x20 PUSH1 0x40 PUSH1 0x0 KECCAK256 SLOAD PUSH1 0x40 MLOAD SWAP1 DUP2 MSTORE RETURN JUMPDEST CALLVALUE PUSH2 0x32D JUMPI PUSH1 0x0 CALLDATASIZE PUSH1 0x3 NOT ADD SLT PUSH2 0x32D JUMPI PUSH2 0xEF2 PUSH2 0xE89 PUSH32 0x0 PUSH2 0x2494 JUMP JUMPDEST PUSH2 0xEB2 PUSH32 0x0 PUSH2 0x24F8 JUMP JUMPDEST PUSH1 0x20 PUSH1 0x40 MLOAD PUSH2 0xEC1 DUP3 DUP3 PUSH2 0x1AB5 JUMP JUMPDEST PUSH1 0x0 DUP2 MSTORE DUP2 PUSH2 0xF00 DUP2 DUP4 ADD SWAP5 PUSH1 0x1F NOT DUP4 ADD CALLDATASIZE DUP8 CALLDATACOPY PUSH1 0x40 MLOAD SWAP8 DUP9 SWAP8 PUSH1 0xF PUSH1 0xF8 SHL DUP10 MSTORE PUSH1 0xE0 DUP6 DUP11 ADD MSTORE PUSH1 0xE0 DUP10 ADD SWAP1 PUSH2 0x48A JUMP JUMPDEST SWAP1 DUP8 DUP3 SUB PUSH1 0x40 DUP10 ADD MSTORE PUSH2 0x48A JUMP JUMPDEST SWAP2 CHAINID PUSH1 0x60 DUP8 ADD MSTORE ADDRESS PUSH1 0x80 DUP8 ADD MSTORE PUSH1 0x0 PUSH1 0xA0 DUP8 ADD MSTORE DUP6 DUP4 SUB PUSH1 0xC0 DUP8 ADD MSTORE MLOAD SWAP2 DUP3 DUP2 MSTORE ADD SWAP3 SWAP2 PUSH1 0x0 JUMPDEST DUP3 DUP2 LT PUSH2 0xF36 JUMPI POP POP POP POP SUB SWAP1 RETURN JUMPDEST DUP4 MLOAD DUP6 MSTORE DUP7 SWAP6 POP SWAP4 DUP2 ADD SWAP4 SWAP3 DUP2 ADD SWAP3 PUSH1 0x1 ADD PUSH2 0xF27 JUMP JUMPDEST CALLVALUE PUSH2 0x32D JUMPI PUSH1 0x0 CALLDATASIZE PUSH1 0x3 NOT ADD SLT PUSH2 0x32D JUMPI PUSH1 0xD SLOAD PUSH1 0x40 MLOAD PUSH1 0x1 PUSH1 0x1 PUSH1 0xA0 SHL SUB SWAP1 SWAP2 AND DUP2 MSTORE PUSH1 0x20 SWAP1 RETURN JUMPDEST CALLVALUE PUSH2 0x32D JUMPI PUSH1 0x20 CALLDATASIZE PUSH1 0x3 NOT ADD SLT PUSH2 0x32D JUMPI PUSH1 0x4 CALLDATALOAD PUSH2 0xFA5 PUSH6 0xFFFFFFFFFFFF PUSH2 0xF9D NUMBER PUSH2 0x252F JUMP JUMPDEST AND DUP3 LT PUSH2 0x1AD7 JUMP JUMPDEST PUSH1 0xB SLOAD SWAP1 PUSH1 0x0 DUP3 PUSH1 0x5 DUP2 GT PUSH2 0x1056 JUMPI JUMPDEST POP SWAP1 JUMPDEST DUP3 DUP3 LT PUSH2 0xFF3 JUMPI DUP3 DUP1 PUSH2 0xFD2 JUMPI POP PUSH1 0x40 MLOAD PUSH1 0x0 DUP2 MSTORE PUSH1 0x20 SWAP1 RETURN JUMPDEST PUSH1 0xB PUSH1 0x0 MSTORE PUSH1 0x20 SWAP1 PUSH2 0xAA5 SWAP1 PUSH1 0x0 DUP1 MLOAD PUSH1 0x20 PUSH2 0x326D DUP4 CODECOPY DUP2 MLOAD SWAP2 MSTORE ADD PUSH2 0xA9E JUMP JUMPDEST SWAP1 SWAP2 PUSH2 0xFFF DUP2 DUP5 PUSH2 0x2784 JUMP JUMPDEST PUSH1 0xB PUSH1 0x0 MSTORE SWAP1 DUP3 PUSH4 0xFFFFFFFF PUSH2 0x1036 PUSH32 0x175B7A638427703F0DBE7BB9BBF987A2551717B34E79F33B5B1008D1FA01DB9 DUP6 ADD PUSH2 0xAD1 JUMP JUMPDEST AND GT ISZERO PUSH2 0x1046 JUMPI POP SWAP2 JUMPDEST SWAP1 PUSH2 0xFB8 JUMP JUMPDEST SWAP3 POP PUSH2 0x1051 SWAP1 PUSH2 0x198B JUMP JUMPDEST PUSH2 0x1040 JUMP JUMPDEST DUP1 PUSH2 0xB0B PUSH2 0x1066 SWAP3 SWAP6 SWAP4 SWAP6 PUSH2 0x260F JUMP JUMPDEST PUSH1 0xB PUSH1 0x0 MSTORE SWAP1 DUP3 PUSH4 0xFFFFFFFF PUSH2 0x109D PUSH32 0x175B7A638427703F0DBE7BB9BBF987A2551717B34E79F33B5B1008D1FA01DB9 DUP6 ADD PUSH2 0xAD1 JUMP JUMPDEST AND GT ISZERO PUSH2 0x10AD JUMPI POP SWAP2 JUMPDEST CODESIZE PUSH2 0xFB5 JUMP JUMPDEST SWAP3 POP PUSH2 0x10B8 SWAP1 PUSH2 0x198B JUMP JUMPDEST PUSH2 0x10A7 JUMP JUMPDEST CALLVALUE PUSH2 0x32D JUMPI PUSH1 0x40 CALLDATASIZE PUSH1 0x3 NOT ADD SLT PUSH2 0x32D JUMPI PUSH1 0x20 PUSH1 0xFF PUSH2 0x1104 PUSH1 0x4 CALLDATALOAD PUSH2 0x10E0 PUSH2 0x348 JUMP JUMPDEST SWAP1 PUSH1 0x0 MSTORE PUSH1 0xC DUP5 MSTORE PUSH1 0x40 PUSH1 0x0 KECCAK256 SWAP1 PUSH1 0x1 DUP1 PUSH1 0xA0 SHL SUB AND PUSH1 0x0 MSTORE PUSH1 0x20 MSTORE PUSH1 0x40 PUSH1 0x0 KECCAK256 SWAP1 JUMP JUMPDEST SLOAD AND PUSH1 0x40 MLOAD SWAP1 ISZERO ISZERO DUP2 MSTORE RETURN JUMPDEST CALLVALUE PUSH2 0x32D JUMPI PUSH1 0x0 CALLDATASIZE PUSH1 0x3 NOT ADD SLT PUSH2 0x32D JUMPI PUSH1 0x20 PUSH2 0x112C NUMBER PUSH2 0x252F JUMP JUMPDEST PUSH6 0xFFFFFFFFFFFF PUSH1 0x40 MLOAD SWAP2 AND DUP2 MSTORE RETURN JUMPDEST CALLVALUE PUSH2 0x32D JUMPI PUSH1 0x0 CALLDATASIZE PUSH1 0x3 NOT ADD SLT PUSH2 0x32D JUMPI PUSH1 0x40 MLOAD PUSH1 0x0 PUSH1 0x4 SLOAD PUSH2 0x115E DUP2 PUSH2 0x19C1 JUMP JUMPDEST DUP1 DUP5 MSTORE SWAP1 PUSH1 0x1 DUP2 AND SWAP1 DUP2 ISZERO PUSH2 0x57C JUMPI POP PUSH1 0x1 EQ PUSH2 0x1185 JUMPI PUSH2 0x519 DUP4 PUSH2 0x50D DUP2 DUP6 SUB DUP3 PUSH2 0x1AB5 JUMP JUMPDEST PUSH1 0x4 PUSH1 0x0 SWAP1 DUP2 MSTORE PUSH32 0x8A35ACFBC15FF81A39AE7D344FD709F28E8600B4AA8C65C6B64BFE7FE36BD19B SWAP4 SWAP3 POP SWAP1 JUMPDEST DUP1 DUP3 LT PUSH2 0x11CA JUMPI POP SWAP1 SWAP2 POP DUP2 ADD PUSH1 0x20 ADD PUSH2 0x50D PUSH2 0x4FD JUMP JUMPDEST SWAP2 SWAP3 PUSH1 0x1 DUP2 PUSH1 0x20 SWAP3 SLOAD DUP4 DUP6 DUP9 ADD ADD MSTORE ADD SWAP2 ADD SWAP1 SWAP3 SWAP2 PUSH2 0x11B2 JUMP JUMPDEST CALLVALUE PUSH2 0x32D JUMPI PUSH1 0x20 CALLDATASIZE PUSH1 0x3 NOT ADD SLT PUSH2 0x32D JUMPI PUSH1 0x1 PUSH1 0x1 PUSH1 0xA0 SHL SUB PUSH2 0x1205 PUSH2 0x332 JUMP JUMPDEST AND DUP1 PUSH1 0x0 MSTORE PUSH1 0xA PUSH1 0x20 MSTORE PUSH1 0x40 PUSH1 0x0 KECCAK256 SLOAD SWAP1 DUP2 ISZERO PUSH1 0x0 EQ PUSH2 0x1241 JUMPI POP POP PUSH2 0x519 PUSH1 0x0 JUMPDEST PUSH1 0x40 MLOAD PUSH1 0x1 PUSH1 0x1 PUSH1 0xE0 SHL SUB SWAP1 SWAP2 AND DUP2 MSTORE SWAP1 DUP2 SWAP1 PUSH1 0x20 DUP3 ADD SWAP1 JUMP JUMPDEST PUSH2 0x519 SWAP2 PUSH2 0x1261 SWAP2 PUSH1 0x0 MSTORE PUSH1 0xA PUSH1 0x20 MSTORE PUSH1 0x40 PUSH1 0x0 KECCAK256 SWAP1 PUSH1 0x0 NOT ADD SWAP1 PUSH2 0x1CCE JUMP JUMPDEST POP SLOAD PUSH1 0x20 SHR PUSH2 0x1227 JUMP JUMPDEST CALLVALUE PUSH2 0x32D JUMPI PUSH1 0x0 CALLDATASIZE PUSH1 0x3 NOT ADD SLT PUSH2 0x32D JUMPI PUSH1 0x20 PUSH1 0x40 MLOAD PUSH1 0x0 DUP2 MSTORE RETURN JUMPDEST CALLVALUE PUSH2 0x32D JUMPI PUSH1 0x40 CALLDATASIZE PUSH1 0x3 NOT ADD SLT PUSH2 0x32D JUMPI PUSH2 0x12A0 PUSH2 0x332 JUMP JUMPDEST PUSH1 0x24 CALLDATALOAD SWAP1 CALLER PUSH1 0x0 MSTORE PUSH1 0x1 PUSH1 0x20 MSTORE PUSH2 0x12CD DUP2 PUSH1 0x40 PUSH1 0x0 KECCAK256 SWAP1 PUSH1 0x1 DUP1 PUSH1 0xA0 SHL SUB AND PUSH1 0x0 MSTORE PUSH1 0x20 MSTORE PUSH1 0x40 PUSH1 0x0 KECCAK256 SWAP1 JUMP JUMPDEST SLOAD SWAP2 DUP1 DUP4 LT PUSH2 0x12E2 JUMPI PUSH2 0x64C SWAP3 SUB SWAP1 CALLER PUSH2 0x1DFD JUMP JUMPDEST PUSH1 0x40 MLOAD PUSH3 0x461BCD PUSH1 0xE5 SHL DUP2 MSTORE PUSH1 0x20 PUSH1 0x4 DUP3 ADD MSTORE PUSH1 0x25 PUSH1 0x24 DUP3 ADD MSTORE PUSH32 0x45524332303A2064656372656173656420616C6C6F77616E63652062656C6F77 PUSH1 0x44 DUP3 ADD MSTORE PUSH5 0x207A65726F PUSH1 0xD8 SHL PUSH1 0x64 DUP3 ADD MSTORE PUSH1 0x84 SWAP1 REVERT JUMPDEST CALLVALUE PUSH2 0x32D JUMPI PUSH1 0x40 CALLDATASIZE PUSH1 0x3 NOT ADD SLT PUSH2 0x32D JUMPI PUSH2 0x5C6 PUSH2 0x1351 PUSH2 0x332 JUMP JUMPDEST PUSH1 0x24 CALLDATALOAD SWAP1 CALLER PUSH2 0x1FE6 JUMP JUMPDEST CALLVALUE PUSH2 0x32D JUMPI PUSH1 0x40 CALLDATASIZE PUSH1 0x3 NOT ADD SLT PUSH2 0x32D JUMPI PUSH2 0x1374 PUSH2 0x332 JUMP JUMPDEST PUSH1 0x24 CALLDATALOAD PUSH2 0x137F PUSH2 0x20F9 JUMP JUMPDEST PUSH1 0x1 PUSH1 0x1 PUSH1 0xA0 SHL SUB DUP3 AND SWAP2 DUP3 ISZERO PUSH2 0x1463 JUMPI PUSH1 0x1 PUSH1 0x1 PUSH1 0xA0 SHL SUB DUP2 AND PUSH1 0x0 SWAP1 DUP2 MSTORE PUSH1 0x20 DUP2 SWAP1 MSTORE PUSH1 0x40 DUP2 KECCAK256 PUSH32 0xFD38818F5291BF0BB3A2A48AADC06BA8757865D1DABD804585338AAB3009DCB6 SWAP5 SWAP1 DUP5 SWAP1 SLOAD PUSH2 0x13DA DUP3 DUP3 LT ISZERO PUSH2 0x3145 JUMP JUMPDEST SUB PUSH2 0x13F7 DUP5 PUSH1 0x1 DUP1 PUSH1 0xA0 SHL SUB AND PUSH1 0x0 MSTORE PUSH1 0x0 PUSH1 0x20 MSTORE PUSH1 0x40 PUSH1 0x0 KECCAK256 SWAP1 JUMP JUMPDEST SSTORE PUSH2 0x1405 DUP5 PUSH1 0x2 SLOAD SUB PUSH1 0x2 SSTORE JUMP JUMPDEST PUSH1 0x40 MLOAD DUP5 DUP2 MSTORE PUSH32 0xDDF252AD1BE2C89B69C2B068FC378DAA952BA7F163C4A11628F55A4DF523B3EF SWAP1 PUSH1 0x20 SWAP1 LOG3 PUSH2 0x143B DUP3 DUP3 PUSH2 0x2BE7 JUMP JUMPDEST PUSH2 0x1444 DUP3 PUSH2 0x2F10 JUMP JUMPDEST POP POP PUSH1 0x40 DUP1 MLOAD PUSH1 0x1 PUSH1 0x1 PUSH1 0xA0 SHL SUB SWAP3 SWAP1 SWAP3 AND DUP3 MSTORE PUSH1 0x20 DUP3 ADD SWAP3 SWAP1 SWAP3 MSTORE LOG1 STOP JUMPDEST PUSH1 0x40 MLOAD PUSH3 0x461BCD PUSH1 0xE5 SHL DUP2 MSTORE PUSH1 0x20 PUSH1 0x4 DUP3 ADD MSTORE PUSH1 0x21 PUSH1 0x24 DUP3 ADD MSTORE PUSH32 0x45524332303A206275726E2066726F6D20746865207A65726F20616464726573 PUSH1 0x44 DUP3 ADD MSTORE PUSH1 0x73 PUSH1 0xF8 SHL PUSH1 0x64 DUP3 ADD MSTORE PUSH1 0x84 SWAP1 REVERT JUMPDEST PUSH1 0x64 CALLDATALOAD SWAP1 PUSH1 0xFF DUP3 AND DUP3 SUB PUSH2 0x32D JUMPI JUMP JUMPDEST PUSH1 0x84 CALLDATALOAD SWAP1 PUSH1 0xFF DUP3 AND DUP3 SUB PUSH2 0x32D JUMPI JUMP JUMPDEST CALLVALUE PUSH2 0x32D JUMPI PUSH1 0xC0 CALLDATASIZE PUSH1 0x3 NOT ADD SLT PUSH2 0x32D JUMPI PUSH2 0x14EB PUSH2 0x332 JUMP JUMPDEST PUSH1 0x44 CALLDATALOAD SWAP1 PUSH1 0x24 CALLDATALOAD PUSH2 0x14FA PUSH2 0x14B2 JUMP JUMPDEST PUSH1 0x84 CALLDATALOAD SWAP4 PUSH1 0xA4 CALLDATALOAD DUP2 TIMESTAMP GT PUSH2 0x15B8 JUMPI PUSH2 0x93C SWAP6 PUSH2 0x15B3 SWAP4 PUSH2 0x1585 DUP8 PUSH2 0x156F PUSH2 0x157D PUSH2 0x158A SWAP8 PUSH1 0x40 MLOAD SWAP3 DUP4 SWAP2 DUP13 PUSH1 0x20 DUP5 ADD SWAP7 DUP8 PUSH1 0x60 SWAP2 SWAP5 SWAP4 SWAP3 PUSH1 0x80 DUP3 ADD SWAP6 PUSH32 0xE48329057BFD03D55E49B547132E39CFFD9C1820AD7B9D4C5307691425D15ADF DUP4 MSTORE PUSH1 0x1 DUP1 PUSH1 0xA0 SHL SUB AND PUSH1 0x20 DUP4 ADD MSTORE PUSH1 0x40 DUP3 ADD MSTORE ADD MSTORE JUMP JUMPDEST SUB PUSH1 0x1F NOT DUP2 ADD DUP4 MSTORE DUP3 PUSH2 0x1AB5 JUMP JUMPDEST MLOAD SWAP1 KECCAK256 PUSH2 0x259B JUMP JUMPDEST PUSH2 0x25C1 JUMP JUMPDEST PUSH1 0x1 PUSH1 0x1 PUSH1 0xA0 SHL SUB DUP2 AND PUSH1 0x0 SWAP1 DUP2 MSTORE PUSH1 0x7 PUSH1 0x20 MSTORE PUSH1 0x40 SWAP1 KECCAK256 DUP1 SLOAD PUSH1 0x1 DUP2 ADD SWAP1 SWAP2 SSTORE SWAP1 SWAP3 EQ PUSH2 0x1CEB JUMP JUMPDEST PUSH2 0x23B8 JUMP JUMPDEST PUSH1 0x40 MLOAD PUSH3 0x461BCD PUSH1 0xE5 SHL DUP2 MSTORE PUSH1 0x20 PUSH1 0x4 DUP3 ADD MSTORE PUSH1 0x1D PUSH1 0x24 DUP3 ADD MSTORE PUSH32 0x4552433230566F7465733A207369676E61747572652065787069726564000000 PUSH1 0x44 DUP3 ADD MSTORE PUSH1 0x64 SWAP1 REVERT JUMPDEST CALLVALUE PUSH2 0x32D JUMPI PUSH1 0xE0 CALLDATASIZE PUSH1 0x3 NOT ADD SLT PUSH2 0x32D JUMPI PUSH2 0x1616 PUSH2 0x332 JUMP JUMPDEST PUSH2 0x161E PUSH2 0x348 JUMP JUMPDEST PUSH1 0x44 CALLDATALOAD SWAP1 PUSH1 0x64 CALLDATALOAD SWAP3 PUSH2 0x162E PUSH2 0x14C2 JUMP JUMPDEST PUSH1 0xA4 CALLDATALOAD SWAP5 PUSH1 0xC4 CALLDATALOAD DUP2 TIMESTAMP GT PUSH2 0x16F5 JUMPI PUSH2 0x93C SWAP7 PUSH2 0x16F0 SWAP4 PUSH2 0x1585 DUP7 DUP10 PUSH2 0x157D DUP11 PUSH2 0x156F PUSH2 0x16DD SWAP10 PUSH2 0x1679 DUP7 PUSH1 0x1 DUP1 PUSH1 0xA0 SHL SUB AND PUSH1 0x0 MSTORE PUSH1 0x7 PUSH1 0x20 MSTORE PUSH1 0x40 PUSH1 0x0 KECCAK256 SWAP1 DUP2 SLOAD SWAP2 PUSH1 0x1 DUP4 ADD SWAP1 SSTORE JUMP JUMPDEST PUSH1 0x40 MLOAD SWAP6 DUP7 SWAP5 PUSH1 0x20 DUP7 ADD SWAP9 DUP10 SWAP2 SWAP3 PUSH1 0xA0 SWAP4 SWAP7 SWAP6 SWAP5 SWAP2 SWAP7 PUSH1 0xC0 DUP5 ADD SWAP8 PUSH32 0x6E71EDAE12B1B97F4D1F60370FEF10105FA2FAAE0126114A169C64845D6126C9 DUP6 MSTORE PUSH1 0x1 DUP1 DUP8 SHL SUB AND PUSH1 0x20 DUP6 ADD MSTORE PUSH1 0x1 DUP1 DUP7 SHL SUB AND PUSH1 0x40 DUP5 ADD MSTORE PUSH1 0x60 DUP4 ADD MSTORE PUSH1 0x80 DUP3 ADD MSTORE ADD MSTORE JUMP JUMPDEST PUSH1 0x1 PUSH1 0x1 PUSH1 0xA0 SHL SUB DUP4 DUP2 AND SWAP2 AND EQ PUSH2 0x1D37 JUMP JUMPDEST PUSH2 0x1DFD JUMP JUMPDEST PUSH1 0x40 MLOAD PUSH3 0x461BCD PUSH1 0xE5 SHL DUP2 MSTORE PUSH1 0x20 PUSH1 0x4 DUP3 ADD MSTORE PUSH1 0x1D PUSH1 0x24 DUP3 ADD MSTORE PUSH32 0x45524332305065726D69743A206578706972656420646561646C696E65000000 PUSH1 0x44 DUP3 ADD MSTORE PUSH1 0x64 SWAP1 REVERT JUMPDEST CALLVALUE PUSH2 0x32D JUMPI PUSH1 0x40 CALLDATASIZE PUSH1 0x3 NOT ADD SLT PUSH2 0x32D JUMPI PUSH2 0x93C PUSH1 0x4 CALLDATALOAD PUSH2 0x1759 PUSH2 0x348 JUMP JUMPDEST SWAP1 PUSH2 0x1775 PUSH2 0x3C1 DUP3 PUSH1 0x0 MSTORE PUSH1 0xC PUSH1 0x20 MSTORE PUSH1 0x1 PUSH1 0x40 PUSH1 0x0 KECCAK256 ADD SLOAD SWAP1 JUMP JUMPDEST PUSH2 0x232D JUMP JUMPDEST CALLVALUE PUSH2 0x32D JUMPI PUSH1 0x0 CALLDATASIZE PUSH1 0x3 NOT ADD SLT PUSH2 0x32D JUMPI PUSH1 0x20 PUSH1 0xE SLOAD PUSH1 0x40 MLOAD SWAP1 DUP2 MSTORE RETURN JUMPDEST CALLVALUE PUSH2 0x32D JUMPI PUSH1 0x40 CALLDATASIZE PUSH1 0x3 NOT ADD SLT PUSH2 0x32D JUMPI PUSH2 0x93C PUSH2 0x17B4 PUSH2 0x332 JUMP JUMPDEST PUSH1 0x24 CALLDATALOAD SWAP1 PUSH2 0xB74 PUSH2 0x20F9 JUMP JUMPDEST CALLVALUE PUSH2 0x32D JUMPI PUSH1 0x40 CALLDATASIZE PUSH1 0x3 NOT ADD SLT PUSH2 0x32D JUMPI PUSH1 0x20 PUSH2 0x180F PUSH2 0x17DE PUSH2 0x332 JUMP JUMPDEST PUSH2 0x17E6 PUSH2 0x348 JUMP JUMPDEST PUSH1 0x1 PUSH1 0x1 PUSH1 0xA0 SHL SUB SWAP2 DUP3 AND PUSH1 0x0 SWAP1 DUP2 MSTORE PUSH1 0x1 DUP6 MSTORE PUSH1 0x40 DUP1 DUP3 KECCAK256 SWAP3 SWAP1 SWAP4 AND DUP2 MSTORE PUSH1 0x20 SWAP2 SWAP1 SWAP2 MSTORE KECCAK256 SWAP1 JUMP JUMPDEST SLOAD PUSH1 0x40 MLOAD SWAP1 DUP2 MSTORE RETURN JUMPDEST CALLVALUE PUSH2 0x32D JUMPI PUSH1 0x40 CALLDATASIZE PUSH1 0x3 NOT ADD SLT PUSH2 0x32D JUMPI PUSH2 0x1831 PUSH2 0x332 JUMP JUMPDEST PUSH1 0x24 CALLDATALOAD SWAP1 PUSH4 0xFFFFFFFF DUP3 AND DUP3 SUB PUSH2 0x32D JUMPI PUSH2 0x1881 SWAP2 PUSH2 0x187B SWAP2 PUSH1 0x0 PUSH1 0x20 PUSH1 0x40 MLOAD PUSH2 0x185A DUP2 PUSH2 0x1A94 JUMP JUMPDEST DUP3 DUP2 MSTORE ADD MSTORE PUSH1 0x1 PUSH1 0x1 PUSH1 0xA0 SHL SUB AND PUSH1 0x0 SWAP1 DUP2 MSTORE PUSH1 0xA PUSH1 0x20 MSTORE PUSH1 0x40 SWAP1 KECCAK256 PUSH2 0x1CCE JUMP JUMPDEST POP PUSH2 0x1D83 JUMP JUMPDEST PUSH1 0x40 DUP1 MLOAD DUP3 MLOAD PUSH4 0xFFFFFFFF AND DUP2 MSTORE PUSH1 0x20 SWAP3 DUP4 ADD MLOAD PUSH1 0x1 PUSH1 0x1 PUSH1 0xE0 SHL SUB AND SWAP3 DUP2 ADD SWAP3 SWAP1 SWAP3 MSTORE SWAP1 RETURN JUMPDEST CALLVALUE PUSH2 0x32D JUMPI PUSH1 0x20 CALLDATASIZE PUSH1 0x3 NOT ADD SLT PUSH2 0x32D JUMPI PUSH2 0x18C1 PUSH2 0x332 JUMP JUMPDEST PUSH2 0x18C9 PUSH2 0x1DA5 JUMP JUMPDEST PUSH1 0x1 PUSH1 0x1 PUSH1 0xA0 SHL SUB DUP2 AND ISZERO PUSH2 0x1921 JUMPI PUSH1 0xD DUP1 SLOAD PUSH1 0x1 PUSH1 0x1 PUSH1 0xA0 SHL SUB SWAP3 DUP4 AND PUSH1 0x1 PUSH1 0x1 PUSH1 0xA0 SHL SUB NOT DUP3 AND DUP2 OR SWAP1 SWAP3 SSTORE SWAP1 SWAP2 AND PUSH32 0x8BE0079C531659141344CD1FD0A4F28419497F9722A3DAAFE3B4186F6B6457E0 PUSH1 0x0 DUP1 LOG3 STOP JUMPDEST PUSH1 0x40 MLOAD PUSH3 0x461BCD PUSH1 0xE5 SHL DUP2 MSTORE PUSH1 0x20 PUSH1 0x4 DUP3 ADD MSTORE PUSH1 0x26 PUSH1 0x24 DUP3 ADD MSTORE PUSH32 0x4F776E61626C653A206E6577206F776E657220697320746865207A65726F2061 PUSH1 0x44 DUP3 ADD MSTORE PUSH6 0x646472657373 PUSH1 0xD0 SHL PUSH1 0x64 DUP3 ADD MSTORE PUSH1 0x84 SWAP1 REVERT JUMPDEST PUSH4 0x4E487B71 PUSH1 0xE0 SHL PUSH1 0x0 MSTORE PUSH1 0x11 PUSH1 0x4 MSTORE PUSH1 0x24 PUSH1 0x0 REVERT JUMPDEST SWAP1 PUSH1 0x1 DUP3 ADD DUP1 SWAP3 GT PUSH2 0x9F5 JUMPI JUMP JUMPDEST SWAP1 PUSH1 0x2 DUP3 ADD DUP1 SWAP3 GT PUSH2 0x9F5 JUMPI JUMP JUMPDEST SWAP2 SWAP1 DUP3 ADD DUP1 SWAP3 GT PUSH2 0x9F5 JUMPI JUMP JUMPDEST SWAP2 SWAP1 DUP3 SUB SWAP2 DUP3 GT PUSH2 0x9F5 JUMPI JUMP JUMPDEST SWAP1 PUSH1 0x1 DUP3 DUP2 SHR SWAP3 AND DUP1 ISZERO PUSH2 0x19F1 JUMPI JUMPDEST PUSH1 0x20 DUP4 LT EQ PUSH2 0x19DB JUMPI JUMP JUMPDEST PUSH4 0x4E487B71 PUSH1 0xE0 SHL PUSH1 0x0 MSTORE PUSH1 0x22 PUSH1 0x4 MSTORE PUSH1 0x24 PUSH1 0x0 REVERT JUMPDEST SWAP2 PUSH1 0x7F AND SWAP2 PUSH2 0x19D0 JUMP JUMPDEST PUSH1 0x0 SWAP3 SWAP2 DUP2 SLOAD SWAP2 PUSH2 0x1A0B DUP4 PUSH2 0x19C1 JUMP JUMPDEST DUP1 DUP4 MSTORE SWAP3 PUSH1 0x1 DUP2 AND SWAP1 DUP2 ISZERO PUSH2 0x1A61 JUMPI POP PUSH1 0x1 EQ PUSH2 0x1A27 JUMPI POP POP POP JUMP JUMPDEST PUSH1 0x0 SWAP1 DUP2 MSTORE PUSH1 0x20 DUP2 KECCAK256 SWAP4 SWAP5 POP SWAP2 SWAP3 JUMPDEST DUP4 DUP4 LT PUSH2 0x1A47 JUMPI POP PUSH1 0x20 SWAP3 POP ADD ADD SWAP1 JUMP JUMPDEST PUSH1 0x1 DUP2 PUSH1 0x20 SWAP3 SWAP5 SWAP4 SWAP5 SLOAD DUP4 DUP6 DUP8 ADD ADD MSTORE ADD SWAP2 ADD SWAP2 SWAP1 PUSH2 0x1A36 JUMP JUMPDEST SWAP2 POP POP PUSH1 0x20 SWAP4 SWAP5 POP PUSH1 0xFF SWAP3 SWAP2 SWAP3 NOT AND DUP4 DUP4 ADD MSTORE ISZERO ISZERO PUSH1 0x5 SHL ADD ADD SWAP1 JUMP JUMPDEST PUSH4 0x4E487B71 PUSH1 0xE0 SHL PUSH1 0x0 MSTORE PUSH1 0x41 PUSH1 0x4 MSTORE PUSH1 0x24 PUSH1 0x0 REVERT JUMPDEST PUSH1 0x40 DUP2 ADD SWAP1 DUP2 LT PUSH8 0xFFFFFFFFFFFFFFFF DUP3 GT OR PUSH2 0x1AB0 JUMPI PUSH1 0x40 MSTORE JUMP JUMPDEST PUSH2 0x1A7E JUMP JUMPDEST SWAP1 PUSH1 0x1F DUP1 NOT SWAP2 ADD AND DUP2 ADD SWAP1 DUP2 LT PUSH8 0xFFFFFFFFFFFFFFFF DUP3 GT OR PUSH2 0x1AB0 JUMPI PUSH1 0x40 MSTORE JUMP JUMPDEST ISZERO PUSH2 0x1ADE JUMPI JUMP JUMPDEST PUSH1 0x40 MLOAD PUSH3 0x461BCD PUSH1 0xE5 SHL DUP2 MSTORE PUSH1 0x20 PUSH1 0x4 DUP3 ADD MSTORE PUSH1 0x19 PUSH1 0x24 DUP3 ADD MSTORE PUSH32 0x4552433230566F7465733A20667574757265206C6F6F6B757000000000000000 PUSH1 0x44 DUP3 ADD MSTORE PUSH1 0x64 SWAP1 REVERT JUMPDEST SWAP1 PUSH1 0x2 SLOAD SWAP2 DUP2 DUP4 ADD DUP1 DUP5 GT PUSH2 0x9F5 JUMPI PUSH1 0xE SLOAD LT PUSH2 0x1C51 JUMPI PUSH1 0x1 PUSH1 0x1 PUSH1 0xA0 SHL SUB DUP2 AND DUP1 ISZERO PUSH2 0x1C0C JUMPI PUSH2 0x1B7D PUSH2 0x1B78 DUP5 PUSH32 0x3F2C9D57C068687834F0DE942A9BABB9E5ACAB57D516D3480A3C16EE165A4273 SWAP7 PUSH2 0x19A7 JUMP JUMPDEST PUSH1 0x2 SSTORE JUMP JUMPDEST PUSH1 0x1 PUSH1 0x1 PUSH1 0xA0 SHL SUB DUP3 AND PUSH1 0x0 SWAP1 DUP2 MSTORE PUSH1 0x20 DUP2 DUP2 MSTORE PUSH1 0x40 DUP1 DUP4 KECCAK256 DUP1 SLOAD DUP8 ADD SWAP1 SSTORE MLOAD DUP6 DUP2 MSTORE PUSH32 0xDDF252AD1BE2C89B69C2B068FC378DAA952BA7F163C4A11628F55A4DF523B3EF SWAP2 SWAP1 LOG3 PUSH2 0x1BCE DUP3 DUP3 PUSH2 0x2C35 JUMP JUMPDEST PUSH1 0x2 SLOAD PUSH2 0x1BE4 SWAP1 PUSH1 0x1 PUSH1 0x1 PUSH1 0xE0 SHL SUB LT ISZERO PUSH2 0x2799 JUMP JUMPDEST PUSH2 0x1BED DUP3 PUSH2 0x3021 JUMP JUMPDEST POP POP PUSH1 0x40 DUP1 MLOAD PUSH1 0x1 PUSH1 0x1 PUSH1 0xA0 SHL SUB SWAP3 SWAP1 SWAP3 AND DUP3 MSTORE PUSH1 0x20 DUP3 ADD SWAP3 SWAP1 SWAP3 MSTORE LOG1 JUMP JUMPDEST PUSH1 0x40 MLOAD PUSH3 0x461BCD PUSH1 0xE5 SHL DUP2 MSTORE PUSH1 0x20 PUSH1 0x4 DUP3 ADD MSTORE PUSH1 0x1F PUSH1 0x24 DUP3 ADD MSTORE PUSH32 0x45524332303A206D696E7420746F20746865207A65726F206164647265737300 PUSH1 0x44 DUP3 ADD MSTORE PUSH1 0x64 SWAP1 REVERT JUMPDEST PUSH1 0x40 MLOAD PUSH3 0x461BCD PUSH1 0xE5 SHL DUP2 MSTORE PUSH1 0x20 PUSH1 0x4 DUP3 ADD MSTORE PUSH1 0x12 PUSH1 0x24 DUP3 ADD MSTORE PUSH18 0x45786365656473206D617820737570706C79 PUSH1 0x70 SHL PUSH1 0x44 DUP3 ADD MSTORE PUSH1 0x64 SWAP1 REVERT JUMPDEST PUSH1 0x40 MLOAD SWAP1 PUSH2 0x1C9A PUSH1 0x40 DUP4 PUSH2 0x1AB5 JUMP JUMPDEST JUMP JUMPDEST PUSH8 0xFFFFFFFFFFFFFFFF DUP2 GT PUSH2 0x1AB0 JUMPI PUSH1 0x1F ADD PUSH1 0x1F NOT AND PUSH1 0x20 ADD SWAP1 JUMP JUMPDEST PUSH4 0x4E487B71 PUSH1 0xE0 SHL PUSH1 0x0 MSTORE PUSH1 0x32 PUSH1 0x4 MSTORE PUSH1 0x24 PUSH1 0x0 REVERT JUMPDEST DUP1 SLOAD DUP3 LT ISZERO PUSH2 0x1CE6 JUMPI PUSH1 0x0 MSTORE PUSH1 0x20 PUSH1 0x0 KECCAK256 ADD SWAP1 PUSH1 0x0 SWAP1 JUMP JUMPDEST PUSH2 0x1CB8 JUMP JUMPDEST ISZERO PUSH2 0x1CF2 JUMPI JUMP JUMPDEST PUSH1 0x40 MLOAD PUSH3 0x461BCD PUSH1 0xE5 SHL DUP2 MSTORE PUSH1 0x20 PUSH1 0x4 DUP3 ADD MSTORE PUSH1 0x19 PUSH1 0x24 DUP3 ADD MSTORE PUSH32 0x4552433230566F7465733A20696E76616C6964206E6F6E636500000000000000 PUSH1 0x44 DUP3 ADD MSTORE PUSH1 0x64 SWAP1 REVERT JUMPDEST ISZERO PUSH2 0x1D3E JUMPI JUMP JUMPDEST PUSH1 0x40 MLOAD PUSH3 0x461BCD PUSH1 0xE5 SHL DUP2 MSTORE PUSH1 0x20 PUSH1 0x4 DUP3 ADD MSTORE PUSH1 0x1E PUSH1 0x24 DUP3 ADD MSTORE PUSH32 0x45524332305065726D69743A20696E76616C6964207369676E61747572650000 PUSH1 0x44 DUP3 ADD MSTORE PUSH1 0x64 SWAP1 REVERT JUMPDEST SWAP1 PUSH1 0x40 MLOAD PUSH2 0x1D90 DUP2 PUSH2 0x1A94 JUMP JUMPDEST PUSH1 0x20 DUP2 SWAP4 SLOAD PUSH4 0xFFFFFFFF DUP2 AND DUP4 MSTORE DUP2 SHR SWAP2 ADD MSTORE JUMP JUMPDEST PUSH1 0xD SLOAD PUSH1 0x1 PUSH1 0x1 PUSH1 0xA0 SHL SUB AND CALLER SUB PUSH2 0x1DB9 JUMPI JUMP JUMPDEST PUSH1 0x64 PUSH1 0x40 MLOAD PUSH3 0x461BCD PUSH1 0xE5 SHL DUP2 MSTORE PUSH1 0x20 PUSH1 0x4 DUP3 ADD MSTORE PUSH1 0x20 PUSH1 0x24 DUP3 ADD MSTORE PUSH32 0x4F776E61626C653A2063616C6C6572206973206E6F7420746865206F776E6572 PUSH1 0x44 DUP3 ADD MSTORE REVERT JUMPDEST PUSH1 0x1 PUSH1 0x1 PUSH1 0xA0 SHL SUB DUP2 AND SWAP2 SWAP1 DUP3 ISZERO PUSH2 0x1EE2 JUMPI PUSH1 0x1 PUSH1 0x1 PUSH1 0xA0 SHL SUB DUP3 AND SWAP4 DUP5 ISZERO PUSH2 0x1E92 JUMPI DUP1 PUSH2 0x1E7C PUSH32 0x8C5BE1E5EBEC7D5BD14F71427D1E84F3DD0314C0F7B2291E5B200AC8C7C3B925 SWAP5 PUSH2 0x1E65 PUSH2 0x1E8D SWAP6 PUSH1 0x1 DUP1 PUSH1 0xA0 SHL SUB AND PUSH1 0x0 MSTORE PUSH1 0x1 PUSH1 0x20 MSTORE PUSH1 0x40 PUSH1 0x0 KECCAK256 SWAP1 JUMP JUMPDEST SWAP1 PUSH1 0x1 DUP1 PUSH1 0xA0 SHL SUB AND PUSH1 0x0 MSTORE PUSH1 0x20 MSTORE PUSH1 0x40 PUSH1 0x0 KECCAK256 SWAP1 JUMP JUMPDEST SSTORE PUSH1 0x40 MLOAD SWAP1 DUP2 MSTORE SWAP1 DUP2 SWAP1 PUSH1 0x20 DUP3 ADD SWAP1 JUMP JUMPDEST SUB SWAP1 LOG3 JUMP JUMPDEST PUSH1 0x40 MLOAD PUSH3 0x461BCD PUSH1 0xE5 SHL DUP2 MSTORE PUSH1 0x20 PUSH1 0x4 DUP3 ADD MSTORE PUSH1 0x22 PUSH1 0x24 DUP3 ADD MSTORE PUSH32 0x45524332303A20617070726F766520746F20746865207A65726F206164647265 PUSH1 0x44 DUP3 ADD MSTORE PUSH2 0x7373 PUSH1 0xF0 SHL PUSH1 0x64 DUP3 ADD MSTORE PUSH1 0x84 SWAP1 REVERT JUMPDEST PUSH1 0x40 MLOAD PUSH3 0x461BCD PUSH1 0xE5 SHL DUP2 MSTORE PUSH1 0x20 PUSH1 0x4 DUP3 ADD MSTORE PUSH1 0x24 DUP1 DUP3 ADD MSTORE PUSH32 0x45524332303A20617070726F76652066726F6D20746865207A65726F20616464 PUSH1 0x44 DUP3 ADD MSTORE PUSH4 0x72657373 PUSH1 0xE0 SHL PUSH1 0x64 DUP3 ADD MSTORE PUSH1 0x84 SWAP1 REVERT JUMPDEST ISZERO PUSH2 0x1F3A JUMPI JUMP JUMPDEST PUSH1 0x40 MLOAD PUSH3 0x461BCD PUSH1 0xE5 SHL DUP2 MSTORE PUSH1 0x20 PUSH1 0x4 DUP3 ADD MSTORE PUSH1 0x23 PUSH1 0x24 DUP3 ADD MSTORE PUSH32 0x45524332303A207472616E7366657220746F20746865207A65726F2061646472 PUSH1 0x44 DUP3 ADD MSTORE PUSH3 0x657373 PUSH1 0xE8 SHL PUSH1 0x64 DUP3 ADD MSTORE PUSH1 0x84 SWAP1 REVERT JUMPDEST ISZERO PUSH2 0x1F92 JUMPI JUMP JUMPDEST PUSH1 0x40 MLOAD PUSH3 0x461BCD PUSH1 0xE5 SHL DUP2 MSTORE PUSH1 0x20 PUSH1 0x4 DUP3 ADD MSTORE PUSH1 0x26 PUSH1 0x24 DUP3 ADD MSTORE PUSH32 0x45524332303A207472616E7366657220616D6F756E7420657863656564732062 PUSH1 0x44 DUP3 ADD MSTORE PUSH6 0x616C616E6365 PUSH1 0xD0 SHL PUSH1 0x64 DUP3 ADD MSTORE PUSH1 0x84 SWAP1 REVERT JUMPDEST PUSH1 0x1 PUSH1 0x1 PUSH1 0xA0 SHL SUB DUP2 AND SWAP3 SWAP2 SWAP1 DUP4 ISZERO PUSH2 0x20A6 JUMPI PUSH2 0x1C9A SWAP4 PUSH1 0x1 PUSH1 0x1 PUSH1 0xA0 SHL SUB DUP4 AND SWAP1 PUSH2 0x2013 DUP3 ISZERO ISZERO PUSH2 0x1F33 JUMP JUMPDEST PUSH1 0x1 PUSH1 0x1 PUSH1 0xA0 SHL SUB DUP4 AND PUSH1 0x0 SWAP1 DUP2 MSTORE PUSH1 0x20 DUP2 SWAP1 MSTORE PUSH1 0x40 SWAP1 KECCAK256 DUP6 SWAP1 SLOAD PUSH2 0x203A DUP3 DUP3 LT ISZERO PUSH2 0x1F8B JUMP JUMPDEST SUB PUSH2 0x2057 DUP5 PUSH1 0x1 DUP1 PUSH1 0xA0 SHL SUB AND PUSH1 0x0 MSTORE PUSH1 0x0 PUSH1 0x20 MSTORE PUSH1 0x40 PUSH1 0x0 KECCAK256 SWAP1 JUMP JUMPDEST SSTORE PUSH1 0x1 PUSH1 0x1 PUSH1 0xA0 SHL SUB DUP5 AND PUSH1 0x0 SWAP1 DUP2 MSTORE PUSH1 0x20 DUP2 DUP2 MSTORE PUSH1 0x40 SWAP2 DUP3 SWAP1 KECCAK256 DUP1 SLOAD DUP9 ADD SWAP1 SSTORE SWAP1 MLOAD DUP7 DUP2 MSTORE PUSH32 0xDDF252AD1BE2C89B69C2B068FC378DAA952BA7F163C4A11628F55A4DF523B3EF SWAP2 SWAP1 LOG3 PUSH2 0x2C80 JUMP JUMPDEST PUSH1 0x40 MLOAD PUSH3 0x461BCD PUSH1 0xE5 SHL DUP2 MSTORE PUSH1 0x20 PUSH1 0x4 DUP3 ADD MSTORE PUSH1 0x25 PUSH1 0x24 DUP3 ADD MSTORE PUSH32 0x45524332303A207472616E736665722066726F6D20746865207A65726F206164 PUSH1 0x44 DUP3 ADD MSTORE PUSH5 0x6472657373 PUSH1 0xD8 SHL PUSH1 0x64 DUP3 ADD MSTORE PUSH1 0x84 SWAP1 REVERT JUMPDEST CALLER PUSH1 0x0 SWAP1 DUP2 MSTORE PUSH1 0x0 DUP1 MLOAD PUSH1 0x20 PUSH2 0x328D DUP4 CODECOPY DUP2 MLOAD SWAP2 MSTORE PUSH1 0x20 MSTORE PUSH1 0x40 SWAP1 KECCAK256 SLOAD PUSH1 0xFF AND ISZERO PUSH2 0x2120 JUMPI JUMP JUMPDEST PUSH2 0x21CA PUSH1 0x20 PUSH2 0x21B2 PUSH2 0x2131 CALLER PUSH2 0x2D82 JUMP JUMPDEST PUSH2 0x156F PUSH2 0x214B PUSH1 0x0 DUP1 MLOAD PUSH1 0x20 PUSH2 0x324D DUP4 CODECOPY DUP2 MLOAD SWAP2 MSTORE PUSH2 0x2E1C JUMP JUMPDEST PUSH2 0x21AC PUSH1 0x40 MLOAD SWAP6 DUP7 SWAP5 PUSH2 0x218D PUSH1 0x17 DUP4 DUP9 ADD PUSH32 0x416363657373436F6E74726F6C3A206163636F756E7420000000000000000000 DUP2 MSTORE ADD SWAP2 DUP3 DUP2 MLOAD SWAP5 DUP6 SWAP3 ADD PUSH2 0x467 JUMP JUMPDEST ADD PUSH1 0x11 SWAP1 PUSH17 0x1034B99036B4B9B9B4B733903937B6329 PUSH1 0x7D SHL DUP2 MSTORE ADD SWAP1 JUMP JUMPDEST SWAP1 PUSH2 0x25D8 JUMP JUMPDEST PUSH1 0x40 MLOAD PUSH3 0x461BCD PUSH1 0xE5 SHL DUP2 MSTORE SWAP2 DUP3 SWAP2 PUSH1 0x4 DUP4 ADD PUSH2 0x4AF JUMP JUMPDEST SUB SWAP1 REVERT JUMPDEST PUSH1 0x0 DUP2 DUP2 MSTORE PUSH1 0xC PUSH1 0x20 SWAP1 DUP2 MSTORE PUSH1 0x40 DUP1 DUP4 KECCAK256 CALLER DUP5 MSTORE SWAP1 SWAP2 MSTORE SWAP1 KECCAK256 SLOAD PUSH1 0xFF AND ISZERO PUSH2 0x21F3 JUMPI POP JUMP JUMPDEST PUSH1 0x20 PUSH2 0x21B2 PUSH2 0x21CA SWAP3 PUSH2 0x156F PUSH2 0x214B PUSH2 0x220B CALLER PUSH2 0x2D82 JUMP JUMPDEST SWAP3 PUSH2 0x2E1C JUMP JUMPDEST ADDRESS PUSH32 0x0 PUSH1 0x1 PUSH1 0x1 PUSH1 0xA0 SHL SUB AND EQ DUP1 PUSH2 0x2304 JUMPI JUMPDEST ISZERO PUSH2 0x226C JUMPI PUSH32 0x0 SWAP1 JUMP JUMPDEST PUSH1 0x40 MLOAD PUSH1 0x20 DUP2 ADD SWAP1 PUSH32 0x8B73C3C69BB8FE3D512ECC4CF759CC79239F7B179B0FFACAA9A75D522B39400F DUP3 MSTORE PUSH32 0x0 PUSH1 0x40 DUP3 ADD MSTORE PUSH32 0x0 PUSH1 0x60 DUP3 ADD MSTORE CHAINID PUSH1 0x80 DUP3 ADD MSTORE ADDRESS PUSH1 0xA0 DUP3 ADD MSTORE PUSH1 0xA0 DUP2 MSTORE PUSH2 0x22FE PUSH1 0xC0 DUP3 PUSH2 0x1AB5 JUMP JUMPDEST MLOAD SWAP1 KECCAK256 SWAP1 JUMP JUMPDEST POP PUSH32 0x0 CHAINID EQ PUSH2 0x2243 JUMP JUMPDEST PUSH1 0x0 DUP2 DUP2 MSTORE PUSH1 0xC PUSH1 0x20 SWAP1 DUP2 MSTORE PUSH1 0x40 DUP1 DUP4 KECCAK256 PUSH1 0x1 PUSH1 0x1 PUSH1 0xA0 SHL SUB DUP7 AND DUP5 MSTORE SWAP1 SWAP2 MSTORE SWAP1 KECCAK256 SLOAD PUSH1 0xFF AND PUSH2 0x235B JUMPI POP POP JUMP JUMPDEST PUSH1 0x0 DUP2 DUP2 MSTORE PUSH1 0xC PUSH1 0x20 SWAP1 DUP2 MSTORE PUSH1 0x40 DUP1 DUP4 KECCAK256 PUSH1 0x1 PUSH1 0x1 PUSH1 0xA0 SHL SUB DUP7 AND DUP5 MSTORE SWAP1 SWAP2 MSTORE SWAP1 KECCAK256 DUP1 SLOAD PUSH1 0xFF NOT AND SWAP1 SSTORE CALLER SWAP2 PUSH1 0x1 PUSH1 0x1 PUSH1 0xA0 SHL SUB AND SWAP1 PUSH32 0xF6391F5C32D9C69D2A47EA670B442974B53935D1EDC7FD64EB21E047A839171B PUSH1 0x0 DUP1 LOG4 JUMP JUMPDEST PUSH1 0x1 PUSH1 0x1 PUSH1 0xA0 SHL SUB SWAP1 DUP2 AND PUSH1 0x0 DUP2 DUP2 MSTORE PUSH1 0x9 PUSH1 0x20 DUP2 DUP2 MSTORE PUSH1 0x40 DUP1 DUP5 KECCAK256 DUP1 SLOAD DUP6 DUP5 MSTORE SWAP2 DUP6 KECCAK256 SLOAD SWAP4 SWAP1 SWAP3 MSTORE DUP7 DUP7 AND PUSH1 0x1 PUSH1 0x1 PUSH1 0xA0 SHL SUB NOT DUP3 AND DUP2 OR SWAP1 SWAP3 SSTORE PUSH2 0x1C9A SWAP7 SWAP3 SWAP6 SWAP3 SWAP5 SWAP3 AND SWAP3 SWAP1 SWAP2 DUP4 SWAP2 PUSH32 0x3134E8A2E6D97E929A7E54011EA5485D7D196DD5F0BA4D4EF95803E8E3FC257F SWAP1 DUP1 LOG4 PUSH2 0x27FE JUMP JUMPDEST PUSH4 0xFFFFFFFF DUP2 GT PUSH2 0x2440 JUMPI PUSH4 0xFFFFFFFF AND SWAP1 JUMP JUMPDEST PUSH1 0x40 MLOAD PUSH3 0x461BCD PUSH1 0xE5 SHL DUP2 MSTORE PUSH1 0x20 PUSH1 0x4 DUP3 ADD MSTORE PUSH1 0x26 PUSH1 0x24 DUP3 ADD MSTORE PUSH32 0x53616665436173743A2076616C756520646F65736E27742066697420696E2033 PUSH1 0x44 DUP3 ADD MSTORE PUSH6 0x322062697473 PUSH1 0xD0 SHL PUSH1 0x64 DUP3 ADD MSTORE PUSH1 0x84 SWAP1 REVERT JUMPDEST PUSH1 0xFF DUP2 EQ PUSH2 0x24DE JUMPI PUSH1 0xFF DUP2 AND SWAP1 PUSH1 0x1F DUP3 GT PUSH2 0x24CD JUMPI PUSH1 0x40 DUP1 MLOAD SWAP3 PUSH2 0x24B8 DUP3 DUP6 PUSH2 0x1AB5 JUMP JUMPDEST PUSH1 0x20 DUP1 DUP6 MSTORE DUP5 ADD SWAP2 PUSH1 0x1F NOT ADD CALLDATASIZE DUP4 CALLDATACOPY DUP4 MSTORE MSTORE SWAP1 JUMP JUMPDEST PUSH4 0x2CD44AC3 PUSH1 0xE2 SHL PUSH1 0x0 MSTORE PUSH1 0x4 PUSH1 0x0 REVERT JUMPDEST POP PUSH1 0x40 MLOAD PUSH2 0x4C0 DUP2 PUSH2 0x24F1 DUP2 PUSH1 0x5 PUSH2 0x19FB JUMP JUMPDEST SUB DUP3 PUSH2 0x1AB5 JUMP JUMPDEST PUSH1 0xFF DUP2 EQ PUSH2 0x251C JUMPI PUSH1 0xFF DUP2 AND SWAP1 PUSH1 0x1F DUP3 GT PUSH2 0x24CD JUMPI PUSH1 0x40 DUP1 MLOAD SWAP3 PUSH2 0x24B8 DUP3 DUP6 PUSH2 0x1AB5 JUMP JUMPDEST POP PUSH1 0x40 MLOAD PUSH2 0x4C0 DUP2 PUSH2 0x24F1 DUP2 PUSH1 0x6 PUSH2 0x19FB JUMP JUMPDEST PUSH6 0xFFFFFFFFFFFF DUP2 GT PUSH2 0x2547 JUMPI PUSH6 0xFFFFFFFFFFFF AND SWAP1 JUMP JUMPDEST PUSH1 0x40 MLOAD PUSH3 0x461BCD PUSH1 0xE5 SHL DUP2 MSTORE PUSH1 0x20 PUSH1 0x4 DUP3 ADD MSTORE PUSH1 0x26 PUSH1 0x24 DUP3 ADD MSTORE PUSH32 0x53616665436173743A2076616C756520646F65736E27742066697420696E2034 PUSH1 0x44 DUP3 ADD MSTORE PUSH6 0x382062697473 PUSH1 0xD0 SHL PUSH1 0x64 DUP3 ADD MSTORE PUSH1 0x84 SWAP1 REVERT JUMPDEST PUSH1 0x42 SWAP1 PUSH2 0x25A6 PUSH2 0x2211 JUMP JUMPDEST SWAP1 PUSH1 0x40 MLOAD SWAP2 PUSH2 0x1901 PUSH1 0xF0 SHL DUP4 MSTORE PUSH1 0x2 DUP4 ADD MSTORE PUSH1 0x22 DUP3 ADD MSTORE KECCAK256 SWAP1 JUMP JUMPDEST SWAP2 PUSH2 0x4C0 SWAP4 SWAP2 PUSH2 0x25D0 SWAP4 PUSH2 0x2A1B JUMP JUMPDEST SWAP2 SWAP1 SWAP2 PUSH2 0x2AC7 JUMP JUMPDEST SWAP1 PUSH2 0x25EB PUSH1 0x20 SWAP3 DUP3 DUP2 MLOAD SWAP5 DUP6 SWAP3 ADD PUSH2 0x467 JUMP JUMPDEST ADD SWAP1 JUMP JUMPDEST DUP2 ISZERO PUSH2 0x25F9 JUMPI DIV SWAP1 JUMP JUMPDEST PUSH4 0x4E487B71 PUSH1 0xE0 SHL PUSH1 0x0 MSTORE PUSH1 0x12 PUSH1 0x4 MSTORE PUSH1 0x24 PUSH1 0x0 REVERT JUMPDEST DUP1 ISZERO PUSH2 0x277E JUMPI PUSH2 0x4C0 SWAP1 PUSH2 0x2714 PUSH2 0x270D PUSH2 0x2703 PUSH2 0x26F9 PUSH2 0x26EF PUSH2 0x26E5 PUSH2 0x26DB PUSH2 0x26D1 PUSH1 0x1 PUSH2 0x26BF PUSH1 0x0 DUP12 PUSH1 0x80 DUP2 SWAP1 SHR DUP1 PUSH2 0x2770 JUMPI JUMPDEST POP DUP1 PUSH2 0x2653 PUSH2 0x26B5 SWAP3 PUSH1 0x40 SHR SWAP1 JUMP JUMPDEST DUP1 PUSH2 0x2763 JUMPI JUMPDEST POP PUSH2 0x2664 DUP2 PUSH1 0x20 SHR SWAP1 JUMP JUMPDEST DUP1 PUSH2 0x2756 JUMPI JUMPDEST POP PUSH2 0x2675 DUP2 PUSH1 0x10 SHR SWAP1 JUMP JUMPDEST DUP1 PUSH2 0x2749 JUMPI JUMPDEST POP PUSH2 0x2686 DUP2 PUSH1 0x8 SHR SWAP1 JUMP JUMPDEST DUP1 PUSH2 0x273C JUMPI JUMPDEST POP PUSH2 0x2697 DUP2 PUSH1 0x4 SHR SWAP1 JUMP JUMPDEST DUP1 PUSH2 0x272F JUMPI JUMPDEST POP PUSH2 0x26A8 DUP2 PUSH1 0x2 SHR SWAP1 JUMP JUMPDEST DUP1 PUSH2 0x2722 JUMPI JUMPDEST POP PUSH1 0x1 SHR SWAP1 JUMP JUMPDEST PUSH2 0x271A JUMPI PUSH1 0x1 SHR SWAP1 JUMP JUMPDEST SHL PUSH2 0x26CA DUP2 DUP12 PUSH2 0x25EF JUMP JUMPDEST ADD PUSH1 0x1 SHR SWAP1 JUMP JUMPDEST PUSH2 0x26CA DUP2 DUP11 PUSH2 0x25EF JUMP JUMPDEST PUSH2 0x26CA DUP2 DUP10 PUSH2 0x25EF JUMP JUMPDEST PUSH2 0x26CA DUP2 DUP9 PUSH2 0x25EF JUMP JUMPDEST PUSH2 0x26CA DUP2 DUP8 PUSH2 0x25EF JUMP JUMPDEST PUSH2 0x26CA DUP2 DUP7 PUSH2 0x25EF JUMP JUMPDEST PUSH2 0x26CA DUP2 DUP6 PUSH2 0x25EF JUMP JUMPDEST DUP1 SWAP3 PUSH2 0x25EF JUMP JUMPDEST SWAP1 PUSH2 0x2E9F JUMP JUMPDEST DUP3 ADD PUSH1 0x1 SHR SWAP1 JUMP JUMPDEST PUSH1 0x2 SWAP2 POP SWAP3 ADD SWAP2 CODESIZE PUSH2 0x26AE JUMP JUMPDEST PUSH1 0x4 SWAP2 POP SWAP3 ADD SWAP2 CODESIZE PUSH2 0x269D JUMP JUMPDEST PUSH1 0x8 SWAP2 POP SWAP3 ADD SWAP2 CODESIZE PUSH2 0x268C JUMP JUMPDEST PUSH1 0x10 SWAP2 POP SWAP3 ADD SWAP2 CODESIZE PUSH2 0x267B JUMP JUMPDEST PUSH1 0x20 SWAP2 POP SWAP3 ADD SWAP2 CODESIZE PUSH2 0x266A JUMP JUMPDEST PUSH1 0x40 SWAP2 POP SWAP3 ADD SWAP2 CODESIZE PUSH2 0x2659 JUMP JUMPDEST PUSH1 0x80 SWAP3 POP SWAP1 POP PUSH2 0x26B5 PUSH2 0x2644 JUMP JUMPDEST POP PUSH1 0x0 SWAP1 JUMP JUMPDEST SWAP1 DUP1 DUP3 AND SWAP2 XOR PUSH1 0x1 SHR DUP2 ADD DUP1 SWAP2 GT PUSH2 0x9F5 JUMPI SWAP1 JUMP JUMPDEST ISZERO PUSH2 0x27A0 JUMPI JUMP JUMPDEST PUSH1 0x40 MLOAD PUSH3 0x461BCD PUSH1 0xE5 SHL DUP2 MSTORE PUSH1 0x20 PUSH1 0x4 DUP3 ADD MSTORE PUSH1 0x30 PUSH1 0x24 DUP3 ADD MSTORE PUSH32 0x4552433230566F7465733A20746F74616C20737570706C79207269736B73206F PUSH1 0x44 DUP3 ADD MSTORE PUSH16 0x766572666C6F77696E6720766F746573 PUSH1 0x80 SHL PUSH1 0x64 DUP3 ADD MSTORE PUSH1 0x84 SWAP1 REVERT JUMPDEST PUSH1 0x1 PUSH1 0x1 PUSH1 0xA0 SHL SUB DUP1 DUP4 AND SWAP4 SWAP3 SWAP2 AND DUP1 DUP5 EQ ISZERO DUP1 PUSH2 0x2A12 JUMPI JUMPDEST PUSH2 0x2822 JUMPI JUMPDEST POP POP POP POP JUMP JUMPDEST DUP1 PUSH2 0x2890 JUMPI JUMPDEST POP DUP3 PUSH2 0x2835 JUMPI JUMPDEST DUP1 PUSH2 0x281C JUMP JUMPDEST PUSH1 0x1 PUSH1 0x1 PUSH1 0xA0 SHL SUB AND PUSH1 0x0 SWAP1 DUP2 MSTORE PUSH1 0xA PUSH1 0x20 MSTORE PUSH1 0x40 SWAP1 KECCAK256 PUSH32 0xDEC2BACDD2F05B59DE34DA9B523DFF8BE42E5E38E818C82FDB0BAE774387A724 SWAP2 PUSH2 0x2877 SWAP2 PUSH2 0x308A JUMP JUMPDEST PUSH1 0x40 DUP1 MLOAD SWAP3 DUP4 MSTORE PUSH1 0x20 DUP4 ADD SWAP2 SWAP1 SWAP2 MSTORE SWAP1 LOG2 CODESIZE DUP1 DUP1 PUSH2 0x282F JUMP JUMPDEST PUSH1 0x0 DUP2 DUP2 MSTORE PUSH1 0xA PUSH1 0x20 MSTORE PUSH1 0x40 DUP2 KECCAK256 DUP1 SLOAD PUSH32 0xDEC2BACDD2F05B59DE34DA9B523DFF8BE42E5E38E818C82FDB0BAE774387A724 SWAP3 DUP2 ISZERO SWAP3 SWAP1 DUP4 ISZERO PUSH2 0x29EE JUMPI PUSH2 0x28D4 PUSH2 0x1C8B JUMP JUMPDEST SWAP1 DUP1 DUP3 MSTORE PUSH1 0x20 DUP3 ADD MSTORE SWAP2 JUMPDEST PUSH1 0x20 DUP4 ADD MLOAD PUSH2 0x28FE SWAP1 PUSH1 0x1 PUSH1 0x1 PUSH1 0xE0 SHL SUB AND JUMPDEST PUSH1 0x1 PUSH1 0x1 PUSH1 0xE0 SHL SUB AND SWAP1 JUMP JUMPDEST SWAP3 PUSH2 0x290B DUP10 DUP6 PUSH1 0x2 PUSH2 0x320B JUMP JUMPDEST SWAP5 ISZERO SWAP1 DUP2 PUSH2 0x29CB JUMPI JUMPDEST POP ISZERO PUSH2 0x2969 JUMPI PUSH2 0x293C PUSH2 0x2953 SWAP3 PUSH2 0x292A DUP7 PUSH2 0x319C JUMP JUMPDEST SWAP3 PUSH1 0x0 NOT ADD SWAP1 PUSH1 0x0 MSTORE PUSH1 0x20 PUSH1 0x0 KECCAK256 ADD SWAP1 JUMP JUMPDEST SWAP1 PUSH4 0xFFFFFFFF DUP3 SLOAD SWAP2 DUP2 NOT SWAP1 PUSH1 0x20 SHL AND SWAP2 AND OR SWAP1 SSTORE JUMP JUMPDEST PUSH1 0x40 DUP1 MLOAD SWAP2 DUP3 MSTORE PUSH1 0x20 DUP3 ADD SWAP3 SWAP1 SWAP3 MSTORE LOG2 CODESIZE PUSH2 0x2828 JUMP JUMPDEST POP PUSH2 0x29C6 SWAP1 PUSH2 0x298D PUSH2 0x2988 PUSH2 0x297D NUMBER PUSH2 0x252F JUMP JUMPDEST PUSH6 0xFFFFFFFFFFFF AND SWAP1 JUMP JUMPDEST PUSH2 0x242C JUMP JUMPDEST SWAP1 PUSH2 0x29C1 PUSH2 0x299A DUP7 PUSH2 0x319C JUMP JUMPDEST PUSH2 0x29B1 PUSH2 0x29A5 PUSH2 0x1C8B JUMP JUMPDEST PUSH4 0xFFFFFFFF SWAP1 SWAP6 AND DUP6 MSTORE JUMP JUMPDEST PUSH1 0x1 PUSH1 0x1 PUSH1 0xE0 SHL SUB AND PUSH1 0x20 DUP5 ADD MSTORE JUMP JUMPDEST PUSH2 0x2EB1 JUMP JUMPDEST PUSH2 0x2953 JUMP JUMPDEST MLOAD PUSH4 0xFFFFFFFF AND SWAP1 POP PUSH4 0xFFFFFFFF PUSH2 0x29E5 PUSH2 0x297D NUMBER PUSH2 0x252F JUMP JUMPDEST SWAP2 AND EQ CODESIZE PUSH2 0x2914 JUMP JUMPDEST POP PUSH2 0x2A0C PUSH2 0x2A07 PUSH1 0x0 NOT DUP5 ADD DUP4 PUSH1 0x0 MSTORE PUSH1 0x20 PUSH1 0x0 KECCAK256 ADD SWAP1 JUMP JUMPDEST PUSH2 0x1D83 JUMP JUMPDEST SWAP2 PUSH2 0x28DF JUMP JUMPDEST POP DUP3 ISZERO ISZERO PUSH2 0x2817 JUMP JUMPDEST PUSH32 0x7FFFFFFFFFFFFFFFFFFFFFFFFFFFFFFF5D576E7357A4501DDFE92F46681B20A0 DUP5 GT PUSH2 0x2A9B JUMPI PUSH1 0x20 SWAP4 PUSH1 0x0 SWAP4 PUSH1 0xFF PUSH1 0x80 SWAP5 PUSH1 0x40 MLOAD SWAP5 DUP6 MSTORE AND DUP7 DUP5 ADD MSTORE PUSH1 0x40 DUP4 ADD MSTORE PUSH1 0x60 DUP3 ADD MSTORE DUP3 DUP1 MSTORE PUSH1 0x1 GAS STATICCALL ISZERO PUSH2 0x2A8F JUMPI PUSH1 0x0 MLOAD PUSH1 0x1 PUSH1 0x1 PUSH1 0xA0 SHL SUB DUP2 AND ISZERO PUSH2 0x2A86 JUMPI SWAP1 PUSH1 0x0 SWAP1 JUMP JUMPDEST POP PUSH1 0x0 SWAP1 PUSH1 0x1 SWAP1 JUMP JUMPDEST PUSH1 0x40 MLOAD RETURNDATASIZE PUSH1 0x0 DUP3 RETURNDATACOPY RETURNDATASIZE SWAP1 REVERT JUMPDEST POP POP POP POP PUSH1 0x0 SWAP1 PUSH1 0x3 SWAP1 JUMP JUMPDEST PUSH1 0x5 GT ISZERO PUSH2 0x2AB1 JUMPI JUMP JUMPDEST PUSH4 0x4E487B71 PUSH1 0xE0 SHL PUSH1 0x0 MSTORE PUSH1 0x21 PUSH1 0x4 MSTORE PUSH1 0x24 PUSH1 0x0 REVERT JUMPDEST PUSH2 0x2AD0 DUP2 PUSH2 0x2AA7 JUMP JUMPDEST DUP1 PUSH2 0x2AD8 JUMPI POP JUMP JUMPDEST PUSH2 0x2AE1 DUP2 PUSH2 0x2AA7 JUMP JUMPDEST PUSH1 0x1 DUP2 SUB PUSH2 0x2B2E JUMPI PUSH1 0x40 MLOAD PUSH3 0x461BCD PUSH1 0xE5 SHL DUP2 MSTORE PUSH1 0x20 PUSH1 0x4 DUP3 ADD MSTORE PUSH1 0x18 PUSH1 0x24 DUP3 ADD MSTORE PUSH32 0x45434453413A20696E76616C6964207369676E61747572650000000000000000 PUSH1 0x44 DUP3 ADD MSTORE PUSH1 0x64 SWAP1 REVERT JUMPDEST PUSH2 0x2B37 DUP2 PUSH2 0x2AA7 JUMP JUMPDEST PUSH1 0x2 DUP2 SUB PUSH2 0x2B84 JUMPI PUSH1 0x40 MLOAD PUSH3 0x461BCD PUSH1 0xE5 SHL DUP2 MSTORE PUSH1 0x20 PUSH1 0x4 DUP3 ADD MSTORE PUSH1 0x1F PUSH1 0x24 DUP3 ADD MSTORE PUSH32 0x45434453413A20696E76616C6964207369676E6174757265206C656E67746800 PUSH1 0x44 DUP3 ADD MSTORE PUSH1 0x64 SWAP1 REVERT JUMPDEST DUP1 PUSH2 0x2B90 PUSH1 0x3 SWAP3 PUSH2 0x2AA7 JUMP JUMPDEST EQ PUSH2 0x2B97 JUMPI JUMP JUMPDEST PUSH1 0x40 MLOAD PUSH3 0x461BCD PUSH1 0xE5 SHL DUP2 MSTORE PUSH1 0x20 PUSH1 0x4 DUP3 ADD MSTORE PUSH1 0x22 PUSH1 0x24 DUP3 ADD MSTORE PUSH32 0x45434453413A20696E76616C6964207369676E6174757265202773272076616C PUSH1 0x44 DUP3 ADD MSTORE PUSH2 0x7565 PUSH1 0xF0 SHL PUSH1 0x64 DUP3 ADD MSTORE PUSH1 0x84 SWAP1 REVERT JUMPDEST PUSH1 0x1 PUSH1 0x1 PUSH1 0xA0 SHL SUB SWAP1 DUP2 AND PUSH1 0x0 SWAP1 DUP2 MSTORE PUSH1 0x9 PUSH1 0x20 MSTORE PUSH1 0x40 DUP2 KECCAK256 SLOAD SWAP1 DUP1 MSTORE PUSH32 0xEC8156718A8372B1DB44BB411437D0870F3E3790D4A08526D024CE1B0B668F6B SLOAD PUSH2 0x1C9A SWAP4 SWAP3 SWAP1 DUP2 AND SWAP2 AND PUSH2 0x27FE JUMP JUMPDEST PUSH1 0x9 PUSH1 0x20 MSTORE PUSH32 0xEC8156718A8372B1DB44BB411437D0870F3E3790D4A08526D024CE1B0B668F6B SLOAD PUSH1 0x1 PUSH1 0x1 PUSH1 0xA0 SHL SUB SWAP2 DUP3 AND PUSH1 0x0 SWAP1 DUP2 MSTORE PUSH1 0x40 SWAP1 KECCAK256 SLOAD PUSH2 0x1C9A SWAP4 SWAP3 SWAP1 DUP2 AND SWAP2 AND PUSH2 0x27FE JUMP JUMPDEST PUSH1 0x1 PUSH1 0x1 PUSH1 0xA0 SHL SUB SWAP1 DUP2 AND PUSH1 0x0 SWAP1 DUP2 MSTORE PUSH1 0x9 PUSH1 0x20 MSTORE PUSH1 0x40 DUP1 DUP3 KECCAK256 SLOAD SWAP4 DUP4 AND DUP3 MSTORE SWAP1 KECCAK256 SLOAD PUSH2 0x1C9A SWAP4 SWAP3 SWAP1 DUP3 AND SWAP2 AND PUSH2 0x27FE JUMP JUMPDEST PUSH1 0x1 DUP2 SWAP1 SHL SWAP2 SWAP1 PUSH1 0x1 PUSH1 0x1 PUSH1 0xFF SHL SUB DUP2 AND SUB PUSH2 0x9F5 JUMPI JUMP JUMPDEST SWAP1 PUSH2 0x2CD4 DUP3 PUSH2 0x1C9C JUMP JUMPDEST PUSH2 0x2CE1 PUSH1 0x40 MLOAD SWAP2 DUP3 PUSH2 0x1AB5 JUMP JUMPDEST DUP3 DUP2 MSTORE DUP1 SWAP3 PUSH2 0x2CF2 PUSH1 0x1F NOT SWAP2 PUSH2 0x1C9C JUMP JUMPDEST ADD SWAP1 PUSH1 0x20 CALLDATASIZE SWAP2 ADD CALLDATACOPY JUMP JUMPDEST DUP1 MLOAD ISZERO PUSH2 0x1CE6 JUMPI PUSH1 0x20 ADD SWAP1 JUMP JUMPDEST DUP1 MLOAD PUSH1 0x1 LT ISZERO PUSH2 0x1CE6 JUMPI PUSH1 0x21 ADD SWAP1 JUMP JUMPDEST SWAP1 DUP2 MLOAD DUP2 LT ISZERO PUSH2 0x1CE6 JUMPI ADD PUSH1 0x20 ADD SWAP1 JUMP JUMPDEST DUP1 ISZERO PUSH2 0x9F5 JUMPI PUSH1 0x0 NOT ADD SWAP1 JUMP JUMPDEST ISZERO PUSH2 0x2D3E JUMPI JUMP JUMPDEST PUSH1 0x64 PUSH1 0x40 MLOAD PUSH3 0x461BCD PUSH1 0xE5 SHL DUP2 MSTORE PUSH1 0x20 PUSH1 0x4 DUP3 ADD MSTORE PUSH1 0x20 PUSH1 0x24 DUP3 ADD MSTORE PUSH32 0x537472696E67733A20686578206C656E67746820696E73756666696369656E74 PUSH1 0x44 DUP3 ADD MSTORE REVERT JUMPDEST PUSH2 0x2D94 PUSH2 0x2D8F PUSH1 0x28 PUSH2 0x1999 JUMP JUMPDEST PUSH2 0x2CCA JUMP JUMPDEST SWAP1 PUSH1 0x30 PUSH2 0x2DA0 DUP4 PUSH2 0x2CFC JUMP JUMPDEST MSTORE8 PUSH1 0x78 PUSH2 0x2DAC DUP4 PUSH2 0x2D09 JUMP JUMPDEST MSTORE8 PUSH2 0x2DBF PUSH2 0x2DBA PUSH1 0x14 PUSH2 0x2CB2 JUMP JUMPDEST PUSH2 0x198B JUMP JUMPDEST SWAP1 JUMPDEST PUSH1 0x1 DUP3 GT PUSH2 0x2DD4 JUMPI PUSH2 0x4C0 SWAP2 POP ISZERO PUSH2 0x2D37 JUMP JUMPDEST PUSH1 0xF DUP2 AND PUSH1 0x10 DUP2 LT ISZERO PUSH2 0x1CE6 JUMPI PUSH2 0x2E16 SWAP2 PUSH2 0x2E10 SWAP2 PUSH16 0x181899199A1A9B1B9C1CB0B131B232B3 PUSH1 0x81 SHL SWAP1 BYTE PUSH2 0x2E09 DUP6 DUP8 PUSH2 0x2D19 JUMP JUMPDEST MSTORE8 PUSH1 0x4 SHR SWAP1 JUMP JUMPDEST SWAP2 PUSH2 0x2D2A JUMP JUMPDEST SWAP1 PUSH2 0x2DC1 JUMP JUMPDEST PUSH2 0x2E29 PUSH2 0x2D8F PUSH1 0x40 PUSH2 0x1999 JUMP JUMPDEST SWAP1 PUSH1 0x30 PUSH2 0x2E35 DUP4 PUSH2 0x2CFC JUMP JUMPDEST MSTORE8 PUSH1 0x78 PUSH2 0x2E41 DUP4 PUSH2 0x2D09 JUMP JUMPDEST MSTORE8 PUSH2 0x2E4F PUSH2 0x2DBA PUSH1 0x20 PUSH2 0x2CB2 JUMP JUMPDEST SWAP1 JUMPDEST PUSH1 0x1 DUP3 GT PUSH2 0x2E64 JUMPI PUSH2 0x4C0 SWAP2 POP ISZERO PUSH2 0x2D37 JUMP JUMPDEST PUSH1 0xF DUP2 AND PUSH1 0x10 DUP2 LT ISZERO PUSH2 0x1CE6 JUMPI PUSH2 0x2E99 SWAP2 PUSH2 0x2E10 SWAP2 PUSH16 0x181899199A1A9B1B9C1CB0B131B232B3 PUSH1 0x81 SHL SWAP1 BYTE PUSH2 0x2E09 DUP6 DUP8 PUSH2 0x2D19 JUMP JUMPDEST SWAP1 PUSH2 0x2E51 JUMP JUMPDEST SWAP1 DUP1 DUP3 LT ISZERO PUSH2 0x2EAC JUMPI POP SWAP1 JUMP JUMPDEST SWAP1 POP SWAP1 JUMP JUMPDEST DUP1 SLOAD PUSH9 0x10000000000000000 DUP2 LT ISZERO PUSH2 0x1AB0 JUMPI PUSH2 0x2ED3 SWAP2 PUSH1 0x1 DUP3 ADD DUP2 SSTORE PUSH2 0x1CCE JUMP JUMPDEST PUSH2 0x2EFA JUMPI DUP2 MLOAD PUSH1 0x20 SWAP3 DUP4 ADD MLOAD SWAP1 SWAP3 SHL PUSH4 0xFFFFFFFF NOT AND PUSH4 0xFFFFFFFF SWAP3 SWAP1 SWAP3 AND SWAP2 SWAP1 SWAP2 OR SWAP1 SSTORE JUMP JUMPDEST PUSH4 0x4E487B71 PUSH1 0xE0 SHL PUSH1 0x0 MSTORE PUSH1 0x0 PUSH1 0x4 MSTORE PUSH1 0x24 PUSH1 0x0 REVERT JUMPDEST PUSH1 0xB SLOAD SWAP1 SWAP2 DUP2 ISZERO SWAP2 DUP3 ISZERO PUSH2 0x2FFE JUMPI PUSH2 0x2F26 PUSH2 0x1C8B JUMP JUMPDEST PUSH1 0x0 DUP2 MSTORE PUSH1 0x0 PUSH1 0x20 DUP3 ADD MSTORE JUMPDEST PUSH1 0x20 DUP2 ADD MLOAD PUSH2 0x2F56 SWAP1 PUSH2 0x2F4D SWAP1 PUSH1 0x1 PUSH1 0x1 PUSH1 0xE0 SHL SUB AND PUSH2 0x28F2 JUMP JUMPDEST SWAP6 DUP7 PUSH1 0x2 PUSH2 0x320B JUMP JUMPDEST SWAP4 ISZERO SWAP1 DUP2 PUSH2 0x2FDB JUMPI JUMPDEST POP ISZERO PUSH2 0x2F8E JUMPI PUSH2 0x1C9A SWAP1 PUSH2 0x293C PUSH2 0x2F75 DUP6 PUSH2 0x319C JUMP JUMPDEST PUSH1 0xB PUSH1 0x0 MSTORE SWAP2 PUSH1 0x0 DUP1 MLOAD PUSH1 0x20 PUSH2 0x326D DUP4 CODECOPY DUP2 MLOAD SWAP2 MSTORE ADD SWAP1 JUMP JUMPDEST POP PUSH2 0x1C9A PUSH2 0x2FA1 PUSH2 0x2988 PUSH2 0x297D NUMBER PUSH2 0x252F JUMP JUMPDEST PUSH2 0x2FD4 PUSH2 0x2FAD DUP6 PUSH2 0x319C JUMP JUMPDEST PUSH2 0x2FC4 PUSH2 0x2FB8 PUSH2 0x1C8B JUMP JUMPDEST PUSH4 0xFFFFFFFF SWAP1 SWAP5 AND DUP5 MSTORE JUMP JUMPDEST PUSH1 0x1 PUSH1 0x1 PUSH1 0xE0 SHL SUB AND PUSH1 0x20 DUP4 ADD MSTORE JUMP JUMPDEST PUSH1 0xB PUSH2 0x2EB1 JUMP JUMPDEST MLOAD PUSH4 0xFFFFFFFF AND SWAP1 POP PUSH4 0xFFFFFFFF PUSH2 0x2FF5 PUSH2 0x297D NUMBER PUSH2 0x252F JUMP JUMPDEST SWAP2 AND EQ CODESIZE PUSH2 0x2F5F JUMP JUMPDEST PUSH1 0xB PUSH1 0x0 MSTORE PUSH2 0x301C PUSH1 0x0 DUP1 MLOAD PUSH1 0x20 PUSH2 0x326D DUP4 CODECOPY DUP2 MLOAD SWAP2 MSTORE DUP3 ADD PUSH2 0x1D83 JUMP JUMPDEST PUSH2 0x2F32 JUMP JUMPDEST PUSH1 0xB SLOAD SWAP1 SWAP2 DUP2 ISZERO SWAP2 DUP3 ISZERO PUSH2 0x3067 JUMPI PUSH2 0x3037 PUSH2 0x1C8B JUMP JUMPDEST PUSH1 0x0 DUP2 MSTORE PUSH1 0x0 PUSH1 0x20 DUP3 ADD MSTORE JUMPDEST PUSH1 0x20 DUP2 ADD MLOAD PUSH2 0x2F56 SWAP1 PUSH2 0x305E SWAP1 PUSH1 0x1 PUSH1 0x1 PUSH1 0xE0 SHL SUB AND PUSH2 0x28F2 JUMP JUMPDEST SWAP6 DUP7 PUSH1 0x1 PUSH2 0x320B JUMP JUMPDEST PUSH1 0xB PUSH1 0x0 MSTORE PUSH2 0x3085 PUSH1 0x0 DUP1 MLOAD PUSH1 0x20 PUSH2 0x326D DUP4 CODECOPY DUP2 MLOAD SWAP2 MSTORE DUP3 ADD PUSH2 0x1D83 JUMP JUMPDEST PUSH2 0x3043 JUMP JUMPDEST SWAP1 SWAP2 DUP2 SLOAD SWAP2 DUP3 ISZERO SWAP3 DUP4 PUSH1 0x0 EQ PUSH2 0x3128 JUMPI PUSH2 0x30A2 PUSH2 0x1C8B JUMP JUMPDEST PUSH1 0x0 DUP2 MSTORE PUSH1 0x0 PUSH1 0x20 DUP3 ADD MSTORE JUMPDEST PUSH1 0x20 DUP2 ADD MLOAD PUSH2 0x30D2 SWAP1 PUSH2 0x30C9 SWAP1 PUSH1 0x1 PUSH1 0x1 PUSH1 0xE0 SHL SUB AND PUSH2 0x28F2 JUMP JUMPDEST SWAP7 DUP8 PUSH1 0x1 PUSH2 0x320B JUMP JUMPDEST SWAP5 ISZERO SWAP1 DUP2 PUSH2 0x3105 JUMPI JUMPDEST POP ISZERO PUSH2 0x30F1 JUMPI PUSH2 0x293C PUSH2 0x1C9A SWAP3 PUSH2 0x292A DUP7 PUSH2 0x319C JUMP JUMPDEST POP PUSH2 0x1C9A SWAP1 PUSH2 0x298D PUSH2 0x2988 PUSH2 0x297D NUMBER PUSH2 0x252F JUMP JUMPDEST MLOAD PUSH4 0xFFFFFFFF AND SWAP1 POP PUSH4 0xFFFFFFFF PUSH2 0x311F PUSH2 0x297D NUMBER PUSH2 0x252F JUMP JUMPDEST SWAP2 AND EQ CODESIZE PUSH2 0x30DB JUMP JUMPDEST PUSH2 0x3140 PUSH2 0x2A07 PUSH1 0x0 NOT DUP4 ADD DUP5 PUSH1 0x0 MSTORE PUSH1 0x20 PUSH1 0x0 KECCAK256 ADD SWAP1 JUMP JUMPDEST PUSH2 0x30AE JUMP JUMPDEST ISZERO PUSH2 0x314C JUMPI JUMP JUMPDEST PUSH1 0x40 MLOAD PUSH3 0x461BCD PUSH1 0xE5 SHL DUP2 MSTORE PUSH1 0x20 PUSH1 0x4 DUP3 ADD MSTORE PUSH1 0x22 PUSH1 0x24 DUP3 ADD MSTORE PUSH32 0x45524332303A206275726E20616D6F756E7420657863656564732062616C616E PUSH1 0x44 DUP3 ADD MSTORE PUSH2 0x6365 PUSH1 0xF0 SHL PUSH1 0x64 DUP3 ADD MSTORE PUSH1 0x84 SWAP1 REVERT JUMPDEST PUSH1 0x1 PUSH1 0x1 PUSH1 0xE0 SHL SUB DUP2 GT PUSH2 0x31B6 JUMPI PUSH1 0x1 PUSH1 0x1 PUSH1 0xE0 SHL SUB AND SWAP1 JUMP JUMPDEST PUSH1 0x40 MLOAD PUSH3 0x461BCD PUSH1 0xE5 SHL DUP2 MSTORE PUSH1 0x20 PUSH1 0x4 DUP3 ADD MSTORE PUSH1 0x27 PUSH1 0x24 DUP3 ADD MSTORE PUSH32 0x53616665436173743A2076616C756520646F65736E27742066697420696E2032 PUSH1 0x44 DUP3 ADD MSTORE PUSH7 0x32342062697473 PUSH1 0xC8 SHL PUSH1 0x64 DUP3 ADD MSTORE PUSH1 0x84 SWAP1 REVERT JUMPDEST SWAP2 SWAP1 SWAP2 DUP1 PUSH1 0x1 EQ PUSH2 0x323F JUMPI PUSH1 0x2 EQ PUSH2 0x3233 JUMPI PUSH4 0x4E487B71 PUSH1 0xE0 SHL PUSH1 0x0 MSTORE PUSH1 0x51 PUSH1 0x4 MSTORE PUSH1 0x24 PUSH1 0x0 REVERT JUMPDEST DUP2 SUB SWAP1 DUP2 GT PUSH2 0x9F5 JUMPI SWAP1 JUMP JUMPDEST POP DUP2 ADD DUP1 SWAP2 GT PUSH2 0x9F5 JUMPI SWAP1 JUMP INVALID 0xB0 0xF8 JUMPI PUSH12 0x4AB6D387749A5ACD70A6324B ADDRESS PUSH21 0x1718C2A117C20E001EFD848A4DD40175B7A6384277 SUB CREATE 0xDB 0xE7 0xBB SWAP12 0xBF SWAP9 PUSH27 0x2551717B34E79F33B5B1008D1FA01DB85B4BBF45E48BD99EF70840 PUSH13 0xF3C7F065BDDB024B8D8FC47EC7 0x4E LOG4 SWAP2 RETURNDATASIZE MULMOD MCOPY 0xE3 LOG2 PUSH5 0x6970667358 0x22 SLT KECCAK256 SELFDESTRUCT SGT PUSH19 0xEAD25CA732D9B2ED53616748808FD30C45C75D 0xE0 0xB9 TIMESTAMP 0xEE MCOPY PUSH24 0xFB91EFF764736F6C634300081C00332F8788117E7EFF1D82 0xE9 0x26 0xEC PUSH26 0x4901D17C78024A50270940304540A733656F0D5B4BBF45E48BD9 SWAP15 0xF7 ADDMOD BLOCKHASH PUSH13 0xF3C7F065BDDB024B8D8FC47EC7 0x4E LOG4 SWAP2 RETURNDATASIZE MULMOD MCOPY 0xE3 0xDE 0xC2 0xBA 0xCD 0xD2 CREATE JUMPDEST MSIZE 0xDE CALLVALUE 0xDA SWAP12 MSTORE RETURNDATASIZE SELFDESTRUCT DUP12 0xE4 0x2E MCOPY CODESIZE 0xE8 XOR 0xC8 0x2F 0xDB SIGNEXTEND 0xAE PUSH24 0x4387A7240000000000000000000000000000000000000000 "},"methodIdentifiers":{"AI_CONTROLLER_ROLE()":"66975a48","CLOCK_MODE()":"4bf5d7e9","DEFAULT_ADMIN_ROLE()":"a217fddf","DOMAIN_SEPARATOR()":"3644e515","INITIAL_SUPPLY()":"2ff2e9dc","addAIController(address)":"027f5176","aiBurn(address,uint256)":"bb0f6d88","aiMint(address,uint256)":"dbff0d48","allowance(address,address)":"dd62ed3e","approve(address,uint256)":"095ea7b3","balanceOf(address)":"70a08231","checkpoints(address,uint32)":"f1127ed8","clock()":"91ddadf4","decimals()":"313ce567","decreaseAllowance(address,uint256)":"a457c2d7","delegate(address)":"5c19a95c","delegateBySig(address,uint256,uint256,uint8,bytes32,bytes32)":"c3cda520","delegates(address)":"587cde1e","eip712Domain()":"84b0196e","getPastTotalSupply(uint256)":"8e539e8c","getPastVotes(address,uint256)":"3a46b1a8","getRoleAdmin(bytes32)":"248a9ca3","getVotes(address)":"9ab24eb0","grantRole(bytes32,address)":"2f2ff15d","hasRole(bytes32,address)":"91d14854","increaseAllowance(address,uint256)":"39509351","maxSupply()":"d5abeb01","mint(address,uint256)":"40c10f19","name()":"06fdde03","nonces(address)":"7ecebe00","numCheckpoints(address)":"6fcfff45","owner()":"8da5cb5b","permit(address,address,uint256,uint256,uint8,bytes32,bytes32)":"d505accf","removeAIController(address)":"2699026e","renounceOwnership()":"715018a6","renounceRole(bytes32,address)":"36568abe","revokeRole(bytes32,address)":"d547741f","setMaxSupply(uint256)":"6f8b44b0","supportsInterface(bytes4)":"01ffc9a7","symbol()":"95d89b41","totalSupply()":"18160ddd","transfer(address,uint256)":"a9059cbb","transferFrom(address,address,uint256)":"23b872dd","transferOwnership(address)":"f2fde38b"}}}}}