{"contracts/SilicaAIController.sol":{"SilicaAIController":{"abi":[{"inputs":[{"internalType":"address","name":"_silicaToken","type":"address"},{"internalType":"address payable","name":"_treasury","type":"address"}],"stateMutability":"nonpayable","type":"constructor"},{"anonymous":false,"inputs":[{"indexed":true,"internalType":"uint256","name":"decisionId","type":"uint256"},{"indexed":false,"internalType":"string","name":"decisionType","type":"string"},{"indexed":false,"internalType":"string","name":"rationale","type":"string"}],"name":"DecisionExecuted","type":"event"},{"anonymous":false,"inputs":[{"indexed":true,"internalType":"bytes32","name":"role","type":"bytes32"},{"indexed":true,"internalType":"bytes32","name":"previousAdminRole","type":"bytes32"},{"indexed":true,"internalType":"bytes32","name":"newAdminRole","type":"bytes32"}],"name":"RoleAdminChanged","type":"event"},{"anonymous":false,"inputs":[{"indexed":true,"internalType":"bytes32","name":"role","type":"bytes32"},{"indexed":true,"internalType":"address","name":"account","type":"address"},{"indexed":true,"internalType":"address","name":"sender","type":"address"}],"name":"RoleGranted","type":"event"},{"anonymous":false,"inputs":[{"indexed":true,"internalType":"bytes32","name":"role","type":"bytes32"},{"indexed":true,"internalType":"address","name":"account","type":"address"},{"indexed":true,"internalType":"address","name":"sender","type":"address"}],"name":"RoleRevoked","type":"event"},{"anonymous":false,"inputs":[{"indexed":false,"internalType":"uint256","name":"buyThreshold","type":"uint256"},{"indexed":false,"internalType":"uint256","name":"sellThreshold","type":"uint256"},{"indexed":false,"internalType":"uint256","name":"maxTradePercentage","type":"uint256"}],"name":"ThresholdsUpdated","type":"event"},{"anonymous":false,"inputs":[{"indexed":false,"internalType":"address","name":"from","type":"address"},{"indexed":false,"internalType":"uint256","name":"amount","type":"uint256"},{"indexed":false,"internalType":"string","name":"rationale","type":"string"}],"name":"TokensBurned","type":"event"},{"anonymous":false,"inputs":[{"indexed":false,"internalType":"address","name":"to","type":"address"},{"indexed":false,"internalType":"uint256","name":"amount","type":"uint256"},{"indexed":false,"internalType":"string","name":"rationale","type":"string"}],"name":"TokensMinted","type":"event"},{"anonymous":false,"inputs":[{"indexed":false,"internalType":"address","name":"tokenIn","type":"address"},{"indexed":false,"internalType":"address","name":"tokenOut","type":"address"},{"indexed":false,"internalType":"uint256","name":"amountIn","type":"uint256"},{"indexed":false,"internalType":"uint256","name":"amountOut","type":"uint256"},{"indexed":false,"internalType":"string","name":"rationale","type":"string"}],"name":"TradeExecuted","type":"event"},{"inputs":[],"name":"AI_OPERATOR_ROLE","outputs":[{"internalType":"bytes32","name":"","type":"bytes32"}],"stateMutability":"view","type":"function"},{"inputs":[],"name":"DEFAULT_ADMIN_ROLE","outputs":[{"internalType":"bytes32","name":"","type":"bytes32"}],"stateMutability":"view","type":"function"},{"inputs":[],"name":"HUMAN_ADMIN_ROLE","outputs":[{"internalType":"bytes32","name":"","type":"bytes32"}],"stateMutability":"view","type":"function"},{"inputs":[{"internalType":"address","name":"operator","type":"address"}],"name":"addAIOperator","outputs":[],"stateMutability":"nonpayable","type":"function"},{"inputs":[{"internalType":"uint256","name":"amount","type":"uint256"},{"internalType":"string","name":"rationale","type":"string"}],"name":"burnTokensFromTreasury","outputs":[],"stateMutability":"nonpayable","type":"function"},{"inputs":[],"name":"buyThreshold","outputs":[{"internalType":"uint256","name":"","type":"uint256"}],"stateMutability":"view","type":"function"},{"inputs":[],"name":"decisionCount","outputs":[{"internalType":"uint256","name":"","type":"uint256"}],"stateMutability":"view","type":"function"},{"inputs":[{"internalType":"uint256","name":"","type":"uint256"}],"name":"decisions","outputs":[{"internalType":"uint256","name":"timestamp","type":"uint256"},{"internalType":"string","name":"decisionType","type":"string"},{"internalType":"string","name":"rationale","type":"string"},{"internalType":"bytes","name":"executionData","type":"bytes"}],"stateMutability":"view","type":"function"},{"inputs":[{"internalType":"string","name":"decisionType","type":"string"},{"internalType":"string","name":"rationale","type":"string"},{"internalType":"bytes","name":"executionData","type":"bytes"}],"name":"executeDecision","outputs":[{"internalType":"bool","name":"success","type":"bool"},{"internalType":"bytes","name":"result","type":"bytes"}],"stateMutability":"nonpayable","type":"function"},{"inputs":[{"internalType":"address","name":"tokenIn","type":"address"},{"internalType":"address","name":"tokenOut","type":"address"},{"internalType":"uint256","name":"amountIn","type":"uint256"},{"internalType":"uint256","name":"minAmountOut","type":"uint256"},{"internalType":"address","name":"swapTarget","type":"address"},{"internalType":"bytes","name":"swapData","type":"bytes"},{"internalType":"string","name":"rationale","type":"string"}],"name":"executeTrade","outputs":[{"internalType":"uint256","name":"amountOut","type":"uint256"}],"stateMutability":"nonpayable","type":"function"},{"inputs":[{"internalType":"uint256","name":"start","type":"uint256"},{"internalType":"uint256","name":"end","type":"uint256"}],"name":"getDecisions","outputs":[{"components":[{"internalType":"uint256","name":"timestamp","type":"uint256"},{"internalType":"string","name":"decisionType","type":"string"},{"internalType":"string","name":"rationale","type":"string"},{"internalType":"bytes","name":"executionData","type":"bytes"}],"internalType":"struct SilicaAIController.AIDecision[]","name":"","type":"tuple[]"}],"stateMutability":"view","type":"function"},{"inputs":[{"internalType":"bytes32","name":"role","type":"bytes32"}],"name":"getRoleAdmin","outputs":[{"internalType":"bytes32","name":"","type":"bytes32"}],"stateMutability":"view","type":"function"},{"inputs":[{"internalType":"bytes32","name":"role","type":"bytes32"},{"internalType":"address","name":"account","type":"address"}],"name":"grantRole","outputs":[],"stateMutability":"nonpayable","type":"function"},{"inputs":[{"internalType":"bytes32","name":"role","type":"bytes32"},{"internalType":"address","name":"account","type":"address"}],"name":"hasRole","outputs":[{"internalType":"bool","name":"","type":"bool"}],"stateMutability":"view","type":"function"},{"inputs":[],"name":"lastDecisionTimestamp","outputs":[{"internalType":"uint256","name":"","type":"uint256"}],"stateMutability":"view","type":"function"},{"inputs":[],"name":"maxTradePercentage","outputs":[{"internalType":"uint256","name":"","type":"uint256"}],"stateMutability":"view","type":"function"},{"inputs":[{"internalType":"address","name":"to","type":"address"},{"internalType":"uint256","name":"amount","type":"uint256"},{"internalType":"string","name":"rationale","type":"string"}],"name":"mintTokens","outputs":[],"stateMutability":"nonpayable","type":"function"},{"inputs":[{"internalType":"address","name":"operator","type":"address"}],"name":"removeAIOperator","outputs":[],"stateMutability":"nonpayable","type":"function"},{"inputs":[{"internalType":"bytes32","name":"role","type":"bytes32"},{"internalType":"address","name":"account","type":"address"}],"name":"renounceRole","outputs":[],"stateMutability":"nonpayable","type":"function"},{"inputs":[{"internalType":"bytes32","name":"role","type":"bytes32"},{"internalType":"address","name":"account","type":"address"}],"name":"revokeRole","outputs":[],"stateMutability":"nonpayable","type":"function"},{"inputs":[],"name":"sellThreshold","outputs":[{"internalType":"uint256","name":"","type":"uint256"}],"stateMutability":"view","type":"function"},{"inputs":[],"name":"silicaToken","outputs":[{"internalType":"contract SilicaToken","name":"","type":"address"}],"stateMutability":"view","type":"function"},{"inputs":[{"internalType":"bytes4","name":"interfaceId","type":"bytes4"}],"name":"supportsInterface","outputs":[{"internalType":"bool","name":"","type":"bool"}],"stateMutability":"view","type":"function"},{"inputs":[],"name":"treasury","outputs":[{"internalType":"contract SilicaTreasury","name":"","type":"address"}],"stateMutability":"view","type":"function"},{"inputs":[{"internalType":"uint256","name":"_buyThreshold","type":"uint256"},{"internalType":"uint256","name":"_sellThreshold","type":"uint256"},{"internalType":"uint256","name":"_maxTradePercentage","type":"uint256"}],"name":"updateThresholds","outputs":[],"stateMutability":"nonpayable","type":"function"},{"stateMutability":"payable","type":"receive"}],"evm":{"bytecode":{"linkReferences":{},"object":"60803461022457601f61217938819003918201601f19168301916001600160401b038311848410176102295780849260409485528339810103126102245780516001600160a01b038116919082900361022457602001516001600160a01b0381169190829003610224576001805560006006819055600019600755600a600855600280546001600160a01b031990811693909317905560038054909216929092179055338152600080516020612159833981519152602052604090205460ff16156101e4575b3360009081526000805160206120f9833981519152602052604090205460ff1615610182575b336000908152600080516020612139833981519152602052604090205460ff1615610120575b604051611eb990816102408239f35b33600081815260008051602061213983398151915260205260408120805460ff1916600117905581907f48868f588032c2767aa096056904be47c4801b46f0d2481a28ff6b4d3dfae5f3906000805160206121198339815191529080a4610111565b3360008181526000805160206120f983398151915260205260408120805460ff1916600117905581907ff2652dbcd69c7c357910d3afb4ed41a5b1835967baaff149b775d7dbd6375f19906000805160206121198339815191529080a46100eb565b33600081815260008051602061215983398151915260205260408120805460ff1916600117905581906000805160206121198339815191528180a46100c5565b600080fd5b634e487b7160e01b600052604160045260246000fdfe608080604052600436101561001d575b50361561001b57600080fd5b005b600090813560e01c90816301ffc9a71461165a57508063100b63cb1461163c5780631d808cd314611422578063248a9ca3146113ec5780632d4310c0146113ce5780632f2ff15d1461131057806336568abe1461127d5780634124483c1461124257806348a8dcf714610dcc57806351fbd40514610dae57806361d027b314610d855780636f4b108714610be557806378b516cf14610667578063901b75ae146105a557806391d148541461055a5780639ebd6d3514610494578063a217fddf14610478578063b57f272e1461045a578063b829df82146103a0578063d547741f14610357578063e67524a314610260578063e949ed0914610237578063f13cff4114610219578063fb3d2e05146101f05763fd19e10c0361000f57346101ed5760603660031901126101ed5760443560243560043561015b6119d6565b606483116101a8577f5c18dc8d95da80ea715f2473abe6f01199d4bfa87d2ed1ef051058a60dcce2589260609282600655806007558160085560405192835260208301526040820152a180f35b60405162461bcd60e51b815260206004820152601960248201527f50657263656e74616765206d757374206265203c3d20313030000000000000006044820152606490fd5b80fd5b50346101ed57806003193601126101ed576020604051600080516020611e648339815191528152f35b50346101ed57806003193601126101ed576020600654604051908152f35b50346101ed57806003193601126101ed576002546040516001600160a01b039091168152602090f35b50346101ed5760603660031901126101ed5761027a61170d565b6024356044356001600160401b0381116103445761029c903690600401611790565b916102a56119d6565b60025484906001600160a01b0316803b1561035357604051631b7fe1a960e31b81526001600160a01b0384166004820152602481018590529082908290604490829084905af180156103485761032f575b50506103297f9d89e36eadf856db0ad9ffb5a569e07f95634dddd9501141ecf04820484ad0dc93604051938493846119af565b0390a180f35b8161033991611754565b6103445783386102f6565b8380fd5b6040513d84823e3d90fd5b5080fd5b50346101ed5760403660031901126101ed5761039d6004356103776116f7565b9061039861039382600052600060205260016040600020015490565b611b50565b611b8e565b80f35b50346101ed5760203660031901126101ed57600435600954811015610353576103c8906117d5565b5080546104566003610448604051946103ef866103e88160018501611844565b0387611754565b61041e6040519161040e836104078160028501611844565b0384611754565b6104076040518096819301611844565b61043a60405196879687526080602088015260808701906116d2565b9085820360408701526116d2565b9083820360608501526116d2565b0390f35b50346101ed57806003193601126101ed576020600854604051908152f35b50346101ed57806003193601126101ed57602090604051908152f35b50346101ed5760203660031901126101ed576104ae61170d565b6104b6611add565b600080516020611e648339815191528252602082815260408084206001600160a01b0384166000908152925290205460ff16156104f1575080f35b600080516020611e64833981519152808352602083815260408085206001600160a01b0394909416600081815294909252909220805460ff191660011790553391907f2f8788117e7eff1d82e926ec794901d17c78024a50270940304540a733656f0d8480a480f35b50346101ed5760403660031901126101ed5760406105766116f7565b91600435815280602052209060018060a01b0316600052602052602060ff604060002054166040519015158152f35b50346101ed5760203660031901126101ed576105bf61170d565b6105c7611add565b600080516020611e648339815191528252602082815260408084206001600160a01b0384166000908152925290205460ff16610601575080f35b600080516020611e64833981519152808352602083815260408085206001600160a01b0394909416600081815294909252909220805460ff191690553391907ff6391f5c32d9c69d2a47ea670b442974b53935d1edc7fd64eb21e047a839171b8480a480f35b50346101ed5760e03660031901126101ed5761068161170d565b9061068a6116f7565b60843592906044356001600160a01b03851685036103445760a4356001600160401b038111610b5d576106c1903690600401611790565b9360c4356001600160401b038111610353576106e1903690600401611790565b926106ea6119d6565b6106f2611c10565b6001600160a01b038516948515908115610a47575b506001600160a01b03821697881597849089156109ca57819247945b156109c457875b602083519301915af161073b611967565b50156109915786156109195761075190476118c7565b9560643587106108d4576108a35760035460405163095ea7b360e01b81526001600160a01b03909116600482015260248101879052602081604481868c5af180156108985761086b575b506003546001600160a01b031690813b156108675760405163921b004b60e01b81526001600160a01b03919091166004820152602481018790529082908290604490829084905af1801561034857610852575b505091610843602095927fcfb39639b1025742e186f857fcd1216c03f2cf5e45053966934621ab2464bf2d945b604051948594855288850152604084015285606084015260a0608084015260a08301906116d2565b0390a160018055604051908152f35b61085d828092611754565b6101ed57806107ee565b8280fd5b61088c9060203d602011610891575b6108848183611754565b810190611997565b61079b565b503d61087a565b6040513d85823e3d90fd5b505091610843602095927fcfb39639b1025742e186f857fcd1216c03f2cf5e45053966934621ab2464bf2d9461081b565b60405162461bcd60e51b815260206004820152601a60248201527f496e73756666696369656e74206f757470757420616d6f756e740000000000006044820152606490fd5b6040516370a0823160e01b8152306004820152906020826024818c5afa801561098657849061094d575b61075192506118c7565b506020823d60201161097e575b8161096760209383611754565b81010312610979576107519151610943565b600080fd5b3d915061095a565b6040513d86823e3d90fd5b60405162461bcd60e51b815260206004820152600b60248201526a14ddd85c0819985a5b195960aa1b6044820152606490fd5b8261072a565b6040516370a0823160e01b81523060048201529091506020816024818e5afa908115610a3c57908692918391610a05575b5092829394610723565b9250506020823d602011610a34575b81610a2160209383611754565b81010312610979579051859190826109fb565b3d9150610a14565b6040513d88823e3d90fd5b6003546040516370a0823160e01b81526001600160a01b039091166004820181905291906020816024818c5afa908115610a3c578691610bb3575b5060085490818102918183041490151715610b9f57606490048611610b6157813b15610b5d57604051631c20fadd60e01b81526001600160a01b03919091166004820152306024820152604481018690529084908290606490829084905af1801561098657908491610b48575b505060405163095ea7b360e01b81526001600160a01b038916600482015260248101859052602081604481878b5af18015610986571561070757610b419060203d602011610891576108848183611754565b5038610707565b81610b5291611754565b610867578238610aef565b8480fd5b60405162461bcd60e51b815260206004820152601660248201527554726164652065786365656473206d61782073697a6560501b6044820152606490fd5b634e487b7160e01b86526011600452602486fd5b90506020813d602011610bdd575b81610bce60209383611754565b81010312610979575138610a82565b3d9150610bc1565b50346101ed5760403660031901126101ed576004356024356001600160401b03811161086757610c19903690600401611790565b610c216119d6565b6003546002546001600160a01b0391821691859116823b1561035357604051631c20fadd60e01b81526001600160a01b0391909116600482015230602482015260448101859052918290606490829084905af1801561098657610d71575b5060025460405163095ea7b360e01b81526001600160a01b0390911660048201819052602482018490526020908290604490829088905af1801561098657610d54575b5060025483906001600160a01b0316803b1561035357604051631761edb160e31b8152306004820152602481018590529082908290604490829084905af1801561034857610d3f575b50507ffad31924d655455395c87544c8aa1ffdb5a7505a22a3c2e03f28003b6556a75f9161032960405192839230846119af565b81610d4991611754565b610867578238610d0b565b610d6c9060203d602011610891576108848183611754565b610cc2565b83610d7e91949294611754565b9138610c7f565b50346101ed57806003193601126101ed576003546040516001600160a01b039091168152602090f35b50346101ed57806003193601126101ed576020600454604051908152f35b50346101ed5760603660031901126101ed576004356001600160401b03811161035357610dfd903690600401611790565b6024356001600160401b03811161086757610e1c903690600401611790565b916044356001600160401b03811161035357610e3c903690600401611790565b90610e456119d6565b610e4d611c10565b60095491604051610e5d81611723565b42815260208101908582526040810187815260608201928484526801000000000000000087101561122e5760018701600955610e98876117d5565b93909361121a5751835551805160018401916001600160401b03821161120657610ecc82610ec6855461180a565b85611915565b602090601f83116001146111a357610efc92918991836110a7575b50508160011b916000199060031b1c19161790565b90555b51805160028301916001600160401b03821161118f57610f2382610ec6855461180a565b602090601f8311600114611129579180610f579260039695948a926110a75750508160011b916000199060031b1c19161790565b90555b0190518051906001600160401b03821161111557610f7c82610ec6855461180a565b602090601f83116001146110b257610fab92918691836110a75750508160011b916000199060031b1c19161790565b90555b426004556005546000198114611093576001016005558051829160200182305af191610fd8611967565b921561104e5761101e7fe942e0951e8e2df559798f843576bb700742ec4b4570eebe25697095de005f1b9161102c610456966040519384936040855260408501906116d2565b9083820360208501526116d2565b0390a260018055604051918291600183526040602084015260408301906116d2565b60405162461bcd60e51b815260206004820152601960248201527f4465636973696f6e20657865637574696f6e206661696c6564000000000000006044820152606490fd5b634e487b7160e01b83526011600452602483fd5b015190503880610ee7565b8386528186209190601f198416875b8181106110fd57509084600195949392106110e4575b505050811b019055610fae565b015160001960f88460031b161c191690553880806110d7565b929360206001819287860151815501950193016110c1565b634e487b7160e01b85526041600452602485fd5b8388528188209190601f198416895b81811061117757509160019391856003989796941061115f575b505050811b019055610f5a565b015160001983881b60f8161c19169055388080611152565b92936020600181928786015181550195019301611138565b634e487b7160e01b87526041600452602487fd5b8389528189209190601f1984168a5b8181106111ee57509084600195949392106111d5575b505050811b019055610eff565b015160001960f88460031b161c191690553880806111c8565b929360206001819287860151815501950193016111b2565b634e487b7160e01b88526041600452602488fd5b634e487b7160e01b87526004879052602487fd5b634e487b7160e01b86526041600452602486fd5b50346101ed57806003193601126101ed5760206040517ff2652dbcd69c7c357910d3afb4ed41a5b1835967baaff149b775d7dbd6375f198152f35b50346101ed5760403660031901126101ed576112976116f7565b336001600160a01b038216036112b35761039d90600435611b8e565b60405162461bcd60e51b815260206004820152602f60248201527f416363657373436f6e74726f6c3a2063616e206f6e6c792072656e6f756e636560448201526e103937b632b9903337b91039b2b63360891b6064820152608490fd5b50346101ed5760403660031901126101ed5760043561132d6116f7565b9061134961039382600052600060205260016040600020015490565b808352602083815260408085206001600160a01b038516865290915283205460ff1615611374578280f35b808352602083815260408085206001600160a01b0394909416808652939091528320805460ff191660011790553391907f2f8788117e7eff1d82e926ec794901d17c78024a50270940304540a733656f0d8480a438808280f35b50346101ed57806003193601126101ed576020600754604051908152f35b50346101ed5760203660031901126101ed57602061141a600435600052600060205260016040600020015490565b604051908152f35b50346101ed5760403660031901126101ed5760043560243580821080611630575b156115fb5761145282826118c7565b9161145c836118ea565b9261146a6040519485611754565b808452611479601f19916118ea565b01845b8181106115ca575050805b8281106115345783856040519182916020830160208452825180915260408401602060408360051b870101940192905b8282106114c657505050500390f35b919360019193955060206115248192603f198a82030186528851908151815260606115136115018685015160808886015260808501906116d2565b604085015184820360408601526116d2565b9201519060608184039101526116d2565b96019201920185949391926114b7565b806115c36115436001936117d5565b5061154e85846118c7565b9060036115ad6040519261156184611723565b8054845260405161157f81611578818c8601611844565b0382611754565b6020850152604051611598816115788160028601611844565b60408501526115786040518094819301611844565b60608201526115bc8289611901565b5286611901565b5001611487565b6020906040516115d981611723565b878152606083820152606060408201526060808201528282880101520161147c565b60405162461bcd60e51b815260206004820152600d60248201526c496e76616c69642072616e676560981b6044820152606490fd5b50600954811115611443565b50346101ed57806003193601126101ed576020600554604051908152f35b9050346103535760203660031901126103535760043563ffffffff60e01b81168091036108675760209250637965db0b60e01b811490811561169e575b5015158152f35b6301ffc9a760e01b14905038611697565b60005b8381106116c25750506000910152565b81810151838201526020016116b2565b906020916116eb815180928185528580860191016116af565b601f01601f1916010190565b602435906001600160a01b038216820361097957565b600435906001600160a01b038216820361097957565b608081019081106001600160401b0382111761173e57604052565b634e487b7160e01b600052604160045260246000fd5b90601f801991011681019081106001600160401b0382111761173e57604052565b6001600160401b03811161173e57601f01601f191660200190565b81601f82011215610979576020813591016117aa82611775565b926117b86040519485611754565b828452828201116109795781600092602092838601378301015290565b6009548110156117f457600960005260206000209060021b0190600090565b634e487b7160e01b600052603260045260246000fd5b90600182811c9216801561183a575b602083101461182457565b634e487b7160e01b600052602260045260246000fd5b91607f1691611819565b600092918154916118548361180a565b80835292600181169081156118aa575060011461187057505050565b60009081526020812093945091925b838310611890575060209250010190565b60018160209294939454838587010152019101919061187f565b915050602093945060ff929192191683830152151560051b010190565b919082039182116118d457565b634e487b7160e01b600052601160045260246000fd5b6001600160401b03811161173e5760051b60200190565b80518210156117f45760209160051b010190565b601f821161192257505050565b6000526020600020906020601f840160051c8301931061195d575b601f0160051c01905b818110611951575050565b60008155600101611946565b909150819061193d565b3d15611992573d9061197882611775565b916119866040519384611754565b82523d6000602084013e565b606090565b90816020910312610979575180151581036109795790565b6119d3939260609260018060a01b03168252602082015281604082015201906116d2565b90565b3360009081527f82f9588b0461dd6f85c741c2d077444688407204b11b9d91aca7d73ce23e497f602052604090205460ff1615611a0f57565b611ad9611a1b33611c77565b611ab96011611a37600080516020611e64833981519152611db7565b9260376040519485927f416363657373436f6e74726f6c3a206163636f756e74200000000000000000006020850152611a7981518092602086880191016116af565b83017001034b99036b4b9b9b4b733903937b6329607d1b83820152611aa88251809360206048850191016116af565b01010301601f198101835282611754565b60405162461bcd60e51b81526020600482015291829160248301906116d2565b0390fd5b3360009081527f26163bdd9d59505f2e3cd9d90a08460d88e10a07303f796167274e4fa7032e3a602052604090205460ff1615611b1657565b611ad9611b2233611c77565b611ab96011611a377ff2652dbcd69c7c357910d3afb4ed41a5b1835967baaff149b775d7dbd6375f19611db7565b60008181526020818152604080832033845290915290205460ff1615611b735750565b611ad990611ab96011611a37611b8833611c77565b93611db7565b6000818152602081815260408083206001600160a01b038616845290915290205460ff16611bba575050565b6000818152602081815260408083206001600160a01b0395909516808452949091528120805460ff19169055339291907ff6391f5c32d9c69d2a47ea670b442974b53935d1edc7fd64eb21e047a839171b9080a4565b600260015414611c21576002600155565b60405162461bcd60e51b815260206004820152601f60248201527f5265656e7472616e637947756172643a207265656e7472616e742063616c6c006044820152606490fd5b9081518110156117f4570160200190565b600090611c84602a611775565b91611c926040519384611754565b602a8352611ca0602a611775565b6020840190601f1901368237835115611da35760309053825160011015611d8f576078602184015350602960005b60018211611d23575050611cdf5790565b606460405162461bcd60e51b815260206004820152602060248201527f537472696e67733a20686578206c656e67746820696e73756666696369656e746044820152fd5b9091600f81166010811015611d7b576f181899199a1a9b1b9c1cb0b131b232b360811b901a611d528486611c66565b5360041c918015611d67576000190190611cce565b634e487b7160e01b82526011600452602482fd5b634e487b7160e01b83526032600452602483fd5b634e487b7160e01b81526032600452602490fd5b634e487b7160e01b82526032600452602482fd5b600090611dc46042611775565b91611dd26040519384611754565b60428352611de06042611775565b6020840190601f1901368237835115611da35760309053825160011015611d8f576078602184015350604160005b60018211611e1f575050611cdf5790565b9091600f81166010811015611d7b576f181899199a1a9b1b9c1cb0b131b232b360811b901a611e4e8486611c66565b5360041c918015611d67576000190190611e0e56fe48868f588032c2767aa096056904be47c4801b46f0d2481a28ff6b4d3dfae5f3a26469706673582212208552d6c0d05fadb16f114ab037d7683cd4afba30078bcf36532b2507f58d5dba64736f6c634300081c003326163bdd9d59505f2e3cd9d90a08460d88e10a07303f796167274e4fa7032e3a2f8788117e7eff1d82e926ec794901d17c78024a50270940304540a733656f0d82f9588b0461dd6f85c741c2d077444688407204b11b9d91aca7d73ce23e497fad3228b676f7d3cd4284a5443f17f1962b36e491b30a40b2405849e597ba5fb5","opcodes":"PUSH1 0x80 CALLVALUE PUSH2 0x224 JUMPI PUSH1 0x1F PUSH2 0x2179 CODESIZE DUP2 SWAP1 SUB SWAP2 DUP3 ADD PUSH1 0x1F NOT AND DUP4 ADD SWAP2 PUSH1 0x1 PUSH1 0x1 PUSH1 0x40 SHL SUB DUP4 GT DUP5 DUP5 LT OR PUSH2 0x229 JUMPI DUP1 DUP5 SWAP3 PUSH1 0x40 SWAP5 DUP6 MSTORE DUP4 CODECOPY DUP2 ADD SUB SLT PUSH2 0x224 JUMPI DUP1 MLOAD PUSH1 0x1 PUSH1 0x1 PUSH1 0xA0 SHL SUB DUP2 AND SWAP2 SWAP1 DUP3 SWAP1 SUB PUSH2 0x224 JUMPI PUSH1 0x20 ADD MLOAD PUSH1 0x1 PUSH1 0x1 PUSH1 0xA0 SHL SUB DUP2 AND SWAP2 SWAP1 DUP3 SWAP1 SUB PUSH2 0x224 JUMPI PUSH1 0x1 DUP1 SSTORE PUSH1 0x0 PUSH1 0x6 DUP2 SWAP1 SSTORE PUSH1 0x0 NOT PUSH1 0x7 SSTORE PUSH1 0xA PUSH1 0x8 SSTORE PUSH1 0x2 DUP1 SLOAD PUSH1 0x1 PUSH1 0x1 PUSH1 0xA0 SHL SUB NOT SWAP1 DUP2 AND SWAP4 SWAP1 SWAP4 OR SWAP1 SSTORE PUSH1 0x3 DUP1 SLOAD SWAP1 SWAP3 AND SWAP3 SWAP1 SWAP3 OR SWAP1 SSTORE CALLER DUP2 MSTORE PUSH1 0x0 DUP1 MLOAD PUSH1 0x20 PUSH2 0x2159 DUP4 CODECOPY DUP2 MLOAD SWAP2 MSTORE PUSH1 0x20 MSTORE PUSH1 0x40 SWAP1 KECCAK256 SLOAD PUSH1 0xFF AND ISZERO PUSH2 0x1E4 JUMPI JUMPDEST CALLER PUSH1 0x0 SWAP1 DUP2 MSTORE PUSH1 0x0 DUP1 MLOAD PUSH1 0x20 PUSH2 0x20F9 DUP4 CODECOPY DUP2 MLOAD SWAP2 MSTORE PUSH1 0x20 MSTORE PUSH1 0x40 SWAP1 KECCAK256 SLOAD PUSH1 0xFF AND ISZERO PUSH2 0x182 JUMPI JUMPDEST CALLER PUSH1 0x0 SWAP1 DUP2 MSTORE PUSH1 0x0 DUP1 MLOAD PUSH1 0x20 PUSH2 0x2139 DUP4 CODECOPY DUP2 MLOAD SWAP2 MSTORE PUSH1 0x20 MSTORE PUSH1 0x40 SWAP1 KECCAK256 SLOAD PUSH1 0xFF AND ISZERO PUSH2 0x120 JUMPI JUMPDEST PUSH1 0x40 MLOAD PUSH2 0x1EB9 SWAP1 DUP2 PUSH2 0x240 DUP3 CODECOPY RETURN JUMPDEST CALLER PUSH1 0x0 DUP2 DUP2 MSTORE PUSH1 0x0 DUP1 MLOAD PUSH1 0x20 PUSH2 0x2139 DUP4 CODECOPY DUP2 MLOAD SWAP2 MSTORE PUSH1 0x20 MSTORE PUSH1 0x40 DUP2 KECCAK256 DUP1 SLOAD PUSH1 0xFF NOT AND PUSH1 0x1 OR SWAP1 SSTORE DUP2 SWAP1 PUSH32 0x48868F588032C2767AA096056904BE47C4801B46F0D2481A28FF6B4D3DFAE5F3 SWAP1 PUSH1 0x0 DUP1 MLOAD PUSH1 0x20 PUSH2 0x2119 DUP4 CODECOPY DUP2 MLOAD SWAP2 MSTORE SWAP1 DUP1 LOG4 PUSH2 0x111 JUMP JUMPDEST CALLER PUSH1 0x0 DUP2 DUP2 MSTORE PUSH1 0x0 DUP1 MLOAD PUSH1 0x20 PUSH2 0x20F9 DUP4 CODECOPY DUP2 MLOAD SWAP2 MSTORE PUSH1 0x20 MSTORE PUSH1 0x40 DUP2 KECCAK256 DUP1 SLOAD PUSH1 0xFF NOT AND PUSH1 0x1 OR SWAP1 SSTORE DUP2 SWAP1 PUSH32 0xF2652DBCD69C7C357910D3AFB4ED41A5B1835967BAAFF149B775D7DBD6375F19 SWAP1 PUSH1 0x0 DUP1 MLOAD PUSH1 0x20 PUSH2 0x2119 DUP4 CODECOPY DUP2 MLOAD SWAP2 MSTORE SWAP1 DUP1 LOG4 PUSH2 0xEB JUMP JUMPDEST CALLER PUSH1 0x0 DUP2 DUP2 MSTORE PUSH1 0x0 DUP1 MLOAD PUSH1 0x20 PUSH2 0x2159 DUP4 CODECOPY DUP2 MLOAD SWAP2 MSTORE PUSH1 0x20 MSTORE PUSH1 0x40 DUP2 KECCAK256 DUP1 SLOAD PUSH1 0xFF NOT AND PUSH1 0x1 OR SWAP1 SSTORE DUP2 SWAP1 PUSH1 0x0 DUP1 MLOAD PUSH1 0x20 PUSH2 0x2119 DUP4 CODECOPY DUP2 MLOAD SWAP2 MSTORE DUP2 DUP1 LOG4 PUSH2 0xC5 JUMP JUMPDEST PUSH1 0x0 DUP1 REVERT JUMPDEST PUSH4 0x4E487B71 PUSH1 0xE0 SHL PUSH1 0x0 MSTORE PUSH1 0x41 PUSH1 0x4 MSTORE PUSH1 0x24 PUSH1 0x0 REVERT INVALID PUSH1 0x80 DUP1 PUSH1 0x40 MSTORE PUSH1 0x4 CALLDATASIZE LT ISZERO PUSH2 0x1D JUMPI JUMPDEST POP CALLDATASIZE ISZERO PUSH2 0x1B JUMPI PUSH1 0x0 DUP1 REVERT JUMPDEST STOP JUMPDEST PUSH1 0x0 SWAP1 DUP2 CALLDATALOAD PUSH1 0xE0 SHR SWAP1 DUP2 PUSH4 0x1FFC9A7 EQ PUSH2 0x165A JUMPI POP DUP1 PUSH4 0x100B63CB EQ PUSH2 0x163C JUMPI DUP1 PUSH4 0x1D808CD3 EQ PUSH2 0x1422 JUMPI DUP1 PUSH4 0x248A9CA3 EQ PUSH2 0x13EC JUMPI DUP1 PUSH4 0x2D4310C0 EQ PUSH2 0x13CE JUMPI DUP1 PUSH4 0x2F2FF15D EQ PUSH2 0x1310 JUMPI DUP1 PUSH4 0x36568ABE EQ PUSH2 0x127D JUMPI DUP1 PUSH4 0x4124483C EQ PUSH2 0x1242 JUMPI DUP1 PUSH4 0x48A8DCF7 EQ PUSH2 0xDCC JUMPI DUP1 PUSH4 0x51FBD405 EQ PUSH2 0xDAE JUMPI DUP1 PUSH4 0x61D027B3 EQ PUSH2 0xD85 JUMPI DUP1 PUSH4 0x6F4B1087 EQ PUSH2 0xBE5 JUMPI DUP1 PUSH4 0x78B516CF EQ PUSH2 0x667 JUMPI DUP1 PUSH4 0x901B75AE EQ PUSH2 0x5A5 JUMPI DUP1 PUSH4 0x91D14854 EQ PUSH2 0x55A JUMPI DUP1 PUSH4 0x9EBD6D35 EQ PUSH2 0x494 JUMPI DUP1 PUSH4 0xA217FDDF EQ PUSH2 0x478 JUMPI DUP1 PUSH4 0xB57F272E EQ PUSH2 0x45A JUMPI DUP1 PUSH4 0xB829DF82 EQ PUSH2 0x3A0 JUMPI DUP1 PUSH4 0xD547741F EQ PUSH2 0x357 JUMPI DUP1 PUSH4 0xE67524A3 EQ PUSH2 0x260 JUMPI DUP1 PUSH4 0xE949ED09 EQ PUSH2 0x237 JUMPI DUP1 PUSH4 0xF13CFF41 EQ PUSH2 0x219 JUMPI DUP1 PUSH4 0xFB3D2E05 EQ PUSH2 0x1F0 JUMPI PUSH4 0xFD19E10C SUB PUSH2 0xF JUMPI CALLVALUE PUSH2 0x1ED JUMPI PUSH1 0x60 CALLDATASIZE PUSH1 0x3 NOT ADD SLT PUSH2 0x1ED JUMPI PUSH1 0x44 CALLDATALOAD PUSH1 0x24 CALLDATALOAD PUSH1 0x4 CALLDATALOAD PUSH2 0x15B PUSH2 0x19D6 JUMP JUMPDEST PUSH1 0x64 DUP4 GT PUSH2 0x1A8 JUMPI PUSH32 0x5C18DC8D95DA80EA715F2473ABE6F01199D4BFA87D2ED1EF051058A60DCCE258 SWAP3 PUSH1 0x60 SWAP3 DUP3 PUSH1 0x6 SSTORE DUP1 PUSH1 0x7 SSTORE DUP2 PUSH1 0x8 SSTORE PUSH1 0x40 MLOAD SWAP3 DUP4 MSTORE PUSH1 0x20 DUP4 ADD MSTORE PUSH1 0x40 DUP3 ADD MSTORE LOG1 DUP1 RETURN JUMPDEST PUSH1 0x40 MLOAD PUSH3 0x461BCD PUSH1 0xE5 SHL DUP2 MSTORE PUSH1 0x20 PUSH1 0x4 DUP3 ADD MSTORE PUSH1 0x19 PUSH1 0x24 DUP3 ADD MSTORE PUSH32 0x50657263656E74616765206D757374206265203C3D2031303000000000000000 PUSH1 0x44 DUP3 ADD MSTORE PUSH1 0x64 SWAP1 REVERT JUMPDEST DUP1 REVERT JUMPDEST POP CALLVALUE PUSH2 0x1ED JUMPI DUP1 PUSH1 0x3 NOT CALLDATASIZE ADD SLT PUSH2 0x1ED JUMPI PUSH1 0x20 PUSH1 0x40 MLOAD PUSH1 0x0 DUP1 MLOAD PUSH1 0x20 PUSH2 0x1E64 DUP4 CODECOPY DUP2 MLOAD SWAP2 MSTORE DUP2 MSTORE RETURN JUMPDEST POP CALLVALUE PUSH2 0x1ED JUMPI DUP1 PUSH1 0x3 NOT CALLDATASIZE ADD SLT PUSH2 0x1ED JUMPI PUSH1 0x20 PUSH1 0x6 SLOAD PUSH1 0x40 MLOAD SWAP1 DUP2 MSTORE RETURN JUMPDEST POP CALLVALUE PUSH2 0x1ED JUMPI DUP1 PUSH1 0x3 NOT CALLDATASIZE ADD SLT PUSH2 0x1ED JUMPI PUSH1 0x2 SLOAD PUSH1 0x40 MLOAD PUSH1 0x1 PUSH1 0x1 PUSH1 0xA0 SHL SUB SWAP1 SWAP2 AND DUP2 MSTORE PUSH1 0x20 SWAP1 RETURN JUMPDEST POP CALLVALUE PUSH2 0x1ED JUMPI PUSH1 0x60 CALLDATASIZE PUSH1 0x3 NOT ADD SLT PUSH2 0x1ED JUMPI PUSH2 0x27A PUSH2 0x170D JUMP JUMPDEST PUSH1 0x24 CALLDATALOAD PUSH1 0x44 CALLDATALOAD PUSH1 0x1 PUSH1 0x1 PUSH1 0x40 SHL SUB DUP2 GT PUSH2 0x344 JUMPI PUSH2 0x29C SWAP1 CALLDATASIZE SWAP1 PUSH1 0x4 ADD PUSH2 0x1790 JUMP JUMPDEST SWAP2 PUSH2 0x2A5 PUSH2 0x19D6 JUMP JUMPDEST PUSH1 0x2 SLOAD DUP5 SWAP1 PUSH1 0x1 PUSH1 0x1 PUSH1 0xA0 SHL SUB AND DUP1 EXTCODESIZE ISZERO PUSH2 0x353 JUMPI PUSH1 0x40 MLOAD PUSH4 0x1B7FE1A9 PUSH1 0xE3 SHL DUP2 MSTORE PUSH1 0x1 PUSH1 0x1 PUSH1 0xA0 SHL SUB DUP5 AND PUSH1 0x4 DUP3 ADD MSTORE PUSH1 0x24 DUP2 ADD DUP6 SWAP1 MSTORE SWAP1 DUP3 SWAP1 DUP3 SWAP1 PUSH1 0x44 SWAP1 DUP3 SWAP1 DUP5 SWAP1 GAS CALL DUP1 ISZERO PUSH2 0x348 JUMPI PUSH2 0x32F JUMPI JUMPDEST POP POP PUSH2 0x329 PUSH32 0x9D89E36EADF856DB0AD9FFB5A569E07F95634DDDD9501141ECF04820484AD0DC SWAP4 PUSH1 0x40 MLOAD SWAP4 DUP5 SWAP4 DUP5 PUSH2 0x19AF JUMP JUMPDEST SUB SWAP1 LOG1 DUP1 RETURN JUMPDEST DUP2 PUSH2 0x339 SWAP2 PUSH2 0x1754 JUMP JUMPDEST PUSH2 0x344 JUMPI DUP4 CODESIZE PUSH2 0x2F6 JUMP JUMPDEST DUP4 DUP1 REVERT JUMPDEST PUSH1 0x40 MLOAD RETURNDATASIZE DUP5 DUP3 RETURNDATACOPY RETURNDATASIZE SWAP1 REVERT JUMPDEST POP DUP1 REVERT JUMPDEST POP CALLVALUE PUSH2 0x1ED JUMPI PUSH1 0x40 CALLDATASIZE PUSH1 0x3 NOT ADD SLT PUSH2 0x1ED JUMPI PUSH2 0x39D PUSH1 0x4 CALLDATALOAD PUSH2 0x377 PUSH2 0x16F7 JUMP JUMPDEST SWAP1 PUSH2 0x398 PUSH2 0x393 DUP3 PUSH1 0x0 MSTORE PUSH1 0x0 PUSH1 0x20 MSTORE PUSH1 0x1 PUSH1 0x40 PUSH1 0x0 KECCAK256 ADD SLOAD SWAP1 JUMP JUMPDEST PUSH2 0x1B50 JUMP JUMPDEST PUSH2 0x1B8E JUMP JUMPDEST DUP1 RETURN JUMPDEST POP CALLVALUE PUSH2 0x1ED JUMPI PUSH1 0x20 CALLDATASIZE PUSH1 0x3 NOT ADD SLT PUSH2 0x1ED JUMPI PUSH1 0x4 CALLDATALOAD PUSH1 0x9 SLOAD DUP2 LT ISZERO PUSH2 0x353 JUMPI PUSH2 0x3C8 SWAP1 PUSH2 0x17D5 JUMP JUMPDEST POP DUP1 SLOAD PUSH2 0x456 PUSH1 0x3 PUSH2 0x448 PUSH1 0x40 MLOAD SWAP5 PUSH2 0x3EF DUP7 PUSH2 0x3E8 DUP2 PUSH1 0x1 DUP6 ADD PUSH2 0x1844 JUMP JUMPDEST SUB DUP8 PUSH2 0x1754 JUMP JUMPDEST PUSH2 0x41E PUSH1 0x40 MLOAD SWAP2 PUSH2 0x40E DUP4 PUSH2 0x407 DUP2 PUSH1 0x2 DUP6 ADD PUSH2 0x1844 JUMP JUMPDEST SUB DUP5 PUSH2 0x1754 JUMP JUMPDEST PUSH2 0x407 PUSH1 0x40 MLOAD DUP1 SWAP7 DUP2 SWAP4 ADD PUSH2 0x1844 JUMP JUMPDEST PUSH2 0x43A PUSH1 0x40 MLOAD SWAP7 DUP8 SWAP7 DUP8 MSTORE PUSH1 0x80 PUSH1 0x20 DUP9 ADD MSTORE PUSH1 0x80 DUP8 ADD SWAP1 PUSH2 0x16D2 JUMP JUMPDEST SWAP1 DUP6 DUP3 SUB PUSH1 0x40 DUP8 ADD MSTORE PUSH2 0x16D2 JUMP JUMPDEST SWAP1 DUP4 DUP3 SUB PUSH1 0x60 DUP6 ADD MSTORE PUSH2 0x16D2 JUMP JUMPDEST SUB SWAP1 RETURN JUMPDEST POP CALLVALUE PUSH2 0x1ED JUMPI DUP1 PUSH1 0x3 NOT CALLDATASIZE ADD SLT PUSH2 0x1ED JUMPI PUSH1 0x20 PUSH1 0x8 SLOAD PUSH1 0x40 MLOAD SWAP1 DUP2 MSTORE RETURN JUMPDEST POP CALLVALUE PUSH2 0x1ED JUMPI DUP1 PUSH1 0x3 NOT CALLDATASIZE ADD SLT PUSH2 0x1ED JUMPI PUSH1 0x20 SWAP1 PUSH1 0x40 MLOAD SWAP1 DUP2 MSTORE RETURN JUMPDEST POP CALLVALUE PUSH2 0x1ED JUMPI PUSH1 0x20 CALLDATASIZE PUSH1 0x3 NOT ADD SLT PUSH2 0x1ED JUMPI PUSH2 0x4AE PUSH2 0x170D JUMP JUMPDEST PUSH2 0x4B6 PUSH2 0x1ADD JUMP JUMPDEST PUSH1 0x0 DUP1 MLOAD PUSH1 0x20 PUSH2 0x1E64 DUP4 CODECOPY DUP2 MLOAD SWAP2 MSTORE DUP3 MSTORE PUSH1 0x20 DUP3 DUP2 MSTORE PUSH1 0x40 DUP1 DUP5 KECCAK256 PUSH1 0x1 PUSH1 0x1 PUSH1 0xA0 SHL SUB DUP5 AND PUSH1 0x0 SWAP1 DUP2 MSTORE SWAP3 MSTORE SWAP1 KECCAK256 SLOAD PUSH1 0xFF AND ISZERO PUSH2 0x4F1 JUMPI POP DUP1 RETURN JUMPDEST PUSH1 0x0 DUP1 MLOAD PUSH1 0x20 PUSH2 0x1E64 DUP4 CODECOPY DUP2 MLOAD SWAP2 MSTORE DUP1 DUP4 MSTORE PUSH1 0x20 DUP4 DUP2 MSTORE PUSH1 0x40 DUP1 DUP6 KECCAK256 PUSH1 0x1 PUSH1 0x1 PUSH1 0xA0 SHL SUB SWAP5 SWAP1 SWAP5 AND PUSH1 0x0 DUP2 DUP2 MSTORE SWAP5 SWAP1 SWAP3 MSTORE SWAP1 SWAP3 KECCAK256 DUP1 SLOAD PUSH1 0xFF NOT AND PUSH1 0x1 OR SWAP1 SSTORE CALLER SWAP2 SWAP1 PUSH32 0x2F8788117E7EFF1D82E926EC794901D17C78024A50270940304540A733656F0D DUP5 DUP1 LOG4 DUP1 RETURN JUMPDEST POP CALLVALUE PUSH2 0x1ED JUMPI PUSH1 0x40 CALLDATASIZE PUSH1 0x3 NOT ADD SLT PUSH2 0x1ED JUMPI PUSH1 0x40 PUSH2 0x576 PUSH2 0x16F7 JUMP JUMPDEST SWAP2 PUSH1 0x4 CALLDATALOAD DUP2 MSTORE DUP1 PUSH1 0x20 MSTORE KECCAK256 SWAP1 PUSH1 0x1 DUP1 PUSH1 0xA0 SHL SUB AND PUSH1 0x0 MSTORE PUSH1 0x20 MSTORE PUSH1 0x20 PUSH1 0xFF PUSH1 0x40 PUSH1 0x0 KECCAK256 SLOAD AND PUSH1 0x40 MLOAD SWAP1 ISZERO ISZERO DUP2 MSTORE RETURN JUMPDEST POP CALLVALUE PUSH2 0x1ED JUMPI PUSH1 0x20 CALLDATASIZE PUSH1 0x3 NOT ADD SLT PUSH2 0x1ED JUMPI PUSH2 0x5BF PUSH2 0x170D JUMP JUMPDEST PUSH2 0x5C7 PUSH2 0x1ADD JUMP JUMPDEST PUSH1 0x0 DUP1 MLOAD PUSH1 0x20 PUSH2 0x1E64 DUP4 CODECOPY DUP2 MLOAD SWAP2 MSTORE DUP3 MSTORE PUSH1 0x20 DUP3 DUP2 MSTORE PUSH1 0x40 DUP1 DUP5 KECCAK256 PUSH1 0x1 PUSH1 0x1 PUSH1 0xA0 SHL SUB DUP5 AND PUSH1 0x0 SWAP1 DUP2 MSTORE SWAP3 MSTORE SWAP1 KECCAK256 SLOAD PUSH1 0xFF AND PUSH2 0x601 JUMPI POP DUP1 RETURN JUMPDEST PUSH1 0x0 DUP1 MLOAD PUSH1 0x20 PUSH2 0x1E64 DUP4 CODECOPY DUP2 MLOAD SWAP2 MSTORE DUP1 DUP4 MSTORE PUSH1 0x20 DUP4 DUP2 MSTORE PUSH1 0x40 DUP1 DUP6 KECCAK256 PUSH1 0x1 PUSH1 0x1 PUSH1 0xA0 SHL SUB SWAP5 SWAP1 SWAP5 AND PUSH1 0x0 DUP2 DUP2 MSTORE SWAP5 SWAP1 SWAP3 MSTORE SWAP1 SWAP3 KECCAK256 DUP1 SLOAD PUSH1 0xFF NOT AND SWAP1 SSTORE CALLER SWAP2 SWAP1 PUSH32 0xF6391F5C32D9C69D2A47EA670B442974B53935D1EDC7FD64EB21E047A839171B DUP5 DUP1 LOG4 DUP1 RETURN JUMPDEST POP CALLVALUE PUSH2 0x1ED JUMPI PUSH1 0xE0 CALLDATASIZE PUSH1 0x3 NOT ADD SLT PUSH2 0x1ED JUMPI PUSH2 0x681 PUSH2 0x170D JUMP JUMPDEST SWAP1 PUSH2 0x68A PUSH2 0x16F7 JUMP JUMPDEST PUSH1 0x84 CALLDATALOAD SWAP3 SWAP1 PUSH1 0x44 CALLDATALOAD PUSH1 0x1 PUSH1 0x1 PUSH1 0xA0 SHL SUB DUP6 AND DUP6 SUB PUSH2 0x344 JUMPI PUSH1 0xA4 CALLDATALOAD PUSH1 0x1 PUSH1 0x1 PUSH1 0x40 SHL SUB DUP2 GT PUSH2 0xB5D JUMPI PUSH2 0x6C1 SWAP1 CALLDATASIZE SWAP1 PUSH1 0x4 ADD PUSH2 0x1790 JUMP JUMPDEST SWAP4 PUSH1 0xC4 CALLDATALOAD PUSH1 0x1 PUSH1 0x1 PUSH1 0x40 SHL SUB DUP2 GT PUSH2 0x353 JUMPI PUSH2 0x6E1 SWAP1 CALLDATASIZE SWAP1 PUSH1 0x4 ADD PUSH2 0x1790 JUMP JUMPDEST SWAP3 PUSH2 0x6EA PUSH2 0x19D6 JUMP JUMPDEST PUSH2 0x6F2 PUSH2 0x1C10 JUMP JUMPDEST PUSH1 0x1 PUSH1 0x1 PUSH1 0xA0 SHL SUB DUP6 AND SWAP5 DUP6 ISZERO SWAP1 DUP2 ISZERO PUSH2 0xA47 JUMPI JUMPDEST POP PUSH1 0x1 PUSH1 0x1 PUSH1 0xA0 SHL SUB DUP3 AND SWAP8 DUP9 ISZERO SWAP8 DUP5 SWAP1 DUP10 ISZERO PUSH2 0x9CA JUMPI DUP2 SWAP3 SELFBALANCE SWAP5 JUMPDEST ISZERO PUSH2 0x9C4 JUMPI DUP8 JUMPDEST PUSH1 0x20 DUP4 MLOAD SWAP4 ADD SWAP2 GAS CALL PUSH2 0x73B PUSH2 0x1967 JUMP JUMPDEST POP ISZERO PUSH2 0x991 JUMPI DUP7 ISZERO PUSH2 0x919 JUMPI PUSH2 0x751 SWAP1 SELFBALANCE PUSH2 0x18C7 JUMP JUMPDEST SWAP6 PUSH1 0x64 CALLDATALOAD DUP8 LT PUSH2 0x8D4 JUMPI PUSH2 0x8A3 JUMPI PUSH1 0x3 SLOAD PUSH1 0x40 MLOAD PUSH4 0x95EA7B3 PUSH1 0xE0 SHL DUP2 MSTORE PUSH1 0x1 PUSH1 0x1 PUSH1 0xA0 SHL SUB SWAP1 SWAP2 AND PUSH1 0x4 DUP3 ADD MSTORE PUSH1 0x24 DUP2 ADD DUP8 SWAP1 MSTORE PUSH1 0x20 DUP2 PUSH1 0x44 DUP2 DUP7 DUP13 GAS CALL DUP1 ISZERO PUSH2 0x898 JUMPI PUSH2 0x86B JUMPI JUMPDEST POP PUSH1 0x3 SLOAD PUSH1 0x1 PUSH1 0x1 PUSH1 0xA0 SHL SUB AND SWAP1 DUP2 EXTCODESIZE ISZERO PUSH2 0x867 JUMPI PUSH1 0x40 MLOAD PUSH4 0x921B004B PUSH1 0xE0 SHL DUP2 MSTORE PUSH1 0x1 PUSH1 0x1 PUSH1 0xA0 SHL SUB SWAP2 SWAP1 SWAP2 AND PUSH1 0x4 DUP3 ADD MSTORE PUSH1 0x24 DUP2 ADD DUP8 SWAP1 MSTORE SWAP1 DUP3 SWAP1 DUP3 SWAP1 PUSH1 0x44 SWAP1 DUP3 SWAP1 DUP5 SWAP1 GAS CALL DUP1 ISZERO PUSH2 0x348 JUMPI PUSH2 0x852 JUMPI JUMPDEST POP POP SWAP2 PUSH2 0x843 PUSH1 0x20 SWAP6 SWAP3 PUSH32 0xCFB39639B1025742E186F857FCD1216C03F2CF5E45053966934621AB2464BF2D SWAP5 JUMPDEST PUSH1 0x40 MLOAD SWAP5 DUP6 SWAP5 DUP6 MSTORE DUP9 DUP6 ADD MSTORE PUSH1 0x40 DUP5 ADD MSTORE DUP6 PUSH1 0x60 DUP5 ADD MSTORE PUSH1 0xA0 PUSH1 0x80 DUP5 ADD MSTORE PUSH1 0xA0 DUP4 ADD SWAP1 PUSH2 0x16D2 JUMP JUMPDEST SUB SWAP1 LOG1 PUSH1 0x1 DUP1 SSTORE PUSH1 0x40 MLOAD SWAP1 DUP2 MSTORE RETURN JUMPDEST PUSH2 0x85D DUP3 DUP1 SWAP3 PUSH2 0x1754 JUMP JUMPDEST PUSH2 0x1ED JUMPI DUP1 PUSH2 0x7EE JUMP JUMPDEST DUP3 DUP1 REVERT JUMPDEST PUSH2 0x88C SWAP1 PUSH1 0x20 RETURNDATASIZE PUSH1 0x20 GT PUSH2 0x891 JUMPI JUMPDEST PUSH2 0x884 DUP2 DUP4 PUSH2 0x1754 JUMP JUMPDEST DUP2 ADD SWAP1 PUSH2 0x1997 JUMP JUMPDEST PUSH2 0x79B JUMP JUMPDEST POP RETURNDATASIZE PUSH2 0x87A JUMP JUMPDEST PUSH1 0x40 MLOAD RETURNDATASIZE DUP6 DUP3 RETURNDATACOPY RETURNDATASIZE SWAP1 REVERT JUMPDEST POP POP SWAP2 PUSH2 0x843 PUSH1 0x20 SWAP6 SWAP3 PUSH32 0xCFB39639B1025742E186F857FCD1216C03F2CF5E45053966934621AB2464BF2D SWAP5 PUSH2 0x81B JUMP JUMPDEST PUSH1 0x40 MLOAD PUSH3 0x461BCD PUSH1 0xE5 SHL DUP2 MSTORE PUSH1 0x20 PUSH1 0x4 DUP3 ADD MSTORE PUSH1 0x1A PUSH1 0x24 DUP3 ADD MSTORE PUSH32 0x496E73756666696369656E74206F757470757420616D6F756E74000000000000 PUSH1 0x44 DUP3 ADD MSTORE PUSH1 0x64 SWAP1 REVERT JUMPDEST PUSH1 0x40 MLOAD PUSH4 0x70A08231 PUSH1 0xE0 SHL DUP2 MSTORE ADDRESS PUSH1 0x4 DUP3 ADD MSTORE SWAP1 PUSH1 0x20 DUP3 PUSH1 0x24 DUP2 DUP13 GAS STATICCALL DUP1 ISZERO PUSH2 0x986 JUMPI DUP5 SWAP1 PUSH2 0x94D JUMPI JUMPDEST PUSH2 0x751 SWAP3 POP PUSH2 0x18C7 JUMP JUMPDEST POP PUSH1 0x20 DUP3 RETURNDATASIZE PUSH1 0x20 GT PUSH2 0x97E JUMPI JUMPDEST DUP2 PUSH2 0x967 PUSH1 0x20 SWAP4 DUP4 PUSH2 0x1754 JUMP JUMPDEST DUP2 ADD SUB SLT PUSH2 0x979 JUMPI PUSH2 0x751 SWAP2 MLOAD PUSH2 0x943 JUMP JUMPDEST PUSH1 0x0 DUP1 REVERT JUMPDEST RETURNDATASIZE SWAP2 POP PUSH2 0x95A JUMP JUMPDEST PUSH1 0x40 MLOAD RETURNDATASIZE DUP7 DUP3 RETURNDATACOPY RETURNDATASIZE SWAP1 REVERT JUMPDEST PUSH1 0x40 MLOAD PUSH3 0x461BCD PUSH1 0xE5 SHL DUP2 MSTORE PUSH1 0x20 PUSH1 0x4 DUP3 ADD MSTORE PUSH1 0xB PUSH1 0x24 DUP3 ADD MSTORE PUSH11 0x14DDD85C0819985A5B1959 PUSH1 0xAA SHL PUSH1 0x44 DUP3 ADD MSTORE PUSH1 0x64 SWAP1 REVERT JUMPDEST DUP3 PUSH2 0x72A JUMP JUMPDEST PUSH1 0x40 MLOAD PUSH4 0x70A08231 PUSH1 0xE0 SHL DUP2 MSTORE ADDRESS PUSH1 0x4 DUP3 ADD MSTORE SWAP1 SWAP2 POP PUSH1 0x20 DUP2 PUSH1 0x24 DUP2 DUP15 GAS STATICCALL SWAP1 DUP2 ISZERO PUSH2 0xA3C JUMPI SWAP1 DUP7 SWAP3 SWAP2 DUP4 SWAP2 PUSH2 0xA05 JUMPI JUMPDEST POP SWAP3 DUP3 SWAP4 SWAP5 PUSH2 0x723 JUMP JUMPDEST SWAP3 POP POP PUSH1 0x20 DUP3 RETURNDATASIZE PUSH1 0x20 GT PUSH2 0xA34 JUMPI JUMPDEST DUP2 PUSH2 0xA21 PUSH1 0x20 SWAP4 DUP4 PUSH2 0x1754 JUMP JUMPDEST DUP2 ADD SUB SLT PUSH2 0x979 JUMPI SWAP1 MLOAD DUP6 SWAP2 SWAP1 DUP3 PUSH2 0x9FB JUMP JUMPDEST RETURNDATASIZE SWAP2 POP PUSH2 0xA14 JUMP JUMPDEST PUSH1 0x40 MLOAD RETURNDATASIZE DUP9 DUP3 RETURNDATACOPY RETURNDATASIZE SWAP1 REVERT JUMPDEST PUSH1 0x3 SLOAD PUSH1 0x40 MLOAD PUSH4 0x70A08231 PUSH1 0xE0 SHL DUP2 MSTORE PUSH1 0x1 PUSH1 0x1 PUSH1 0xA0 SHL SUB SWAP1 SWAP2 AND PUSH1 0x4 DUP3 ADD DUP2 SWAP1 MSTORE SWAP2 SWAP1 PUSH1 0x20 DUP2 PUSH1 0x24 DUP2 DUP13 GAS STATICCALL SWAP1 DUP2 ISZERO PUSH2 0xA3C JUMPI DUP7 SWAP2 PUSH2 0xBB3 JUMPI JUMPDEST POP PUSH1 0x8 SLOAD SWAP1 DUP2 DUP2 MUL SWAP2 DUP2 DUP4 DIV EQ SWAP1 ISZERO OR ISZERO PUSH2 0xB9F JUMPI PUSH1 0x64 SWAP1 DIV DUP7 GT PUSH2 0xB61 JUMPI DUP2 EXTCODESIZE ISZERO PUSH2 0xB5D JUMPI PUSH1 0x40 MLOAD PUSH4 0x1C20FADD PUSH1 0xE0 SHL DUP2 MSTORE PUSH1 0x1 PUSH1 0x1 PUSH1 0xA0 SHL SUB SWAP2 SWAP1 SWAP2 AND PUSH1 0x4 DUP3 ADD MSTORE ADDRESS PUSH1 0x24 DUP3 ADD MSTORE PUSH1 0x44 DUP2 ADD DUP7 SWAP1 MSTORE SWAP1 DUP5 SWAP1 DUP3 SWAP1 PUSH1 0x64 SWAP1 DUP3 SWAP1 DUP5 SWAP1 GAS CALL DUP1 ISZERO PUSH2 0x986 JUMPI SWAP1 DUP5 SWAP2 PUSH2 0xB48 JUMPI JUMPDEST POP POP PUSH1 0x40 MLOAD PUSH4 0x95EA7B3 PUSH1 0xE0 SHL DUP2 MSTORE PUSH1 0x1 PUSH1 0x1 PUSH1 0xA0 SHL SUB DUP10 AND PUSH1 0x4 DUP3 ADD MSTORE PUSH1 0x24 DUP2 ADD DUP6 SWAP1 MSTORE PUSH1 0x20 DUP2 PUSH1 0x44 DUP2 DUP8 DUP12 GAS CALL DUP1 ISZERO PUSH2 0x986 JUMPI ISZERO PUSH2 0x707 JUMPI PUSH2 0xB41 SWAP1 PUSH1 0x20 RETURNDATASIZE PUSH1 0x20 GT PUSH2 0x891 JUMPI PUSH2 0x884 DUP2 DUP4 PUSH2 0x1754 JUMP JUMPDEST POP CODESIZE PUSH2 0x707 JUMP JUMPDEST DUP2 PUSH2 0xB52 SWAP2 PUSH2 0x1754 JUMP JUMPDEST PUSH2 0x867 JUMPI DUP3 CODESIZE PUSH2 0xAEF JUMP JUMPDEST DUP5 DUP1 REVERT JUMPDEST PUSH1 0x40 MLOAD PUSH3 0x461BCD PUSH1 0xE5 SHL DUP2 MSTORE PUSH1 0x20 PUSH1 0x4 DUP3 ADD MSTORE PUSH1 0x16 PUSH1 0x24 DUP3 ADD MSTORE PUSH22 0x54726164652065786365656473206D61782073697A65 PUSH1 0x50 SHL PUSH1 0x44 DUP3 ADD MSTORE PUSH1 0x64 SWAP1 REVERT JUMPDEST PUSH4 0x4E487B71 PUSH1 0xE0 SHL DUP7 MSTORE PUSH1 0x11 PUSH1 0x4 MSTORE PUSH1 0x24 DUP7 REVERT JUMPDEST SWAP1 POP PUSH1 0x20 DUP2 RETURNDATASIZE PUSH1 0x20 GT PUSH2 0xBDD JUMPI JUMPDEST DUP2 PUSH2 0xBCE PUSH1 0x20 SWAP4 DUP4 PUSH2 0x1754 JUMP JUMPDEST DUP2 ADD SUB SLT PUSH2 0x979 JUMPI MLOAD CODESIZE PUSH2 0xA82 JUMP JUMPDEST RETURNDATASIZE SWAP2 POP PUSH2 0xBC1 JUMP JUMPDEST POP CALLVALUE PUSH2 0x1ED JUMPI PUSH1 0x40 CALLDATASIZE PUSH1 0x3 NOT ADD SLT PUSH2 0x1ED JUMPI PUSH1 0x4 CALLDATALOAD PUSH1 0x24 CALLDATALOAD PUSH1 0x1 PUSH1 0x1 PUSH1 0x40 SHL SUB DUP2 GT PUSH2 0x867 JUMPI PUSH2 0xC19 SWAP1 CALLDATASIZE SWAP1 PUSH1 0x4 ADD PUSH2 0x1790 JUMP JUMPDEST PUSH2 0xC21 PUSH2 0x19D6 JUMP JUMPDEST PUSH1 0x3 SLOAD PUSH1 0x2 SLOAD PUSH1 0x1 PUSH1 0x1 PUSH1 0xA0 SHL SUB SWAP2 DUP3 AND SWAP2 DUP6 SWAP2 AND DUP3 EXTCODESIZE ISZERO PUSH2 0x353 JUMPI PUSH1 0x40 MLOAD PUSH4 0x1C20FADD PUSH1 0xE0 SHL DUP2 MSTORE PUSH1 0x1 PUSH1 0x1 PUSH1 0xA0 SHL SUB SWAP2 SWAP1 SWAP2 AND PUSH1 0x4 DUP3 ADD MSTORE ADDRESS PUSH1 0x24 DUP3 ADD MSTORE PUSH1 0x44 DUP2 ADD DUP6 SWAP1 MSTORE SWAP2 DUP3 SWAP1 PUSH1 0x64 SWAP1 DUP3 SWAP1 DUP5 SWAP1 GAS CALL DUP1 ISZERO PUSH2 0x986 JUMPI PUSH2 0xD71 JUMPI JUMPDEST POP PUSH1 0x2 SLOAD PUSH1 0x40 MLOAD PUSH4 0x95EA7B3 PUSH1 0xE0 SHL DUP2 MSTORE PUSH1 0x1 PUSH1 0x1 PUSH1 0xA0 SHL SUB SWAP1 SWAP2 AND PUSH1 0x4 DUP3 ADD DUP2 SWAP1 MSTORE PUSH1 0x24 DUP3 ADD DUP5 SWAP1 MSTORE PUSH1 0x20 SWAP1 DUP3 SWAP1 PUSH1 0x44 SWAP1 DUP3 SWAP1 DUP9 SWAP1 GAS CALL DUP1 ISZERO PUSH2 0x986 JUMPI PUSH2 0xD54 JUMPI JUMPDEST POP PUSH1 0x2 SLOAD DUP4 SWAP1 PUSH1 0x1 PUSH1 0x1 PUSH1 0xA0 SHL SUB AND DUP1 EXTCODESIZE ISZERO PUSH2 0x353 JUMPI PUSH1 0x40 MLOAD PUSH4 0x1761EDB1 PUSH1 0xE3 SHL DUP2 MSTORE ADDRESS PUSH1 0x4 DUP3 ADD MSTORE PUSH1 0x24 DUP2 ADD DUP6 SWAP1 MSTORE SWAP1 DUP3 SWAP1 DUP3 SWAP1 PUSH1 0x44 SWAP1 DUP3 SWAP1 DUP5 SWAP1 GAS CALL DUP1 ISZERO PUSH2 0x348 JUMPI PUSH2 0xD3F JUMPI JUMPDEST POP POP PUSH32 0xFAD31924D655455395C87544C8AA1FFDB5A7505A22A3C2E03F28003B6556A75F SWAP2 PUSH2 0x329 PUSH1 0x40 MLOAD SWAP3 DUP4 SWAP3 ADDRESS DUP5 PUSH2 0x19AF JUMP JUMPDEST DUP2 PUSH2 0xD49 SWAP2 PUSH2 0x1754 JUMP JUMPDEST PUSH2 0x867 JUMPI DUP3 CODESIZE PUSH2 0xD0B JUMP JUMPDEST PUSH2 0xD6C SWAP1 PUSH1 0x20 RETURNDATASIZE PUSH1 0x20 GT PUSH2 0x891 JUMPI PUSH2 0x884 DUP2 DUP4 PUSH2 0x1754 JUMP JUMPDEST PUSH2 0xCC2 JUMP JUMPDEST DUP4 PUSH2 0xD7E SWAP2 SWAP5 SWAP3 SWAP5 PUSH2 0x1754 JUMP JUMPDEST SWAP2 CODESIZE PUSH2 0xC7F JUMP JUMPDEST POP CALLVALUE PUSH2 0x1ED JUMPI DUP1 PUSH1 0x3 NOT CALLDATASIZE ADD SLT PUSH2 0x1ED JUMPI PUSH1 0x3 SLOAD PUSH1 0x40 MLOAD PUSH1 0x1 PUSH1 0x1 PUSH1 0xA0 SHL SUB SWAP1 SWAP2 AND DUP2 MSTORE PUSH1 0x20 SWAP1 RETURN JUMPDEST POP CALLVALUE PUSH2 0x1ED JUMPI DUP1 PUSH1 0x3 NOT CALLDATASIZE ADD SLT PUSH2 0x1ED JUMPI PUSH1 0x20 PUSH1 0x4 SLOAD PUSH1 0x40 MLOAD SWAP1 DUP2 MSTORE RETURN JUMPDEST POP CALLVALUE PUSH2 0x1ED JUMPI PUSH1 0x60 CALLDATASIZE PUSH1 0x3 NOT ADD SLT PUSH2 0x1ED JUMPI PUSH1 0x4 CALLDATALOAD PUSH1 0x1 PUSH1 0x1 PUSH1 0x40 SHL SUB DUP2 GT PUSH2 0x353 JUMPI PUSH2 0xDFD SWAP1 CALLDATASIZE SWAP1 PUSH1 0x4 ADD PUSH2 0x1790 JUMP JUMPDEST PUSH1 0x24 CALLDATALOAD PUSH1 0x1 PUSH1 0x1 PUSH1 0x40 SHL SUB DUP2 GT PUSH2 0x867 JUMPI PUSH2 0xE1C SWAP1 CALLDATASIZE SWAP1 PUSH1 0x4 ADD PUSH2 0x1790 JUMP JUMPDEST SWAP2 PUSH1 0x44 CALLDATALOAD PUSH1 0x1 PUSH1 0x1 PUSH1 0x40 SHL SUB DUP2 GT PUSH2 0x353 JUMPI PUSH2 0xE3C SWAP1 CALLDATASIZE SWAP1 PUSH1 0x4 ADD PUSH2 0x1790 JUMP JUMPDEST SWAP1 PUSH2 0xE45 PUSH2 0x19D6 JUMP JUMPDEST PUSH2 0xE4D PUSH2 0x1C10 JUMP JUMPDEST PUSH1 0x9 SLOAD SWAP2 PUSH1 0x40 MLOAD PUSH2 0xE5D DUP2 PUSH2 0x1723 JUMP JUMPDEST TIMESTAMP DUP2 MSTORE PUSH1 0x20 DUP2 ADD SWAP1 DUP6 DUP3 MSTORE PUSH1 0x40 DUP2 ADD DUP8 DUP2 MSTORE PUSH1 0x60 DUP3 ADD SWAP3 DUP5 DUP5 MSTORE PUSH9 0x10000000000000000 DUP8 LT ISZERO PUSH2 0x122E JUMPI PUSH1 0x1 DUP8 ADD PUSH1 0x9 SSTORE PUSH2 0xE98 DUP8 PUSH2 0x17D5 JUMP JUMPDEST SWAP4 SWAP1 SWAP4 PUSH2 0x121A JUMPI MLOAD DUP4 SSTORE MLOAD DUP1 MLOAD PUSH1 0x1 DUP5 ADD SWAP2 PUSH1 0x1 PUSH1 0x1 PUSH1 0x40 SHL SUB DUP3 GT PUSH2 0x1206 JUMPI PUSH2 0xECC DUP3 PUSH2 0xEC6 DUP6 SLOAD PUSH2 0x180A JUMP JUMPDEST DUP6 PUSH2 0x1915 JUMP JUMPDEST PUSH1 0x20 SWAP1 PUSH1 0x1F DUP4 GT PUSH1 0x1 EQ PUSH2 0x11A3 JUMPI PUSH2 0xEFC SWAP3 SWAP2 DUP10 SWAP2 DUP4 PUSH2 0x10A7 JUMPI JUMPDEST POP POP DUP2 PUSH1 0x1 SHL SWAP2 PUSH1 0x0 NOT SWAP1 PUSH1 0x3 SHL SHR NOT AND OR SWAP1 JUMP JUMPDEST SWAP1 SSTORE JUMPDEST MLOAD DUP1 MLOAD PUSH1 0x2 DUP4 ADD SWAP2 PUSH1 0x1 PUSH1 0x1 PUSH1 0x40 SHL SUB DUP3 GT PUSH2 0x118F JUMPI PUSH2 0xF23 DUP3 PUSH2 0xEC6 DUP6 SLOAD PUSH2 0x180A JUMP JUMPDEST PUSH1 0x20 SWAP1 PUSH1 0x1F DUP4 GT PUSH1 0x1 EQ PUSH2 0x1129 JUMPI SWAP2 DUP1 PUSH2 0xF57 SWAP3 PUSH1 0x3 SWAP7 SWAP6 SWAP5 DUP11 SWAP3 PUSH2 0x10A7 JUMPI POP POP DUP2 PUSH1 0x1 SHL SWAP2 PUSH1 0x0 NOT SWAP1 PUSH1 0x3 SHL SHR NOT AND OR SWAP1 JUMP JUMPDEST SWAP1 SSTORE JUMPDEST ADD SWAP1 MLOAD DUP1 MLOAD SWAP1 PUSH1 0x1 PUSH1 0x1 PUSH1 0x40 SHL SUB DUP3 GT PUSH2 0x1115 JUMPI PUSH2 0xF7C DUP3 PUSH2 0xEC6 DUP6 SLOAD PUSH2 0x180A JUMP JUMPDEST PUSH1 0x20 SWAP1 PUSH1 0x1F DUP4 GT PUSH1 0x1 EQ PUSH2 0x10B2 JUMPI PUSH2 0xFAB SWAP3 SWAP2 DUP7 SWAP2 DUP4 PUSH2 0x10A7 JUMPI POP POP DUP2 PUSH1 0x1 SHL SWAP2 PUSH1 0x0 NOT SWAP1 PUSH1 0x3 SHL SHR NOT AND OR SWAP1 JUMP JUMPDEST SWAP1 SSTORE JUMPDEST TIMESTAMP PUSH1 0x4 SSTORE PUSH1 0x5 SLOAD PUSH1 0x0 NOT DUP2 EQ PUSH2 0x1093 JUMPI PUSH1 0x1 ADD PUSH1 0x5 SSTORE DUP1 MLOAD DUP3 SWAP2 PUSH1 0x20 ADD DUP3 ADDRESS GAS CALL SWAP2 PUSH2 0xFD8 PUSH2 0x1967 JUMP JUMPDEST SWAP3 ISZERO PUSH2 0x104E JUMPI PUSH2 0x101E PUSH32 0xE942E0951E8E2DF559798F843576BB700742EC4B4570EEBE25697095DE005F1B SWAP2 PUSH2 0x102C PUSH2 0x456 SWAP7 PUSH1 0x40 MLOAD SWAP4 DUP5 SWAP4 PUSH1 0x40 DUP6 MSTORE PUSH1 0x40 DUP6 ADD SWAP1 PUSH2 0x16D2 JUMP JUMPDEST SWAP1 DUP4 DUP3 SUB PUSH1 0x20 DUP6 ADD MSTORE PUSH2 0x16D2 JUMP JUMPDEST SUB SWAP1 LOG2 PUSH1 0x1 DUP1 SSTORE PUSH1 0x40 MLOAD SWAP2 DUP3 SWAP2 PUSH1 0x1 DUP4 MSTORE PUSH1 0x40 PUSH1 0x20 DUP5 ADD MSTORE PUSH1 0x40 DUP4 ADD SWAP1 PUSH2 0x16D2 JUMP JUMPDEST PUSH1 0x40 MLOAD PUSH3 0x461BCD PUSH1 0xE5 SHL DUP2 MSTORE PUSH1 0x20 PUSH1 0x4 DUP3 ADD MSTORE PUSH1 0x19 PUSH1 0x24 DUP3 ADD MSTORE PUSH32 0x4465636973696F6E20657865637574696F6E206661696C656400000000000000 PUSH1 0x44 DUP3 ADD MSTORE PUSH1 0x64 SWAP1 REVERT JUMPDEST PUSH4 0x4E487B71 PUSH1 0xE0 SHL DUP4 MSTORE PUSH1 0x11 PUSH1 0x4 MSTORE PUSH1 0x24 DUP4 REVERT JUMPDEST ADD MLOAD SWAP1 POP CODESIZE DUP1 PUSH2 0xEE7 JUMP JUMPDEST DUP4 DUP7 MSTORE DUP2 DUP7 KECCAK256 SWAP2 SWAP1 PUSH1 0x1F NOT DUP5 AND DUP8 JUMPDEST DUP2 DUP2 LT PUSH2 0x10FD JUMPI POP SWAP1 DUP5 PUSH1 0x1 SWAP6 SWAP5 SWAP4 SWAP3 LT PUSH2 0x10E4 JUMPI JUMPDEST POP POP POP DUP2 SHL ADD SWAP1 SSTORE PUSH2 0xFAE JUMP JUMPDEST ADD MLOAD PUSH1 0x0 NOT PUSH1 0xF8 DUP5 PUSH1 0x3 SHL AND SHR NOT AND SWAP1 SSTORE CODESIZE DUP1 DUP1 PUSH2 0x10D7 JUMP JUMPDEST SWAP3 SWAP4 PUSH1 0x20 PUSH1 0x1 DUP2 SWAP3 DUP8 DUP7 ADD MLOAD DUP2 SSTORE ADD SWAP6 ADD SWAP4 ADD PUSH2 0x10C1 JUMP JUMPDEST PUSH4 0x4E487B71 PUSH1 0xE0 SHL DUP6 MSTORE PUSH1 0x41 PUSH1 0x4 MSTORE PUSH1 0x24 DUP6 REVERT JUMPDEST DUP4 DUP9 MSTORE DUP2 DUP9 KECCAK256 SWAP2 SWAP1 PUSH1 0x1F NOT DUP5 AND DUP10 JUMPDEST DUP2 DUP2 LT PUSH2 0x1177 JUMPI POP SWAP2 PUSH1 0x1 SWAP4 SWAP2 DUP6 PUSH1 0x3 SWAP9 SWAP8 SWAP7 SWAP5 LT PUSH2 0x115F JUMPI JUMPDEST POP POP POP DUP2 SHL ADD SWAP1 SSTORE PUSH2 0xF5A JUMP JUMPDEST ADD MLOAD PUSH1 0x0 NOT DUP4 DUP9 SHL PUSH1 0xF8 AND SHR NOT AND SWAP1 SSTORE CODESIZE DUP1 DUP1 PUSH2 0x1152 JUMP JUMPDEST SWAP3 SWAP4 PUSH1 0x20 PUSH1 0x1 DUP2 SWAP3 DUP8 DUP7 ADD MLOAD DUP2 SSTORE ADD SWAP6 ADD SWAP4 ADD PUSH2 0x1138 JUMP JUMPDEST PUSH4 0x4E487B71 PUSH1 0xE0 SHL DUP8 MSTORE PUSH1 0x41 PUSH1 0x4 MSTORE PUSH1 0x24 DUP8 REVERT JUMPDEST DUP4 DUP10 MSTORE DUP2 DUP10 KECCAK256 SWAP2 SWAP1 PUSH1 0x1F NOT DUP5 AND DUP11 JUMPDEST DUP2 DUP2 LT PUSH2 0x11EE JUMPI POP SWAP1 DUP5 PUSH1 0x1 SWAP6 SWAP5 SWAP4 SWAP3 LT PUSH2 0x11D5 JUMPI JUMPDEST POP POP POP DUP2 SHL ADD SWAP1 SSTORE PUSH2 0xEFF JUMP JUMPDEST ADD MLOAD PUSH1 0x0 NOT PUSH1 0xF8 DUP5 PUSH1 0x3 SHL AND SHR NOT AND SWAP1 SSTORE CODESIZE DUP1 DUP1 PUSH2 0x11C8 JUMP JUMPDEST SWAP3 SWAP4 PUSH1 0x20 PUSH1 0x1 DUP2 SWAP3 DUP8 DUP7 ADD MLOAD DUP2 SSTORE ADD SWAP6 ADD SWAP4 ADD PUSH2 0x11B2 JUMP JUMPDEST PUSH4 0x4E487B71 PUSH1 0xE0 SHL DUP9 MSTORE PUSH1 0x41 PUSH1 0x4 MSTORE PUSH1 0x24 DUP9 REVERT JUMPDEST PUSH4 0x4E487B71 PUSH1 0xE0 SHL DUP8 MSTORE PUSH1 0x4 DUP8 SWAP1 MSTORE PUSH1 0x24 DUP8 REVERT JUMPDEST PUSH4 0x4E487B71 PUSH1 0xE0 SHL DUP7 MSTORE PUSH1 0x41 PUSH1 0x4 MSTORE PUSH1 0x24 DUP7 REVERT JUMPDEST POP CALLVALUE PUSH2 0x1ED JUMPI DUP1 PUSH1 0x3 NOT CALLDATASIZE ADD SLT PUSH2 0x1ED JUMPI PUSH1 0x20 PUSH1 0x40 MLOAD PUSH32 0xF2652DBCD69C7C357910D3AFB4ED41A5B1835967BAAFF149B775D7DBD6375F19 DUP2 MSTORE RETURN JUMPDEST POP CALLVALUE PUSH2 0x1ED JUMPI PUSH1 0x40 CALLDATASIZE PUSH1 0x3 NOT ADD SLT PUSH2 0x1ED JUMPI PUSH2 0x1297 PUSH2 0x16F7 JUMP JUMPDEST CALLER PUSH1 0x1 PUSH1 0x1 PUSH1 0xA0 SHL SUB DUP3 AND SUB PUSH2 0x12B3 JUMPI PUSH2 0x39D SWAP1 PUSH1 0x4 CALLDATALOAD PUSH2 0x1B8E JUMP JUMPDEST PUSH1 0x40 MLOAD PUSH3 0x461BCD PUSH1 0xE5 SHL DUP2 MSTORE PUSH1 0x20 PUSH1 0x4 DUP3 ADD MSTORE PUSH1 0x2F PUSH1 0x24 DUP3 ADD MSTORE PUSH32 0x416363657373436F6E74726F6C3A2063616E206F6E6C792072656E6F756E6365 PUSH1 0x44 DUP3 ADD MSTORE PUSH15 0x103937B632B9903337B91039B2B633 PUSH1 0x89 SHL PUSH1 0x64 DUP3 ADD MSTORE PUSH1 0x84 SWAP1 REVERT JUMPDEST POP CALLVALUE PUSH2 0x1ED JUMPI PUSH1 0x40 CALLDATASIZE PUSH1 0x3 NOT ADD SLT PUSH2 0x1ED JUMPI PUSH1 0x4 CALLDATALOAD PUSH2 0x132D PUSH2 0x16F7 JUMP JUMPDEST SWAP1 PUSH2 0x1349 PUSH2 0x393 DUP3 PUSH1 0x0 MSTORE PUSH1 0x0 PUSH1 0x20 MSTORE PUSH1 0x1 PUSH1 0x40 PUSH1 0x0 KECCAK256 ADD SLOAD SWAP1 JUMP JUMPDEST DUP1 DUP4 MSTORE PUSH1 0x20 DUP4 DUP2 MSTORE PUSH1 0x40 DUP1 DUP6 KECCAK256 PUSH1 0x1 PUSH1 0x1 PUSH1 0xA0 SHL SUB DUP6 AND DUP7 MSTORE SWAP1 SWAP2 MSTORE DUP4 KECCAK256 SLOAD PUSH1 0xFF AND ISZERO PUSH2 0x1374 JUMPI DUP3 DUP1 RETURN JUMPDEST DUP1 DUP4 MSTORE PUSH1 0x20 DUP4 DUP2 MSTORE PUSH1 0x40 DUP1 DUP6 KECCAK256 PUSH1 0x1 PUSH1 0x1 PUSH1 0xA0 SHL SUB SWAP5 SWAP1 SWAP5 AND DUP1 DUP7 MSTORE SWAP4 SWAP1 SWAP2 MSTORE DUP4 KECCAK256 DUP1 SLOAD PUSH1 0xFF NOT AND PUSH1 0x1 OR SWAP1 SSTORE CALLER SWAP2 SWAP1 PUSH32 0x2F8788117E7EFF1D82E926EC794901D17C78024A50270940304540A733656F0D DUP5 DUP1 LOG4 CODESIZE DUP1 DUP3 DUP1 RETURN JUMPDEST POP CALLVALUE PUSH2 0x1ED JUMPI DUP1 PUSH1 0x3 NOT CALLDATASIZE ADD SLT PUSH2 0x1ED JUMPI PUSH1 0x20 PUSH1 0x7 SLOAD PUSH1 0x40 MLOAD SWAP1 DUP2 MSTORE RETURN JUMPDEST POP CALLVALUE PUSH2 0x1ED JUMPI PUSH1 0x20 CALLDATASIZE PUSH1 0x3 NOT ADD SLT PUSH2 0x1ED JUMPI PUSH1 0x20 PUSH2 0x141A PUSH1 0x4 CALLDATALOAD PUSH1 0x0 MSTORE PUSH1 0x0 PUSH1 0x20 MSTORE PUSH1 0x1 PUSH1 0x40 PUSH1 0x0 KECCAK256 ADD SLOAD SWAP1 JUMP JUMPDEST PUSH1 0x40 MLOAD SWAP1 DUP2 MSTORE RETURN JUMPDEST POP CALLVALUE PUSH2 0x1ED JUMPI PUSH1 0x40 CALLDATASIZE PUSH1 0x3 NOT ADD SLT PUSH2 0x1ED JUMPI PUSH1 0x4 CALLDATALOAD PUSH1 0x24 CALLDATALOAD DUP1 DUP3 LT DUP1 PUSH2 0x1630 JUMPI JUMPDEST ISZERO PUSH2 0x15FB JUMPI PUSH2 0x1452 DUP3 DUP3 PUSH2 0x18C7 JUMP JUMPDEST SWAP2 PUSH2 0x145C DUP4 PUSH2 0x18EA JUMP JUMPDEST SWAP3 PUSH2 0x146A PUSH1 0x40 MLOAD SWAP5 DUP6 PUSH2 0x1754 JUMP JUMPDEST DUP1 DUP5 MSTORE PUSH2 0x1479 PUSH1 0x1F NOT SWAP2 PUSH2 0x18EA JUMP JUMPDEST ADD DUP5 JUMPDEST DUP2 DUP2 LT PUSH2 0x15CA JUMPI POP POP DUP1 JUMPDEST DUP3 DUP2 LT PUSH2 0x1534 JUMPI DUP4 DUP6 PUSH1 0x40 MLOAD SWAP2 DUP3 SWAP2 PUSH1 0x20 DUP4 ADD PUSH1 0x20 DUP5 MSTORE DUP3 MLOAD DUP1 SWAP2 MSTORE PUSH1 0x40 DUP5 ADD PUSH1 0x20 PUSH1 0x40 DUP4 PUSH1 0x5 SHL DUP8 ADD ADD SWAP5 ADD SWAP3 SWAP1 JUMPDEST DUP3 DUP3 LT PUSH2 0x14C6 JUMPI POP POP POP POP SUB SWAP1 RETURN JUMPDEST SWAP2 SWAP4 PUSH1 0x1 SWAP2 SWAP4 SWAP6 POP PUSH1 0x20 PUSH2 0x1524 DUP2 SWAP3 PUSH1 0x3F NOT DUP11 DUP3 SUB ADD DUP7 MSTORE DUP9 MLOAD SWAP1 DUP2 MLOAD DUP2 MSTORE PUSH1 0x60 PUSH2 0x1513 PUSH2 0x1501 DUP7 DUP6 ADD MLOAD PUSH1 0x80 DUP9 DUP7 ADD MSTORE PUSH1 0x80 DUP6 ADD SWAP1 PUSH2 0x16D2 JUMP JUMPDEST PUSH1 0x40 DUP6 ADD MLOAD DUP5 DUP3 SUB PUSH1 0x40 DUP7 ADD MSTORE PUSH2 0x16D2 JUMP JUMPDEST SWAP3 ADD MLOAD SWAP1 PUSH1 0x60 DUP2 DUP5 SUB SWAP2 ADD MSTORE PUSH2 0x16D2 JUMP JUMPDEST SWAP7 ADD SWAP3 ADD SWAP3 ADD DUP6 SWAP5 SWAP4 SWAP2 SWAP3 PUSH2 0x14B7 JUMP JUMPDEST DUP1 PUSH2 0x15C3 PUSH2 0x1543 PUSH1 0x1 SWAP4 PUSH2 0x17D5 JUMP JUMPDEST POP PUSH2 0x154E DUP6 DUP5 PUSH2 0x18C7 JUMP JUMPDEST SWAP1 PUSH1 0x3 PUSH2 0x15AD PUSH1 0x40 MLOAD SWAP3 PUSH2 0x1561 DUP5 PUSH2 0x1723 JUMP JUMPDEST DUP1 SLOAD DUP5 MSTORE PUSH1 0x40 MLOAD PUSH2 0x157F DUP2 PUSH2 0x1578 DUP2 DUP13 DUP7 ADD PUSH2 0x1844 JUMP JUMPDEST SUB DUP3 PUSH2 0x1754 JUMP JUMPDEST PUSH1 0x20 DUP6 ADD MSTORE PUSH1 0x40 MLOAD PUSH2 0x1598 DUP2 PUSH2 0x1578 DUP2 PUSH1 0x2 DUP7 ADD PUSH2 0x1844 JUMP JUMPDEST PUSH1 0x40 DUP6 ADD MSTORE PUSH2 0x1578 PUSH1 0x40 MLOAD DUP1 SWAP5 DUP2 SWAP4 ADD PUSH2 0x1844 JUMP JUMPDEST PUSH1 0x60 DUP3 ADD MSTORE PUSH2 0x15BC DUP3 DUP10 PUSH2 0x1901 JUMP JUMPDEST MSTORE DUP7 PUSH2 0x1901 JUMP JUMPDEST POP ADD PUSH2 0x1487 JUMP JUMPDEST PUSH1 0x20 SWAP1 PUSH1 0x40 MLOAD PUSH2 0x15D9 DUP2 PUSH2 0x1723 JUMP JUMPDEST DUP8 DUP2 MSTORE PUSH1 0x60 DUP4 DUP3 ADD MSTORE PUSH1 0x60 PUSH1 0x40 DUP3 ADD MSTORE PUSH1 0x60 DUP1 DUP3 ADD MSTORE DUP3 DUP3 DUP9 ADD ADD MSTORE ADD PUSH2 0x147C JUMP JUMPDEST PUSH1 0x40 MLOAD PUSH3 0x461BCD PUSH1 0xE5 SHL DUP2 MSTORE PUSH1 0x20 PUSH1 0x4 DUP3 ADD MSTORE PUSH1 0xD PUSH1 0x24 DUP3 ADD MSTORE PUSH13 0x496E76616C69642072616E6765 PUSH1 0x98 SHL PUSH1 0x44 DUP3 ADD MSTORE PUSH1 0x64 SWAP1 REVERT JUMPDEST POP PUSH1 0x9 SLOAD DUP2 GT ISZERO PUSH2 0x1443 JUMP JUMPDEST POP CALLVALUE PUSH2 0x1ED JUMPI DUP1 PUSH1 0x3 NOT CALLDATASIZE ADD SLT PUSH2 0x1ED JUMPI PUSH1 0x20 PUSH1 0x5 SLOAD PUSH1 0x40 MLOAD SWAP1 DUP2 MSTORE RETURN JUMPDEST SWAP1 POP CALLVALUE PUSH2 0x353 JUMPI PUSH1 0x20 CALLDATASIZE PUSH1 0x3 NOT ADD SLT PUSH2 0x353 JUMPI PUSH1 0x4 CALLDATALOAD PUSH4 0xFFFFFFFF PUSH1 0xE0 SHL DUP2 AND DUP1 SWAP2 SUB PUSH2 0x867 JUMPI PUSH1 0x20 SWAP3 POP PUSH4 0x7965DB0B PUSH1 0xE0 SHL DUP2 EQ SWAP1 DUP2 ISZERO PUSH2 0x169E JUMPI JUMPDEST POP ISZERO ISZERO DUP2 MSTORE RETURN JUMPDEST PUSH4 0x1FFC9A7 PUSH1 0xE0 SHL EQ SWAP1 POP CODESIZE PUSH2 0x1697 JUMP JUMPDEST PUSH1 0x0 JUMPDEST DUP4 DUP2 LT PUSH2 0x16C2 JUMPI POP POP PUSH1 0x0 SWAP2 ADD MSTORE JUMP JUMPDEST DUP2 DUP2 ADD MLOAD DUP4 DUP3 ADD MSTORE PUSH1 0x20 ADD PUSH2 0x16B2 JUMP JUMPDEST SWAP1 PUSH1 0x20 SWAP2 PUSH2 0x16EB DUP2 MLOAD DUP1 SWAP3 DUP2 DUP6 MSTORE DUP6 DUP1 DUP7 ADD SWAP2 ADD PUSH2 0x16AF JUMP JUMPDEST PUSH1 0x1F ADD PUSH1 0x1F NOT AND ADD ADD SWAP1 JUMP JUMPDEST PUSH1 0x24 CALLDATALOAD SWAP1 PUSH1 0x1 PUSH1 0x1 PUSH1 0xA0 SHL SUB DUP3 AND DUP3 SUB PUSH2 0x979 JUMPI JUMP JUMPDEST PUSH1 0x4 CALLDATALOAD SWAP1 PUSH1 0x1 PUSH1 0x1 PUSH1 0xA0 SHL SUB DUP3 AND DUP3 SUB PUSH2 0x979 JUMPI JUMP JUMPDEST PUSH1 0x80 DUP2 ADD SWAP1 DUP2 LT PUSH1 0x1 PUSH1 0x1 PUSH1 0x40 SHL SUB DUP3 GT OR PUSH2 0x173E JUMPI PUSH1 0x40 MSTORE JUMP JUMPDEST PUSH4 0x4E487B71 PUSH1 0xE0 SHL PUSH1 0x0 MSTORE PUSH1 0x41 PUSH1 0x4 MSTORE PUSH1 0x24 PUSH1 0x0 REVERT JUMPDEST SWAP1 PUSH1 0x1F DUP1 NOT SWAP2 ADD AND DUP2 ADD SWAP1 DUP2 LT PUSH1 0x1 PUSH1 0x1 PUSH1 0x40 SHL SUB DUP3 GT OR PUSH2 0x173E JUMPI PUSH1 0x40 MSTORE JUMP JUMPDEST PUSH1 0x1 PUSH1 0x1 PUSH1 0x40 SHL SUB DUP2 GT PUSH2 0x173E JUMPI PUSH1 0x1F ADD PUSH1 0x1F NOT AND PUSH1 0x20 ADD SWAP1 JUMP JUMPDEST DUP2 PUSH1 0x1F DUP3 ADD SLT ISZERO PUSH2 0x979 JUMPI PUSH1 0x20 DUP2 CALLDATALOAD SWAP2 ADD PUSH2 0x17AA DUP3 PUSH2 0x1775 JUMP JUMPDEST SWAP3 PUSH2 0x17B8 PUSH1 0x40 MLOAD SWAP5 DUP6 PUSH2 0x1754 JUMP JUMPDEST DUP3 DUP5 MSTORE DUP3 DUP3 ADD GT PUSH2 0x979 JUMPI DUP2 PUSH1 0x0 SWAP3 PUSH1 0x20 SWAP3 DUP4 DUP7 ADD CALLDATACOPY DUP4 ADD ADD MSTORE SWAP1 JUMP JUMPDEST PUSH1 0x9 SLOAD DUP2 LT ISZERO PUSH2 0x17F4 JUMPI PUSH1 0x9 PUSH1 0x0 MSTORE PUSH1 0x20 PUSH1 0x0 KECCAK256 SWAP1 PUSH1 0x2 SHL ADD SWAP1 PUSH1 0x0 SWAP1 JUMP JUMPDEST PUSH4 0x4E487B71 PUSH1 0xE0 SHL PUSH1 0x0 MSTORE PUSH1 0x32 PUSH1 0x4 MSTORE PUSH1 0x24 PUSH1 0x0 REVERT JUMPDEST SWAP1 PUSH1 0x1 DUP3 DUP2 SHR SWAP3 AND DUP1 ISZERO PUSH2 0x183A JUMPI JUMPDEST PUSH1 0x20 DUP4 LT EQ PUSH2 0x1824 JUMPI JUMP JUMPDEST PUSH4 0x4E487B71 PUSH1 0xE0 SHL PUSH1 0x0 MSTORE PUSH1 0x22 PUSH1 0x4 MSTORE PUSH1 0x24 PUSH1 0x0 REVERT JUMPDEST SWAP2 PUSH1 0x7F AND SWAP2 PUSH2 0x1819 JUMP JUMPDEST PUSH1 0x0 SWAP3 SWAP2 DUP2 SLOAD SWAP2 PUSH2 0x1854 DUP4 PUSH2 0x180A JUMP JUMPDEST DUP1 DUP4 MSTORE SWAP3 PUSH1 0x1 DUP2 AND SWAP1 DUP2 ISZERO PUSH2 0x18AA JUMPI POP PUSH1 0x1 EQ PUSH2 0x1870 JUMPI POP POP POP JUMP JUMPDEST PUSH1 0x0 SWAP1 DUP2 MSTORE PUSH1 0x20 DUP2 KECCAK256 SWAP4 SWAP5 POP SWAP2 SWAP3 JUMPDEST DUP4 DUP4 LT PUSH2 0x1890 JUMPI POP PUSH1 0x20 SWAP3 POP ADD ADD SWAP1 JUMP JUMPDEST PUSH1 0x1 DUP2 PUSH1 0x20 SWAP3 SWAP5 SWAP4 SWAP5 SLOAD DUP4 DUP6 DUP8 ADD ADD MSTORE ADD SWAP2 ADD SWAP2 SWAP1 PUSH2 0x187F JUMP JUMPDEST SWAP2 POP POP PUSH1 0x20 SWAP4 SWAP5 POP PUSH1 0xFF SWAP3 SWAP2 SWAP3 NOT AND DUP4 DUP4 ADD MSTORE ISZERO ISZERO PUSH1 0x5 SHL ADD ADD SWAP1 JUMP JUMPDEST SWAP2 SWAP1 DUP3 SUB SWAP2 DUP3 GT PUSH2 0x18D4 JUMPI JUMP JUMPDEST PUSH4 0x4E487B71 PUSH1 0xE0 SHL PUSH1 0x0 MSTORE PUSH1 0x11 PUSH1 0x4 MSTORE PUSH1 0x24 PUSH1 0x0 REVERT JUMPDEST PUSH1 0x1 PUSH1 0x1 PUSH1 0x40 SHL SUB DUP2 GT PUSH2 0x173E JUMPI PUSH1 0x5 SHL PUSH1 0x20 ADD SWAP1 JUMP JUMPDEST DUP1 MLOAD DUP3 LT ISZERO PUSH2 0x17F4 JUMPI PUSH1 0x20 SWAP2 PUSH1 0x5 SHL ADD ADD SWAP1 JUMP JUMPDEST PUSH1 0x1F DUP3 GT PUSH2 0x1922 JUMPI POP POP POP JUMP JUMPDEST PUSH1 0x0 MSTORE PUSH1 0x20 PUSH1 0x0 KECCAK256 SWAP1 PUSH1 0x20 PUSH1 0x1F DUP5 ADD PUSH1 0x5 SHR DUP4 ADD SWAP4 LT PUSH2 0x195D JUMPI JUMPDEST PUSH1 0x1F ADD PUSH1 0x5 SHR ADD SWAP1 JUMPDEST DUP2 DUP2 LT PUSH2 0x1951 JUMPI POP POP JUMP JUMPDEST PUSH1 0x0 DUP2 SSTORE PUSH1 0x1 ADD PUSH2 0x1946 JUMP JUMPDEST SWAP1 SWAP2 POP DUP2 SWAP1 PUSH2 0x193D JUMP JUMPDEST RETURNDATASIZE ISZERO PUSH2 0x1992 JUMPI RETURNDATASIZE SWAP1 PUSH2 0x1978 DUP3 PUSH2 0x1775 JUMP JUMPDEST SWAP2 PUSH2 0x1986 PUSH1 0x40 MLOAD SWAP4 DUP5 PUSH2 0x1754 JUMP JUMPDEST DUP3 MSTORE RETURNDATASIZE PUSH1 0x0 PUSH1 0x20 DUP5 ADD RETURNDATACOPY JUMP JUMPDEST PUSH1 0x60 SWAP1 JUMP JUMPDEST SWAP1 DUP2 PUSH1 0x20 SWAP2 SUB SLT PUSH2 0x979 JUMPI MLOAD DUP1 ISZERO ISZERO DUP2 SUB PUSH2 0x979 JUMPI SWAP1 JUMP JUMPDEST PUSH2 0x19D3 SWAP4 SWAP3 PUSH1 0x60 SWAP3 PUSH1 0x1 DUP1 PUSH1 0xA0 SHL SUB AND DUP3 MSTORE PUSH1 0x20 DUP3 ADD MSTORE DUP2 PUSH1 0x40 DUP3 ADD MSTORE ADD SWAP1 PUSH2 0x16D2 JUMP JUMPDEST SWAP1 JUMP JUMPDEST CALLER PUSH1 0x0 SWAP1 DUP2 MSTORE PUSH32 0x82F9588B0461DD6F85C741C2D077444688407204B11B9D91ACA7D73CE23E497F PUSH1 0x20 MSTORE PUSH1 0x40 SWAP1 KECCAK256 SLOAD PUSH1 0xFF AND ISZERO PUSH2 0x1A0F JUMPI JUMP JUMPDEST PUSH2 0x1AD9 PUSH2 0x1A1B CALLER PUSH2 0x1C77 JUMP JUMPDEST PUSH2 0x1AB9 PUSH1 0x11 PUSH2 0x1A37 PUSH1 0x0 DUP1 MLOAD PUSH1 0x20 PUSH2 0x1E64 DUP4 CODECOPY DUP2 MLOAD SWAP2 MSTORE PUSH2 0x1DB7 JUMP JUMPDEST SWAP3 PUSH1 0x37 PUSH1 0x40 MLOAD SWAP5 DUP6 SWAP3 PUSH32 0x416363657373436F6E74726F6C3A206163636F756E7420000000000000000000 PUSH1 0x20 DUP6 ADD MSTORE PUSH2 0x1A79 DUP2 MLOAD DUP1 SWAP3 PUSH1 0x20 DUP7 DUP9 ADD SWAP2 ADD PUSH2 0x16AF JUMP JUMPDEST DUP4 ADD PUSH17 0x1034B99036B4B9B9B4B733903937B6329 PUSH1 0x7D SHL DUP4 DUP3 ADD MSTORE PUSH2 0x1AA8 DUP3 MLOAD DUP1 SWAP4 PUSH1 0x20 PUSH1 0x48 DUP6 ADD SWAP2 ADD PUSH2 0x16AF JUMP JUMPDEST ADD ADD SUB ADD PUSH1 0x1F NOT DUP2 ADD DUP4 MSTORE DUP3 PUSH2 0x1754 JUMP JUMPDEST PUSH1 0x40 MLOAD PUSH3 0x461BCD PUSH1 0xE5 SHL DUP2 MSTORE PUSH1 0x20 PUSH1 0x4 DUP3 ADD MSTORE SWAP2 DUP3 SWAP2 PUSH1 0x24 DUP4 ADD SWAP1 PUSH2 0x16D2 JUMP JUMPDEST SUB SWAP1 REVERT JUMPDEST CALLER PUSH1 0x0 SWAP1 DUP2 MSTORE PUSH32 0x26163BDD9D59505F2E3CD9D90A08460D88E10A07303F796167274E4FA7032E3A PUSH1 0x20 MSTORE PUSH1 0x40 SWAP1 KECCAK256 SLOAD PUSH1 0xFF AND ISZERO PUSH2 0x1B16 JUMPI JUMP JUMPDEST PUSH2 0x1AD9 PUSH2 0x1B22 CALLER PUSH2 0x1C77 JUMP JUMPDEST PUSH2 0x1AB9 PUSH1 0x11 PUSH2 0x1A37 PUSH32 0xF2652DBCD69C7C357910D3AFB4ED41A5B1835967BAAFF149B775D7DBD6375F19 PUSH2 0x1DB7 JUMP JUMPDEST PUSH1 0x0 DUP2 DUP2 MSTORE PUSH1 0x20 DUP2 DUP2 MSTORE PUSH1 0x40 DUP1 DUP4 KECCAK256 CALLER DUP5 MSTORE SWAP1 SWAP2 MSTORE SWAP1 KECCAK256 SLOAD PUSH1 0xFF AND ISZERO PUSH2 0x1B73 JUMPI POP JUMP JUMPDEST PUSH2 0x1AD9 SWAP1 PUSH2 0x1AB9 PUSH1 0x11 PUSH2 0x1A37 PUSH2 0x1B88 CALLER PUSH2 0x1C77 JUMP JUMPDEST SWAP4 PUSH2 0x1DB7 JUMP JUMPDEST PUSH1 0x0 DUP2 DUP2 MSTORE PUSH1 0x20 DUP2 DUP2 MSTORE PUSH1 0x40 DUP1 DUP4 KECCAK256 PUSH1 0x1 PUSH1 0x1 PUSH1 0xA0 SHL SUB DUP7 AND DUP5 MSTORE SWAP1 SWAP2 MSTORE SWAP1 KECCAK256 SLOAD PUSH1 0xFF AND PUSH2 0x1BBA JUMPI POP POP JUMP JUMPDEST PUSH1 0x0 DUP2 DUP2 MSTORE PUSH1 0x20 DUP2 DUP2 MSTORE PUSH1 0x40 DUP1 DUP4 KECCAK256 PUSH1 0x1 PUSH1 0x1 PUSH1 0xA0 SHL SUB SWAP6 SWAP1 SWAP6 AND DUP1 DUP5 MSTORE SWAP5 SWAP1 SWAP2 MSTORE DUP2 KECCAK256 DUP1 SLOAD PUSH1 0xFF NOT AND SWAP1 SSTORE CALLER SWAP3 SWAP2 SWAP1 PUSH32 0xF6391F5C32D9C69D2A47EA670B442974B53935D1EDC7FD64EB21E047A839171B SWAP1 DUP1 LOG4 JUMP JUMPDEST PUSH1 0x2 PUSH1 0x1 SLOAD EQ PUSH2 0x1C21 JUMPI PUSH1 0x2 PUSH1 0x1 SSTORE JUMP JUMPDEST PUSH1 0x40 MLOAD PUSH3 0x461BCD PUSH1 0xE5 SHL DUP2 MSTORE PUSH1 0x20 PUSH1 0x4 DUP3 ADD MSTORE PUSH1 0x1F PUSH1 0x24 DUP3 ADD MSTORE PUSH32 0x5265656E7472616E637947756172643A207265656E7472616E742063616C6C00 PUSH1 0x44 DUP3 ADD MSTORE PUSH1 0x64 SWAP1 REVERT JUMPDEST SWAP1 DUP2 MLOAD DUP2 LT ISZERO PUSH2 0x17F4 JUMPI ADD PUSH1 0x20 ADD SWAP1 JUMP JUMPDEST PUSH1 0x0 SWAP1 PUSH2 0x1C84 PUSH1 0x2A PUSH2 0x1775 JUMP JUMPDEST SWAP2 PUSH2 0x1C92 PUSH1 0x40 MLOAD SWAP4 DUP5 PUSH2 0x1754 JUMP JUMPDEST PUSH1 0x2A DUP4 MSTORE PUSH2 0x1CA0 PUSH1 0x2A PUSH2 0x1775 JUMP JUMPDEST PUSH1 0x20 DUP5 ADD SWAP1 PUSH1 0x1F NOT ADD CALLDATASIZE DUP3 CALLDATACOPY DUP4 MLOAD ISZERO PUSH2 0x1DA3 JUMPI PUSH1 0x30 SWAP1 MSTORE8 DUP3 MLOAD PUSH1 0x1 LT ISZERO PUSH2 0x1D8F JUMPI PUSH1 0x78 PUSH1 0x21 DUP5 ADD MSTORE8 POP PUSH1 0x29 PUSH1 0x0 JUMPDEST PUSH1 0x1 DUP3 GT PUSH2 0x1D23 JUMPI POP POP PUSH2 0x1CDF JUMPI SWAP1 JUMP JUMPDEST PUSH1 0x64 PUSH1 0x40 MLOAD PUSH3 0x461BCD PUSH1 0xE5 SHL DUP2 MSTORE PUSH1 0x20 PUSH1 0x4 DUP3 ADD MSTORE PUSH1 0x20 PUSH1 0x24 DUP3 ADD MSTORE PUSH32 0x537472696E67733A20686578206C656E67746820696E73756666696369656E74 PUSH1 0x44 DUP3 ADD MSTORE REVERT JUMPDEST SWAP1 SWAP2 PUSH1 0xF DUP2 AND PUSH1 0x10 DUP2 LT ISZERO PUSH2 0x1D7B JUMPI PUSH16 0x181899199A1A9B1B9C1CB0B131B232B3 PUSH1 0x81 SHL SWAP1 BYTE PUSH2 0x1D52 DUP5 DUP7 PUSH2 0x1C66 JUMP JUMPDEST MSTORE8 PUSH1 0x4 SHR SWAP2 DUP1 ISZERO PUSH2 0x1D67 JUMPI PUSH1 0x0 NOT ADD SWAP1 PUSH2 0x1CCE JUMP JUMPDEST PUSH4 0x4E487B71 PUSH1 0xE0 SHL DUP3 MSTORE PUSH1 0x11 PUSH1 0x4 MSTORE PUSH1 0x24 DUP3 REVERT JUMPDEST PUSH4 0x4E487B71 PUSH1 0xE0 SHL DUP4 MSTORE PUSH1 0x32 PUSH1 0x4 MSTORE PUSH1 0x24 DUP4 REVERT JUMPDEST PUSH4 0x4E487B71 PUSH1 0xE0 SHL DUP2 MSTORE PUSH1 0x32 PUSH1 0x4 MSTORE PUSH1 0x24 SWAP1 REVERT JUMPDEST PUSH4 0x4E487B71 PUSH1 0xE0 SHL DUP3 MSTORE PUSH1 0x32 PUSH1 0x4 MSTORE PUSH1 0x24 DUP3 REVERT JUMPDEST PUSH1 0x0 SWAP1 PUSH2 0x1DC4 PUSH1 0x42 PUSH2 0x1775 JUMP JUMPDEST SWAP2 PUSH2 0x1DD2 PUSH1 0x40 MLOAD SWAP4 DUP5 PUSH2 0x1754 JUMP JUMPDEST PUSH1 0x42 DUP4 MSTORE PUSH2 0x1DE0 PUSH1 0x42 PUSH2 0x1775 JUMP JUMPDEST PUSH1 0x20 DUP5 ADD SWAP1 PUSH1 0x1F NOT ADD CALLDATASIZE DUP3 CALLDATACOPY DUP4 MLOAD ISZERO PUSH2 0x1DA3 JUMPI PUSH1 0x30 SWAP1 MSTORE8 DUP3 MLOAD PUSH1 0x1 LT ISZERO PUSH2 0x1D8F JUMPI PUSH1 0x78 PUSH1 0x21 DUP5 ADD MSTORE8 POP PUSH1 0x41 PUSH1 0x0 JUMPDEST PUSH1 0x1 DUP3 GT PUSH2 0x1E1F JUMPI POP POP PUSH2 0x1CDF JUMPI SWAP1 JUMP JUMPDEST SWAP1 SWAP2 PUSH1 0xF DUP2 AND PUSH1 0x10 DUP2 LT ISZERO PUSH2 0x1D7B JUMPI PUSH16 0x181899199A1A9B1B9C1CB0B131B232B3 PUSH1 0x81 SHL SWAP1 BYTE PUSH2 0x1E4E DUP5 DUP7 PUSH2 0x1C66 JUMP JUMPDEST MSTORE8 PUSH1 0x4 SHR SWAP2 DUP1 ISZERO PUSH2 0x1D67 JUMPI PUSH1 0x0 NOT ADD SWAP1 PUSH2 0x1E0E JUMP INVALID BASEFEE DUP7 DUP16 PC DUP1 ORIGIN 0xC2 PUSH23 0x7AA096056904BE47C4801B46F0D2481A28FF6B4D3DFAE5 RETURN LOG2 PUSH5 0x6970667358 0x22 SLT KECCAK256 DUP6 MSTORE 0xD6 0xC0 0xD0 PUSH0 0xAD 0xB1 PUSH16 0x114AB037D7683CD4AFBA30078BCF3653 0x2B 0x25 SMOD CREATE2 DUP14 TSTORE 0xBA PUSH5 0x736F6C6343 STOP ADDMOD SHR STOP CALLER 0x26 AND EXTCODESIZE 0xDD SWAP14 MSIZE POP PUSH0 0x2E EXTCODECOPY 0xD9 0xD9 EXP ADDMOD CHAINID 0xD DUP9 0xE1 EXP SMOD ADDRESS EXTCODEHASH PUSH26 0x6167274E4FA7032E3A2F8788117E7EFF1D82E926EC794901D17C PUSH25 0x24A50270940304540A733656F0D82F9588B0461DD6F85C741 0xC2 0xD0 PUSH24 0x444688407204B11B9D91ACA7D73CE23E497FAD3228B676F7 0xD3 0xCD TIMESTAMP DUP5 0xA5 PREVRANDAO EXTCODEHASH OR CALL SWAP7 0x2B CALLDATASIZE 0xE4 SWAP2 0xB3 EXP BLOCKHASH 0xB2 BLOCKHASH PC BLOBHASH 0xE5 SWAP8 0xBA PUSH0 0xB5 "},"methodIdentifiers":{"AI_OPERATOR_ROLE()":"fb3d2e05","DEFAULT_ADMIN_ROLE()":"a217fddf","HUMAN_ADMIN_ROLE()":"4124483c","addAIOperator(address)":"9ebd6d35","burnTokensFromTreasury(uint256,string)":"6f4b1087","buyThreshold()":"f13cff41","decisionCount()":"100b63cb","decisions(uint256)":"b829df82","executeDecision(string,string,bytes)":"48a8dcf7","executeTrade(address,address,uint256,uint256,address,bytes,string)":"78b516cf","getDecisions(uint256,uint256)":"1d808cd3","getRoleAdmin(bytes32)":"248a9ca3","grantRole(bytes32,address)":"2f2ff15d","hasRole(bytes32,address)":"91d14854","lastDecisionTimestamp()":"51fbd405","maxTradePercentage()":"b57f272e","mintTokens(address,uint256,string)":"e67524a3","removeAIOperator(address)":"901b75ae","renounceRole(bytes32,address)":"36568abe","revokeRole(bytes32,address)":"d547741f","sellThreshold()":"2d4310c0","silicaToken()":"e949ed09","supportsInterface(bytes4)":"01ffc9a7","treasury()":"61d027b3","updateThresholds(uint256,uint256,uint256)":"fd19e10c"}}}}}