{"contracts/MockDex.sol":{"MockDex":{"abi":[{"anonymous":false,"inputs":[{"indexed":true,"internalType":"address","name":"tokenIn","type":"address"},{"indexed":true,"internalType":"address","name":"tokenOut","type":"address"},{"indexed":false,"internalType":"uint256","name":"amountIn","type":"uint256"},{"indexed":false,"internalType":"uint256","name":"amountOut","type":"uint256"}],"name":"Swap","type":"event"},{"inputs":[{"internalType":"address","name":"token","type":"address"},{"internalType":"uint256","name":"amount","type":"uint256"}],"name":"fund","outputs":[],"stateMutability":"payable","type":"function"},{"inputs":[{"internalType":"address","name":"tokenIn","type":"address"},{"internalType":"address","name":"tokenOut","type":"address"},{"internalType":"uint256","name":"amountIn","type":"uint256"},{"internalType":"uint256","name":"minAmountOut","type":"uint256"}],"name":"swap","outputs":[{"internalType":"uint256","name":"amountOut","type":"uint256"}],"stateMutability":"payable","type":"function"},{"inputs":[{"internalType":"address","name":"token","type":"address"},{"internalType":"uint256","name":"amount","type":"uint256"},{"internalType":"address","name":"recipient","type":"address"}],"name":"withdraw","outputs":[],"stateMutability":"nonpayable","type":"function"},{"stateMutability":"payable","type":"receive"}],"evm":{"bytecode":{"linkReferences":{},"object":"608080604052346015576106df908161001b8239f35b600080fdfe6080604052600436101561001b575b361561001957600080fd5b005b60003560e01c806369328dec146102e85780637b1837de146102a85763fe0291560361000e57608036600319011261019e5761005561034a565b6024356001600160a01b038116919082900361019e57604435918260011b9183830460021484151715610292576064358310610259576001600160a01b03168015610248576100a6843033846104a0565b81156101b7576040516370a0823160e01b8152306004820152602081602481865afa80156101ab578491600091610171575b5010610122577ffa2dda1cc1b86e41239702756b13effbc1a092b5c57e3ad320fbe4f3b13fe235604060209561010f86338761045e565b81519081528587820152a3604051908152f35b60405162461bcd60e51b815260206004820152602160248201527f496e73756666696369656e74206f757470757420746f6b656e2062616c616e636044820152606560f81b6064820152608490fd5b9150506020813d6020116101a3575b8161018d60209383610360565b8101031261019e57839051386100d8565b600080fd5b3d9150610180565b6040513d6000823e3d90fd5b824710610203577ffa2dda1cc1b86e41239702756b13effbc1a092b5c57e3ad320fbe4f3b13fe23560406020956101fe60008080808a335af16101f8610398565b506103d8565b61010f565b60405162461bcd60e51b815260206004820152601860248201527f496e73756666696369656e74204554482062616c616e636500000000000000006044820152606490fd5b6102548434101561041a565b6100a6565b60405162461bcd60e51b81526020600482015260116024820152700a6d8d2e0e0c2ceca40e8dede40d0d2ced607b1b6044820152606490fd5b634e487b7160e01b600052601160045260246000fd5b604036600319011261019e576102bc61034a565b6001600160a01b031660243581156102db5761001991309033906104a0565b610019915034101561041a565b3461019e57606036600319011261019e5761030161034a565b6044356001600160a01b03811691602435919083820361019e576001600160a01b0316801561033457610019935061045e565b5050600080808093610019955af16101f8610398565b600435906001600160a01b038216820361019e57565b90601f8019910116810190811067ffffffffffffffff82111761038257604052565b634e487b7160e01b600052604160045260246000fd5b3d156103d3573d9067ffffffffffffffff821161038257604051916103c7601f8201601f191660200184610360565b82523d6000602084013e565b606090565b156103df57565b60405162461bcd60e51b8152602060048201526013602482015272115512081d1c985b9cd9995c8819985a5b1959606a1b6044820152606490fd5b1561042157565b60405162461bcd60e51b8152602060048201526015602482015274125b9cdd59999a58da595b9d08115512081cd95b9d605a1b6044820152606490fd5b60405163a9059cbb60e01b60208201526001600160a01b03909216602483015260448083019390935291815261049e91610499606483610360565b6104e4565b565b6040516323b872dd60e01b60208201526001600160a01b03928316602482015292909116604483015260648083019390935291815261049e91610499608483610360565b604080519092610549926001600160a01b03169060009081906105078786610360565b602085527f5361666545524332303a206c6f772d6c6576656c2063616c6c206661696c6564602086015260208151910182855af1610543610398565b916105d9565b80519081159182156105b6575b5050156105605750565b5162461bcd60e51b815260206004820152602a60248201527f5361666545524332303a204552433230206f7065726174696f6e20646964206e6044820152691bdd081cdd58d8d9595960b21b6064820152608490fd5b819250906020918101031261019e5760200151801515810361019e573880610556565b9192901561063b57508151156105ed575090565b3b156105f65790565b60405162461bcd60e51b815260206004820152601d60248201527f416464726573733a2063616c6c20746f206e6f6e2d636f6e74726163740000006044820152606490fd5b82519091501561064e5750805190602001fd5b6040519062461bcd60e51b8252602060048301528181519182602483015260005b8381106106915750508160006044809484010152601f80199101168101030190fd5b6020828201810151604487840101528593500161066f56fea2646970667358221220e0073898cfbff7d93cc826da31267ea39bde55f064d43c8591670612aeddd1c064736f6c634300081c0033","opcodes":"PUSH1 0x80 DUP1 PUSH1 0x40 MSTORE CALLVALUE PUSH1 0x15 JUMPI PUSH2 0x6DF SWAP1 DUP2 PUSH2 0x1B DUP3 CODECOPY RETURN JUMPDEST PUSH1 0x0 DUP1 REVERT INVALID PUSH1 0x80 PUSH1 0x40 MSTORE PUSH1 0x4 CALLDATASIZE LT ISZERO PUSH2 0x1B JUMPI JUMPDEST CALLDATASIZE ISZERO PUSH2 0x19 JUMPI PUSH1 0x0 DUP1 REVERT JUMPDEST STOP JUMPDEST PUSH1 0x0 CALLDATALOAD PUSH1 0xE0 SHR DUP1 PUSH4 0x69328DEC EQ PUSH2 0x2E8 JUMPI DUP1 PUSH4 0x7B1837DE EQ PUSH2 0x2A8 JUMPI PUSH4 0xFE029156 SUB PUSH2 0xE JUMPI PUSH1 0x80 CALLDATASIZE PUSH1 0x3 NOT ADD SLT PUSH2 0x19E JUMPI PUSH2 0x55 PUSH2 0x34A JUMP JUMPDEST PUSH1 0x24 CALLDATALOAD PUSH1 0x1 PUSH1 0x1 PUSH1 0xA0 SHL SUB DUP2 AND SWAP2 SWAP1 DUP3 SWAP1 SUB PUSH2 0x19E JUMPI PUSH1 0x44 CALLDATALOAD SWAP2 DUP3 PUSH1 0x1 SHL SWAP2 DUP4 DUP4 DIV PUSH1 0x2 EQ DUP5 ISZERO OR ISZERO PUSH2 0x292 JUMPI PUSH1 0x64 CALLDATALOAD DUP4 LT PUSH2 0x259 JUMPI PUSH1 0x1 PUSH1 0x1 PUSH1 0xA0 SHL SUB AND DUP1 ISZERO PUSH2 0x248 JUMPI PUSH2 0xA6 DUP5 ADDRESS CALLER DUP5 PUSH2 0x4A0 JUMP JUMPDEST DUP2 ISZERO PUSH2 0x1B7 JUMPI PUSH1 0x40 MLOAD PUSH4 0x70A08231 PUSH1 0xE0 SHL DUP2 MSTORE ADDRESS PUSH1 0x4 DUP3 ADD MSTORE PUSH1 0x20 DUP2 PUSH1 0x24 DUP2 DUP7 GAS STATICCALL DUP1 ISZERO PUSH2 0x1AB JUMPI DUP5 SWAP2 PUSH1 0x0 SWAP2 PUSH2 0x171 JUMPI JUMPDEST POP LT PUSH2 0x122 JUMPI PUSH32 0xFA2DDA1CC1B86E41239702756B13EFFBC1A092B5C57E3AD320FBE4F3B13FE235 PUSH1 0x40 PUSH1 0x20 SWAP6 PUSH2 0x10F DUP7 CALLER DUP8 PUSH2 0x45E JUMP JUMPDEST DUP2 MLOAD SWAP1 DUP2 MSTORE DUP6 DUP8 DUP3 ADD MSTORE LOG3 PUSH1 0x40 MLOAD SWAP1 DUP2 MSTORE RETURN JUMPDEST PUSH1 0x40 MLOAD PUSH3 0x461BCD PUSH1 0xE5 SHL DUP2 MSTORE PUSH1 0x20 PUSH1 0x4 DUP3 ADD MSTORE PUSH1 0x21 PUSH1 0x24 DUP3 ADD MSTORE PUSH32 0x496E73756666696369656E74206F757470757420746F6B656E2062616C616E63 PUSH1 0x44 DUP3 ADD MSTORE PUSH1 0x65 PUSH1 0xF8 SHL PUSH1 0x64 DUP3 ADD MSTORE PUSH1 0x84 SWAP1 REVERT JUMPDEST SWAP2 POP POP PUSH1 0x20 DUP2 RETURNDATASIZE PUSH1 0x20 GT PUSH2 0x1A3 JUMPI JUMPDEST DUP2 PUSH2 0x18D PUSH1 0x20 SWAP4 DUP4 PUSH2 0x360 JUMP JUMPDEST DUP2 ADD SUB SLT PUSH2 0x19E JUMPI DUP4 SWAP1 MLOAD CODESIZE PUSH2 0xD8 JUMP JUMPDEST PUSH1 0x0 DUP1 REVERT JUMPDEST RETURNDATASIZE SWAP2 POP PUSH2 0x180 JUMP JUMPDEST PUSH1 0x40 MLOAD RETURNDATASIZE PUSH1 0x0 DUP3 RETURNDATACOPY RETURNDATASIZE SWAP1 REVERT JUMPDEST DUP3 SELFBALANCE LT PUSH2 0x203 JUMPI PUSH32 0xFA2DDA1CC1B86E41239702756B13EFFBC1A092B5C57E3AD320FBE4F3B13FE235 PUSH1 0x40 PUSH1 0x20 SWAP6 PUSH2 0x1FE PUSH1 0x0 DUP1 DUP1 DUP1 DUP11 CALLER GAS CALL PUSH2 0x1F8 PUSH2 0x398 JUMP JUMPDEST POP PUSH2 0x3D8 JUMP JUMPDEST PUSH2 0x10F JUMP JUMPDEST PUSH1 0x40 MLOAD PUSH3 0x461BCD PUSH1 0xE5 SHL DUP2 MSTORE PUSH1 0x20 PUSH1 0x4 DUP3 ADD MSTORE PUSH1 0x18 PUSH1 0x24 DUP3 ADD MSTORE PUSH32 0x496E73756666696369656E74204554482062616C616E63650000000000000000 PUSH1 0x44 DUP3 ADD MSTORE PUSH1 0x64 SWAP1 REVERT JUMPDEST PUSH2 0x254 DUP5 CALLVALUE LT ISZERO PUSH2 0x41A JUMP JUMPDEST PUSH2 0xA6 JUMP JUMPDEST PUSH1 0x40 MLOAD PUSH3 0x461BCD PUSH1 0xE5 SHL DUP2 MSTORE PUSH1 0x20 PUSH1 0x4 DUP3 ADD MSTORE PUSH1 0x11 PUSH1 0x24 DUP3 ADD MSTORE PUSH17 0xA6D8D2E0E0C2CECA40E8DEDE40D0D2CED PUSH1 0x7B SHL PUSH1 0x44 DUP3 ADD MSTORE PUSH1 0x64 SWAP1 REVERT JUMPDEST PUSH4 0x4E487B71 PUSH1 0xE0 SHL PUSH1 0x0 MSTORE PUSH1 0x11 PUSH1 0x4 MSTORE PUSH1 0x24 PUSH1 0x0 REVERT JUMPDEST PUSH1 0x40 CALLDATASIZE PUSH1 0x3 NOT ADD SLT PUSH2 0x19E JUMPI PUSH2 0x2BC PUSH2 0x34A JUMP JUMPDEST PUSH1 0x1 PUSH1 0x1 PUSH1 0xA0 SHL SUB AND PUSH1 0x24 CALLDATALOAD DUP2 ISZERO PUSH2 0x2DB JUMPI PUSH2 0x19 SWAP2 ADDRESS SWAP1 CALLER SWAP1 PUSH2 0x4A0 JUMP JUMPDEST PUSH2 0x19 SWAP2 POP CALLVALUE LT ISZERO PUSH2 0x41A JUMP JUMPDEST CALLVALUE PUSH2 0x19E JUMPI PUSH1 0x60 CALLDATASIZE PUSH1 0x3 NOT ADD SLT PUSH2 0x19E JUMPI PUSH2 0x301 PUSH2 0x34A JUMP JUMPDEST PUSH1 0x44 CALLDATALOAD PUSH1 0x1 PUSH1 0x1 PUSH1 0xA0 SHL SUB DUP2 AND SWAP2 PUSH1 0x24 CALLDATALOAD SWAP2 SWAP1 DUP4 DUP3 SUB PUSH2 0x19E JUMPI PUSH1 0x1 PUSH1 0x1 PUSH1 0xA0 SHL SUB AND DUP1 ISZERO PUSH2 0x334 JUMPI PUSH2 0x19 SWAP4 POP PUSH2 0x45E JUMP JUMPDEST POP POP PUSH1 0x0 DUP1 DUP1 DUP1 SWAP4 PUSH2 0x19 SWAP6 GAS CALL PUSH2 0x1F8 PUSH2 0x398 JUMP JUMPDEST PUSH1 0x4 CALLDATALOAD SWAP1 PUSH1 0x1 PUSH1 0x1 PUSH1 0xA0 SHL SUB DUP3 AND DUP3 SUB PUSH2 0x19E JUMPI JUMP JUMPDEST SWAP1 PUSH1 0x1F DUP1 NOT SWAP2 ADD AND DUP2 ADD SWAP1 DUP2 LT PUSH8 0xFFFFFFFFFFFFFFFF DUP3 GT OR PUSH2 0x382 JUMPI PUSH1 0x40 MSTORE JUMP JUMPDEST PUSH4 0x4E487B71 PUSH1 0xE0 SHL PUSH1 0x0 MSTORE PUSH1 0x41 PUSH1 0x4 MSTORE PUSH1 0x24 PUSH1 0x0 REVERT JUMPDEST RETURNDATASIZE ISZERO PUSH2 0x3D3 JUMPI RETURNDATASIZE SWAP1 PUSH8 0xFFFFFFFFFFFFFFFF DUP3 GT PUSH2 0x382 JUMPI PUSH1 0x40 MLOAD SWAP2 PUSH2 0x3C7 PUSH1 0x1F DUP3 ADD PUSH1 0x1F NOT AND PUSH1 0x20 ADD DUP5 PUSH2 0x360 JUMP JUMPDEST DUP3 MSTORE RETURNDATASIZE PUSH1 0x0 PUSH1 0x20 DUP5 ADD RETURNDATACOPY JUMP JUMPDEST PUSH1 0x60 SWAP1 JUMP JUMPDEST ISZERO PUSH2 0x3DF JUMPI JUMP JUMPDEST PUSH1 0x40 MLOAD PUSH3 0x461BCD PUSH1 0xE5 SHL DUP2 MSTORE PUSH1 0x20 PUSH1 0x4 DUP3 ADD MSTORE PUSH1 0x13 PUSH1 0x24 DUP3 ADD MSTORE PUSH19 0x115512081D1C985B9CD9995C8819985A5B1959 PUSH1 0x6A SHL PUSH1 0x44 DUP3 ADD MSTORE PUSH1 0x64 SWAP1 REVERT JUMPDEST ISZERO PUSH2 0x421 JUMPI JUMP JUMPDEST PUSH1 0x40 MLOAD PUSH3 0x461BCD PUSH1 0xE5 SHL DUP2 MSTORE PUSH1 0x20 PUSH1 0x4 DUP3 ADD MSTORE PUSH1 0x15 PUSH1 0x24 DUP3 ADD MSTORE PUSH21 0x125B9CDD59999A58DA595B9D08115512081CD95B9D PUSH1 0x5A SHL PUSH1 0x44 DUP3 ADD MSTORE PUSH1 0x64 SWAP1 REVERT JUMPDEST PUSH1 0x40 MLOAD PUSH4 0xA9059CBB PUSH1 0xE0 SHL PUSH1 0x20 DUP3 ADD MSTORE PUSH1 0x1 PUSH1 0x1 PUSH1 0xA0 SHL SUB SWAP1 SWAP3 AND PUSH1 0x24 DUP4 ADD MSTORE PUSH1 0x44 DUP1 DUP4 ADD SWAP4 SWAP1 SWAP4 MSTORE SWAP2 DUP2 MSTORE PUSH2 0x49E SWAP2 PUSH2 0x499 PUSH1 0x64 DUP4 PUSH2 0x360 JUMP JUMPDEST PUSH2 0x4E4 JUMP JUMPDEST JUMP JUMPDEST PUSH1 0x40 MLOAD PUSH4 0x23B872DD PUSH1 0xE0 SHL PUSH1 0x20 DUP3 ADD MSTORE PUSH1 0x1 PUSH1 0x1 PUSH1 0xA0 SHL SUB SWAP3 DUP4 AND PUSH1 0x24 DUP3 ADD MSTORE SWAP3 SWAP1 SWAP2 AND PUSH1 0x44 DUP4 ADD MSTORE PUSH1 0x64 DUP1 DUP4 ADD SWAP4 SWAP1 SWAP4 MSTORE SWAP2 DUP2 MSTORE PUSH2 0x49E SWAP2 PUSH2 0x499 PUSH1 0x84 DUP4 PUSH2 0x360 JUMP JUMPDEST PUSH1 0x40 DUP1 MLOAD SWAP1 SWAP3 PUSH2 0x549 SWAP3 PUSH1 0x1 PUSH1 0x1 PUSH1 0xA0 SHL SUB AND SWAP1 PUSH1 0x0 SWAP1 DUP2 SWAP1 PUSH2 0x507 DUP8 DUP7 PUSH2 0x360 JUMP JUMPDEST PUSH1 0x20 DUP6 MSTORE PUSH32 0x5361666545524332303A206C6F772D6C6576656C2063616C6C206661696C6564 PUSH1 0x20 DUP7 ADD MSTORE PUSH1 0x20 DUP2 MLOAD SWAP2 ADD DUP3 DUP6 GAS CALL PUSH2 0x543 PUSH2 0x398 JUMP JUMPDEST SWAP2 PUSH2 0x5D9 JUMP JUMPDEST DUP1 MLOAD SWAP1 DUP2 ISZERO SWAP2 DUP3 ISZERO PUSH2 0x5B6 JUMPI JUMPDEST POP POP ISZERO PUSH2 0x560 JUMPI POP JUMP JUMPDEST MLOAD PUSH3 0x461BCD PUSH1 0xE5 SHL DUP2 MSTORE PUSH1 0x20 PUSH1 0x4 DUP3 ADD MSTORE PUSH1 0x2A PUSH1 0x24 DUP3 ADD MSTORE PUSH32 0x5361666545524332303A204552433230206F7065726174696F6E20646964206E PUSH1 0x44 DUP3 ADD MSTORE PUSH10 0x1BDD081CDD58D8D95959 PUSH1 0xB2 SHL PUSH1 0x64 DUP3 ADD MSTORE PUSH1 0x84 SWAP1 REVERT JUMPDEST DUP2 SWAP3 POP SWAP1 PUSH1 0x20 SWAP2 DUP2 ADD SUB SLT PUSH2 0x19E JUMPI PUSH1 0x20 ADD MLOAD DUP1 ISZERO ISZERO DUP2 SUB PUSH2 0x19E JUMPI CODESIZE DUP1 PUSH2 0x556 JUMP JUMPDEST SWAP2 SWAP3 SWAP1 ISZERO PUSH2 0x63B JUMPI POP DUP2 MLOAD ISZERO PUSH2 0x5ED JUMPI POP SWAP1 JUMP JUMPDEST EXTCODESIZE ISZERO PUSH2 0x5F6 JUMPI SWAP1 JUMP JUMPDEST PUSH1 0x40 MLOAD PUSH3 0x461BCD PUSH1 0xE5 SHL DUP2 MSTORE PUSH1 0x20 PUSH1 0x4 DUP3 ADD MSTORE PUSH1 0x1D PUSH1 0x24 DUP3 ADD MSTORE PUSH32 0x416464726573733A2063616C6C20746F206E6F6E2D636F6E7472616374000000 PUSH1 0x44 DUP3 ADD MSTORE PUSH1 0x64 SWAP1 REVERT JUMPDEST DUP3 MLOAD SWAP1 SWAP2 POP ISZERO PUSH2 0x64E JUMPI POP DUP1 MLOAD SWAP1 PUSH1 0x20 ADD REVERT JUMPDEST PUSH1 0x40 MLOAD SWAP1 PUSH3 0x461BCD PUSH1 0xE5 SHL DUP3 MSTORE PUSH1 0x20 PUSH1 0x4 DUP4 ADD MSTORE DUP2 DUP2 MLOAD SWAP2 DUP3 PUSH1 0x24 DUP4 ADD MSTORE PUSH1 0x0 JUMPDEST DUP4 DUP2 LT PUSH2 0x691 JUMPI POP POP DUP2 PUSH1 0x0 PUSH1 0x44 DUP1 SWAP5 DUP5 ADD ADD MSTORE PUSH1 0x1F DUP1 NOT SWAP2 ADD AND DUP2 ADD SUB ADD SWAP1 REVERT JUMPDEST PUSH1 0x20 DUP3 DUP3 ADD DUP2 ADD MLOAD PUSH1 0x44 DUP8 DUP5 ADD ADD MSTORE DUP6 SWAP4 POP ADD PUSH2 0x66F JUMP INVALID LOG2 PUSH5 0x6970667358 0x22 SLT KECCAK256 0xE0 SMOD CODESIZE SWAP9 0xCF 0xBF 0xF7 0xD9 EXTCODECOPY 0xC8 0x26 0xDA BALANCE 0x26 PUSH31 0xA39BDE55F064D43C8591670612AEDDD1C064736F6C634300081C0033000000 "},"methodIdentifiers":{"fund(address,uint256)":"7b1837de","swap(address,address,uint256,uint256)":"fe029156","withdraw(address,uint256,address)":"69328dec"}}}}}