{"contracts/SilicaModelRegistry.sol":{"SilicaModelRegistry":{"abi":[{"inputs":[],"stateMutability":"nonpayable","type":"constructor"},{"anonymous":false,"inputs":[{"indexed":true,"internalType":"uint256","name":"modelId","type":"uint256"},{"indexed":false,"internalType":"uint256","name":"newFee","type":"uint256"}],"name":"FeeUpdated","type":"event"},{"anonymous":false,"inputs":[{"indexed":true,"internalType":"uint256","name":"modelId","type":"uint256"},{"indexed":true,"internalType":"address","name":"creator","type":"address"},{"indexed":false,"internalType":"string","name":"name","type":"string"},{"indexed":false,"internalType":"string","name":"modelType","type":"string"}],"name":"ModelRegistered","type":"event"},{"anonymous":false,"inputs":[{"indexed":true,"internalType":"uint256","name":"modelId","type":"uint256"},{"indexed":false,"internalType":"bool","name":"isActive","type":"bool"}],"name":"ModelStatusChanged","type":"event"},{"anonymous":false,"inputs":[{"indexed":true,"internalType":"uint256","name":"modelId","type":"uint256"},{"indexed":false,"internalType":"string","name":"version","type":"string"},{"indexed":false,"internalType":"string","name":"storageURI","type":"string"}],"name":"ModelUpdated","type":"event"},{"anonymous":false,"inputs":[{"indexed":true,"internalType":"uint256","name":"modelId","type":"uint256"},{"indexed":true,"internalType":"address","name":"user","type":"address"},{"indexed":false,"internalType":"uint256","name":"fee","type":"uint256"}],"name":"ModelUsed","type":"event"},{"anonymous":false,"inputs":[{"indexed":true,"internalType":"bytes32","name":"role","type":"bytes32"},{"indexed":true,"internalType":"bytes32","name":"previousAdminRole","type":"bytes32"},{"indexed":true,"internalType":"bytes32","name":"newAdminRole","type":"bytes32"}],"name":"RoleAdminChanged","type":"event"},{"anonymous":false,"inputs":[{"indexed":true,"internalType":"bytes32","name":"role","type":"bytes32"},{"indexed":true,"internalType":"address","name":"account","type":"address"},{"indexed":true,"internalType":"address","name":"sender","type":"address"}],"name":"RoleGranted","type":"event"},{"anonymous":false,"inputs":[{"indexed":true,"internalType":"bytes32","name":"role","type":"bytes32"},{"indexed":true,"internalType":"address","name":"account","type":"address"},{"indexed":true,"internalType":"address","name":"sender","type":"address"}],"name":"RoleRevoked","type":"event"},{"inputs":[],"name":"ADMIN_ROLE","outputs":[{"internalType":"bytes32","name":"","type":"bytes32"}],"stateMutability":"view","type":"function"},{"inputs":[],"name":"DEFAULT_ADMIN_ROLE","outputs":[{"internalType":"bytes32","name":"","type":"bytes32"}],"stateMutability":"view","type":"function"},{"inputs":[],"name":"MODEL_CREATOR_ROLE","outputs":[{"internalType":"bytes32","name":"","type":"bytes32"}],"stateMutability":"view","type":"function"},{"inputs":[{"internalType":"address","name":"account","type":"address"}],"name":"addModelCreator","outputs":[],"stateMutability":"nonpayable","type":"function"},{"inputs":[{"internalType":"address","name":"","type":"address"},{"internalType":"uint256","name":"","type":"uint256"}],"name":"creatorModels","outputs":[{"internalType":"uint256","name":"","type":"uint256"}],"stateMutability":"view","type":"function"},{"inputs":[{"internalType":"uint256","name":"modelId","type":"uint256"}],"name":"getModel","outputs":[{"components":[{"internalType":"uint256","name":"id","type":"uint256"},{"internalType":"address","name":"creator","type":"address"},{"internalType":"string","name":"name","type":"string"},{"internalType":"string","name":"description","type":"string"},{"internalType":"string","name":"modelType","type":"string"},{"internalType":"string","name":"version","type":"string"},{"internalType":"string","name":"storageURI","type":"string"},{"internalType":"string","name":"apiEndpoint","type":"string"},{"internalType":"bool","name":"isActive","type":"bool"},{"internalType":"uint256","name":"createdAt","type":"uint256"},{"internalType":"uint256","name":"updatedAt","type":"uint256"},{"internalType":"uint256","name":"usageCount","type":"uint256"},{"internalType":"uint256","name":"feePerCall","type":"uint256"}],"internalType":"struct SilicaModelRegistry.ModelMetadata","name":"","type":"tuple"}],"stateMutability":"view","type":"function"},{"inputs":[],"name":"getModelCount","outputs":[{"internalType":"uint256","name":"","type":"uint256"}],"stateMutability":"view","type":"function"},{"inputs":[{"internalType":"address","name":"creator","type":"address"}],"name":"getModelsByCreator","outputs":[{"internalType":"uint256[]","name":"","type":"uint256[]"}],"stateMutability":"view","type":"function"},{"inputs":[{"internalType":"bytes32","name":"role","type":"bytes32"}],"name":"getRoleAdmin","outputs":[{"internalType":"bytes32","name":"","type":"bytes32"}],"stateMutability":"view","type":"function"},{"inputs":[{"internalType":"bytes32","name":"role","type":"bytes32"},{"internalType":"address","name":"account","type":"address"}],"name":"grantRole","outputs":[],"stateMutability":"nonpayable","type":"function"},{"inputs":[{"internalType":"bytes32","name":"role","type":"bytes32"},{"internalType":"address","name":"account","type":"address"}],"name":"hasRole","outputs":[{"internalType":"bool","name":"","type":"bool"}],"stateMutability":"view","type":"function"},{"inputs":[{"internalType":"string","name":"","type":"string"}],"name":"modelNameExists","outputs":[{"internalType":"bool","name":"","type":"bool"}],"stateMutability":"view","type":"function"},{"inputs":[{"internalType":"uint256","name":"","type":"uint256"}],"name":"modelStats","outputs":[{"internalType":"uint256","name":"totalCalls","type":"uint256"},{"internalType":"uint256","name":"totalRevenue","type":"uint256"},{"internalType":"uint256","name":"lastUsedTimestamp","type":"uint256"}],"stateMutability":"view","type":"function"},{"inputs":[{"internalType":"uint256","name":"","type":"uint256"}],"name":"models","outputs":[{"internalType":"uint256","name":"id","type":"uint256"},{"internalType":"address","name":"creator","type":"address"},{"internalType":"string","name":"name","type":"string"},{"internalType":"string","name":"description","type":"string"},{"internalType":"string","name":"modelType","type":"string"},{"internalType":"string","name":"version","type":"string"},{"internalType":"string","name":"storageURI","type":"string"},{"internalType":"string","name":"apiEndpoint","type":"string"},{"internalType":"bool","name":"isActive","type":"bool"},{"internalType":"uint256","name":"createdAt","type":"uint256"},{"internalType":"uint256","name":"updatedAt","type":"uint256"},{"internalType":"uint256","name":"usageCount","type":"uint256"},{"internalType":"uint256","name":"feePerCall","type":"uint256"}],"stateMutability":"view","type":"function"},{"inputs":[{"internalType":"uint256","name":"modelId","type":"uint256"},{"internalType":"address","name":"user","type":"address"},{"internalType":"address","name":"_paymentToken","type":"address"}],"name":"recordModelUsage","outputs":[],"stateMutability":"nonpayable","type":"function"},{"inputs":[{"internalType":"string","name":"name","type":"string"},{"internalType":"string","name":"description","type":"string"},{"internalType":"string","name":"modelType","type":"string"},{"internalType":"string","name":"version","type":"string"},{"internalType":"string","name":"storageURI","type":"string"},{"internalType":"string","name":"apiEndpoint","type":"string"},{"internalType":"uint256","name":"feePerCall","type":"uint256"}],"name":"registerModel","outputs":[{"internalType":"uint256","name":"","type":"uint256"}],"stateMutability":"nonpayable","type":"function"},{"inputs":[{"internalType":"address","name":"account","type":"address"}],"name":"removeModelCreator","outputs":[],"stateMutability":"nonpayable","type":"function"},{"inputs":[{"internalType":"bytes32","name":"role","type":"bytes32"},{"internalType":"address","name":"account","type":"address"}],"name":"renounceRole","outputs":[],"stateMutability":"nonpayable","type":"function"},{"inputs":[{"internalType":"bytes32","name":"role","type":"bytes32"},{"internalType":"address","name":"account","type":"address"}],"name":"revokeRole","outputs":[],"stateMutability":"nonpayable","type":"function"},{"inputs":[{"internalType":"uint256","name":"modelId","type":"uint256"},{"internalType":"bool","name":"isActive","type":"bool"}],"name":"setModelStatus","outputs":[],"stateMutability":"nonpayable","type":"function"},{"inputs":[{"internalType":"bytes4","name":"interfaceId","type":"bytes4"}],"name":"supportsInterface","outputs":[{"internalType":"bool","name":"","type":"bool"}],"stateMutability":"view","type":"function"},{"inputs":[{"internalType":"uint256","name":"modelId","type":"uint256"},{"internalType":"string","name":"version","type":"string"},{"internalType":"string","name":"storageURI","type":"string"},{"internalType":"string","name":"apiEndpoint","type":"string"}],"name":"updateModel","outputs":[],"stateMutability":"nonpayable","type":"function"},{"inputs":[{"internalType":"uint256","name":"modelId","type":"uint256"},{"internalType":"uint256","name":"newFee","type":"uint256"}],"name":"updateModelFee","outputs":[],"stateMutability":"nonpayable","type":"function"}],"evm":{"bytecode":{"linkReferences":{},"object":"608060405234610192576001805533600090815260008051602061243f833981519152602052604090205460ff1615610152575b33600090815260008051602061241f833981519152602052604090205460ff16156100f0575b33600090815260008051602061245f833981519152602052604090205460ff161561008e575b60405161226790816101988239f35b33600081815260008051602061245f83398151915260205260408120805460ff1916600117905581907fb82ec2848b2a2960ee0564ace40057f4a1067567f252cc1f31685ab2f15b1205906000805160206123ff8339815191529080a461007f565b33600081815260008051602061241f83398151915260205260408120805460ff1916600117905581907fa49807205ce4d355092ef5a8a18f56e8913cf4a201fbe287825b095693c21775906000805160206123ff8339815191529080a4610059565b33600081815260008051602061243f83398151915260205260408120805460ff1916600117905581906000805160206123ff8339815191528180a4610033565b600080fdfe608080604052600436101561001357600080fd5b60003560e01c90816301ffc9a714611ae25750806312afeae214611a29578063248a9ca3146119f45780632d8cf8ff1461187b5780632f2ff15d146117bf57806336568abe1461172d57806339b711f214611704578063408abc9f1461164a57806341c675b41461159d5780634989dbb01461157f5780636a030ca9146114425780636d361694146111d057806375b238fc146111a75780637ba8ee4714610e045780637bf7c843146104605780637f40f6f1146103ab57806391d148541461035e57806398d926d71461031b578063a217fddf146102ff578063a8e215a81461028d578063c271f1bc14610234578063d547741f146101ed5763ddb4e00c1461011c57600080fd5b346101e85760403660031901126101e857600435602435801515908181036101e8577fe7539b0899ca5a57a1675dfb6cf15cdde410461e8d402f2be83b5292c5b367a5916101b260209285600052600384526008604060002060018060a01b03600182015416331480156101bb575b61019490611dd9565b6101a088825414611d87565b019060ff801983541691151516179055565b604051908152a2005b506000805160206121d283398151915260009081528087526040808220338352885290205460ff1661018b565b600080fd5b346101e85760403660031901126101e85761023260043561020c611b4b565b9061022d61022882600052600060205260016040600020015490565b611f14565b611f52565b005b346101e85760403660031901126101e85761024d611b35565b6001600160a01b03166000908152600560205260409020805460243591908210156101e85760209161027e91611d59565b90549060031b1c604051908152f35b346101e85760203660031901126101e8576004356001600160401b0381116101e857366023820112156101e85760ff6102e960206102d681943690602481600401359101611d22565b8160405193828580945193849201611c92565b8101600681520301902054166040519015158152f35b346101e85760003660031901126101e857602060405160008152f35b346101e85760203660031901126101e857600435600052600460205260606040600020805490600260018201549101549060405192835260208301526040820152f35b346101e85760403660031901126101e857610377611b4b565b600435600052600060205260406000209060018060a01b0316600052602052602060ff604060002054166040519015158152f35b346101e85760203660031901126101e8576103c4611b35565b6103cc611eb3565b6001600160a01b03811660009081526000805160206121f2833981519152602052604090205460ff166103fb57005b6001600160a01b031660008181526000805160206121f283398151915260205260408120805460ff19169055339190600080516020612212833981519152907ff6391f5c32d9c69d2a47ea670b442974b53935d1edc7fd64eb21e047a839171b9080a4005b346101e85760e03660031901126101e8576004356001600160401b0381116101e857610490903690600401611cda565b906024356001600160401b0381116101e8576104b0903690600401611cda565b91906044356001600160401b0381116101e8576104d1903690600401611cda565b916064356001600160401b0381116101e8576104f1903690600401611cda565b6084356001600160401b0381116101e857610510903690600401611cda565b97909260a4356001600160401b0381116101e857610532903690600401611cda565b3360009081526000805160206121f28339815191526020526040902054919a90949160ff1615610d36578b15610cf1578015610cac5760405160ff906020818f808f8337810160068152030190205416610c67578b946002549b8c9761059789611dca565b600255604051996105a78b611bb1565b898b528d60208c0199338b5236906105be92611d22565b9760408c0198895236906105d192611d22565b60608b01908152956105e4368e8e611d22565b9560808c0196875236906105f792611d22565b9360a08b01948552369061060a92611d22565b9160c08a01928352369061061d92611d22565b9160e08901928352610100890193600185526101208a01954287526101408b01974289526101608c019960008b526101808d019b60c4358d52600052600360205260406000209c518d5560018d0190600160a01b600190039051166bffffffffffffffffffffffff60a01b82541617905560028c0190518051906001600160401b0382116109d1576106b9826106b38554611b77565b85611e16565b602090601f8311600114610c00576106ea9291600091836109e7575b50508160011b916000199060031b1c19161790565b90555b51805160038c01916001600160401b0382116109d157610711826106b38554611b77565b602090601f8311600114610b99576107419291600091836109e75750508160011b916000199060031b1c19161790565b90555b51805160048b01916001600160401b0382116109d157610768826106b38554611b77565b602090601f8311600114610b32576107989291600091836109e75750508160011b916000199060031b1c19161790565b90555b51805160058a01916001600160401b0382116109d1576107bf826106b38554611b77565b602090601f8311600114610acb576107ef9291600091836109e75750508160011b916000199060031b1c19161790565b90555b51805160068901916001600160401b0382116109d157610816826106b38554611b77565b602090601f8311600114610a64576108469291600091836109e75750508160011b916000199060031b1c19161790565b90555b51805160078801916001600160401b0382116109d15761086d826106b38554611b77565b602090601f83116001146109f25782600c9998979695936108c495936108a9936000926109e75750508160011b916000199060031b1c19161790565b90555b511515600888019060ff801983541691151516179055565b51600986015551600a85015551600b84015551910155604051606081018181106001600160401b038211176109d157604052600081526002602082016000815260408301906000825287600052600460205260406000209351845551600184015551910155336000526005602052604060002090815495680100000000000000008710156109d1576109c68694610984897fd942d684be94c8a3e39416fe95cb641ed85794834191c1ea248951c91898159d96600160209c018155611d59565b81549060031b9088821b91600019901b19161790556040518388823789818581016006815203019020600160ff19825416179055604051938493339885611e89565b0390a3604051908152f35b634e487b7160e01b600052604160045260246000fd5b0151905038806106d5565b90601f1983169184600052816000209260005b818110610a4c5750926001928592600c9c9b9a9998966108c4989610610a33575b505050811b0190556108ac565b015160001960f88460031b161c19169055388080610a26565b92936020600181928786015181550195019301610a05565b90601f1983169184600052816000209260005b818110610ab35750908460019594939210610a9a575b505050811b019055610849565b015160001960f88460031b161c191690558f8080610a8d565b92936020600181928786015181550195019301610a77565b90601f1983169184600052816000209260005b818110610b1a5750908460019594939210610b01575b505050811b0190556107f2565b015160001960f88460031b161c19169055388080610af4565b92936020600181928786015181550195019301610ade565b90601f1983169184600052816000209260005b818110610b815750908460019594939210610b68575b505050811b01905561079b565b015160001960f88460031b161c19169055388080610b5b565b92936020600181928786015181550195019301610b45565b90601f1983169184600052816000209260005b818110610be85750908460019594939210610bcf575b505050811b019055610744565b015160001960f88460031b161c19169055388080610bc2565b92936020600181928786015181550195019301610bac565b90601f1983169184600052816000209260005b818110610c4f5750908460019594939210610c36575b505050811b0190556106ed565b015160001960f88460031b161c19169055388080610c29565b92936020600181928786015181550195019301610c13565b60405162461bcd60e51b815260206004820152601960248201527f4d6f64656c206e616d6520616c726561647920657869737473000000000000006044820152606490fd5b60405162461bcd60e51b815260206004820152601b60248201527f53746f72616765205552492063616e6e6f7420626520656d70747900000000006044820152606490fd5b60405162461bcd60e51b815260206004820152601a60248201527f4d6f64656c206e616d652063616e6e6f7420626520656d7074790000000000006044820152606490fd5b610e00610d4233611fe5565b610de06011610d5e600080516020612212833981519152612125565b9260376040519485927f416363657373436f6e74726f6c3a206163636f756e74200000000000000000006020850152610da08151809260208688019101611c92565b83017001034b99036b4b9b9b4b733903937b6329607d1b83820152610dcf825180936020604885019101611c92565b01010301601f198101835282611bcd565b60405162461bcd60e51b8152602060048201529182916024830190611cb5565b0390fd5b346101e85760803660031901126101e8576004356024356001600160401b0381116101e857610e37903690600401611cda565b6044929192356001600160401b0381116101e857610e59903690600401611cda565b6064949194356001600160401b0381116101e857610e7b903690600401611cda565b85600097929752600360205260406000209060018060a01b036001830154163314801561116f575b610eac90611dd9565b610eb887835414611d87565b600582016001600160401b0387116109d157610ede87610ed88354611b77565b83611e16565b600087601f811160011461110c5780610f0d92600091611101575b508160011b916000199060031b1c19161790565b90555b600682016001600160401b0385116109d157610f3085610ed88354611b77565b600085601f811160011461109e5780610f5e9260009161109357508160011b916000199060031b1c19161790565b90555b60078201906001600160401b0381116109d157610f8881610f828454611b77565b84611e16565b6000601f82116001146110065781610ff69695949392610fe1927fe7af39a16dc477d0ffd3a154d963329fb58db1d8394b37160c209b8cd713bc139b9c600092610ffb5750508160011b916000199060031b1c19161790565b90555b600a4291015560405194859485611e89565b0390a2005b013590508c806106d5565b8281526020812090601f198316815b81811061107b5750917fe7af39a16dc477d0ffd3a154d963329fb58db1d8394b37160c209b8cd713bc139a9b8492610ff6999897969560019510611061575b505050811b019055610fe4565b0135600019600384901b60f8161c191690558b8080611054565b91926020600181928f87013581550194019201611015565b90508601358c610ef9565b50818152602081209086601f198116825b8181106110e65750106110cc575b5050600185811b019055610f61565b850135600019600388901b60f8161c1916905589806110bd565b8884013585556001909401936020938401938a9350016110af565b90508801358c610ef9565b50818152602081209088601f198116825b81811061115457501061113a575b5050600187811b019055610f10565b87013560001960038a901b60f8161c19169055898061112b565b8a84013585556001909401936020938401938c93500161111d565b503360009081527f7d7ffb7a348e1c6a02869081a26547b49160dd3df72d1d75a570eb9b698292ec602052604090205460ff16610ea3565b346101e85760003660031901126101e85760206040516000805160206121d28339815191528152f35b346101e85760203660031901126101e8576004356040516111f081611bb1565b60008152602081016000905260408101606090526060810160609052608081016060905260a081016060905260c081016060905260e08101606090526101008101600090526101208101600090526101408101600090526101608101600090526101800160009052806000526003602052806040600020541461127290611d87565b6000526003602052604060002060405161128b81611bb1565b8154815260018201546001600160a01b031660208201908152916112b160028201611bee565b604083019081526112c460038301611bee565b60608401908152916112d860048201611bee565b60808501908152926112ec60058301611bee565b60a086019081529361130060068401611bee565b60c0870190815261131360078501611bee565b9060e08801918252600885015460ff1696610100890197151588526009860154936101208a01948552600a870154956101408b01968752600b880154976101608c01988952600c0154986101808c01998a526040519c8d809d60208252519060200152600160a01b6001900390511660408d01525160608c016101a090526101c08c0161139f91611cb5565b90518b8203601f190160808d01526113b79190611cb5565b90518a8203601f190160a08c01526113cf9190611cb5565b9051898203601f190160c08b01526113e79190611cb5565b9051888203601f190160e08a01526113ff9190611cb5565b9051878203601f19016101008901526114189190611cb5565b94511515610120870152516101408601525161016085015251610180840152516101a08301520390f35b346101e85760203660031901126101e8576004356000908152600360205260409020805460018201546001600160a01b03169161148160028201611bee565b61148d60038301611bee565b9161149a60048201611bee565b926114a760058301611bee565b936114b460068401611bee565b6114c060078501611bee565b90600885015460ff1696600986015493600a87015495600b88015497600c0154986040519c8d9c8d5260208d015260408c016101a090526101a08c0161150591611cb5565b8b810360608d015261151691611cb5565b8a810360808c015261152791611cb5565b89810360a08b015261153891611cb5565b88810360c08a015261154991611cb5565b87810360e089015261155a91611cb5565b9415156101008701526101208601526101408501526101608401526101808301520390f35b346101e85760003660031901126101e8576020600254604051908152f35b346101e85760403660031901126101e8576004357f528d9479e9f9889a87a3c30c7f7ba537e5e59c4c85a37733b16e57c62df613026020602435836000526003825280600c604060002060018060a01b036001820154163314801561161d575b61160690611dd9565b61161287825414611d87565b0155604051908152a2005b506000805160206121d283398151915260009081528086526040808220338352875290205460ff166115fd565b346101e85760203660031901126101e8576001600160a01b0361166b611b35565b16600052600560205260406000206040518060208354918281520190819360005260206000209060005b8181106116ee57505050816116ab910382611bcd565b6040519182916020830190602084525180915260408301919060005b8181106116d5575050500390f35b82518452859450602093840193909201916001016116c7565b8254845260209093019260019283019201611695565b346101e85760003660031901126101e85760206040516000805160206122128339815191528152f35b346101e85760403660031901126101e857611746611b4b565b336001600160a01b038216036117625761023290600435611f52565b60405162461bcd60e51b815260206004820152602f60248201527f416363657373436f6e74726f6c3a2063616e206f6e6c792072656e6f756e636560448201526e103937b632b9903337b91039b2b63360891b6064820152608490fd5b346101e85760403660031901126101e8576004356117db611b4b565b906117f761022882600052600060205260016040600020015490565b6000818152602081815260408083206001600160a01b038616845290915290205460ff161561182257005b6000818152602081815260408083206001600160a01b0395909516808452949091528120805460ff19166001179055339291907f2f8788117e7eff1d82e926ec794901d17c78024a50270940304540a733656f0d9080a4005b346101e85760603660031901126101e857600435611897611b4b565b906118a0611b61565b506002600154146119af57600260015580600052600360205260406000206118ca82825414611d87565b60ff6008820154161561197457600b81016118e58154611dca565b9055816000526004602052600c6040600020916119028354611dca565b835501908154916001820191825493840180941161195e577f89f8ee66cc6df04f60436a259f4cf166bf30ad0c4debea721445202b324245249360209355600242910155549360405194855260018060a01b031693a360018055005b634e487b7160e01b600052601160045260246000fd5b60405162461bcd60e51b81526020600482015260136024820152724d6f64656c206973206e6f742061637469766560681b6044820152606490fd5b60405162461bcd60e51b815260206004820152601f60248201527f5265656e7472616e637947756172643a207265656e7472616e742063616c6c006044820152606490fd5b346101e85760203660031901126101e8576020611a21600435600052600060205260016040600020015490565b604051908152f35b346101e85760203660031901126101e857611a42611b35565b611a4a611eb3565b6001600160a01b03811660009081526000805160206121f2833981519152602052604090205460ff1615611a7a57005b6001600160a01b031660008181526000805160206121f283398151915260205260408120805460ff19166001179055339190600080516020612212833981519152907f2f8788117e7eff1d82e926ec794901d17c78024a50270940304540a733656f0d9080a4005b346101e85760203660031901126101e8576004359063ffffffff60e01b82168092036101e857602091637965db0b60e01b8114908115611b24575b5015158152f35b6301ffc9a760e01b14905083611b1d565b600435906001600160a01b03821682036101e857565b602435906001600160a01b03821682036101e857565b604435906001600160a01b03821682036101e857565b90600182811c92168015611ba7575b6020831014611b9157565b634e487b7160e01b600052602260045260246000fd5b91607f1691611b86565b6101a081019081106001600160401b038211176109d157604052565b90601f801991011681019081106001600160401b038211176109d157604052565b9060405191826000825492611c0284611b77565b8084529360018116908115611c705750600114611c29575b50611c2792500383611bcd565b565b90506000929192526020600020906000915b818310611c54575050906020611c279282010138611c1a565b6020919350806001915483858901015201910190918492611c3b565b905060209250611c2794915060ff191682840152151560051b82010138611c1a565b60005b838110611ca55750506000910152565b8181015183820152602001611c95565b90602091611cce81518092818552858086019101611c92565b601f01601f1916010190565b9181601f840112156101e8578235916001600160401b0383116101e857602083818601950101116101e857565b6001600160401b0381116109d157601f01601f191660200190565b929192611d2e82611d07565b91611d3c6040519384611bcd565b8294818452818301116101e8578281602093846000960137010152565b8054821015611d715760005260206000200190600090565b634e487b7160e01b600052603260045260246000fd5b15611d8e57565b60405162461bcd60e51b8152602060048201526014602482015273135bd9195b08191bd95cc81b9bdd08195e1a5cdd60621b6044820152606490fd5b600019811461195e5760010190565b15611de057565b60405162461bcd60e51b815260206004820152600e60248201526d139bdd08185d5d1a1bdc9a5e995960921b6044820152606490fd5b601f8211611e2357505050565b6000526020600020906020601f840160051c83019310611e5e575b601f0160051c01905b818110611e52575050565b60008155600101611e47565b9091508190611e3e565b908060209392818452848401376000828201840152601f01601f1916010190565b9290611ea290611eb09593604086526040860191611e68565b926020818503910152611e68565b90565b3360009081527f7d7ffb7a348e1c6a02869081a26547b49160dd3df72d1d75a570eb9b698292ec602052604090205460ff1615611eec57565b610e00611ef833611fe5565b610de06011610d5e6000805160206121d2833981519152612125565b60008181526020818152604080832033845290915290205460ff1615611f375750565b610e0090610de06011610d5e611f4c33611fe5565b93612125565b6000818152602081815260408083206001600160a01b038616845290915290205460ff16611f7e575050565b6000818152602081815260408083206001600160a01b0395909516808452949091528120805460ff19169055339291907ff6391f5c32d9c69d2a47ea670b442974b53935d1edc7fd64eb21e047a839171b9080a4565b908151811015611d71570160200190565b600090611ff2602a611d07565b916120006040519384611bcd565b602a835261200e602a611d07565b6020840190601f190136823783511561211157603090538251600110156120fd576078602184015350602960005b6001821161209157505061204d5790565b606460405162461bcd60e51b815260206004820152602060248201527f537472696e67733a20686578206c656e67746820696e73756666696369656e746044820152fd5b9091600f811660108110156120e9576f181899199a1a9b1b9c1cb0b131b232b360811b901a6120c08486611fd4565b5360041c9180156120d557600019019061203c565b634e487b7160e01b82526011600452602482fd5b634e487b7160e01b83526032600452602483fd5b634e487b7160e01b81526032600452602490fd5b634e487b7160e01b82526032600452602482fd5b6000906121326042611d07565b916121406040519384611bcd565b6042835261214e6042611d07565b6020840190601f190136823783511561211157603090538251600110156120fd576078602184015350604160005b6001821161218d57505061204d5790565b9091600f811660108110156120e9576f181899199a1a9b1b9c1cb0b131b232b360811b901a6121bc8486611fd4565b5360041c9180156120d557600019019061217c56fea49807205ce4d355092ef5a8a18f56e8913cf4a201fbe287825b095693c217755efd393733146c9f5f151bcdfa0150ad844998f9f664e12fd5666abed6b02104b82ec2848b2a2960ee0564ace40057f4a1067567f252cc1f31685ab2f15b1205a2646970667358221220e1ebc1f87187b5988c7b1110fbbd1a9ed4013ef4d6b0e5a264fe96ba340ce28164736f6c634300081c00332f8788117e7eff1d82e926ec794901d17c78024a50270940304540a733656f0d7d7ffb7a348e1c6a02869081a26547b49160dd3df72d1d75a570eb9b698292ecad3228b676f7d3cd4284a5443f17f1962b36e491b30a40b2405849e597ba5fb55efd393733146c9f5f151bcdfa0150ad844998f9f664e12fd5666abed6b02104","opcodes":"PUSH1 0x80 PUSH1 0x40 MSTORE CALLVALUE PUSH2 0x192 JUMPI PUSH1 0x1 DUP1 SSTORE CALLER PUSH1 0x0 SWAP1 DUP2 MSTORE PUSH1 0x0 DUP1 MLOAD PUSH1 0x20 PUSH2 0x243F DUP4 CODECOPY DUP2 MLOAD SWAP2 MSTORE PUSH1 0x20 MSTORE PUSH1 0x40 SWAP1 KECCAK256 SLOAD PUSH1 0xFF AND ISZERO PUSH2 0x152 JUMPI JUMPDEST CALLER PUSH1 0x0 SWAP1 DUP2 MSTORE PUSH1 0x0 DUP1 MLOAD PUSH1 0x20 PUSH2 0x241F DUP4 CODECOPY DUP2 MLOAD SWAP2 MSTORE PUSH1 0x20 MSTORE PUSH1 0x40 SWAP1 KECCAK256 SLOAD PUSH1 0xFF AND ISZERO PUSH2 0xF0 JUMPI JUMPDEST CALLER PUSH1 0x0 SWAP1 DUP2 MSTORE PUSH1 0x0 DUP1 MLOAD PUSH1 0x20 PUSH2 0x245F DUP4 CODECOPY DUP2 MLOAD SWAP2 MSTORE PUSH1 0x20 MSTORE PUSH1 0x40 SWAP1 KECCAK256 SLOAD PUSH1 0xFF AND ISZERO PUSH2 0x8E JUMPI JUMPDEST PUSH1 0x40 MLOAD PUSH2 0x2267 SWAP1 DUP2 PUSH2 0x198 DUP3 CODECOPY RETURN JUMPDEST CALLER PUSH1 0x0 DUP2 DUP2 MSTORE PUSH1 0x0 DUP1 MLOAD PUSH1 0x20 PUSH2 0x245F DUP4 CODECOPY DUP2 MLOAD SWAP2 MSTORE PUSH1 0x20 MSTORE PUSH1 0x40 DUP2 KECCAK256 DUP1 SLOAD PUSH1 0xFF NOT AND PUSH1 0x1 OR SWAP1 SSTORE DUP2 SWAP1 PUSH32 0xB82EC2848B2A2960EE0564ACE40057F4A1067567F252CC1F31685AB2F15B1205 SWAP1 PUSH1 0x0 DUP1 MLOAD PUSH1 0x20 PUSH2 0x23FF DUP4 CODECOPY DUP2 MLOAD SWAP2 MSTORE SWAP1 DUP1 LOG4 PUSH2 0x7F JUMP JUMPDEST CALLER PUSH1 0x0 DUP2 DUP2 MSTORE PUSH1 0x0 DUP1 MLOAD PUSH1 0x20 PUSH2 0x241F DUP4 CODECOPY DUP2 MLOAD SWAP2 MSTORE PUSH1 0x20 MSTORE PUSH1 0x40 DUP2 KECCAK256 DUP1 SLOAD PUSH1 0xFF NOT AND PUSH1 0x1 OR SWAP1 SSTORE DUP2 SWAP1 PUSH32 0xA49807205CE4D355092EF5A8A18F56E8913CF4A201FBE287825B095693C21775 SWAP1 PUSH1 0x0 DUP1 MLOAD PUSH1 0x20 PUSH2 0x23FF DUP4 CODECOPY DUP2 MLOAD SWAP2 MSTORE SWAP1 DUP1 LOG4 PUSH2 0x59 JUMP JUMPDEST CALLER PUSH1 0x0 DUP2 DUP2 MSTORE PUSH1 0x0 DUP1 MLOAD PUSH1 0x20 PUSH2 0x243F DUP4 CODECOPY DUP2 MLOAD SWAP2 MSTORE PUSH1 0x20 MSTORE PUSH1 0x40 DUP2 KECCAK256 DUP1 SLOAD PUSH1 0xFF NOT AND PUSH1 0x1 OR SWAP1 SSTORE DUP2 SWAP1 PUSH1 0x0 DUP1 MLOAD PUSH1 0x20 PUSH2 0x23FF DUP4 CODECOPY DUP2 MLOAD SWAP2 MSTORE DUP2 DUP1 LOG4 PUSH2 0x33 JUMP JUMPDEST PUSH1 0x0 DUP1 REVERT INVALID PUSH1 0x80 DUP1 PUSH1 0x40 MSTORE PUSH1 0x4 CALLDATASIZE LT ISZERO PUSH2 0x13 JUMPI PUSH1 0x0 DUP1 REVERT JUMPDEST PUSH1 0x0 CALLDATALOAD PUSH1 0xE0 SHR SWAP1 DUP2 PUSH4 0x1FFC9A7 EQ PUSH2 0x1AE2 JUMPI POP DUP1 PUSH4 0x12AFEAE2 EQ PUSH2 0x1A29 JUMPI DUP1 PUSH4 0x248A9CA3 EQ PUSH2 0x19F4 JUMPI DUP1 PUSH4 0x2D8CF8FF EQ PUSH2 0x187B JUMPI DUP1 PUSH4 0x2F2FF15D EQ PUSH2 0x17BF JUMPI DUP1 PUSH4 0x36568ABE EQ PUSH2 0x172D JUMPI DUP1 PUSH4 0x39B711F2 EQ PUSH2 0x1704 JUMPI DUP1 PUSH4 0x408ABC9F EQ PUSH2 0x164A JUMPI DUP1 PUSH4 0x41C675B4 EQ PUSH2 0x159D JUMPI DUP1 PUSH4 0x4989DBB0 EQ PUSH2 0x157F JUMPI DUP1 PUSH4 0x6A030CA9 EQ PUSH2 0x1442 JUMPI DUP1 PUSH4 0x6D361694 EQ PUSH2 0x11D0 JUMPI DUP1 PUSH4 0x75B238FC EQ PUSH2 0x11A7 JUMPI DUP1 PUSH4 0x7BA8EE47 EQ PUSH2 0xE04 JUMPI DUP1 PUSH4 0x7BF7C843 EQ PUSH2 0x460 JUMPI DUP1 PUSH4 0x7F40F6F1 EQ PUSH2 0x3AB JUMPI DUP1 PUSH4 0x91D14854 EQ PUSH2 0x35E JUMPI DUP1 PUSH4 0x98D926D7 EQ PUSH2 0x31B JUMPI DUP1 PUSH4 0xA217FDDF EQ PUSH2 0x2FF JUMPI DUP1 PUSH4 0xA8E215A8 EQ PUSH2 0x28D JUMPI DUP1 PUSH4 0xC271F1BC EQ PUSH2 0x234 JUMPI DUP1 PUSH4 0xD547741F EQ PUSH2 0x1ED JUMPI PUSH4 0xDDB4E00C EQ PUSH2 0x11C JUMPI PUSH1 0x0 DUP1 REVERT JUMPDEST CALLVALUE PUSH2 0x1E8 JUMPI PUSH1 0x40 CALLDATASIZE PUSH1 0x3 NOT ADD SLT PUSH2 0x1E8 JUMPI PUSH1 0x4 CALLDATALOAD PUSH1 0x24 CALLDATALOAD DUP1 ISZERO ISZERO SWAP1 DUP2 DUP2 SUB PUSH2 0x1E8 JUMPI PUSH32 0xE7539B0899CA5A57A1675DFB6CF15CDDE410461E8D402F2BE83B5292C5B367A5 SWAP2 PUSH2 0x1B2 PUSH1 0x20 SWAP3 DUP6 PUSH1 0x0 MSTORE PUSH1 0x3 DUP5 MSTORE PUSH1 0x8 PUSH1 0x40 PUSH1 0x0 KECCAK256 PUSH1 0x1 DUP1 PUSH1 0xA0 SHL SUB PUSH1 0x1 DUP3 ADD SLOAD AND CALLER EQ DUP1 ISZERO PUSH2 0x1BB JUMPI JUMPDEST PUSH2 0x194 SWAP1 PUSH2 0x1DD9 JUMP JUMPDEST PUSH2 0x1A0 DUP9 DUP3 SLOAD EQ PUSH2 0x1D87 JUMP JUMPDEST ADD SWAP1 PUSH1 0xFF DUP1 NOT DUP4 SLOAD AND SWAP2 ISZERO ISZERO AND OR SWAP1 SSTORE JUMP JUMPDEST PUSH1 0x40 MLOAD SWAP1 DUP2 MSTORE LOG2 STOP JUMPDEST POP PUSH1 0x0 DUP1 MLOAD PUSH1 0x20 PUSH2 0x21D2 DUP4 CODECOPY DUP2 MLOAD SWAP2 MSTORE PUSH1 0x0 SWAP1 DUP2 MSTORE DUP1 DUP8 MSTORE PUSH1 0x40 DUP1 DUP3 KECCAK256 CALLER DUP4 MSTORE DUP9 MSTORE SWAP1 KECCAK256 SLOAD PUSH1 0xFF AND PUSH2 0x18B JUMP JUMPDEST PUSH1 0x0 DUP1 REVERT JUMPDEST CALLVALUE PUSH2 0x1E8 JUMPI PUSH1 0x40 CALLDATASIZE PUSH1 0x3 NOT ADD SLT PUSH2 0x1E8 JUMPI PUSH2 0x232 PUSH1 0x4 CALLDATALOAD PUSH2 0x20C PUSH2 0x1B4B JUMP JUMPDEST SWAP1 PUSH2 0x22D PUSH2 0x228 DUP3 PUSH1 0x0 MSTORE PUSH1 0x0 PUSH1 0x20 MSTORE PUSH1 0x1 PUSH1 0x40 PUSH1 0x0 KECCAK256 ADD SLOAD SWAP1 JUMP JUMPDEST PUSH2 0x1F14 JUMP JUMPDEST PUSH2 0x1F52 JUMP JUMPDEST STOP JUMPDEST CALLVALUE PUSH2 0x1E8 JUMPI PUSH1 0x40 CALLDATASIZE PUSH1 0x3 NOT ADD SLT PUSH2 0x1E8 JUMPI PUSH2 0x24D PUSH2 0x1B35 JUMP JUMPDEST PUSH1 0x1 PUSH1 0x1 PUSH1 0xA0 SHL SUB AND PUSH1 0x0 SWAP1 DUP2 MSTORE PUSH1 0x5 PUSH1 0x20 MSTORE PUSH1 0x40 SWAP1 KECCAK256 DUP1 SLOAD PUSH1 0x24 CALLDATALOAD SWAP2 SWAP1 DUP3 LT ISZERO PUSH2 0x1E8 JUMPI PUSH1 0x20 SWAP2 PUSH2 0x27E SWAP2 PUSH2 0x1D59 JUMP JUMPDEST SWAP1 SLOAD SWAP1 PUSH1 0x3 SHL SHR PUSH1 0x40 MLOAD SWAP1 DUP2 MSTORE RETURN JUMPDEST CALLVALUE PUSH2 0x1E8 JUMPI PUSH1 0x20 CALLDATASIZE PUSH1 0x3 NOT ADD SLT PUSH2 0x1E8 JUMPI PUSH1 0x4 CALLDATALOAD PUSH1 0x1 PUSH1 0x1 PUSH1 0x40 SHL SUB DUP2 GT PUSH2 0x1E8 JUMPI CALLDATASIZE PUSH1 0x23 DUP3 ADD SLT ISZERO PUSH2 0x1E8 JUMPI PUSH1 0xFF PUSH2 0x2E9 PUSH1 0x20 PUSH2 0x2D6 DUP2 SWAP5 CALLDATASIZE SWAP1 PUSH1 0x24 DUP2 PUSH1 0x4 ADD CALLDATALOAD SWAP2 ADD PUSH2 0x1D22 JUMP JUMPDEST DUP2 PUSH1 0x40 MLOAD SWAP4 DUP3 DUP6 DUP1 SWAP5 MLOAD SWAP4 DUP5 SWAP3 ADD PUSH2 0x1C92 JUMP JUMPDEST DUP2 ADD PUSH1 0x6 DUP2 MSTORE SUB ADD SWAP1 KECCAK256 SLOAD AND PUSH1 0x40 MLOAD SWAP1 ISZERO ISZERO DUP2 MSTORE RETURN JUMPDEST CALLVALUE PUSH2 0x1E8 JUMPI PUSH1 0x0 CALLDATASIZE PUSH1 0x3 NOT ADD SLT PUSH2 0x1E8 JUMPI PUSH1 0x20 PUSH1 0x40 MLOAD PUSH1 0x0 DUP2 MSTORE RETURN JUMPDEST CALLVALUE PUSH2 0x1E8 JUMPI PUSH1 0x20 CALLDATASIZE PUSH1 0x3 NOT ADD SLT PUSH2 0x1E8 JUMPI PUSH1 0x4 CALLDATALOAD PUSH1 0x0 MSTORE PUSH1 0x4 PUSH1 0x20 MSTORE PUSH1 0x60 PUSH1 0x40 PUSH1 0x0 KECCAK256 DUP1 SLOAD SWAP1 PUSH1 0x2 PUSH1 0x1 DUP3 ADD SLOAD SWAP2 ADD SLOAD SWAP1 PUSH1 0x40 MLOAD SWAP3 DUP4 MSTORE PUSH1 0x20 DUP4 ADD MSTORE PUSH1 0x40 DUP3 ADD MSTORE RETURN JUMPDEST CALLVALUE PUSH2 0x1E8 JUMPI PUSH1 0x40 CALLDATASIZE PUSH1 0x3 NOT ADD SLT PUSH2 0x1E8 JUMPI PUSH2 0x377 PUSH2 0x1B4B JUMP JUMPDEST PUSH1 0x4 CALLDATALOAD PUSH1 0x0 MSTORE PUSH1 0x0 PUSH1 0x20 MSTORE PUSH1 0x40 PUSH1 0x0 KECCAK256 SWAP1 PUSH1 0x1 DUP1 PUSH1 0xA0 SHL SUB AND PUSH1 0x0 MSTORE PUSH1 0x20 MSTORE PUSH1 0x20 PUSH1 0xFF PUSH1 0x40 PUSH1 0x0 KECCAK256 SLOAD AND PUSH1 0x40 MLOAD SWAP1 ISZERO ISZERO DUP2 MSTORE RETURN JUMPDEST CALLVALUE PUSH2 0x1E8 JUMPI PUSH1 0x20 CALLDATASIZE PUSH1 0x3 NOT ADD SLT PUSH2 0x1E8 JUMPI PUSH2 0x3C4 PUSH2 0x1B35 JUMP JUMPDEST PUSH2 0x3CC PUSH2 0x1EB3 JUMP JUMPDEST PUSH1 0x1 PUSH1 0x1 PUSH1 0xA0 SHL SUB DUP2 AND PUSH1 0x0 SWAP1 DUP2 MSTORE PUSH1 0x0 DUP1 MLOAD PUSH1 0x20 PUSH2 0x21F2 DUP4 CODECOPY DUP2 MLOAD SWAP2 MSTORE PUSH1 0x20 MSTORE PUSH1 0x40 SWAP1 KECCAK256 SLOAD PUSH1 0xFF AND PUSH2 0x3FB JUMPI STOP JUMPDEST PUSH1 0x1 PUSH1 0x1 PUSH1 0xA0 SHL SUB AND PUSH1 0x0 DUP2 DUP2 MSTORE PUSH1 0x0 DUP1 MLOAD PUSH1 0x20 PUSH2 0x21F2 DUP4 CODECOPY DUP2 MLOAD SWAP2 MSTORE PUSH1 0x20 MSTORE PUSH1 0x40 DUP2 KECCAK256 DUP1 SLOAD PUSH1 0xFF NOT AND SWAP1 SSTORE CALLER SWAP2 SWAP1 PUSH1 0x0 DUP1 MLOAD PUSH1 0x20 PUSH2 0x2212 DUP4 CODECOPY DUP2 MLOAD SWAP2 MSTORE SWAP1 PUSH32 0xF6391F5C32D9C69D2A47EA670B442974B53935D1EDC7FD64EB21E047A839171B SWAP1 DUP1 LOG4 STOP JUMPDEST CALLVALUE PUSH2 0x1E8 JUMPI PUSH1 0xE0 CALLDATASIZE PUSH1 0x3 NOT ADD SLT PUSH2 0x1E8 JUMPI PUSH1 0x4 CALLDATALOAD PUSH1 0x1 PUSH1 0x1 PUSH1 0x40 SHL SUB DUP2 GT PUSH2 0x1E8 JUMPI PUSH2 0x490 SWAP1 CALLDATASIZE SWAP1 PUSH1 0x4 ADD PUSH2 0x1CDA JUMP JUMPDEST SWAP1 PUSH1 0x24 CALLDATALOAD PUSH1 0x1 PUSH1 0x1 PUSH1 0x40 SHL SUB DUP2 GT PUSH2 0x1E8 JUMPI PUSH2 0x4B0 SWAP1 CALLDATASIZE SWAP1 PUSH1 0x4 ADD PUSH2 0x1CDA JUMP JUMPDEST SWAP2 SWAP1 PUSH1 0x44 CALLDATALOAD PUSH1 0x1 PUSH1 0x1 PUSH1 0x40 SHL SUB DUP2 GT PUSH2 0x1E8 JUMPI PUSH2 0x4D1 SWAP1 CALLDATASIZE SWAP1 PUSH1 0x4 ADD PUSH2 0x1CDA JUMP JUMPDEST SWAP2 PUSH1 0x64 CALLDATALOAD PUSH1 0x1 PUSH1 0x1 PUSH1 0x40 SHL SUB DUP2 GT PUSH2 0x1E8 JUMPI PUSH2 0x4F1 SWAP1 CALLDATASIZE SWAP1 PUSH1 0x4 ADD PUSH2 0x1CDA JUMP JUMPDEST PUSH1 0x84 CALLDATALOAD PUSH1 0x1 PUSH1 0x1 PUSH1 0x40 SHL SUB DUP2 GT PUSH2 0x1E8 JUMPI PUSH2 0x510 SWAP1 CALLDATASIZE SWAP1 PUSH1 0x4 ADD PUSH2 0x1CDA JUMP JUMPDEST SWAP8 SWAP1 SWAP3 PUSH1 0xA4 CALLDATALOAD PUSH1 0x1 PUSH1 0x1 PUSH1 0x40 SHL SUB DUP2 GT PUSH2 0x1E8 JUMPI PUSH2 0x532 SWAP1 CALLDATASIZE SWAP1 PUSH1 0x4 ADD PUSH2 0x1CDA JUMP JUMPDEST CALLER PUSH1 0x0 SWAP1 DUP2 MSTORE PUSH1 0x0 DUP1 MLOAD PUSH1 0x20 PUSH2 0x21F2 DUP4 CODECOPY DUP2 MLOAD SWAP2 MSTORE PUSH1 0x20 MSTORE PUSH1 0x40 SWAP1 KECCAK256 SLOAD SWAP2 SWAP11 SWAP1 SWAP5 SWAP2 PUSH1 0xFF AND ISZERO PUSH2 0xD36 JUMPI DUP12 ISZERO PUSH2 0xCF1 JUMPI DUP1 ISZERO PUSH2 0xCAC JUMPI PUSH1 0x40 MLOAD PUSH1 0xFF SWAP1 PUSH1 0x20 DUP2 DUP16 DUP1 DUP16 DUP4 CALLDATACOPY DUP2 ADD PUSH1 0x6 DUP2 MSTORE SUB ADD SWAP1 KECCAK256 SLOAD AND PUSH2 0xC67 JUMPI DUP12 SWAP5 PUSH1 0x2 SLOAD SWAP12 DUP13 SWAP8 PUSH2 0x597 DUP10 PUSH2 0x1DCA JUMP JUMPDEST PUSH1 0x2 SSTORE PUSH1 0x40 MLOAD SWAP10 PUSH2 0x5A7 DUP12 PUSH2 0x1BB1 JUMP JUMPDEST DUP10 DUP12 MSTORE DUP14 PUSH1 0x20 DUP13 ADD SWAP10 CALLER DUP12 MSTORE CALLDATASIZE SWAP1 PUSH2 0x5BE SWAP3 PUSH2 0x1D22 JUMP JUMPDEST SWAP8 PUSH1 0x40 DUP13 ADD SWAP9 DUP10 MSTORE CALLDATASIZE SWAP1 PUSH2 0x5D1 SWAP3 PUSH2 0x1D22 JUMP JUMPDEST PUSH1 0x60 DUP12 ADD SWAP1 DUP2 MSTORE SWAP6 PUSH2 0x5E4 CALLDATASIZE DUP15 DUP15 PUSH2 0x1D22 JUMP JUMPDEST SWAP6 PUSH1 0x80 DUP13 ADD SWAP7 DUP8 MSTORE CALLDATASIZE SWAP1 PUSH2 0x5F7 SWAP3 PUSH2 0x1D22 JUMP JUMPDEST SWAP4 PUSH1 0xA0 DUP12 ADD SWAP5 DUP6 MSTORE CALLDATASIZE SWAP1 PUSH2 0x60A SWAP3 PUSH2 0x1D22 JUMP JUMPDEST SWAP2 PUSH1 0xC0 DUP11 ADD SWAP3 DUP4 MSTORE CALLDATASIZE SWAP1 PUSH2 0x61D SWAP3 PUSH2 0x1D22 JUMP JUMPDEST SWAP2 PUSH1 0xE0 DUP10 ADD SWAP3 DUP4 MSTORE PUSH2 0x100 DUP10 ADD SWAP4 PUSH1 0x1 DUP6 MSTORE PUSH2 0x120 DUP11 ADD SWAP6 TIMESTAMP DUP8 MSTORE PUSH2 0x140 DUP12 ADD SWAP8 TIMESTAMP DUP10 MSTORE PUSH2 0x160 DUP13 ADD SWAP10 PUSH1 0x0 DUP12 MSTORE PUSH2 0x180 DUP14 ADD SWAP12 PUSH1 0xC4 CALLDATALOAD DUP14 MSTORE PUSH1 0x0 MSTORE PUSH1 0x3 PUSH1 0x20 MSTORE PUSH1 0x40 PUSH1 0x0 KECCAK256 SWAP13 MLOAD DUP14 SSTORE PUSH1 0x1 DUP14 ADD SWAP1 PUSH1 0x1 PUSH1 0xA0 SHL PUSH1 0x1 SWAP1 SUB SWAP1 MLOAD AND PUSH12 0xFFFFFFFFFFFFFFFFFFFFFFFF PUSH1 0xA0 SHL DUP3 SLOAD AND OR SWAP1 SSTORE PUSH1 0x2 DUP13 ADD SWAP1 MLOAD DUP1 MLOAD SWAP1 PUSH1 0x1 PUSH1 0x1 PUSH1 0x40 SHL SUB DUP3 GT PUSH2 0x9D1 JUMPI PUSH2 0x6B9 DUP3 PUSH2 0x6B3 DUP6 SLOAD PUSH2 0x1B77 JUMP JUMPDEST DUP6 PUSH2 0x1E16 JUMP JUMPDEST PUSH1 0x20 SWAP1 PUSH1 0x1F DUP4 GT PUSH1 0x1 EQ PUSH2 0xC00 JUMPI PUSH2 0x6EA SWAP3 SWAP2 PUSH1 0x0 SWAP2 DUP4 PUSH2 0x9E7 JUMPI JUMPDEST POP POP DUP2 PUSH1 0x1 SHL SWAP2 PUSH1 0x0 NOT SWAP1 PUSH1 0x3 SHL SHR NOT AND OR SWAP1 JUMP JUMPDEST SWAP1 SSTORE JUMPDEST MLOAD DUP1 MLOAD PUSH1 0x3 DUP13 ADD SWAP2 PUSH1 0x1 PUSH1 0x1 PUSH1 0x40 SHL SUB DUP3 GT PUSH2 0x9D1 JUMPI PUSH2 0x711 DUP3 PUSH2 0x6B3 DUP6 SLOAD PUSH2 0x1B77 JUMP JUMPDEST PUSH1 0x20 SWAP1 PUSH1 0x1F DUP4 GT PUSH1 0x1 EQ PUSH2 0xB99 JUMPI PUSH2 0x741 SWAP3 SWAP2 PUSH1 0x0 SWAP2 DUP4 PUSH2 0x9E7 JUMPI POP POP DUP2 PUSH1 0x1 SHL SWAP2 PUSH1 0x0 NOT SWAP1 PUSH1 0x3 SHL SHR NOT AND OR SWAP1 JUMP JUMPDEST SWAP1 SSTORE JUMPDEST MLOAD DUP1 MLOAD PUSH1 0x4 DUP12 ADD SWAP2 PUSH1 0x1 PUSH1 0x1 PUSH1 0x40 SHL SUB DUP3 GT PUSH2 0x9D1 JUMPI PUSH2 0x768 DUP3 PUSH2 0x6B3 DUP6 SLOAD PUSH2 0x1B77 JUMP JUMPDEST PUSH1 0x20 SWAP1 PUSH1 0x1F DUP4 GT PUSH1 0x1 EQ PUSH2 0xB32 JUMPI PUSH2 0x798 SWAP3 SWAP2 PUSH1 0x0 SWAP2 DUP4 PUSH2 0x9E7 JUMPI POP POP DUP2 PUSH1 0x1 SHL SWAP2 PUSH1 0x0 NOT SWAP1 PUSH1 0x3 SHL SHR NOT AND OR SWAP1 JUMP JUMPDEST SWAP1 SSTORE JUMPDEST MLOAD DUP1 MLOAD PUSH1 0x5 DUP11 ADD SWAP2 PUSH1 0x1 PUSH1 0x1 PUSH1 0x40 SHL SUB DUP3 GT PUSH2 0x9D1 JUMPI PUSH2 0x7BF DUP3 PUSH2 0x6B3 DUP6 SLOAD PUSH2 0x1B77 JUMP JUMPDEST PUSH1 0x20 SWAP1 PUSH1 0x1F DUP4 GT PUSH1 0x1 EQ PUSH2 0xACB JUMPI PUSH2 0x7EF SWAP3 SWAP2 PUSH1 0x0 SWAP2 DUP4 PUSH2 0x9E7 JUMPI POP POP DUP2 PUSH1 0x1 SHL SWAP2 PUSH1 0x0 NOT SWAP1 PUSH1 0x3 SHL SHR NOT AND OR SWAP1 JUMP JUMPDEST SWAP1 SSTORE JUMPDEST MLOAD DUP1 MLOAD PUSH1 0x6 DUP10 ADD SWAP2 PUSH1 0x1 PUSH1 0x1 PUSH1 0x40 SHL SUB DUP3 GT PUSH2 0x9D1 JUMPI PUSH2 0x816 DUP3 PUSH2 0x6B3 DUP6 SLOAD PUSH2 0x1B77 JUMP JUMPDEST PUSH1 0x20 SWAP1 PUSH1 0x1F DUP4 GT PUSH1 0x1 EQ PUSH2 0xA64 JUMPI PUSH2 0x846 SWAP3 SWAP2 PUSH1 0x0 SWAP2 DUP4 PUSH2 0x9E7 JUMPI POP POP DUP2 PUSH1 0x1 SHL SWAP2 PUSH1 0x0 NOT SWAP1 PUSH1 0x3 SHL SHR NOT AND OR SWAP1 JUMP JUMPDEST SWAP1 SSTORE JUMPDEST MLOAD DUP1 MLOAD PUSH1 0x7 DUP9 ADD SWAP2 PUSH1 0x1 PUSH1 0x1 PUSH1 0x40 SHL SUB DUP3 GT PUSH2 0x9D1 JUMPI PUSH2 0x86D DUP3 PUSH2 0x6B3 DUP6 SLOAD PUSH2 0x1B77 JUMP JUMPDEST PUSH1 0x20 SWAP1 PUSH1 0x1F DUP4 GT PUSH1 0x1 EQ PUSH2 0x9F2 JUMPI DUP3 PUSH1 0xC SWAP10 SWAP9 SWAP8 SWAP7 SWAP6 SWAP4 PUSH2 0x8C4 SWAP6 SWAP4 PUSH2 0x8A9 SWAP4 PUSH1 0x0 SWAP3 PUSH2 0x9E7 JUMPI POP POP DUP2 PUSH1 0x1 SHL SWAP2 PUSH1 0x0 NOT SWAP1 PUSH1 0x3 SHL SHR NOT AND OR SWAP1 JUMP JUMPDEST SWAP1 SSTORE JUMPDEST MLOAD ISZERO ISZERO PUSH1 0x8 DUP9 ADD SWAP1 PUSH1 0xFF DUP1 NOT DUP4 SLOAD AND SWAP2 ISZERO ISZERO AND OR SWAP1 SSTORE JUMP JUMPDEST MLOAD PUSH1 0x9 DUP7 ADD SSTORE MLOAD PUSH1 0xA DUP6 ADD SSTORE MLOAD PUSH1 0xB DUP5 ADD SSTORE MLOAD SWAP2 ADD SSTORE PUSH1 0x40 MLOAD PUSH1 0x60 DUP2 ADD DUP2 DUP2 LT PUSH1 0x1 PUSH1 0x1 PUSH1 0x40 SHL SUB DUP3 GT OR PUSH2 0x9D1 JUMPI PUSH1 0x40 MSTORE PUSH1 0x0 DUP2 MSTORE PUSH1 0x2 PUSH1 0x20 DUP3 ADD PUSH1 0x0 DUP2 MSTORE PUSH1 0x40 DUP4 ADD SWAP1 PUSH1 0x0 DUP3 MSTORE DUP8 PUSH1 0x0 MSTORE PUSH1 0x4 PUSH1 0x20 MSTORE PUSH1 0x40 PUSH1 0x0 KECCAK256 SWAP4 MLOAD DUP5 SSTORE MLOAD PUSH1 0x1 DUP5 ADD SSTORE MLOAD SWAP2 ADD SSTORE CALLER PUSH1 0x0 MSTORE PUSH1 0x5 PUSH1 0x20 MSTORE PUSH1 0x40 PUSH1 0x0 KECCAK256 SWAP1 DUP2 SLOAD SWAP6 PUSH9 0x10000000000000000 DUP8 LT ISZERO PUSH2 0x9D1 JUMPI PUSH2 0x9C6 DUP7 SWAP5 PUSH2 0x984 DUP10 PUSH32 0xD942D684BE94C8A3E39416FE95CB641ED85794834191C1EA248951C91898159D SWAP7 PUSH1 0x1 PUSH1 0x20 SWAP13 ADD DUP2 SSTORE PUSH2 0x1D59 JUMP JUMPDEST DUP2 SLOAD SWAP1 PUSH1 0x3 SHL SWAP1 DUP9 DUP3 SHL SWAP2 PUSH1 0x0 NOT SWAP1 SHL NOT AND OR SWAP1 SSTORE PUSH1 0x40 MLOAD DUP4 DUP9 DUP3 CALLDATACOPY DUP10 DUP2 DUP6 DUP2 ADD PUSH1 0x6 DUP2 MSTORE SUB ADD SWAP1 KECCAK256 PUSH1 0x1 PUSH1 0xFF NOT DUP3 SLOAD AND OR SWAP1 SSTORE PUSH1 0x40 MLOAD SWAP4 DUP5 SWAP4 CALLER SWAP9 DUP6 PUSH2 0x1E89 JUMP JUMPDEST SUB SWAP1 LOG3 PUSH1 0x40 MLOAD SWAP1 DUP2 MSTORE RETURN JUMPDEST PUSH4 0x4E487B71 PUSH1 0xE0 SHL PUSH1 0x0 MSTORE PUSH1 0x41 PUSH1 0x4 MSTORE PUSH1 0x24 PUSH1 0x0 REVERT JUMPDEST ADD MLOAD SWAP1 POP CODESIZE DUP1 PUSH2 0x6D5 JUMP JUMPDEST SWAP1 PUSH1 0x1F NOT DUP4 AND SWAP2 DUP5 PUSH1 0x0 MSTORE DUP2 PUSH1 0x0 KECCAK256 SWAP3 PUSH1 0x0 JUMPDEST DUP2 DUP2 LT PUSH2 0xA4C JUMPI POP SWAP3 PUSH1 0x1 SWAP3 DUP6 SWAP3 PUSH1 0xC SWAP13 SWAP12 SWAP11 SWAP10 SWAP9 SWAP7 PUSH2 0x8C4 SWAP9 SWAP7 LT PUSH2 0xA33 JUMPI JUMPDEST POP POP POP DUP2 SHL ADD SWAP1 SSTORE PUSH2 0x8AC JUMP JUMPDEST ADD MLOAD PUSH1 0x0 NOT PUSH1 0xF8 DUP5 PUSH1 0x3 SHL AND SHR NOT AND SWAP1 SSTORE CODESIZE DUP1 DUP1 PUSH2 0xA26 JUMP JUMPDEST SWAP3 SWAP4 PUSH1 0x20 PUSH1 0x1 DUP2 SWAP3 DUP8 DUP7 ADD MLOAD DUP2 SSTORE ADD SWAP6 ADD SWAP4 ADD PUSH2 0xA05 JUMP JUMPDEST SWAP1 PUSH1 0x1F NOT DUP4 AND SWAP2 DUP5 PUSH1 0x0 MSTORE DUP2 PUSH1 0x0 KECCAK256 SWAP3 PUSH1 0x0 JUMPDEST DUP2 DUP2 LT PUSH2 0xAB3 JUMPI POP SWAP1 DUP5 PUSH1 0x1 SWAP6 SWAP5 SWAP4 SWAP3 LT PUSH2 0xA9A JUMPI JUMPDEST POP POP POP DUP2 SHL ADD SWAP1 SSTORE PUSH2 0x849 JUMP JUMPDEST ADD MLOAD PUSH1 0x0 NOT PUSH1 0xF8 DUP5 PUSH1 0x3 SHL AND SHR NOT AND SWAP1 SSTORE DUP16 DUP1 DUP1 PUSH2 0xA8D JUMP JUMPDEST SWAP3 SWAP4 PUSH1 0x20 PUSH1 0x1 DUP2 SWAP3 DUP8 DUP7 ADD MLOAD DUP2 SSTORE ADD SWAP6 ADD SWAP4 ADD PUSH2 0xA77 JUMP JUMPDEST SWAP1 PUSH1 0x1F NOT DUP4 AND SWAP2 DUP5 PUSH1 0x0 MSTORE DUP2 PUSH1 0x0 KECCAK256 SWAP3 PUSH1 0x0 JUMPDEST DUP2 DUP2 LT PUSH2 0xB1A JUMPI POP SWAP1 DUP5 PUSH1 0x1 SWAP6 SWAP5 SWAP4 SWAP3 LT PUSH2 0xB01 JUMPI JUMPDEST POP POP POP DUP2 SHL ADD SWAP1 SSTORE PUSH2 0x7F2 JUMP JUMPDEST ADD MLOAD PUSH1 0x0 NOT PUSH1 0xF8 DUP5 PUSH1 0x3 SHL AND SHR NOT AND SWAP1 SSTORE CODESIZE DUP1 DUP1 PUSH2 0xAF4 JUMP JUMPDEST SWAP3 SWAP4 PUSH1 0x20 PUSH1 0x1 DUP2 SWAP3 DUP8 DUP7 ADD MLOAD DUP2 SSTORE ADD SWAP6 ADD SWAP4 ADD PUSH2 0xADE JUMP JUMPDEST SWAP1 PUSH1 0x1F NOT DUP4 AND SWAP2 DUP5 PUSH1 0x0 MSTORE DUP2 PUSH1 0x0 KECCAK256 SWAP3 PUSH1 0x0 JUMPDEST DUP2 DUP2 LT PUSH2 0xB81 JUMPI POP SWAP1 DUP5 PUSH1 0x1 SWAP6 SWAP5 SWAP4 SWAP3 LT PUSH2 0xB68 JUMPI JUMPDEST POP POP POP DUP2 SHL ADD SWAP1 SSTORE PUSH2 0x79B JUMP JUMPDEST ADD MLOAD PUSH1 0x0 NOT PUSH1 0xF8 DUP5 PUSH1 0x3 SHL AND SHR NOT AND SWAP1 SSTORE CODESIZE DUP1 DUP1 PUSH2 0xB5B JUMP JUMPDEST SWAP3 SWAP4 PUSH1 0x20 PUSH1 0x1 DUP2 SWAP3 DUP8 DUP7 ADD MLOAD DUP2 SSTORE ADD SWAP6 ADD SWAP4 ADD PUSH2 0xB45 JUMP JUMPDEST SWAP1 PUSH1 0x1F NOT DUP4 AND SWAP2 DUP5 PUSH1 0x0 MSTORE DUP2 PUSH1 0x0 KECCAK256 SWAP3 PUSH1 0x0 JUMPDEST DUP2 DUP2 LT PUSH2 0xBE8 JUMPI POP SWAP1 DUP5 PUSH1 0x1 SWAP6 SWAP5 SWAP4 SWAP3 LT PUSH2 0xBCF JUMPI JUMPDEST POP POP POP DUP2 SHL ADD SWAP1 SSTORE PUSH2 0x744 JUMP JUMPDEST ADD MLOAD PUSH1 0x0 NOT PUSH1 0xF8 DUP5 PUSH1 0x3 SHL AND SHR NOT AND SWAP1 SSTORE CODESIZE DUP1 DUP1 PUSH2 0xBC2 JUMP JUMPDEST SWAP3 SWAP4 PUSH1 0x20 PUSH1 0x1 DUP2 SWAP3 DUP8 DUP7 ADD MLOAD DUP2 SSTORE ADD SWAP6 ADD SWAP4 ADD PUSH2 0xBAC JUMP JUMPDEST SWAP1 PUSH1 0x1F NOT DUP4 AND SWAP2 DUP5 PUSH1 0x0 MSTORE DUP2 PUSH1 0x0 KECCAK256 SWAP3 PUSH1 0x0 JUMPDEST DUP2 DUP2 LT PUSH2 0xC4F JUMPI POP SWAP1 DUP5 PUSH1 0x1 SWAP6 SWAP5 SWAP4 SWAP3 LT PUSH2 0xC36 JUMPI JUMPDEST POP POP POP DUP2 SHL ADD SWAP1 SSTORE PUSH2 0x6ED JUMP JUMPDEST ADD MLOAD PUSH1 0x0 NOT PUSH1 0xF8 DUP5 PUSH1 0x3 SHL AND SHR NOT AND SWAP1 SSTORE CODESIZE DUP1 DUP1 PUSH2 0xC29 JUMP JUMPDEST SWAP3 SWAP4 PUSH1 0x20 PUSH1 0x1 DUP2 SWAP3 DUP8 DUP7 ADD MLOAD DUP2 SSTORE ADD SWAP6 ADD SWAP4 ADD PUSH2 0xC13 JUMP JUMPDEST PUSH1 0x40 MLOAD PUSH3 0x461BCD PUSH1 0xE5 SHL DUP2 MSTORE PUSH1 0x20 PUSH1 0x4 DUP3 ADD MSTORE PUSH1 0x19 PUSH1 0x24 DUP3 ADD MSTORE PUSH32 0x4D6F64656C206E616D6520616C72656164792065786973747300000000000000 PUSH1 0x44 DUP3 ADD MSTORE PUSH1 0x64 SWAP1 REVERT JUMPDEST PUSH1 0x40 MLOAD PUSH3 0x461BCD PUSH1 0xE5 SHL DUP2 MSTORE PUSH1 0x20 PUSH1 0x4 DUP3 ADD MSTORE PUSH1 0x1B PUSH1 0x24 DUP3 ADD MSTORE PUSH32 0x53746F72616765205552492063616E6E6F7420626520656D7074790000000000 PUSH1 0x44 DUP3 ADD MSTORE PUSH1 0x64 SWAP1 REVERT JUMPDEST PUSH1 0x40 MLOAD PUSH3 0x461BCD PUSH1 0xE5 SHL DUP2 MSTORE PUSH1 0x20 PUSH1 0x4 DUP3 ADD MSTORE PUSH1 0x1A PUSH1 0x24 DUP3 ADD MSTORE PUSH32 0x4D6F64656C206E616D652063616E6E6F7420626520656D707479000000000000 PUSH1 0x44 DUP3 ADD MSTORE PUSH1 0x64 SWAP1 REVERT JUMPDEST PUSH2 0xE00 PUSH2 0xD42 CALLER PUSH2 0x1FE5 JUMP JUMPDEST PUSH2 0xDE0 PUSH1 0x11 PUSH2 0xD5E PUSH1 0x0 DUP1 MLOAD PUSH1 0x20 PUSH2 0x2212 DUP4 CODECOPY DUP2 MLOAD SWAP2 MSTORE PUSH2 0x2125 JUMP JUMPDEST SWAP3 PUSH1 0x37 PUSH1 0x40 MLOAD SWAP5 DUP6 SWAP3 PUSH32 0x416363657373436F6E74726F6C3A206163636F756E7420000000000000000000 PUSH1 0x20 DUP6 ADD MSTORE PUSH2 0xDA0 DUP2 MLOAD DUP1 SWAP3 PUSH1 0x20 DUP7 DUP9 ADD SWAP2 ADD PUSH2 0x1C92 JUMP JUMPDEST DUP4 ADD PUSH17 0x1034B99036B4B9B9B4B733903937B6329 PUSH1 0x7D SHL DUP4 DUP3 ADD MSTORE PUSH2 0xDCF DUP3 MLOAD DUP1 SWAP4 PUSH1 0x20 PUSH1 0x48 DUP6 ADD SWAP2 ADD PUSH2 0x1C92 JUMP JUMPDEST ADD ADD SUB ADD PUSH1 0x1F NOT DUP2 ADD DUP4 MSTORE DUP3 PUSH2 0x1BCD JUMP JUMPDEST PUSH1 0x40 MLOAD PUSH3 0x461BCD PUSH1 0xE5 SHL DUP2 MSTORE PUSH1 0x20 PUSH1 0x4 DUP3 ADD MSTORE SWAP2 DUP3 SWAP2 PUSH1 0x24 DUP4 ADD SWAP1 PUSH2 0x1CB5 JUMP JUMPDEST SUB SWAP1 REVERT JUMPDEST CALLVALUE PUSH2 0x1E8 JUMPI PUSH1 0x80 CALLDATASIZE PUSH1 0x3 NOT ADD SLT PUSH2 0x1E8 JUMPI PUSH1 0x4 CALLDATALOAD PUSH1 0x24 CALLDATALOAD PUSH1 0x1 PUSH1 0x1 PUSH1 0x40 SHL SUB DUP2 GT PUSH2 0x1E8 JUMPI PUSH2 0xE37 SWAP1 CALLDATASIZE SWAP1 PUSH1 0x4 ADD PUSH2 0x1CDA JUMP JUMPDEST PUSH1 0x44 SWAP3 SWAP2 SWAP3 CALLDATALOAD PUSH1 0x1 PUSH1 0x1 PUSH1 0x40 SHL SUB DUP2 GT PUSH2 0x1E8 JUMPI PUSH2 0xE59 SWAP1 CALLDATASIZE SWAP1 PUSH1 0x4 ADD PUSH2 0x1CDA JUMP JUMPDEST PUSH1 0x64 SWAP5 SWAP2 SWAP5 CALLDATALOAD PUSH1 0x1 PUSH1 0x1 PUSH1 0x40 SHL SUB DUP2 GT PUSH2 0x1E8 JUMPI PUSH2 0xE7B SWAP1 CALLDATASIZE SWAP1 PUSH1 0x4 ADD PUSH2 0x1CDA JUMP JUMPDEST DUP6 PUSH1 0x0 SWAP8 SWAP3 SWAP8 MSTORE PUSH1 0x3 PUSH1 0x20 MSTORE PUSH1 0x40 PUSH1 0x0 KECCAK256 SWAP1 PUSH1 0x1 DUP1 PUSH1 0xA0 SHL SUB PUSH1 0x1 DUP4 ADD SLOAD AND CALLER EQ DUP1 ISZERO PUSH2 0x116F JUMPI JUMPDEST PUSH2 0xEAC SWAP1 PUSH2 0x1DD9 JUMP JUMPDEST PUSH2 0xEB8 DUP8 DUP4 SLOAD EQ PUSH2 0x1D87 JUMP JUMPDEST PUSH1 0x5 DUP3 ADD PUSH1 0x1 PUSH1 0x1 PUSH1 0x40 SHL SUB DUP8 GT PUSH2 0x9D1 JUMPI PUSH2 0xEDE DUP8 PUSH2 0xED8 DUP4 SLOAD PUSH2 0x1B77 JUMP JUMPDEST DUP4 PUSH2 0x1E16 JUMP JUMPDEST PUSH1 0x0 DUP8 PUSH1 0x1F DUP2 GT PUSH1 0x1 EQ PUSH2 0x110C JUMPI DUP1 PUSH2 0xF0D SWAP3 PUSH1 0x0 SWAP2 PUSH2 0x1101 JUMPI JUMPDEST POP DUP2 PUSH1 0x1 SHL SWAP2 PUSH1 0x0 NOT SWAP1 PUSH1 0x3 SHL SHR NOT AND OR SWAP1 JUMP JUMPDEST SWAP1 SSTORE JUMPDEST PUSH1 0x6 DUP3 ADD PUSH1 0x1 PUSH1 0x1 PUSH1 0x40 SHL SUB DUP6 GT PUSH2 0x9D1 JUMPI PUSH2 0xF30 DUP6 PUSH2 0xED8 DUP4 SLOAD PUSH2 0x1B77 JUMP JUMPDEST PUSH1 0x0 DUP6 PUSH1 0x1F DUP2 GT PUSH1 0x1 EQ PUSH2 0x109E JUMPI DUP1 PUSH2 0xF5E SWAP3 PUSH1 0x0 SWAP2 PUSH2 0x1093 JUMPI POP DUP2 PUSH1 0x1 SHL SWAP2 PUSH1 0x0 NOT SWAP1 PUSH1 0x3 SHL SHR NOT AND OR SWAP1 JUMP JUMPDEST SWAP1 SSTORE JUMPDEST PUSH1 0x7 DUP3 ADD SWAP1 PUSH1 0x1 PUSH1 0x1 PUSH1 0x40 SHL SUB DUP2 GT PUSH2 0x9D1 JUMPI PUSH2 0xF88 DUP2 PUSH2 0xF82 DUP5 SLOAD PUSH2 0x1B77 JUMP JUMPDEST DUP5 PUSH2 0x1E16 JUMP JUMPDEST PUSH1 0x0 PUSH1 0x1F DUP3 GT PUSH1 0x1 EQ PUSH2 0x1006 JUMPI DUP2 PUSH2 0xFF6 SWAP7 SWAP6 SWAP5 SWAP4 SWAP3 PUSH2 0xFE1 SWAP3 PUSH32 0xE7AF39A16DC477D0FFD3A154D963329FB58DB1D8394B37160C209B8CD713BC13 SWAP12 SWAP13 PUSH1 0x0 SWAP3 PUSH2 0xFFB JUMPI POP POP DUP2 PUSH1 0x1 SHL SWAP2 PUSH1 0x0 NOT SWAP1 PUSH1 0x3 SHL SHR NOT AND OR SWAP1 JUMP JUMPDEST SWAP1 SSTORE JUMPDEST PUSH1 0xA TIMESTAMP SWAP2 ADD SSTORE PUSH1 0x40 MLOAD SWAP5 DUP6 SWAP5 DUP6 PUSH2 0x1E89 JUMP JUMPDEST SUB SWAP1 LOG2 STOP JUMPDEST ADD CALLDATALOAD SWAP1 POP DUP13 DUP1 PUSH2 0x6D5 JUMP JUMPDEST DUP3 DUP2 MSTORE PUSH1 0x20 DUP2 KECCAK256 SWAP1 PUSH1 0x1F NOT DUP4 AND DUP2 JUMPDEST DUP2 DUP2 LT PUSH2 0x107B JUMPI POP SWAP2 PUSH32 0xE7AF39A16DC477D0FFD3A154D963329FB58DB1D8394B37160C209B8CD713BC13 SWAP11 SWAP12 DUP5 SWAP3 PUSH2 0xFF6 SWAP10 SWAP9 SWAP8 SWAP7 SWAP6 PUSH1 0x1 SWAP6 LT PUSH2 0x1061 JUMPI JUMPDEST POP POP POP DUP2 SHL ADD SWAP1 SSTORE PUSH2 0xFE4 JUMP JUMPDEST ADD CALLDATALOAD PUSH1 0x0 NOT PUSH1 0x3 DUP5 SWAP1 SHL PUSH1 0xF8 AND SHR NOT AND SWAP1 SSTORE DUP12 DUP1 DUP1 PUSH2 0x1054 JUMP JUMPDEST SWAP2 SWAP3 PUSH1 0x20 PUSH1 0x1 DUP2 SWAP3 DUP16 DUP8 ADD CALLDATALOAD DUP2 SSTORE ADD SWAP5 ADD SWAP3 ADD PUSH2 0x1015 JUMP JUMPDEST SWAP1 POP DUP7 ADD CALLDATALOAD DUP13 PUSH2 0xEF9 JUMP JUMPDEST POP DUP2 DUP2 MSTORE PUSH1 0x20 DUP2 KECCAK256 SWAP1 DUP7 PUSH1 0x1F NOT DUP2 AND DUP3 JUMPDEST DUP2 DUP2 LT PUSH2 0x10E6 JUMPI POP LT PUSH2 0x10CC JUMPI JUMPDEST POP POP PUSH1 0x1 DUP6 DUP2 SHL ADD SWAP1 SSTORE PUSH2 0xF61 JUMP JUMPDEST DUP6 ADD CALLDATALOAD PUSH1 0x0 NOT PUSH1 0x3 DUP9 SWAP1 SHL PUSH1 0xF8 AND SHR NOT AND SWAP1 SSTORE DUP10 DUP1 PUSH2 0x10BD JUMP JUMPDEST DUP9 DUP5 ADD CALLDATALOAD DUP6 SSTORE PUSH1 0x1 SWAP1 SWAP5 ADD SWAP4 PUSH1 0x20 SWAP4 DUP5 ADD SWAP4 DUP11 SWAP4 POP ADD PUSH2 0x10AF JUMP JUMPDEST SWAP1 POP DUP9 ADD CALLDATALOAD DUP13 PUSH2 0xEF9 JUMP JUMPDEST POP DUP2 DUP2 MSTORE PUSH1 0x20 DUP2 KECCAK256 SWAP1 DUP9 PUSH1 0x1F NOT DUP2 AND DUP3 JUMPDEST DUP2 DUP2 LT PUSH2 0x1154 JUMPI POP LT PUSH2 0x113A JUMPI JUMPDEST POP POP PUSH1 0x1 DUP8 DUP2 SHL ADD SWAP1 SSTORE PUSH2 0xF10 JUMP JUMPDEST DUP8 ADD CALLDATALOAD PUSH1 0x0 NOT PUSH1 0x3 DUP11 SWAP1 SHL PUSH1 0xF8 AND SHR NOT AND SWAP1 SSTORE DUP10 DUP1 PUSH2 0x112B JUMP JUMPDEST DUP11 DUP5 ADD CALLDATALOAD DUP6 SSTORE PUSH1 0x1 SWAP1 SWAP5 ADD SWAP4 PUSH1 0x20 SWAP4 DUP5 ADD SWAP4 DUP13 SWAP4 POP ADD PUSH2 0x111D JUMP JUMPDEST POP CALLER PUSH1 0x0 SWAP1 DUP2 MSTORE PUSH32 0x7D7FFB7A348E1C6A02869081A26547B49160DD3DF72D1D75A570EB9B698292EC PUSH1 0x20 MSTORE PUSH1 0x40 SWAP1 KECCAK256 SLOAD PUSH1 0xFF AND PUSH2 0xEA3 JUMP JUMPDEST CALLVALUE PUSH2 0x1E8 JUMPI PUSH1 0x0 CALLDATASIZE PUSH1 0x3 NOT ADD SLT PUSH2 0x1E8 JUMPI PUSH1 0x20 PUSH1 0x40 MLOAD PUSH1 0x0 DUP1 MLOAD PUSH1 0x20 PUSH2 0x21D2 DUP4 CODECOPY DUP2 MLOAD SWAP2 MSTORE DUP2 MSTORE RETURN JUMPDEST CALLVALUE PUSH2 0x1E8 JUMPI PUSH1 0x20 CALLDATASIZE PUSH1 0x3 NOT ADD SLT PUSH2 0x1E8 JUMPI PUSH1 0x4 CALLDATALOAD PUSH1 0x40 MLOAD PUSH2 0x11F0 DUP2 PUSH2 0x1BB1 JUMP JUMPDEST PUSH1 0x0 DUP2 MSTORE PUSH1 0x20 DUP2 ADD PUSH1 0x0 SWAP1 MSTORE PUSH1 0x40 DUP2 ADD PUSH1 0x60 SWAP1 MSTORE PUSH1 0x60 DUP2 ADD PUSH1 0x60 SWAP1 MSTORE PUSH1 0x80 DUP2 ADD PUSH1 0x60 SWAP1 MSTORE PUSH1 0xA0 DUP2 ADD PUSH1 0x60 SWAP1 MSTORE PUSH1 0xC0 DUP2 ADD PUSH1 0x60 SWAP1 MSTORE PUSH1 0xE0 DUP2 ADD PUSH1 0x60 SWAP1 MSTORE PUSH2 0x100 DUP2 ADD PUSH1 0x0 SWAP1 MSTORE PUSH2 0x120 DUP2 ADD PUSH1 0x0 SWAP1 MSTORE PUSH2 0x140 DUP2 ADD PUSH1 0x0 SWAP1 MSTORE PUSH2 0x160 DUP2 ADD PUSH1 0x0 SWAP1 MSTORE PUSH2 0x180 ADD PUSH1 0x0 SWAP1 MSTORE DUP1 PUSH1 0x0 MSTORE PUSH1 0x3 PUSH1 0x20 MSTORE DUP1 PUSH1 0x40 PUSH1 0x0 KECCAK256 SLOAD EQ PUSH2 0x1272 SWAP1 PUSH2 0x1D87 JUMP JUMPDEST PUSH1 0x0 MSTORE PUSH1 0x3 PUSH1 0x20 MSTORE PUSH1 0x40 PUSH1 0x0 KECCAK256 PUSH1 0x40 MLOAD PUSH2 0x128B DUP2 PUSH2 0x1BB1 JUMP JUMPDEST DUP2 SLOAD DUP2 MSTORE PUSH1 0x1 DUP3 ADD SLOAD PUSH1 0x1 PUSH1 0x1 PUSH1 0xA0 SHL SUB AND PUSH1 0x20 DUP3 ADD SWAP1 DUP2 MSTORE SWAP2 PUSH2 0x12B1 PUSH1 0x2 DUP3 ADD PUSH2 0x1BEE JUMP JUMPDEST PUSH1 0x40 DUP4 ADD SWAP1 DUP2 MSTORE PUSH2 0x12C4 PUSH1 0x3 DUP4 ADD PUSH2 0x1BEE JUMP JUMPDEST PUSH1 0x60 DUP5 ADD SWAP1 DUP2 MSTORE SWAP2 PUSH2 0x12D8 PUSH1 0x4 DUP3 ADD PUSH2 0x1BEE JUMP JUMPDEST PUSH1 0x80 DUP6 ADD SWAP1 DUP2 MSTORE SWAP3 PUSH2 0x12EC PUSH1 0x5 DUP4 ADD PUSH2 0x1BEE JUMP JUMPDEST PUSH1 0xA0 DUP7 ADD SWAP1 DUP2 MSTORE SWAP4 PUSH2 0x1300 PUSH1 0x6 DUP5 ADD PUSH2 0x1BEE JUMP JUMPDEST PUSH1 0xC0 DUP8 ADD SWAP1 DUP2 MSTORE PUSH2 0x1313 PUSH1 0x7 DUP6 ADD PUSH2 0x1BEE JUMP JUMPDEST SWAP1 PUSH1 0xE0 DUP9 ADD SWAP2 DUP3 MSTORE PUSH1 0x8 DUP6 ADD SLOAD PUSH1 0xFF AND SWAP7 PUSH2 0x100 DUP10 ADD SWAP8 ISZERO ISZERO DUP9 MSTORE PUSH1 0x9 DUP7 ADD SLOAD SWAP4 PUSH2 0x120 DUP11 ADD SWAP5 DUP6 MSTORE PUSH1 0xA DUP8 ADD SLOAD SWAP6 PUSH2 0x140 DUP12 ADD SWAP7 DUP8 MSTORE PUSH1 0xB DUP9 ADD SLOAD SWAP8 PUSH2 0x160 DUP13 ADD SWAP9 DUP10 MSTORE PUSH1 0xC ADD SLOAD SWAP9 PUSH2 0x180 DUP13 ADD SWAP10 DUP11 MSTORE PUSH1 0x40 MLOAD SWAP13 DUP14 DUP1 SWAP14 PUSH1 0x20 DUP3 MSTORE MLOAD SWAP1 PUSH1 0x20 ADD MSTORE PUSH1 0x1 PUSH1 0xA0 SHL PUSH1 0x1 SWAP1 SUB SWAP1 MLOAD AND PUSH1 0x40 DUP14 ADD MSTORE MLOAD PUSH1 0x60 DUP13 ADD PUSH2 0x1A0 SWAP1 MSTORE PUSH2 0x1C0 DUP13 ADD PUSH2 0x139F SWAP2 PUSH2 0x1CB5 JUMP JUMPDEST SWAP1 MLOAD DUP12 DUP3 SUB PUSH1 0x1F NOT ADD PUSH1 0x80 DUP14 ADD MSTORE PUSH2 0x13B7 SWAP2 SWAP1 PUSH2 0x1CB5 JUMP JUMPDEST SWAP1 MLOAD DUP11 DUP3 SUB PUSH1 0x1F NOT ADD PUSH1 0xA0 DUP13 ADD MSTORE PUSH2 0x13CF SWAP2 SWAP1 PUSH2 0x1CB5 JUMP JUMPDEST SWAP1 MLOAD DUP10 DUP3 SUB PUSH1 0x1F NOT ADD PUSH1 0xC0 DUP12 ADD MSTORE PUSH2 0x13E7 SWAP2 SWAP1 PUSH2 0x1CB5 JUMP JUMPDEST SWAP1 MLOAD DUP9 DUP3 SUB PUSH1 0x1F NOT ADD PUSH1 0xE0 DUP11 ADD MSTORE PUSH2 0x13FF SWAP2 SWAP1 PUSH2 0x1CB5 JUMP JUMPDEST SWAP1 MLOAD DUP8 DUP3 SUB PUSH1 0x1F NOT ADD PUSH2 0x100 DUP10 ADD MSTORE PUSH2 0x1418 SWAP2 SWAP1 PUSH2 0x1CB5 JUMP JUMPDEST SWAP5 MLOAD ISZERO ISZERO PUSH2 0x120 DUP8 ADD MSTORE MLOAD PUSH2 0x140 DUP7 ADD MSTORE MLOAD PUSH2 0x160 DUP6 ADD MSTORE MLOAD PUSH2 0x180 DUP5 ADD MSTORE MLOAD PUSH2 0x1A0 DUP4 ADD MSTORE SUB SWAP1 RETURN JUMPDEST CALLVALUE PUSH2 0x1E8 JUMPI PUSH1 0x20 CALLDATASIZE PUSH1 0x3 NOT ADD SLT PUSH2 0x1E8 JUMPI PUSH1 0x4 CALLDATALOAD PUSH1 0x0 SWAP1 DUP2 MSTORE PUSH1 0x3 PUSH1 0x20 MSTORE PUSH1 0x40 SWAP1 KECCAK256 DUP1 SLOAD PUSH1 0x1 DUP3 ADD SLOAD PUSH1 0x1 PUSH1 0x1 PUSH1 0xA0 SHL SUB AND SWAP2 PUSH2 0x1481 PUSH1 0x2 DUP3 ADD PUSH2 0x1BEE JUMP JUMPDEST PUSH2 0x148D PUSH1 0x3 DUP4 ADD PUSH2 0x1BEE JUMP JUMPDEST SWAP2 PUSH2 0x149A PUSH1 0x4 DUP3 ADD PUSH2 0x1BEE JUMP JUMPDEST SWAP3 PUSH2 0x14A7 PUSH1 0x5 DUP4 ADD PUSH2 0x1BEE JUMP JUMPDEST SWAP4 PUSH2 0x14B4 PUSH1 0x6 DUP5 ADD PUSH2 0x1BEE JUMP JUMPDEST PUSH2 0x14C0 PUSH1 0x7 DUP6 ADD PUSH2 0x1BEE JUMP JUMPDEST SWAP1 PUSH1 0x8 DUP6 ADD SLOAD PUSH1 0xFF AND SWAP7 PUSH1 0x9 DUP7 ADD SLOAD SWAP4 PUSH1 0xA DUP8 ADD SLOAD SWAP6 PUSH1 0xB DUP9 ADD SLOAD SWAP8 PUSH1 0xC ADD SLOAD SWAP9 PUSH1 0x40 MLOAD SWAP13 DUP14 SWAP13 DUP14 MSTORE PUSH1 0x20 DUP14 ADD MSTORE PUSH1 0x40 DUP13 ADD PUSH2 0x1A0 SWAP1 MSTORE PUSH2 0x1A0 DUP13 ADD PUSH2 0x1505 SWAP2 PUSH2 0x1CB5 JUMP JUMPDEST DUP12 DUP2 SUB PUSH1 0x60 DUP14 ADD MSTORE PUSH2 0x1516 SWAP2 PUSH2 0x1CB5 JUMP JUMPDEST DUP11 DUP2 SUB PUSH1 0x80 DUP13 ADD MSTORE PUSH2 0x1527 SWAP2 PUSH2 0x1CB5 JUMP JUMPDEST DUP10 DUP2 SUB PUSH1 0xA0 DUP12 ADD MSTORE PUSH2 0x1538 SWAP2 PUSH2 0x1CB5 JUMP JUMPDEST DUP9 DUP2 SUB PUSH1 0xC0 DUP11 ADD MSTORE PUSH2 0x1549 SWAP2 PUSH2 0x1CB5 JUMP JUMPDEST DUP8 DUP2 SUB PUSH1 0xE0 DUP10 ADD MSTORE PUSH2 0x155A SWAP2 PUSH2 0x1CB5 JUMP JUMPDEST SWAP5 ISZERO ISZERO PUSH2 0x100 DUP8 ADD MSTORE PUSH2 0x120 DUP7 ADD MSTORE PUSH2 0x140 DUP6 ADD MSTORE PUSH2 0x160 DUP5 ADD MSTORE PUSH2 0x180 DUP4 ADD MSTORE SUB SWAP1 RETURN JUMPDEST CALLVALUE PUSH2 0x1E8 JUMPI PUSH1 0x0 CALLDATASIZE PUSH1 0x3 NOT ADD SLT PUSH2 0x1E8 JUMPI PUSH1 0x20 PUSH1 0x2 SLOAD PUSH1 0x40 MLOAD SWAP1 DUP2 MSTORE RETURN JUMPDEST CALLVALUE PUSH2 0x1E8 JUMPI PUSH1 0x40 CALLDATASIZE PUSH1 0x3 NOT ADD SLT PUSH2 0x1E8 JUMPI PUSH1 0x4 CALLDATALOAD PUSH32 0x528D9479E9F9889A87A3C30C7F7BA537E5E59C4C85A37733B16E57C62DF61302 PUSH1 0x20 PUSH1 0x24 CALLDATALOAD DUP4 PUSH1 0x0 MSTORE PUSH1 0x3 DUP3 MSTORE DUP1 PUSH1 0xC PUSH1 0x40 PUSH1 0x0 KECCAK256 PUSH1 0x1 DUP1 PUSH1 0xA0 SHL SUB PUSH1 0x1 DUP3 ADD SLOAD AND CALLER EQ DUP1 ISZERO PUSH2 0x161D JUMPI JUMPDEST PUSH2 0x1606 SWAP1 PUSH2 0x1DD9 JUMP JUMPDEST PUSH2 0x1612 DUP8 DUP3 SLOAD EQ PUSH2 0x1D87 JUMP JUMPDEST ADD SSTORE PUSH1 0x40 MLOAD SWAP1 DUP2 MSTORE LOG2 STOP JUMPDEST POP PUSH1 0x0 DUP1 MLOAD PUSH1 0x20 PUSH2 0x21D2 DUP4 CODECOPY DUP2 MLOAD SWAP2 MSTORE PUSH1 0x0 SWAP1 DUP2 MSTORE DUP1 DUP7 MSTORE PUSH1 0x40 DUP1 DUP3 KECCAK256 CALLER DUP4 MSTORE DUP8 MSTORE SWAP1 KECCAK256 SLOAD PUSH1 0xFF AND PUSH2 0x15FD JUMP JUMPDEST CALLVALUE PUSH2 0x1E8 JUMPI PUSH1 0x20 CALLDATASIZE PUSH1 0x3 NOT ADD SLT PUSH2 0x1E8 JUMPI PUSH1 0x1 PUSH1 0x1 PUSH1 0xA0 SHL SUB PUSH2 0x166B PUSH2 0x1B35 JUMP JUMPDEST AND PUSH1 0x0 MSTORE PUSH1 0x5 PUSH1 0x20 MSTORE PUSH1 0x40 PUSH1 0x0 KECCAK256 PUSH1 0x40 MLOAD DUP1 PUSH1 0x20 DUP4 SLOAD SWAP2 DUP3 DUP2 MSTORE ADD SWAP1 DUP2 SWAP4 PUSH1 0x0 MSTORE PUSH1 0x20 PUSH1 0x0 KECCAK256 SWAP1 PUSH1 0x0 JUMPDEST DUP2 DUP2 LT PUSH2 0x16EE JUMPI POP POP POP DUP2 PUSH2 0x16AB SWAP2 SUB DUP3 PUSH2 0x1BCD JUMP JUMPDEST PUSH1 0x40 MLOAD SWAP2 DUP3 SWAP2 PUSH1 0x20 DUP4 ADD SWAP1 PUSH1 0x20 DUP5 MSTORE MLOAD DUP1 SWAP2 MSTORE PUSH1 0x40 DUP4 ADD SWAP2 SWAP1 PUSH1 0x0 JUMPDEST DUP2 DUP2 LT PUSH2 0x16D5 JUMPI POP POP POP SUB SWAP1 RETURN JUMPDEST DUP3 MLOAD DUP5 MSTORE DUP6 SWAP5 POP PUSH1 0x20 SWAP4 DUP5 ADD SWAP4 SWAP1 SWAP3 ADD SWAP2 PUSH1 0x1 ADD PUSH2 0x16C7 JUMP JUMPDEST DUP3 SLOAD DUP5 MSTORE PUSH1 0x20 SWAP1 SWAP4 ADD SWAP3 PUSH1 0x1 SWAP3 DUP4 ADD SWAP3 ADD PUSH2 0x1695 JUMP JUMPDEST CALLVALUE PUSH2 0x1E8 JUMPI PUSH1 0x0 CALLDATASIZE PUSH1 0x3 NOT ADD SLT PUSH2 0x1E8 JUMPI PUSH1 0x20 PUSH1 0x40 MLOAD PUSH1 0x0 DUP1 MLOAD PUSH1 0x20 PUSH2 0x2212 DUP4 CODECOPY DUP2 MLOAD SWAP2 MSTORE DUP2 MSTORE RETURN JUMPDEST CALLVALUE PUSH2 0x1E8 JUMPI PUSH1 0x40 CALLDATASIZE PUSH1 0x3 NOT ADD SLT PUSH2 0x1E8 JUMPI PUSH2 0x1746 PUSH2 0x1B4B JUMP JUMPDEST CALLER PUSH1 0x1 PUSH1 0x1 PUSH1 0xA0 SHL SUB DUP3 AND SUB PUSH2 0x1762 JUMPI PUSH2 0x232 SWAP1 PUSH1 0x4 CALLDATALOAD PUSH2 0x1F52 JUMP JUMPDEST PUSH1 0x40 MLOAD PUSH3 0x461BCD PUSH1 0xE5 SHL DUP2 MSTORE PUSH1 0x20 PUSH1 0x4 DUP3 ADD MSTORE PUSH1 0x2F PUSH1 0x24 DUP3 ADD MSTORE PUSH32 0x416363657373436F6E74726F6C3A2063616E206F6E6C792072656E6F756E6365 PUSH1 0x44 DUP3 ADD MSTORE PUSH15 0x103937B632B9903337B91039B2B633 PUSH1 0x89 SHL PUSH1 0x64 DUP3 ADD MSTORE PUSH1 0x84 SWAP1 REVERT JUMPDEST CALLVALUE PUSH2 0x1E8 JUMPI PUSH1 0x40 CALLDATASIZE PUSH1 0x3 NOT ADD SLT PUSH2 0x1E8 JUMPI PUSH1 0x4 CALLDATALOAD PUSH2 0x17DB PUSH2 0x1B4B JUMP JUMPDEST SWAP1 PUSH2 0x17F7 PUSH2 0x228 DUP3 PUSH1 0x0 MSTORE PUSH1 0x0 PUSH1 0x20 MSTORE PUSH1 0x1 PUSH1 0x40 PUSH1 0x0 KECCAK256 ADD SLOAD SWAP1 JUMP JUMPDEST PUSH1 0x0 DUP2 DUP2 MSTORE PUSH1 0x20 DUP2 DUP2 MSTORE PUSH1 0x40 DUP1 DUP4 KECCAK256 PUSH1 0x1 PUSH1 0x1 PUSH1 0xA0 SHL SUB DUP7 AND DUP5 MSTORE SWAP1 SWAP2 MSTORE SWAP1 KECCAK256 SLOAD PUSH1 0xFF AND ISZERO PUSH2 0x1822 JUMPI STOP JUMPDEST PUSH1 0x0 DUP2 DUP2 MSTORE PUSH1 0x20 DUP2 DUP2 MSTORE PUSH1 0x40 DUP1 DUP4 KECCAK256 PUSH1 0x1 PUSH1 0x1 PUSH1 0xA0 SHL SUB SWAP6 SWAP1 SWAP6 AND DUP1 DUP5 MSTORE SWAP5 SWAP1 SWAP2 MSTORE DUP2 KECCAK256 DUP1 SLOAD PUSH1 0xFF NOT AND PUSH1 0x1 OR SWAP1 SSTORE CALLER SWAP3 SWAP2 SWAP1 PUSH32 0x2F8788117E7EFF1D82E926EC794901D17C78024A50270940304540A733656F0D SWAP1 DUP1 LOG4 STOP JUMPDEST CALLVALUE PUSH2 0x1E8 JUMPI PUSH1 0x60 CALLDATASIZE PUSH1 0x3 NOT ADD SLT PUSH2 0x1E8 JUMPI PUSH1 0x4 CALLDATALOAD PUSH2 0x1897 PUSH2 0x1B4B JUMP JUMPDEST SWAP1 PUSH2 0x18A0 PUSH2 0x1B61 JUMP JUMPDEST POP PUSH1 0x2 PUSH1 0x1 SLOAD EQ PUSH2 0x19AF JUMPI PUSH1 0x2 PUSH1 0x1 SSTORE DUP1 PUSH1 0x0 MSTORE PUSH1 0x3 PUSH1 0x20 MSTORE PUSH1 0x40 PUSH1 0x0 KECCAK256 PUSH2 0x18CA DUP3 DUP3 SLOAD EQ PUSH2 0x1D87 JUMP JUMPDEST PUSH1 0xFF PUSH1 0x8 DUP3 ADD SLOAD AND ISZERO PUSH2 0x1974 JUMPI PUSH1 0xB DUP2 ADD PUSH2 0x18E5 DUP2 SLOAD PUSH2 0x1DCA JUMP JUMPDEST SWAP1 SSTORE DUP2 PUSH1 0x0 MSTORE PUSH1 0x4 PUSH1 0x20 MSTORE PUSH1 0xC PUSH1 0x40 PUSH1 0x0 KECCAK256 SWAP2 PUSH2 0x1902 DUP4 SLOAD PUSH2 0x1DCA JUMP JUMPDEST DUP4 SSTORE ADD SWAP1 DUP2 SLOAD SWAP2 PUSH1 0x1 DUP3 ADD SWAP2 DUP3 SLOAD SWAP4 DUP5 ADD DUP1 SWAP5 GT PUSH2 0x195E JUMPI PUSH32 0x89F8EE66CC6DF04F60436A259F4CF166BF30AD0C4DEBEA721445202B32424524 SWAP4 PUSH1 0x20 SWAP4 SSTORE PUSH1 0x2 TIMESTAMP SWAP2 ADD SSTORE SLOAD SWAP4 PUSH1 0x40 MLOAD SWAP5 DUP6 MSTORE PUSH1 0x1 DUP1 PUSH1 0xA0 SHL SUB AND SWAP4 LOG3 PUSH1 0x1 DUP1 SSTORE STOP JUMPDEST PUSH4 0x4E487B71 PUSH1 0xE0 SHL PUSH1 0x0 MSTORE PUSH1 0x11 PUSH1 0x4 MSTORE PUSH1 0x24 PUSH1 0x0 REVERT JUMPDEST PUSH1 0x40 MLOAD PUSH3 0x461BCD PUSH1 0xE5 SHL DUP2 MSTORE PUSH1 0x20 PUSH1 0x4 DUP3 ADD MSTORE PUSH1 0x13 PUSH1 0x24 DUP3 ADD MSTORE PUSH19 0x4D6F64656C206973206E6F7420616374697665 PUSH1 0x68 SHL PUSH1 0x44 DUP3 ADD MSTORE PUSH1 0x64 SWAP1 REVERT JUMPDEST PUSH1 0x40 MLOAD PUSH3 0x461BCD PUSH1 0xE5 SHL DUP2 MSTORE PUSH1 0x20 PUSH1 0x4 DUP3 ADD MSTORE PUSH1 0x1F PUSH1 0x24 DUP3 ADD MSTORE PUSH32 0x5265656E7472616E637947756172643A207265656E7472616E742063616C6C00 PUSH1 0x44 DUP3 ADD MSTORE PUSH1 0x64 SWAP1 REVERT JUMPDEST CALLVALUE PUSH2 0x1E8 JUMPI PUSH1 0x20 CALLDATASIZE PUSH1 0x3 NOT ADD SLT PUSH2 0x1E8 JUMPI PUSH1 0x20 PUSH2 0x1A21 PUSH1 0x4 CALLDATALOAD PUSH1 0x0 MSTORE PUSH1 0x0 PUSH1 0x20 MSTORE PUSH1 0x1 PUSH1 0x40 PUSH1 0x0 KECCAK256 ADD SLOAD SWAP1 JUMP JUMPDEST PUSH1 0x40 MLOAD SWAP1 DUP2 MSTORE RETURN JUMPDEST CALLVALUE PUSH2 0x1E8 JUMPI PUSH1 0x20 CALLDATASIZE PUSH1 0x3 NOT ADD SLT PUSH2 0x1E8 JUMPI PUSH2 0x1A42 PUSH2 0x1B35 JUMP JUMPDEST PUSH2 0x1A4A PUSH2 0x1EB3 JUMP JUMPDEST PUSH1 0x1 PUSH1 0x1 PUSH1 0xA0 SHL SUB DUP2 AND PUSH1 0x0 SWAP1 DUP2 MSTORE PUSH1 0x0 DUP1 MLOAD PUSH1 0x20 PUSH2 0x21F2 DUP4 CODECOPY DUP2 MLOAD SWAP2 MSTORE PUSH1 0x20 MSTORE PUSH1 0x40 SWAP1 KECCAK256 SLOAD PUSH1 0xFF AND ISZERO PUSH2 0x1A7A JUMPI STOP JUMPDEST PUSH1 0x1 PUSH1 0x1 PUSH1 0xA0 SHL SUB AND PUSH1 0x0 DUP2 DUP2 MSTORE PUSH1 0x0 DUP1 MLOAD PUSH1 0x20 PUSH2 0x21F2 DUP4 CODECOPY DUP2 MLOAD SWAP2 MSTORE PUSH1 0x20 MSTORE PUSH1 0x40 DUP2 KECCAK256 DUP1 SLOAD PUSH1 0xFF NOT AND PUSH1 0x1 OR SWAP1 SSTORE CALLER SWAP2 SWAP1 PUSH1 0x0 DUP1 MLOAD PUSH1 0x20 PUSH2 0x2212 DUP4 CODECOPY DUP2 MLOAD SWAP2 MSTORE SWAP1 PUSH32 0x2F8788117E7EFF1D82E926EC794901D17C78024A50270940304540A733656F0D SWAP1 DUP1 LOG4 STOP JUMPDEST CALLVALUE PUSH2 0x1E8 JUMPI PUSH1 0x20 CALLDATASIZE PUSH1 0x3 NOT ADD SLT PUSH2 0x1E8 JUMPI PUSH1 0x4 CALLDATALOAD SWAP1 PUSH4 0xFFFFFFFF PUSH1 0xE0 SHL DUP3 AND DUP1 SWAP3 SUB PUSH2 0x1E8 JUMPI PUSH1 0x20 SWAP2 PUSH4 0x7965DB0B PUSH1 0xE0 SHL DUP2 EQ SWAP1 DUP2 ISZERO PUSH2 0x1B24 JUMPI JUMPDEST POP ISZERO ISZERO DUP2 MSTORE RETURN JUMPDEST PUSH4 0x1FFC9A7 PUSH1 0xE0 SHL EQ SWAP1 POP DUP4 PUSH2 0x1B1D JUMP JUMPDEST PUSH1 0x4 CALLDATALOAD SWAP1 PUSH1 0x1 PUSH1 0x1 PUSH1 0xA0 SHL SUB DUP3 AND DUP3 SUB PUSH2 0x1E8 JUMPI JUMP JUMPDEST PUSH1 0x24 CALLDATALOAD SWAP1 PUSH1 0x1 PUSH1 0x1 PUSH1 0xA0 SHL SUB DUP3 AND DUP3 SUB PUSH2 0x1E8 JUMPI JUMP JUMPDEST PUSH1 0x44 CALLDATALOAD SWAP1 PUSH1 0x1 PUSH1 0x1 PUSH1 0xA0 SHL SUB DUP3 AND DUP3 SUB PUSH2 0x1E8 JUMPI JUMP JUMPDEST SWAP1 PUSH1 0x1 DUP3 DUP2 SHR SWAP3 AND DUP1 ISZERO PUSH2 0x1BA7 JUMPI JUMPDEST PUSH1 0x20 DUP4 LT EQ PUSH2 0x1B91 JUMPI JUMP JUMPDEST PUSH4 0x4E487B71 PUSH1 0xE0 SHL PUSH1 0x0 MSTORE PUSH1 0x22 PUSH1 0x4 MSTORE PUSH1 0x24 PUSH1 0x0 REVERT JUMPDEST SWAP2 PUSH1 0x7F AND SWAP2 PUSH2 0x1B86 JUMP JUMPDEST PUSH2 0x1A0 DUP2 ADD SWAP1 DUP2 LT PUSH1 0x1 PUSH1 0x1 PUSH1 0x40 SHL SUB DUP3 GT OR PUSH2 0x9D1 JUMPI PUSH1 0x40 MSTORE JUMP JUMPDEST SWAP1 PUSH1 0x1F DUP1 NOT SWAP2 ADD AND DUP2 ADD SWAP1 DUP2 LT PUSH1 0x1 PUSH1 0x1 PUSH1 0x40 SHL SUB DUP3 GT OR PUSH2 0x9D1 JUMPI PUSH1 0x40 MSTORE JUMP JUMPDEST SWAP1 PUSH1 0x40 MLOAD SWAP2 DUP3 PUSH1 0x0 DUP3 SLOAD SWAP3 PUSH2 0x1C02 DUP5 PUSH2 0x1B77 JUMP JUMPDEST DUP1 DUP5 MSTORE SWAP4 PUSH1 0x1 DUP2 AND SWAP1 DUP2 ISZERO PUSH2 0x1C70 JUMPI POP PUSH1 0x1 EQ PUSH2 0x1C29 JUMPI JUMPDEST POP PUSH2 0x1C27 SWAP3 POP SUB DUP4 PUSH2 0x1BCD JUMP JUMPDEST JUMP JUMPDEST SWAP1 POP PUSH1 0x0 SWAP3 SWAP2 SWAP3 MSTORE PUSH1 0x20 PUSH1 0x0 KECCAK256 SWAP1 PUSH1 0x0 SWAP2 JUMPDEST DUP2 DUP4 LT PUSH2 0x1C54 JUMPI POP POP SWAP1 PUSH1 0x20 PUSH2 0x1C27 SWAP3 DUP3 ADD ADD CODESIZE PUSH2 0x1C1A JUMP JUMPDEST PUSH1 0x20 SWAP2 SWAP4 POP DUP1 PUSH1 0x1 SWAP2 SLOAD DUP4 DUP6 DUP10 ADD ADD MSTORE ADD SWAP2 ADD SWAP1 SWAP2 DUP5 SWAP3 PUSH2 0x1C3B JUMP JUMPDEST SWAP1 POP PUSH1 0x20 SWAP3 POP PUSH2 0x1C27 SWAP5 SWAP2 POP PUSH1 0xFF NOT AND DUP3 DUP5 ADD MSTORE ISZERO ISZERO PUSH1 0x5 SHL DUP3 ADD ADD CODESIZE PUSH2 0x1C1A JUMP JUMPDEST PUSH1 0x0 JUMPDEST DUP4 DUP2 LT PUSH2 0x1CA5 JUMPI POP POP PUSH1 0x0 SWAP2 ADD MSTORE JUMP JUMPDEST DUP2 DUP2 ADD MLOAD DUP4 DUP3 ADD MSTORE PUSH1 0x20 ADD PUSH2 0x1C95 JUMP JUMPDEST SWAP1 PUSH1 0x20 SWAP2 PUSH2 0x1CCE DUP2 MLOAD DUP1 SWAP3 DUP2 DUP6 MSTORE DUP6 DUP1 DUP7 ADD SWAP2 ADD PUSH2 0x1C92 JUMP JUMPDEST PUSH1 0x1F ADD PUSH1 0x1F NOT AND ADD ADD SWAP1 JUMP JUMPDEST SWAP2 DUP2 PUSH1 0x1F DUP5 ADD SLT ISZERO PUSH2 0x1E8 JUMPI DUP3 CALLDATALOAD SWAP2 PUSH1 0x1 PUSH1 0x1 PUSH1 0x40 SHL SUB DUP4 GT PUSH2 0x1E8 JUMPI PUSH1 0x20 DUP4 DUP2 DUP7 ADD SWAP6 ADD ADD GT PUSH2 0x1E8 JUMPI JUMP JUMPDEST PUSH1 0x1 PUSH1 0x1 PUSH1 0x40 SHL SUB DUP2 GT PUSH2 0x9D1 JUMPI PUSH1 0x1F ADD PUSH1 0x1F NOT AND PUSH1 0x20 ADD SWAP1 JUMP JUMPDEST SWAP3 SWAP2 SWAP3 PUSH2 0x1D2E DUP3 PUSH2 0x1D07 JUMP JUMPDEST SWAP2 PUSH2 0x1D3C PUSH1 0x40 MLOAD SWAP4 DUP5 PUSH2 0x1BCD JUMP JUMPDEST DUP3 SWAP5 DUP2 DUP5 MSTORE DUP2 DUP4 ADD GT PUSH2 0x1E8 JUMPI DUP3 DUP2 PUSH1 0x20 SWAP4 DUP5 PUSH1 0x0 SWAP7 ADD CALLDATACOPY ADD ADD MSTORE JUMP JUMPDEST DUP1 SLOAD DUP3 LT ISZERO PUSH2 0x1D71 JUMPI PUSH1 0x0 MSTORE PUSH1 0x20 PUSH1 0x0 KECCAK256 ADD SWAP1 PUSH1 0x0 SWAP1 JUMP JUMPDEST PUSH4 0x4E487B71 PUSH1 0xE0 SHL PUSH1 0x0 MSTORE PUSH1 0x32 PUSH1 0x4 MSTORE PUSH1 0x24 PUSH1 0x0 REVERT JUMPDEST ISZERO PUSH2 0x1D8E JUMPI JUMP JUMPDEST PUSH1 0x40 MLOAD PUSH3 0x461BCD PUSH1 0xE5 SHL DUP2 MSTORE PUSH1 0x20 PUSH1 0x4 DUP3 ADD MSTORE PUSH1 0x14 PUSH1 0x24 DUP3 ADD MSTORE PUSH20 0x135BD9195B08191BD95CC81B9BDD08195E1A5CDD PUSH1 0x62 SHL PUSH1 0x44 DUP3 ADD MSTORE PUSH1 0x64 SWAP1 REVERT JUMPDEST PUSH1 0x0 NOT DUP2 EQ PUSH2 0x195E JUMPI PUSH1 0x1 ADD SWAP1 JUMP JUMPDEST ISZERO PUSH2 0x1DE0 JUMPI JUMP JUMPDEST PUSH1 0x40 MLOAD PUSH3 0x461BCD PUSH1 0xE5 SHL DUP2 MSTORE PUSH1 0x20 PUSH1 0x4 DUP3 ADD MSTORE PUSH1 0xE PUSH1 0x24 DUP3 ADD MSTORE PUSH14 0x139BDD08185D5D1A1BDC9A5E9959 PUSH1 0x92 SHL PUSH1 0x44 DUP3 ADD MSTORE PUSH1 0x64 SWAP1 REVERT JUMPDEST PUSH1 0x1F DUP3 GT PUSH2 0x1E23 JUMPI POP POP POP JUMP JUMPDEST PUSH1 0x0 MSTORE PUSH1 0x20 PUSH1 0x0 KECCAK256 SWAP1 PUSH1 0x20 PUSH1 0x1F DUP5 ADD PUSH1 0x5 SHR DUP4 ADD SWAP4 LT PUSH2 0x1E5E JUMPI JUMPDEST PUSH1 0x1F ADD PUSH1 0x5 SHR ADD SWAP1 JUMPDEST DUP2 DUP2 LT PUSH2 0x1E52 JUMPI POP POP JUMP JUMPDEST PUSH1 0x0 DUP2 SSTORE PUSH1 0x1 ADD PUSH2 0x1E47 JUMP JUMPDEST SWAP1 SWAP2 POP DUP2 SWAP1 PUSH2 0x1E3E JUMP JUMPDEST SWAP1 DUP1 PUSH1 0x20 SWAP4 SWAP3 DUP2 DUP5 MSTORE DUP5 DUP5 ADD CALLDATACOPY PUSH1 0x0 DUP3 DUP3 ADD DUP5 ADD MSTORE PUSH1 0x1F ADD PUSH1 0x1F NOT AND ADD ADD SWAP1 JUMP JUMPDEST SWAP3 SWAP1 PUSH2 0x1EA2 SWAP1 PUSH2 0x1EB0 SWAP6 SWAP4 PUSH1 0x40 DUP7 MSTORE PUSH1 0x40 DUP7 ADD SWAP2 PUSH2 0x1E68 JUMP JUMPDEST SWAP3 PUSH1 0x20 DUP2 DUP6 SUB SWAP2 ADD MSTORE PUSH2 0x1E68 JUMP JUMPDEST SWAP1 JUMP JUMPDEST CALLER PUSH1 0x0 SWAP1 DUP2 MSTORE PUSH32 0x7D7FFB7A348E1C6A02869081A26547B49160DD3DF72D1D75A570EB9B698292EC PUSH1 0x20 MSTORE PUSH1 0x40 SWAP1 KECCAK256 SLOAD PUSH1 0xFF AND ISZERO PUSH2 0x1EEC JUMPI JUMP JUMPDEST PUSH2 0xE00 PUSH2 0x1EF8 CALLER PUSH2 0x1FE5 JUMP JUMPDEST PUSH2 0xDE0 PUSH1 0x11 PUSH2 0xD5E PUSH1 0x0 DUP1 MLOAD PUSH1 0x20 PUSH2 0x21D2 DUP4 CODECOPY DUP2 MLOAD SWAP2 MSTORE PUSH2 0x2125 JUMP JUMPDEST PUSH1 0x0 DUP2 DUP2 MSTORE PUSH1 0x20 DUP2 DUP2 MSTORE PUSH1 0x40 DUP1 DUP4 KECCAK256 CALLER DUP5 MSTORE SWAP1 SWAP2 MSTORE SWAP1 KECCAK256 SLOAD PUSH1 0xFF AND ISZERO PUSH2 0x1F37 JUMPI POP JUMP JUMPDEST PUSH2 0xE00 SWAP1 PUSH2 0xDE0 PUSH1 0x11 PUSH2 0xD5E PUSH2 0x1F4C CALLER PUSH2 0x1FE5 JUMP JUMPDEST SWAP4 PUSH2 0x2125 JUMP JUMPDEST PUSH1 0x0 DUP2 DUP2 MSTORE PUSH1 0x20 DUP2 DUP2 MSTORE PUSH1 0x40 DUP1 DUP4 KECCAK256 PUSH1 0x1 PUSH1 0x1 PUSH1 0xA0 SHL SUB DUP7 AND DUP5 MSTORE SWAP1 SWAP2 MSTORE SWAP1 KECCAK256 SLOAD PUSH1 0xFF AND PUSH2 0x1F7E JUMPI POP POP JUMP JUMPDEST PUSH1 0x0 DUP2 DUP2 MSTORE PUSH1 0x20 DUP2 DUP2 MSTORE PUSH1 0x40 DUP1 DUP4 KECCAK256 PUSH1 0x1 PUSH1 0x1 PUSH1 0xA0 SHL SUB SWAP6 SWAP1 SWAP6 AND DUP1 DUP5 MSTORE SWAP5 SWAP1 SWAP2 MSTORE DUP2 KECCAK256 DUP1 SLOAD PUSH1 0xFF NOT AND SWAP1 SSTORE CALLER SWAP3 SWAP2 SWAP1 PUSH32 0xF6391F5C32D9C69D2A47EA670B442974B53935D1EDC7FD64EB21E047A839171B SWAP1 DUP1 LOG4 JUMP JUMPDEST SWAP1 DUP2 MLOAD DUP2 LT ISZERO PUSH2 0x1D71 JUMPI ADD PUSH1 0x20 ADD SWAP1 JUMP JUMPDEST PUSH1 0x0 SWAP1 PUSH2 0x1FF2 PUSH1 0x2A PUSH2 0x1D07 JUMP JUMPDEST SWAP2 PUSH2 0x2000 PUSH1 0x40 MLOAD SWAP4 DUP5 PUSH2 0x1BCD JUMP JUMPDEST PUSH1 0x2A DUP4 MSTORE PUSH2 0x200E PUSH1 0x2A PUSH2 0x1D07 JUMP JUMPDEST PUSH1 0x20 DUP5 ADD SWAP1 PUSH1 0x1F NOT ADD CALLDATASIZE DUP3 CALLDATACOPY DUP4 MLOAD ISZERO PUSH2 0x2111 JUMPI PUSH1 0x30 SWAP1 MSTORE8 DUP3 MLOAD PUSH1 0x1 LT ISZERO PUSH2 0x20FD JUMPI PUSH1 0x78 PUSH1 0x21 DUP5 ADD MSTORE8 POP PUSH1 0x29 PUSH1 0x0 JUMPDEST PUSH1 0x1 DUP3 GT PUSH2 0x2091 JUMPI POP POP PUSH2 0x204D JUMPI SWAP1 JUMP JUMPDEST PUSH1 0x64 PUSH1 0x40 MLOAD PUSH3 0x461BCD PUSH1 0xE5 SHL DUP2 MSTORE PUSH1 0x20 PUSH1 0x4 DUP3 ADD MSTORE PUSH1 0x20 PUSH1 0x24 DUP3 ADD MSTORE PUSH32 0x537472696E67733A20686578206C656E67746820696E73756666696369656E74 PUSH1 0x44 DUP3 ADD MSTORE REVERT JUMPDEST SWAP1 SWAP2 PUSH1 0xF DUP2 AND PUSH1 0x10 DUP2 LT ISZERO PUSH2 0x20E9 JUMPI PUSH16 0x181899199A1A9B1B9C1CB0B131B232B3 PUSH1 0x81 SHL SWAP1 BYTE PUSH2 0x20C0 DUP5 DUP7 PUSH2 0x1FD4 JUMP JUMPDEST MSTORE8 PUSH1 0x4 SHR SWAP2 DUP1 ISZERO PUSH2 0x20D5 JUMPI PUSH1 0x0 NOT ADD SWAP1 PUSH2 0x203C JUMP JUMPDEST PUSH4 0x4E487B71 PUSH1 0xE0 SHL DUP3 MSTORE PUSH1 0x11 PUSH1 0x4 MSTORE PUSH1 0x24 DUP3 REVERT JUMPDEST PUSH4 0x4E487B71 PUSH1 0xE0 SHL DUP4 MSTORE PUSH1 0x32 PUSH1 0x4 MSTORE PUSH1 0x24 DUP4 REVERT JUMPDEST PUSH4 0x4E487B71 PUSH1 0xE0 SHL DUP2 MSTORE PUSH1 0x32 PUSH1 0x4 MSTORE PUSH1 0x24 SWAP1 REVERT JUMPDEST PUSH4 0x4E487B71 PUSH1 0xE0 SHL DUP3 MSTORE PUSH1 0x32 PUSH1 0x4 MSTORE PUSH1 0x24 DUP3 REVERT JUMPDEST PUSH1 0x0 SWAP1 PUSH2 0x2132 PUSH1 0x42 PUSH2 0x1D07 JUMP JUMPDEST SWAP2 PUSH2 0x2140 PUSH1 0x40 MLOAD SWAP4 DUP5 PUSH2 0x1BCD JUMP JUMPDEST PUSH1 0x42 DUP4 MSTORE PUSH2 0x214E PUSH1 0x42 PUSH2 0x1D07 JUMP JUMPDEST PUSH1 0x20 DUP5 ADD SWAP1 PUSH1 0x1F NOT ADD CALLDATASIZE DUP3 CALLDATACOPY DUP4 MLOAD ISZERO PUSH2 0x2111 JUMPI PUSH1 0x30 SWAP1 MSTORE8 DUP3 MLOAD PUSH1 0x1 LT ISZERO PUSH2 0x20FD JUMPI PUSH1 0x78 PUSH1 0x21 DUP5 ADD MSTORE8 POP PUSH1 0x41 PUSH1 0x0 JUMPDEST PUSH1 0x1 DUP3 GT PUSH2 0x218D JUMPI POP POP PUSH2 0x204D JUMPI SWAP1 JUMP JUMPDEST SWAP1 SWAP2 PUSH1 0xF DUP2 AND PUSH1 0x10 DUP2 LT ISZERO PUSH2 0x20E9 JUMPI PUSH16 0x181899199A1A9B1B9C1CB0B131B232B3 PUSH1 0x81 SHL SWAP1 BYTE PUSH2 0x21BC DUP5 DUP7 PUSH2 0x1FD4 JUMP JUMPDEST MSTORE8 PUSH1 0x4 SHR SWAP2 DUP1 ISZERO PUSH2 0x20D5 JUMPI PUSH1 0x0 NOT ADD SWAP1 PUSH2 0x217C JUMP INVALID LOG4 SWAP9 SMOD KECCAK256 TLOAD 0xE4 0xD3 SSTORE MULMOD 0x2E CREATE2 0xA8 LOG1 DUP16 JUMP 0xE8 SWAP2 EXTCODECOPY DELEGATECALL LOG2 ADD 0xFB 0xE2 DUP8 DUP3 JUMPDEST MULMOD JUMP SWAP4 0xC2 OR PUSH22 0x5EFD393733146C9F5F151BCDFA0150AD844998F9F664 0xE1 0x2F 0xD5 PUSH7 0x6ABED6B02104B8 0x2E 0xC2 DUP5 DUP12 0x2A 0x29 PUSH1 0xEE SDIV PUSH5 0xACE40057F4 LOG1 MOD PUSH22 0x67F252CC1F31685AB2F15B1205A26469706673582212 KECCAK256 0xE1 0xEB 0xC1 0xF8 PUSH18 0x87B5988C7B1110FBBD1A9ED4013EF4D6B0E5 LOG2 PUSH5 0xFE96BA340C 0xE2 DUP2 PUSH5 0x736F6C6343 STOP ADDMOD SHR STOP CALLER 0x2F DUP8 DUP9 GT PUSH31 0x7EFF1D82E926EC794901D17C78024A50270940304540A733656F0D7D7FFB7A CALLVALUE DUP15 SHR PUSH11 0x2869081A26547B49160DD RETURNDATASIZE 0xF7 0x2D SAR PUSH22 0xA570EB9B698292ECAD3228B676F7D3CD4284A5443F17 CALL SWAP7 0x2B CALLDATASIZE 0xE4 SWAP2 0xB3 EXP BLOCKHASH 0xB2 BLOCKHASH PC BLOBHASH 0xE5 SWAP8 0xBA PUSH0 0xB5 MCOPY REVERT CODECOPY CALLDATACOPY CALLER EQ PUSH13 0x9F5F151BCDFA0150AD844998F9 0xF6 PUSH5 0xE12FD5666A 0xBE 0xD6 0xB0 0x21 DIV "},"methodIdentifiers":{"ADMIN_ROLE()":"75b238fc","DEFAULT_ADMIN_ROLE()":"a217fddf","MODEL_CREATOR_ROLE()":"39b711f2","addModelCreator(address)":"12afeae2","creatorModels(address,uint256)":"c271f1bc","getModel(uint256)":"6d361694","getModelCount()":"4989dbb0","getModelsByCreator(address)":"408abc9f","getRoleAdmin(bytes32)":"248a9ca3","grantRole(bytes32,address)":"2f2ff15d","hasRole(bytes32,address)":"91d14854","modelNameExists(string)":"a8e215a8","modelStats(uint256)":"98d926d7","models(uint256)":"6a030ca9","recordModelUsage(uint256,address,address)":"2d8cf8ff","registerModel(string,string,string,string,string,string,uint256)":"7bf7c843","removeModelCreator(address)":"7f40f6f1","renounceRole(bytes32,address)":"36568abe","revokeRole(bytes32,address)":"d547741f","setModelStatus(uint256,bool)":"ddb4e00c","supportsInterface(bytes4)":"01ffc9a7","updateModel(uint256,string,string,string)":"7ba8ee47","updateModelFee(uint256,uint256)":"41c675b4"}}}}}