{"contracts/SilicaTreasury.sol":{"SilicaTreasury":{"abi":[{"inputs":[{"internalType":"address","name":"governor","type":"address"}],"stateMutability":"nonpayable","type":"constructor"},{"anonymous":false,"inputs":[{"indexed":true,"internalType":"address","name":"token","type":"address"},{"indexed":false,"internalType":"string","name":"name","type":"string"},{"indexed":false,"internalType":"string","name":"assetType","type":"string"}],"name":"AssetAdded","type":"event"},{"anonymous":false,"inputs":[{"indexed":true,"internalType":"address","name":"token","type":"address"},{"indexed":true,"internalType":"address","name":"from","type":"address"},{"indexed":false,"internalType":"uint256","name":"amount","type":"uint256"}],"name":"FundsDeposited","type":"event"},{"anonymous":false,"inputs":[{"indexed":true,"internalType":"address","name":"token","type":"address"},{"indexed":true,"internalType":"address","name":"to","type":"address"},{"indexed":false,"internalType":"uint256","name":"amount","type":"uint256"}],"name":"FundsWithdrawn","type":"event"},{"anonymous":false,"inputs":[{"indexed":true,"internalType":"address","name":"targetProtocol","type":"address"},{"indexed":true,"internalType":"address","name":"token","type":"address"},{"indexed":false,"internalType":"uint256","name":"amount","type":"uint256"},{"indexed":false,"internalType":"bytes","name":"data","type":"bytes"}],"name":"InvestmentExecuted","type":"event"},{"anonymous":false,"inputs":[{"indexed":true,"internalType":"bytes32","name":"role","type":"bytes32"},{"indexed":true,"internalType":"bytes32","name":"previousAdminRole","type":"bytes32"},{"indexed":true,"internalType":"bytes32","name":"newAdminRole","type":"bytes32"}],"name":"RoleAdminChanged","type":"event"},{"anonymous":false,"inputs":[{"indexed":true,"internalType":"bytes32","name":"role","type":"bytes32"},{"indexed":true,"internalType":"address","name":"account","type":"address"},{"indexed":true,"internalType":"address","name":"sender","type":"address"}],"name":"RoleGranted","type":"event"},{"anonymous":false,"inputs":[{"indexed":true,"internalType":"bytes32","name":"role","type":"bytes32"},{"indexed":true,"internalType":"address","name":"account","type":"address"},{"indexed":true,"internalType":"address","name":"sender","type":"address"}],"name":"RoleRevoked","type":"event"},{"inputs":[],"name":"AI_CONTROLLER_ROLE","outputs":[{"internalType":"bytes32","name":"","type":"bytes32"}],"stateMutability":"view","type":"function"},{"inputs":[],"name":"DEFAULT_ADMIN_ROLE","outputs":[{"internalType":"bytes32","name":"","type":"bytes32"}],"stateMutability":"view","type":"function"},{"inputs":[],"name":"GOVERNOR_ROLE","outputs":[{"internalType":"bytes32","name":"","type":"bytes32"}],"stateMutability":"view","type":"function"},{"inputs":[{"internalType":"address","name":"token","type":"address"},{"internalType":"string","name":"name","type":"string"},{"internalType":"string","name":"assetType","type":"string"}],"name":"addAsset","outputs":[],"stateMutability":"nonpayable","type":"function"},{"inputs":[{"internalType":"uint256","name":"","type":"uint256"}],"name":"assetList","outputs":[{"internalType":"address","name":"","type":"address"}],"stateMutability":"view","type":"function"},{"inputs":[{"internalType":"address","name":"","type":"address"}],"name":"assets","outputs":[{"internalType":"string","name":"name","type":"string"},{"internalType":"string","name":"assetType","type":"string"},{"internalType":"bool","name":"isActive","type":"bool"}],"stateMutability":"view","type":"function"},{"inputs":[{"internalType":"address","name":"token","type":"address"},{"internalType":"uint256","name":"amount","type":"uint256"}],"name":"depositFunds","outputs":[],"stateMutability":"nonpayable","type":"function"},{"inputs":[{"internalType":"address","name":"targetProtocol","type":"address"},{"internalType":"address","name":"token","type":"address"},{"internalType":"uint256","name":"amount","type":"uint256"},{"internalType":"bytes","name":"data","type":"bytes"}],"name":"executeInvestment","outputs":[{"internalType":"bool","name":"success","type":"bool"}],"stateMutability":"nonpayable","type":"function"},{"inputs":[],"name":"getAllAssets","outputs":[{"internalType":"address[]","name":"","type":"address[]"}],"stateMutability":"view","type":"function"},{"inputs":[{"internalType":"bytes32","name":"role","type":"bytes32"}],"name":"getRoleAdmin","outputs":[{"internalType":"bytes32","name":"","type":"bytes32"}],"stateMutability":"view","type":"function"},{"inputs":[{"internalType":"address","name":"token","type":"address"}],"name":"getTokenBalance","outputs":[{"internalType":"uint256","name":"","type":"uint256"}],"stateMutability":"view","type":"function"},{"inputs":[{"internalType":"bytes32","name":"role","type":"bytes32"},{"internalType":"address","name":"account","type":"address"}],"name":"grantRole","outputs":[],"stateMutability":"nonpayable","type":"function"},{"inputs":[{"internalType":"bytes32","name":"role","type":"bytes32"},{"internalType":"address","name":"account","type":"address"}],"name":"hasRole","outputs":[{"internalType":"bool","name":"","type":"bool"}],"stateMutability":"view","type":"function"},{"inputs":[{"internalType":"bytes32","name":"role","type":"bytes32"},{"internalType":"address","name":"account","type":"address"}],"name":"renounceRole","outputs":[],"stateMutability":"nonpayable","type":"function"},{"inputs":[{"internalType":"bytes32","name":"role","type":"bytes32"},{"internalType":"address","name":"account","type":"address"}],"name":"revokeRole","outputs":[],"stateMutability":"nonpayable","type":"function"},{"inputs":[{"internalType":"address","name":"controller","type":"address"}],"name":"setAIController","outputs":[],"stateMutability":"nonpayable","type":"function"},{"inputs":[{"internalType":"bytes4","name":"interfaceId","type":"bytes4"}],"name":"supportsInterface","outputs":[{"internalType":"bool","name":"","type":"bool"}],"stateMutability":"view","type":"function"},{"inputs":[{"internalType":"address","name":"token","type":"address"},{"internalType":"address","name":"to","type":"address"},{"internalType":"uint256","name":"amount","type":"uint256"}],"name":"withdrawFunds","outputs":[],"stateMutability":"nonpayable","type":"function"},{"stateMutability":"payable","type":"receive"}],"evm":{"bytecode":{"linkReferences":{},"object":"60803461008257601f6119ed38819003918201601f19168301916001600160401b038311848410176100875780849260209460405283398101031261008257516001600160a01b0381168103610082578061005c6100619261009d565b610114565b61006a3361009d565b61007333610114565b6040516117df90816101ae8239f35b600080fd5b634e487b7160e01b600052604160045260246000fd5b6001600160a01b03811660009081526000805160206119cd833981519152602052604090205460ff16156100ce5750565b6001600160a01b031660008181526000805160206119cd83398151915260205260408120805460ff1916600117905533919060008051602061198d8339815191528180a4565b6001600160a01b03811660009081526000805160206119ad833981519152602052604090205460ff16156101455750565b6001600160a01b031660008181526000805160206119ad83398151915260205260408120805460ff191660011790553391907f7935bd0ae54bc31f548c14dba4d37c5c64b3f8ca900cb468fb8abd54d5894f559060008051602061198d8339815191529080a456fe608080604052600436101561004b575b50361561001b57600080fd5b60405134815260007ff0d0e99cae184d0187b093b48894117462462379674a6e11d89c3fbb618e96b060203393a3005b60003560e01c90816301ffc9a714611012575080631c20fadd14610f6b578063248a9ca314610f365780632acada4d14610e6a5780632f2ff15d14610dae57806336568abe14610d1c5780633aecd0e314610c915780633fefa36914610a4d578063656ef02b1461079d57806366975a481461076257806391d1485414610715578063921b004b146106885780639c65707c14610285578063a0b4b30114610243578063a217fddf14610227578063ccc57490146101ec578063d547741f146101a55763f11b81881461011e573861000f565b346101a05760203660031901126101a0576001600160a01b0361013f611065565b16600052600160205261018660406000206101598161114c565b9061019460ff600261016d6001850161114c565b9301541691604051948594606086526060860190611213565b908482036020860152611213565b90151560408301520390f35b600080fd5b346101a05760403660031901126101a0576101ea6004356101c461107b565b906101e56101e082600052600060205260016040600020015490565b611367565b6113a5565b005b346101a05760003660031901126101a05760206040517f7935bd0ae54bc31f548c14dba4d37c5c64b3f8ca900cb468fb8abd54d5894f558152f35b346101a05760003660031901126101a057602060405160008152f35b346101a05760203660031901126101a0576004356002548110156101a05761026c6020916110bf565b905460405160039290921b1c6001600160a01b03168152f35b346101a05760603660031901126101a05761029e611065565b60243567ffffffffffffffff81116101a0576102be903690600401611091565b9060443567ffffffffffffffff81116101a0576102df903690600401611091565b9290936102ea6112f4565b6001600160a01b031660008181526001602052604090206002015490949060ff1661064c576040516060810181811067ffffffffffffffff8211176104b5576040526103373684866112bd565b81526103443686846112bd565b90602081019182526040810191600183528760005260016020526040600020915180519067ffffffffffffffff82116104b557819061038385546110f0565b601f81116105f9575b50602090601f831160011461059457600092610589575b50508160011b916000199060031b1c19161782555b518051600183019167ffffffffffffffff82116104b5576103d983546110f0565b601f8111610541575b50602090601f83116001146104d657600294939291600091836104cb575b50508160011b916000199060031b1c19161790555b019051151560ff8019835416911617905560025490680100000000000000008210156104b5577f9f1ffd7915fd0d97979cca0ac07b1048a70d2e76e98d1fdb62e5ad5759f7737b946104708360016104b095016002556110bf565b81546001600160a01b0360039290921b91821b19169089901b179055604080518181529586956104a29287019161129c565b91848303602086015261129c565b0390a2005b634e487b7160e01b600052604160045260246000fd5b015190508b80610400565b90601f1983169184600052816000209260005b818110610529575091600193918560029897969410610510575b505050811b019055610415565b015160001960f88460031b161c191690558b8080610503565b929360206001819287860151815501950193016104e9565b836000526020600020601f840160051c8101916020851061057f575b601f0160051c01905b81811061057357506103e2565b60008155600101610566565b909150819061055d565b015190508a806103a3565b60008681528281209350601f198516905b8181106105e157509084600195949392106105c8575b505050811b0182556103b8565b015160001960f88460031b161c191690558a80806105bb565b929360206001819287860151815501950193016105a5565b909150846000526020600020601f840160051c81019160208510610642575b90601f859493920160051c01905b818110610633575061038c565b60008155849350600101610626565b9091508190610618565b60405162461bcd60e51b8152602060048201526014602482015273417373657420616c72656164792065786973747360601b6044820152606490fd5b346101a05760403660031901126101a0576106a1611065565b6024359060018060a01b03166106e76040516323b872dd60e01b6020820152336024820152306044820152836064820152606481526106e160848261112a565b82611427565b6040519182527ff0d0e99cae184d0187b093b48894117462462379674a6e11d89c3fbb618e96b060203393a3005b346101a05760403660031901126101a05761072e61107b565b600435600052600060205260406000209060018060a01b0316600052602052602060ff604060002054166040519015158152f35b346101a05760003660031901126101a05760206040517fb0f8576b4ab6d387749a5acd70a6324b30741718c2a117c20e001efd848a4dd48152f35b346101a05760203660031901126101a0576107b6611065565b3360009081527fad3228b676f7d3cd4284a5443f17f1962b36e491b30a40b2405849e597ba5fb5602052604090205460ff161561098c576001600160a01b03811660009081527feae0d737dd2dbe3a654133e09c5ef4a4bc0a424ac8d5f2c497152e3ba2bc345b602052604090205460ff16156108fc575b6001600160a01b03811660009081527f6f3b488caa0dc03e5f3d9fd6a25fa8755afcfd62ccffb6e436c696bfa6b866de602052604090205460ff161561087057005b6001600160a01b031660008181527f6f3b488caa0dc03e5f3d9fd6a25fa8755afcfd62ccffb6e436c696bfa6b866de60205260408120805460ff191660011790553391907f7935bd0ae54bc31f548c14dba4d37c5c64b3f8ca900cb468fb8abd54d5894f55907f2f8788117e7eff1d82e926ec794901d17c78024a50270940304540a733656f0d9080a4005b6001600160a01b03811660008181527feae0d737dd2dbe3a654133e09c5ef4a4bc0a424ac8d5f2c497152e3ba2bc345b60205260408120805460ff191660011790553391907fb0f8576b4ab6d387749a5acd70a6324b30741718c2a117c20e001efd848a4dd4907f2f8788117e7eff1d82e926ec794901d17c78024a50270940304540a733656f0d9080a461082e565b610a4961099833611524565b610a2960116109a76000611664565b9260376040519485927f416363657373436f6e74726f6c3a206163636f756e742000000000000000000060208501526109e981518092602086880191016111f0565b83017001034b99036b4b9b9b4b733903937b6329607d1b83820152610a188251809360206048850191016111f0565b01010301601f19810183528261112a565b60405162461bcd60e51b8152602060048201529182916024830190611213565b0390fd5b346101a05760803660031901126101a057610a66611065565b610a6e61107b565b6044359160643567ffffffffffffffff81116101a057610a92903690600401611091565b3360009081527feae0d737dd2dbe3a654133e09c5ef4a4bc0a424ac8d5f2c497152e3ba2bc345b60205260409020549193909160ff1615610c575760405163095ea7b360e01b81526001600160a01b0384811660048301526024820187905291909116949060208160448160008a5af18015610be957610c3a575b506000806040518487823780858101838152039082875af1610b2d61126c565b5015610bf5576040519263095ea7b360e01b845260018060a01b0316938460048501526000602485015260208460448160008a5af1908115610be9577ff560a3c440125d5672576fd999ffe97832712358793f04ac3fed5bef7a66c92c94610bae92610bbc575b50604051938493845260406020850152604084019161129c565b0390a3602060405160018152f35b610bdd9060203d602011610be2575b610bd5818361112a565b810190611238565b610b94565b503d610bcb565b6040513d6000823e3d90fd5b60405162461bcd60e51b815260206004820152601b60248201527f496e766573746d656e7420657865637574696f6e206661696c656400000000006044820152606490fd5b610c529060203d602011610be257610bd5818361112a565b610b0d565b610a49610c6333611524565b610a2960116109a77fb0f8576b4ab6d387749a5acd70a6324b30741718c2a117c20e001efd848a4dd4611664565b346101a05760203660031901126101a057602460206001600160a01b03610cb6611065565b16604051928380926370a0823160e01b82523060048301525afa8015610be957600090610ce9575b602090604051908152f35b506020813d602011610d14575b81610d036020938361112a565b810103126101a05760209051610cde565b3d9150610cf6565b346101a05760403660031901126101a057610d3561107b565b336001600160a01b03821603610d51576101ea906004356113a5565b60405162461bcd60e51b815260206004820152602f60248201527f416363657373436f6e74726f6c3a2063616e206f6e6c792072656e6f756e636560448201526e103937b632b9903337b91039b2b63360891b6064820152608490fd5b346101a05760403660031901126101a057600435610dca61107b565b90610de66101e082600052600060205260016040600020015490565b6000818152602081815260408083206001600160a01b038616845290915290205460ff1615610e1157005b6000818152602081815260408083206001600160a01b0395909516808452949091528120805460ff19166001179055339291907f2f8788117e7eff1d82e926ec794901d17c78024a50270940304540a733656f0d9080a4005b346101a05760003660031901126101a0576040518060206002549283815201809260026000527f405787fa12a823e0f2b7631cc41b3ba8828b3321ca811111fa75cd3aa3bb5ace9060005b818110610f175750505081610ecb91038261112a565b6040519182916020830190602084525180915260408301919060005b818110610ef5575050500390f35b82516001600160a01b0316845285945060209384019390920191600101610ee7565b82546001600160a01b0316845260209093019260019283019201610eb5565b346101a05760203660031901126101a0576020610f63600435600052600060205260016040600020015490565b604051908152f35b346101a05760603660031901126101a057610f84611065565b610f8c61107b565b7fa92ff919b850e4909ab2261d907ef955f11bc1716733a6cbece38d163a69af8a602060443593610fbb6112f4565b60405163a9059cbb60e01b838201526001600160a01b03858116602483015260448083018890528252919091169390610fff90610ff960648261112a565b85611427565b6040519485526001600160a01b031693a3005b346101a05760203660031901126101a0576004359063ffffffff60e01b82168092036101a057602091637965db0b60e01b8114908115611054575b5015158152f35b6301ffc9a760e01b1490508361104d565b600435906001600160a01b03821682036101a057565b602435906001600160a01b03821682036101a057565b9181601f840112156101a05782359167ffffffffffffffff83116101a057602083818601950101116101a057565b6002548110156110da57600260005260206000200190600090565b634e487b7160e01b600052603260045260246000fd5b90600182811c92168015611120575b602083101461110a57565b634e487b7160e01b600052602260045260246000fd5b91607f16916110ff565b90601f8019910116810190811067ffffffffffffffff8211176104b557604052565b9060405191826000825492611160846110f0565b80845293600181169081156111ce5750600114611187575b506111859250038361112a565b565b90506000929192526020600020906000915b8183106111b25750509060206111859282010138611178565b6020919350806001915483858901015201910190918492611199565b90506020925061118594915060ff191682840152151560051b82010138611178565b60005b8381106112035750506000910152565b81810151838201526020016111f3565b9060209161122c815180928185528580860191016111f0565b601f01601f1916010190565b908160209103126101a0575180151581036101a05790565b67ffffffffffffffff81116104b557601f01601f191660200190565b3d15611297573d9061127d82611250565b9161128b604051938461112a565b82523d6000602084013e565b606090565b908060209392818452848401376000828201840152601f01601f1916010190565b9291926112c982611250565b916112d7604051938461112a565b8294818452818301116101a0578281602093846000960137010152565b3360009081527f6f3b488caa0dc03e5f3d9fd6a25fa8755afcfd62ccffb6e436c696bfa6b866de602052604090205460ff161561132d57565b610a4961133933611524565b610a2960116109a77f7935bd0ae54bc31f548c14dba4d37c5c64b3f8ca900cb468fb8abd54d5894f55611664565b60008181526020818152604080832033845290915290205460ff161561138a5750565b610a4990610a2960116109a761139f33611524565b93611664565b6000818152602081815260408083206001600160a01b038616845290915290205460ff166113d1575050565b6000818152602081815260408083206001600160a01b0395909516808452949091528120805460ff19169055339291907ff6391f5c32d9c69d2a47ea670b442974b53935d1edc7fd64eb21e047a839171b9080a4565b60408051909261148c926001600160a01b031690600090819061144a878661112a565b602085527f5361666545524332303a206c6f772d6c6576656c2063616c6c206661696c6564602086015260208151910182855af161148661126c565b91611710565b80519081159182156114f9575b5050156114a35750565b5162461bcd60e51b815260206004820152602a60248201527f5361666545524332303a204552433230206f7065726174696f6e20646964206e6044820152691bdd081cdd58d8d9595960b21b6064820152608490fd5b61150c9250602080918301019101611238565b3880611499565b9081518110156110da570160200190565b600090611531602a611250565b9161153f604051938461112a565b602a835261154d602a611250565b6020840190601f1901368237835115611650576030905382516001101561163c576078602184015350602960005b600182116115d057505061158c5790565b606460405162461bcd60e51b815260206004820152602060248201527f537472696e67733a20686578206c656e67746820696e73756666696369656e746044820152fd5b9091600f81166010811015611628576f181899199a1a9b1b9c1cb0b131b232b360811b901a6115ff8486611513565b5360041c91801561161457600019019061157b565b634e487b7160e01b82526011600452602482fd5b634e487b7160e01b83526032600452602483fd5b634e487b7160e01b81526032600452602490fd5b634e487b7160e01b82526032600452602482fd5b6000906116716042611250565b9161167f604051938461112a565b6042835261168d6042611250565b6020840190601f1901368237835115611650576030905382516001101561163c576078602184015350604160005b600182116116cc57505061158c5790565b9091600f81166010811015611628576f181899199a1a9b1b9c1cb0b131b232b360811b901a6116fb8486611513565b5360041c9180156116145760001901906116bb565b919290156117725750815115611724575090565b3b1561172d5790565b60405162461bcd60e51b815260206004820152601d60248201527f416464726573733a2063616c6c20746f206e6f6e2d636f6e74726163740000006044820152606490fd5b8251909150156117855750805190602001fd5b60405162461bcd60e51b815260206004820152908190610a4990602483019061121356fea2646970667358221220ed7f212688b727272bed6ef50d458661066431ace993beefb62aef81b599c99864736f6c634300081c00332f8788117e7eff1d82e926ec794901d17c78024a50270940304540a733656f0d6f3b488caa0dc03e5f3d9fd6a25fa8755afcfd62ccffb6e436c696bfa6b866dead3228b676f7d3cd4284a5443f17f1962b36e491b30a40b2405849e597ba5fb5","opcodes":"PUSH1 0x80 CALLVALUE PUSH2 0x82 JUMPI PUSH1 0x1F PUSH2 0x19ED CODESIZE DUP2 SWAP1 SUB SWAP2 DUP3 ADD PUSH1 0x1F NOT AND DUP4 ADD SWAP2 PUSH1 0x1 PUSH1 0x1 PUSH1 0x40 SHL SUB DUP4 GT DUP5 DUP5 LT OR PUSH2 0x87 JUMPI DUP1 DUP5 SWAP3 PUSH1 0x20 SWAP5 PUSH1 0x40 MSTORE DUP4 CODECOPY DUP2 ADD SUB SLT PUSH2 0x82 JUMPI MLOAD PUSH1 0x1 PUSH1 0x1 PUSH1 0xA0 SHL SUB DUP2 AND DUP2 SUB PUSH2 0x82 JUMPI DUP1 PUSH2 0x5C PUSH2 0x61 SWAP3 PUSH2 0x9D JUMP JUMPDEST PUSH2 0x114 JUMP JUMPDEST PUSH2 0x6A CALLER PUSH2 0x9D JUMP JUMPDEST PUSH2 0x73 CALLER PUSH2 0x114 JUMP JUMPDEST PUSH1 0x40 MLOAD PUSH2 0x17DF SWAP1 DUP2 PUSH2 0x1AE DUP3 CODECOPY RETURN JUMPDEST PUSH1 0x0 DUP1 REVERT JUMPDEST PUSH4 0x4E487B71 PUSH1 0xE0 SHL PUSH1 0x0 MSTORE PUSH1 0x41 PUSH1 0x4 MSTORE PUSH1 0x24 PUSH1 0x0 REVERT JUMPDEST PUSH1 0x1 PUSH1 0x1 PUSH1 0xA0 SHL SUB DUP2 AND PUSH1 0x0 SWAP1 DUP2 MSTORE PUSH1 0x0 DUP1 MLOAD PUSH1 0x20 PUSH2 0x19CD DUP4 CODECOPY DUP2 MLOAD SWAP2 MSTORE PUSH1 0x20 MSTORE PUSH1 0x40 SWAP1 KECCAK256 SLOAD PUSH1 0xFF AND ISZERO PUSH2 0xCE JUMPI POP JUMP JUMPDEST PUSH1 0x1 PUSH1 0x1 PUSH1 0xA0 SHL SUB AND PUSH1 0x0 DUP2 DUP2 MSTORE PUSH1 0x0 DUP1 MLOAD PUSH1 0x20 PUSH2 0x19CD DUP4 CODECOPY DUP2 MLOAD SWAP2 MSTORE PUSH1 0x20 MSTORE PUSH1 0x40 DUP2 KECCAK256 DUP1 SLOAD PUSH1 0xFF NOT AND PUSH1 0x1 OR SWAP1 SSTORE CALLER SWAP2 SWAP1 PUSH1 0x0 DUP1 MLOAD PUSH1 0x20 PUSH2 0x198D DUP4 CODECOPY DUP2 MLOAD SWAP2 MSTORE DUP2 DUP1 LOG4 JUMP JUMPDEST PUSH1 0x1 PUSH1 0x1 PUSH1 0xA0 SHL SUB DUP2 AND PUSH1 0x0 SWAP1 DUP2 MSTORE PUSH1 0x0 DUP1 MLOAD PUSH1 0x20 PUSH2 0x19AD DUP4 CODECOPY DUP2 MLOAD SWAP2 MSTORE PUSH1 0x20 MSTORE PUSH1 0x40 SWAP1 KECCAK256 SLOAD PUSH1 0xFF AND ISZERO PUSH2 0x145 JUMPI POP JUMP JUMPDEST PUSH1 0x1 PUSH1 0x1 PUSH1 0xA0 SHL SUB AND PUSH1 0x0 DUP2 DUP2 MSTORE PUSH1 0x0 DUP1 MLOAD PUSH1 0x20 PUSH2 0x19AD DUP4 CODECOPY DUP2 MLOAD SWAP2 MSTORE PUSH1 0x20 MSTORE PUSH1 0x40 DUP2 KECCAK256 DUP1 SLOAD PUSH1 0xFF NOT AND PUSH1 0x1 OR SWAP1 SSTORE CALLER SWAP2 SWAP1 PUSH32 0x7935BD0AE54BC31F548C14DBA4D37C5C64B3F8CA900CB468FB8ABD54D5894F55 SWAP1 PUSH1 0x0 DUP1 MLOAD PUSH1 0x20 PUSH2 0x198D DUP4 CODECOPY DUP2 MLOAD SWAP2 MSTORE SWAP1 DUP1 LOG4 JUMP INVALID PUSH1 0x80 DUP1 PUSH1 0x40 MSTORE PUSH1 0x4 CALLDATASIZE LT ISZERO PUSH2 0x4B JUMPI JUMPDEST POP CALLDATASIZE ISZERO PUSH2 0x1B JUMPI PUSH1 0x0 DUP1 REVERT JUMPDEST PUSH1 0x40 MLOAD CALLVALUE DUP2 MSTORE PUSH1 0x0 PUSH32 0xF0D0E99CAE184D0187B093B48894117462462379674A6E11D89C3FBB618E96B0 PUSH1 0x20 CALLER SWAP4 LOG3 STOP JUMPDEST PUSH1 0x0 CALLDATALOAD PUSH1 0xE0 SHR SWAP1 DUP2 PUSH4 0x1FFC9A7 EQ PUSH2 0x1012 JUMPI POP DUP1 PUSH4 0x1C20FADD EQ PUSH2 0xF6B JUMPI DUP1 PUSH4 0x248A9CA3 EQ PUSH2 0xF36 JUMPI DUP1 PUSH4 0x2ACADA4D EQ PUSH2 0xE6A JUMPI DUP1 PUSH4 0x2F2FF15D EQ PUSH2 0xDAE JUMPI DUP1 PUSH4 0x36568ABE EQ PUSH2 0xD1C JUMPI DUP1 PUSH4 0x3AECD0E3 EQ PUSH2 0xC91 JUMPI DUP1 PUSH4 0x3FEFA369 EQ PUSH2 0xA4D JUMPI DUP1 PUSH4 0x656EF02B EQ PUSH2 0x79D JUMPI DUP1 PUSH4 0x66975A48 EQ PUSH2 0x762 JUMPI DUP1 PUSH4 0x91D14854 EQ PUSH2 0x715 JUMPI DUP1 PUSH4 0x921B004B EQ PUSH2 0x688 JUMPI DUP1 PUSH4 0x9C65707C EQ PUSH2 0x285 JUMPI DUP1 PUSH4 0xA0B4B301 EQ PUSH2 0x243 JUMPI DUP1 PUSH4 0xA217FDDF EQ PUSH2 0x227 JUMPI DUP1 PUSH4 0xCCC57490 EQ PUSH2 0x1EC JUMPI DUP1 PUSH4 0xD547741F EQ PUSH2 0x1A5 JUMPI PUSH4 0xF11B8188 EQ PUSH2 0x11E JUMPI CODESIZE PUSH2 0xF JUMP JUMPDEST CALLVALUE PUSH2 0x1A0 JUMPI PUSH1 0x20 CALLDATASIZE PUSH1 0x3 NOT ADD SLT PUSH2 0x1A0 JUMPI PUSH1 0x1 PUSH1 0x1 PUSH1 0xA0 SHL SUB PUSH2 0x13F PUSH2 0x1065 JUMP JUMPDEST AND PUSH1 0x0 MSTORE PUSH1 0x1 PUSH1 0x20 MSTORE PUSH2 0x186 PUSH1 0x40 PUSH1 0x0 KECCAK256 PUSH2 0x159 DUP2 PUSH2 0x114C JUMP JUMPDEST SWAP1 PUSH2 0x194 PUSH1 0xFF PUSH1 0x2 PUSH2 0x16D PUSH1 0x1 DUP6 ADD PUSH2 0x114C JUMP JUMPDEST SWAP4 ADD SLOAD AND SWAP2 PUSH1 0x40 MLOAD SWAP5 DUP6 SWAP5 PUSH1 0x60 DUP7 MSTORE PUSH1 0x60 DUP7 ADD SWAP1 PUSH2 0x1213 JUMP JUMPDEST SWAP1 DUP5 DUP3 SUB PUSH1 0x20 DUP7 ADD MSTORE PUSH2 0x1213 JUMP JUMPDEST SWAP1 ISZERO ISZERO PUSH1 0x40 DUP4 ADD MSTORE SUB SWAP1 RETURN JUMPDEST PUSH1 0x0 DUP1 REVERT JUMPDEST CALLVALUE PUSH2 0x1A0 JUMPI PUSH1 0x40 CALLDATASIZE PUSH1 0x3 NOT ADD SLT PUSH2 0x1A0 JUMPI PUSH2 0x1EA PUSH1 0x4 CALLDATALOAD PUSH2 0x1C4 PUSH2 0x107B JUMP JUMPDEST SWAP1 PUSH2 0x1E5 PUSH2 0x1E0 DUP3 PUSH1 0x0 MSTORE PUSH1 0x0 PUSH1 0x20 MSTORE PUSH1 0x1 PUSH1 0x40 PUSH1 0x0 KECCAK256 ADD SLOAD SWAP1 JUMP JUMPDEST PUSH2 0x1367 JUMP JUMPDEST PUSH2 0x13A5 JUMP JUMPDEST STOP JUMPDEST CALLVALUE PUSH2 0x1A0 JUMPI PUSH1 0x0 CALLDATASIZE PUSH1 0x3 NOT ADD SLT PUSH2 0x1A0 JUMPI PUSH1 0x20 PUSH1 0x40 MLOAD PUSH32 0x7935BD0AE54BC31F548C14DBA4D37C5C64B3F8CA900CB468FB8ABD54D5894F55 DUP2 MSTORE RETURN JUMPDEST CALLVALUE PUSH2 0x1A0 JUMPI PUSH1 0x0 CALLDATASIZE PUSH1 0x3 NOT ADD SLT PUSH2 0x1A0 JUMPI PUSH1 0x20 PUSH1 0x40 MLOAD PUSH1 0x0 DUP2 MSTORE RETURN JUMPDEST CALLVALUE PUSH2 0x1A0 JUMPI PUSH1 0x20 CALLDATASIZE PUSH1 0x3 NOT ADD SLT PUSH2 0x1A0 JUMPI PUSH1 0x4 CALLDATALOAD PUSH1 0x2 SLOAD DUP2 LT ISZERO PUSH2 0x1A0 JUMPI PUSH2 0x26C PUSH1 0x20 SWAP2 PUSH2 0x10BF JUMP JUMPDEST SWAP1 SLOAD PUSH1 0x40 MLOAD PUSH1 0x3 SWAP3 SWAP1 SWAP3 SHL SHR PUSH1 0x1 PUSH1 0x1 PUSH1 0xA0 SHL SUB AND DUP2 MSTORE RETURN JUMPDEST CALLVALUE PUSH2 0x1A0 JUMPI PUSH1 0x60 CALLDATASIZE PUSH1 0x3 NOT ADD SLT PUSH2 0x1A0 JUMPI PUSH2 0x29E PUSH2 0x1065 JUMP JUMPDEST PUSH1 0x24 CALLDATALOAD PUSH8 0xFFFFFFFFFFFFFFFF DUP2 GT PUSH2 0x1A0 JUMPI PUSH2 0x2BE SWAP1 CALLDATASIZE SWAP1 PUSH1 0x4 ADD PUSH2 0x1091 JUMP JUMPDEST SWAP1 PUSH1 0x44 CALLDATALOAD PUSH8 0xFFFFFFFFFFFFFFFF DUP2 GT PUSH2 0x1A0 JUMPI PUSH2 0x2DF SWAP1 CALLDATASIZE SWAP1 PUSH1 0x4 ADD PUSH2 0x1091 JUMP JUMPDEST SWAP3 SWAP1 SWAP4 PUSH2 0x2EA PUSH2 0x12F4 JUMP JUMPDEST PUSH1 0x1 PUSH1 0x1 PUSH1 0xA0 SHL SUB AND PUSH1 0x0 DUP2 DUP2 MSTORE PUSH1 0x1 PUSH1 0x20 MSTORE PUSH1 0x40 SWAP1 KECCAK256 PUSH1 0x2 ADD SLOAD SWAP1 SWAP5 SWAP1 PUSH1 0xFF AND PUSH2 0x64C JUMPI PUSH1 0x40 MLOAD PUSH1 0x60 DUP2 ADD DUP2 DUP2 LT PUSH8 0xFFFFFFFFFFFFFFFF DUP3 GT OR PUSH2 0x4B5 JUMPI PUSH1 0x40 MSTORE PUSH2 0x337 CALLDATASIZE DUP5 DUP7 PUSH2 0x12BD JUMP JUMPDEST DUP2 MSTORE PUSH2 0x344 CALLDATASIZE DUP7 DUP5 PUSH2 0x12BD JUMP JUMPDEST SWAP1 PUSH1 0x20 DUP2 ADD SWAP2 DUP3 MSTORE PUSH1 0x40 DUP2 ADD SWAP2 PUSH1 0x1 DUP4 MSTORE DUP8 PUSH1 0x0 MSTORE PUSH1 0x1 PUSH1 0x20 MSTORE PUSH1 0x40 PUSH1 0x0 KECCAK256 SWAP2 MLOAD DUP1 MLOAD SWAP1 PUSH8 0xFFFFFFFFFFFFFFFF DUP3 GT PUSH2 0x4B5 JUMPI DUP2 SWAP1 PUSH2 0x383 DUP6 SLOAD PUSH2 0x10F0 JUMP JUMPDEST PUSH1 0x1F DUP2 GT PUSH2 0x5F9 JUMPI JUMPDEST POP PUSH1 0x20 SWAP1 PUSH1 0x1F DUP4 GT PUSH1 0x1 EQ PUSH2 0x594 JUMPI PUSH1 0x0 SWAP3 PUSH2 0x589 JUMPI JUMPDEST POP POP DUP2 PUSH1 0x1 SHL SWAP2 PUSH1 0x0 NOT SWAP1 PUSH1 0x3 SHL SHR NOT AND OR DUP3 SSTORE JUMPDEST MLOAD DUP1 MLOAD PUSH1 0x1 DUP4 ADD SWAP2 PUSH8 0xFFFFFFFFFFFFFFFF DUP3 GT PUSH2 0x4B5 JUMPI PUSH2 0x3D9 DUP4 SLOAD PUSH2 0x10F0 JUMP JUMPDEST PUSH1 0x1F DUP2 GT PUSH2 0x541 JUMPI JUMPDEST POP PUSH1 0x20 SWAP1 PUSH1 0x1F DUP4 GT PUSH1 0x1 EQ PUSH2 0x4D6 JUMPI PUSH1 0x2 SWAP5 SWAP4 SWAP3 SWAP2 PUSH1 0x0 SWAP2 DUP4 PUSH2 0x4CB JUMPI JUMPDEST POP POP DUP2 PUSH1 0x1 SHL SWAP2 PUSH1 0x0 NOT SWAP1 PUSH1 0x3 SHL SHR NOT AND OR SWAP1 SSTORE JUMPDEST ADD SWAP1 MLOAD ISZERO ISZERO PUSH1 0xFF DUP1 NOT DUP4 SLOAD AND SWAP2 AND OR SWAP1 SSTORE PUSH1 0x2 SLOAD SWAP1 PUSH9 0x10000000000000000 DUP3 LT ISZERO PUSH2 0x4B5 JUMPI PUSH32 0x9F1FFD7915FD0D97979CCA0AC07B1048A70D2E76E98D1FDB62E5AD5759F7737B SWAP5 PUSH2 0x470 DUP4 PUSH1 0x1 PUSH2 0x4B0 SWAP6 ADD PUSH1 0x2 SSTORE PUSH2 0x10BF JUMP JUMPDEST DUP2 SLOAD PUSH1 0x1 PUSH1 0x1 PUSH1 0xA0 SHL SUB PUSH1 0x3 SWAP3 SWAP1 SWAP3 SHL SWAP2 DUP3 SHL NOT AND SWAP1 DUP10 SWAP1 SHL OR SWAP1 SSTORE PUSH1 0x40 DUP1 MLOAD DUP2 DUP2 MSTORE SWAP6 DUP7 SWAP6 PUSH2 0x4A2 SWAP3 DUP8 ADD SWAP2 PUSH2 0x129C JUMP JUMPDEST SWAP2 DUP5 DUP4 SUB PUSH1 0x20 DUP7 ADD MSTORE PUSH2 0x129C JUMP JUMPDEST SUB SWAP1 LOG2 STOP JUMPDEST PUSH4 0x4E487B71 PUSH1 0xE0 SHL PUSH1 0x0 MSTORE PUSH1 0x41 PUSH1 0x4 MSTORE PUSH1 0x24 PUSH1 0x0 REVERT JUMPDEST ADD MLOAD SWAP1 POP DUP12 DUP1 PUSH2 0x400 JUMP JUMPDEST SWAP1 PUSH1 0x1F NOT DUP4 AND SWAP2 DUP5 PUSH1 0x0 MSTORE DUP2 PUSH1 0x0 KECCAK256 SWAP3 PUSH1 0x0 JUMPDEST DUP2 DUP2 LT PUSH2 0x529 JUMPI POP SWAP2 PUSH1 0x1 SWAP4 SWAP2 DUP6 PUSH1 0x2 SWAP9 SWAP8 SWAP7 SWAP5 LT PUSH2 0x510 JUMPI JUMPDEST POP POP POP DUP2 SHL ADD SWAP1 SSTORE PUSH2 0x415 JUMP JUMPDEST ADD MLOAD PUSH1 0x0 NOT PUSH1 0xF8 DUP5 PUSH1 0x3 SHL AND SHR NOT AND SWAP1 SSTORE DUP12 DUP1 DUP1 PUSH2 0x503 JUMP JUMPDEST SWAP3 SWAP4 PUSH1 0x20 PUSH1 0x1 DUP2 SWAP3 DUP8 DUP7 ADD MLOAD DUP2 SSTORE ADD SWAP6 ADD SWAP4 ADD PUSH2 0x4E9 JUMP JUMPDEST DUP4 PUSH1 0x0 MSTORE PUSH1 0x20 PUSH1 0x0 KECCAK256 PUSH1 0x1F DUP5 ADD PUSH1 0x5 SHR DUP2 ADD SWAP2 PUSH1 0x20 DUP6 LT PUSH2 0x57F JUMPI JUMPDEST PUSH1 0x1F ADD PUSH1 0x5 SHR ADD SWAP1 JUMPDEST DUP2 DUP2 LT PUSH2 0x573 JUMPI POP PUSH2 0x3E2 JUMP JUMPDEST PUSH1 0x0 DUP2 SSTORE PUSH1 0x1 ADD PUSH2 0x566 JUMP JUMPDEST SWAP1 SWAP2 POP DUP2 SWAP1 PUSH2 0x55D JUMP JUMPDEST ADD MLOAD SWAP1 POP DUP11 DUP1 PUSH2 0x3A3 JUMP JUMPDEST PUSH1 0x0 DUP7 DUP2 MSTORE DUP3 DUP2 KECCAK256 SWAP4 POP PUSH1 0x1F NOT DUP6 AND SWAP1 JUMPDEST DUP2 DUP2 LT PUSH2 0x5E1 JUMPI POP SWAP1 DUP5 PUSH1 0x1 SWAP6 SWAP5 SWAP4 SWAP3 LT PUSH2 0x5C8 JUMPI JUMPDEST POP POP POP DUP2 SHL ADD DUP3 SSTORE PUSH2 0x3B8 JUMP JUMPDEST ADD MLOAD PUSH1 0x0 NOT PUSH1 0xF8 DUP5 PUSH1 0x3 SHL AND SHR NOT AND SWAP1 SSTORE DUP11 DUP1 DUP1 PUSH2 0x5BB JUMP JUMPDEST SWAP3 SWAP4 PUSH1 0x20 PUSH1 0x1 DUP2 SWAP3 DUP8 DUP7 ADD MLOAD DUP2 SSTORE ADD SWAP6 ADD SWAP4 ADD PUSH2 0x5A5 JUMP JUMPDEST SWAP1 SWAP2 POP DUP5 PUSH1 0x0 MSTORE PUSH1 0x20 PUSH1 0x0 KECCAK256 PUSH1 0x1F DUP5 ADD PUSH1 0x5 SHR DUP2 ADD SWAP2 PUSH1 0x20 DUP6 LT PUSH2 0x642 JUMPI JUMPDEST SWAP1 PUSH1 0x1F DUP6 SWAP5 SWAP4 SWAP3 ADD PUSH1 0x5 SHR ADD SWAP1 JUMPDEST DUP2 DUP2 LT PUSH2 0x633 JUMPI POP PUSH2 0x38C JUMP JUMPDEST PUSH1 0x0 DUP2 SSTORE DUP5 SWAP4 POP PUSH1 0x1 ADD PUSH2 0x626 JUMP JUMPDEST SWAP1 SWAP2 POP DUP2 SWAP1 PUSH2 0x618 JUMP JUMPDEST PUSH1 0x40 MLOAD PUSH3 0x461BCD PUSH1 0xE5 SHL DUP2 MSTORE PUSH1 0x20 PUSH1 0x4 DUP3 ADD MSTORE PUSH1 0x14 PUSH1 0x24 DUP3 ADD MSTORE PUSH20 0x417373657420616C726561647920657869737473 PUSH1 0x60 SHL PUSH1 0x44 DUP3 ADD MSTORE PUSH1 0x64 SWAP1 REVERT JUMPDEST CALLVALUE PUSH2 0x1A0 JUMPI PUSH1 0x40 CALLDATASIZE PUSH1 0x3 NOT ADD SLT PUSH2 0x1A0 JUMPI PUSH2 0x6A1 PUSH2 0x1065 JUMP JUMPDEST PUSH1 0x24 CALLDATALOAD SWAP1 PUSH1 0x1 DUP1 PUSH1 0xA0 SHL SUB AND PUSH2 0x6E7 PUSH1 0x40 MLOAD PUSH4 0x23B872DD PUSH1 0xE0 SHL PUSH1 0x20 DUP3 ADD MSTORE CALLER PUSH1 0x24 DUP3 ADD MSTORE ADDRESS PUSH1 0x44 DUP3 ADD MSTORE DUP4 PUSH1 0x64 DUP3 ADD MSTORE PUSH1 0x64 DUP2 MSTORE PUSH2 0x6E1 PUSH1 0x84 DUP3 PUSH2 0x112A JUMP JUMPDEST DUP3 PUSH2 0x1427 JUMP JUMPDEST PUSH1 0x40 MLOAD SWAP2 DUP3 MSTORE PUSH32 0xF0D0E99CAE184D0187B093B48894117462462379674A6E11D89C3FBB618E96B0 PUSH1 0x20 CALLER SWAP4 LOG3 STOP JUMPDEST CALLVALUE PUSH2 0x1A0 JUMPI PUSH1 0x40 CALLDATASIZE PUSH1 0x3 NOT ADD SLT PUSH2 0x1A0 JUMPI PUSH2 0x72E PUSH2 0x107B JUMP JUMPDEST PUSH1 0x4 CALLDATALOAD PUSH1 0x0 MSTORE PUSH1 0x0 PUSH1 0x20 MSTORE PUSH1 0x40 PUSH1 0x0 KECCAK256 SWAP1 PUSH1 0x1 DUP1 PUSH1 0xA0 SHL SUB AND PUSH1 0x0 MSTORE PUSH1 0x20 MSTORE PUSH1 0x20 PUSH1 0xFF PUSH1 0x40 PUSH1 0x0 KECCAK256 SLOAD AND PUSH1 0x40 MLOAD SWAP1 ISZERO ISZERO DUP2 MSTORE RETURN JUMPDEST CALLVALUE PUSH2 0x1A0 JUMPI PUSH1 0x0 CALLDATASIZE PUSH1 0x3 NOT ADD SLT PUSH2 0x1A0 JUMPI PUSH1 0x20 PUSH1 0x40 MLOAD PUSH32 0xB0F8576B4AB6D387749A5ACD70A6324B30741718C2A117C20E001EFD848A4DD4 DUP2 MSTORE RETURN JUMPDEST CALLVALUE PUSH2 0x1A0 JUMPI PUSH1 0x20 CALLDATASIZE PUSH1 0x3 NOT ADD SLT PUSH2 0x1A0 JUMPI PUSH2 0x7B6 PUSH2 0x1065 JUMP JUMPDEST CALLER PUSH1 0x0 SWAP1 DUP2 MSTORE PUSH32 0xAD3228B676F7D3CD4284A5443F17F1962B36E491B30A40B2405849E597BA5FB5 PUSH1 0x20 MSTORE PUSH1 0x40 SWAP1 KECCAK256 SLOAD PUSH1 0xFF AND ISZERO PUSH2 0x98C JUMPI PUSH1 0x1 PUSH1 0x1 PUSH1 0xA0 SHL SUB DUP2 AND PUSH1 0x0 SWAP1 DUP2 MSTORE PUSH32 0xEAE0D737DD2DBE3A654133E09C5EF4A4BC0A424AC8D5F2C497152E3BA2BC345B PUSH1 0x20 MSTORE PUSH1 0x40 SWAP1 KECCAK256 SLOAD PUSH1 0xFF AND ISZERO PUSH2 0x8FC JUMPI JUMPDEST PUSH1 0x1 PUSH1 0x1 PUSH1 0xA0 SHL SUB DUP2 AND PUSH1 0x0 SWAP1 DUP2 MSTORE PUSH32 0x6F3B488CAA0DC03E5F3D9FD6A25FA8755AFCFD62CCFFB6E436C696BFA6B866DE PUSH1 0x20 MSTORE PUSH1 0x40 SWAP1 KECCAK256 SLOAD PUSH1 0xFF AND ISZERO PUSH2 0x870 JUMPI STOP JUMPDEST PUSH1 0x1 PUSH1 0x1 PUSH1 0xA0 SHL SUB AND PUSH1 0x0 DUP2 DUP2 MSTORE PUSH32 0x6F3B488CAA0DC03E5F3D9FD6A25FA8755AFCFD62CCFFB6E436C696BFA6B866DE PUSH1 0x20 MSTORE PUSH1 0x40 DUP2 KECCAK256 DUP1 SLOAD PUSH1 0xFF NOT AND PUSH1 0x1 OR SWAP1 SSTORE CALLER SWAP2 SWAP1 PUSH32 0x7935BD0AE54BC31F548C14DBA4D37C5C64B3F8CA900CB468FB8ABD54D5894F55 SWAP1 PUSH32 0x2F8788117E7EFF1D82E926EC794901D17C78024A50270940304540A733656F0D SWAP1 DUP1 LOG4 STOP JUMPDEST PUSH1 0x1 PUSH1 0x1 PUSH1 0xA0 SHL SUB DUP2 AND PUSH1 0x0 DUP2 DUP2 MSTORE PUSH32 0xEAE0D737DD2DBE3A654133E09C5EF4A4BC0A424AC8D5F2C497152E3BA2BC345B PUSH1 0x20 MSTORE PUSH1 0x40 DUP2 KECCAK256 DUP1 SLOAD PUSH1 0xFF NOT AND PUSH1 0x1 OR SWAP1 SSTORE CALLER SWAP2 SWAP1 PUSH32 0xB0F8576B4AB6D387749A5ACD70A6324B30741718C2A117C20E001EFD848A4DD4 SWAP1 PUSH32 0x2F8788117E7EFF1D82E926EC794901D17C78024A50270940304540A733656F0D SWAP1 DUP1 LOG4 PUSH2 0x82E JUMP JUMPDEST PUSH2 0xA49 PUSH2 0x998 CALLER PUSH2 0x1524 JUMP JUMPDEST PUSH2 0xA29 PUSH1 0x11 PUSH2 0x9A7 PUSH1 0x0 PUSH2 0x1664 JUMP JUMPDEST SWAP3 PUSH1 0x37 PUSH1 0x40 MLOAD SWAP5 DUP6 SWAP3 PUSH32 0x416363657373436F6E74726F6C3A206163636F756E7420000000000000000000 PUSH1 0x20 DUP6 ADD MSTORE PUSH2 0x9E9 DUP2 MLOAD DUP1 SWAP3 PUSH1 0x20 DUP7 DUP9 ADD SWAP2 ADD PUSH2 0x11F0 JUMP JUMPDEST DUP4 ADD PUSH17 0x1034B99036B4B9B9B4B733903937B6329 PUSH1 0x7D SHL DUP4 DUP3 ADD MSTORE PUSH2 0xA18 DUP3 MLOAD DUP1 SWAP4 PUSH1 0x20 PUSH1 0x48 DUP6 ADD SWAP2 ADD PUSH2 0x11F0 JUMP JUMPDEST ADD ADD SUB ADD PUSH1 0x1F NOT DUP2 ADD DUP4 MSTORE DUP3 PUSH2 0x112A JUMP JUMPDEST PUSH1 0x40 MLOAD PUSH3 0x461BCD PUSH1 0xE5 SHL DUP2 MSTORE PUSH1 0x20 PUSH1 0x4 DUP3 ADD MSTORE SWAP2 DUP3 SWAP2 PUSH1 0x24 DUP4 ADD SWAP1 PUSH2 0x1213 JUMP JUMPDEST SUB SWAP1 REVERT JUMPDEST CALLVALUE PUSH2 0x1A0 JUMPI PUSH1 0x80 CALLDATASIZE PUSH1 0x3 NOT ADD SLT PUSH2 0x1A0 JUMPI PUSH2 0xA66 PUSH2 0x1065 JUMP JUMPDEST PUSH2 0xA6E PUSH2 0x107B JUMP JUMPDEST PUSH1 0x44 CALLDATALOAD SWAP2 PUSH1 0x64 CALLDATALOAD PUSH8 0xFFFFFFFFFFFFFFFF DUP2 GT PUSH2 0x1A0 JUMPI PUSH2 0xA92 SWAP1 CALLDATASIZE SWAP1 PUSH1 0x4 ADD PUSH2 0x1091 JUMP JUMPDEST CALLER PUSH1 0x0 SWAP1 DUP2 MSTORE PUSH32 0xEAE0D737DD2DBE3A654133E09C5EF4A4BC0A424AC8D5F2C497152E3BA2BC345B PUSH1 0x20 MSTORE PUSH1 0x40 SWAP1 KECCAK256 SLOAD SWAP2 SWAP4 SWAP1 SWAP2 PUSH1 0xFF AND ISZERO PUSH2 0xC57 JUMPI PUSH1 0x40 MLOAD PUSH4 0x95EA7B3 PUSH1 0xE0 SHL DUP2 MSTORE PUSH1 0x1 PUSH1 0x1 PUSH1 0xA0 SHL SUB DUP5 DUP2 AND PUSH1 0x4 DUP4 ADD MSTORE PUSH1 0x24 DUP3 ADD DUP8 SWAP1 MSTORE SWAP2 SWAP1 SWAP2 AND SWAP5 SWAP1 PUSH1 0x20 DUP2 PUSH1 0x44 DUP2 PUSH1 0x0 DUP11 GAS CALL DUP1 ISZERO PUSH2 0xBE9 JUMPI PUSH2 0xC3A JUMPI JUMPDEST POP PUSH1 0x0 DUP1 PUSH1 0x40 MLOAD DUP5 DUP8 DUP3 CALLDATACOPY DUP1 DUP6 DUP2 ADD DUP4 DUP2 MSTORE SUB SWAP1 DUP3 DUP8 GAS CALL PUSH2 0xB2D PUSH2 0x126C JUMP JUMPDEST POP ISZERO PUSH2 0xBF5 JUMPI PUSH1 0x40 MLOAD SWAP3 PUSH4 0x95EA7B3 PUSH1 0xE0 SHL DUP5 MSTORE PUSH1 0x1 DUP1 PUSH1 0xA0 SHL SUB AND SWAP4 DUP5 PUSH1 0x4 DUP6 ADD MSTORE PUSH1 0x0 PUSH1 0x24 DUP6 ADD MSTORE PUSH1 0x20 DUP5 PUSH1 0x44 DUP2 PUSH1 0x0 DUP11 GAS CALL SWAP1 DUP2 ISZERO PUSH2 0xBE9 JUMPI PUSH32 0xF560A3C440125D5672576FD999FFE97832712358793F04AC3FED5BEF7A66C92C SWAP5 PUSH2 0xBAE SWAP3 PUSH2 0xBBC JUMPI JUMPDEST POP PUSH1 0x40 MLOAD SWAP4 DUP5 SWAP4 DUP5 MSTORE PUSH1 0x40 PUSH1 0x20 DUP6 ADD MSTORE PUSH1 0x40 DUP5 ADD SWAP2 PUSH2 0x129C JUMP JUMPDEST SUB SWAP1 LOG3 PUSH1 0x20 PUSH1 0x40 MLOAD PUSH1 0x1 DUP2 MSTORE RETURN JUMPDEST PUSH2 0xBDD SWAP1 PUSH1 0x20 RETURNDATASIZE PUSH1 0x20 GT PUSH2 0xBE2 JUMPI JUMPDEST PUSH2 0xBD5 DUP2 DUP4 PUSH2 0x112A JUMP JUMPDEST DUP2 ADD SWAP1 PUSH2 0x1238 JUMP JUMPDEST PUSH2 0xB94 JUMP JUMPDEST POP RETURNDATASIZE PUSH2 0xBCB JUMP JUMPDEST PUSH1 0x40 MLOAD RETURNDATASIZE PUSH1 0x0 DUP3 RETURNDATACOPY RETURNDATASIZE SWAP1 REVERT JUMPDEST PUSH1 0x40 MLOAD PUSH3 0x461BCD PUSH1 0xE5 SHL DUP2 MSTORE PUSH1 0x20 PUSH1 0x4 DUP3 ADD MSTORE PUSH1 0x1B PUSH1 0x24 DUP3 ADD MSTORE PUSH32 0x496E766573746D656E7420657865637574696F6E206661696C65640000000000 PUSH1 0x44 DUP3 ADD MSTORE PUSH1 0x64 SWAP1 REVERT JUMPDEST PUSH2 0xC52 SWAP1 PUSH1 0x20 RETURNDATASIZE PUSH1 0x20 GT PUSH2 0xBE2 JUMPI PUSH2 0xBD5 DUP2 DUP4 PUSH2 0x112A JUMP JUMPDEST PUSH2 0xB0D JUMP JUMPDEST PUSH2 0xA49 PUSH2 0xC63 CALLER PUSH2 0x1524 JUMP JUMPDEST PUSH2 0xA29 PUSH1 0x11 PUSH2 0x9A7 PUSH32 0xB0F8576B4AB6D387749A5ACD70A6324B30741718C2A117C20E001EFD848A4DD4 PUSH2 0x1664 JUMP JUMPDEST CALLVALUE PUSH2 0x1A0 JUMPI PUSH1 0x20 CALLDATASIZE PUSH1 0x3 NOT ADD SLT PUSH2 0x1A0 JUMPI PUSH1 0x24 PUSH1 0x20 PUSH1 0x1 PUSH1 0x1 PUSH1 0xA0 SHL SUB PUSH2 0xCB6 PUSH2 0x1065 JUMP JUMPDEST AND PUSH1 0x40 MLOAD SWAP3 DUP4 DUP1 SWAP3 PUSH4 0x70A08231 PUSH1 0xE0 SHL DUP3 MSTORE ADDRESS PUSH1 0x4 DUP4 ADD MSTORE GAS STATICCALL DUP1 ISZERO PUSH2 0xBE9 JUMPI PUSH1 0x0 SWAP1 PUSH2 0xCE9 JUMPI JUMPDEST PUSH1 0x20 SWAP1 PUSH1 0x40 MLOAD SWAP1 DUP2 MSTORE RETURN JUMPDEST POP PUSH1 0x20 DUP2 RETURNDATASIZE PUSH1 0x20 GT PUSH2 0xD14 JUMPI JUMPDEST DUP2 PUSH2 0xD03 PUSH1 0x20 SWAP4 DUP4 PUSH2 0x112A JUMP JUMPDEST DUP2 ADD SUB SLT PUSH2 0x1A0 JUMPI PUSH1 0x20 SWAP1 MLOAD PUSH2 0xCDE JUMP JUMPDEST RETURNDATASIZE SWAP2 POP PUSH2 0xCF6 JUMP JUMPDEST CALLVALUE PUSH2 0x1A0 JUMPI PUSH1 0x40 CALLDATASIZE PUSH1 0x3 NOT ADD SLT PUSH2 0x1A0 JUMPI PUSH2 0xD35 PUSH2 0x107B JUMP JUMPDEST CALLER PUSH1 0x1 PUSH1 0x1 PUSH1 0xA0 SHL SUB DUP3 AND SUB PUSH2 0xD51 JUMPI PUSH2 0x1EA SWAP1 PUSH1 0x4 CALLDATALOAD PUSH2 0x13A5 JUMP JUMPDEST PUSH1 0x40 MLOAD PUSH3 0x461BCD PUSH1 0xE5 SHL DUP2 MSTORE PUSH1 0x20 PUSH1 0x4 DUP3 ADD MSTORE PUSH1 0x2F PUSH1 0x24 DUP3 ADD MSTORE PUSH32 0x416363657373436F6E74726F6C3A2063616E206F6E6C792072656E6F756E6365 PUSH1 0x44 DUP3 ADD MSTORE PUSH15 0x103937B632B9903337B91039B2B633 PUSH1 0x89 SHL PUSH1 0x64 DUP3 ADD MSTORE PUSH1 0x84 SWAP1 REVERT JUMPDEST CALLVALUE PUSH2 0x1A0 JUMPI PUSH1 0x40 CALLDATASIZE PUSH1 0x3 NOT ADD SLT PUSH2 0x1A0 JUMPI PUSH1 0x4 CALLDATALOAD PUSH2 0xDCA PUSH2 0x107B JUMP JUMPDEST SWAP1 PUSH2 0xDE6 PUSH2 0x1E0 DUP3 PUSH1 0x0 MSTORE PUSH1 0x0 PUSH1 0x20 MSTORE PUSH1 0x1 PUSH1 0x40 PUSH1 0x0 KECCAK256 ADD SLOAD SWAP1 JUMP JUMPDEST PUSH1 0x0 DUP2 DUP2 MSTORE PUSH1 0x20 DUP2 DUP2 MSTORE PUSH1 0x40 DUP1 DUP4 KECCAK256 PUSH1 0x1 PUSH1 0x1 PUSH1 0xA0 SHL SUB DUP7 AND DUP5 MSTORE SWAP1 SWAP2 MSTORE SWAP1 KECCAK256 SLOAD PUSH1 0xFF AND ISZERO PUSH2 0xE11 JUMPI STOP JUMPDEST PUSH1 0x0 DUP2 DUP2 MSTORE PUSH1 0x20 DUP2 DUP2 MSTORE PUSH1 0x40 DUP1 DUP4 KECCAK256 PUSH1 0x1 PUSH1 0x1 PUSH1 0xA0 SHL SUB SWAP6 SWAP1 SWAP6 AND DUP1 DUP5 MSTORE SWAP5 SWAP1 SWAP2 MSTORE DUP2 KECCAK256 DUP1 SLOAD PUSH1 0xFF NOT AND PUSH1 0x1 OR SWAP1 SSTORE CALLER SWAP3 SWAP2 SWAP1 PUSH32 0x2F8788117E7EFF1D82E926EC794901D17C78024A50270940304540A733656F0D SWAP1 DUP1 LOG4 STOP JUMPDEST CALLVALUE PUSH2 0x1A0 JUMPI PUSH1 0x0 CALLDATASIZE PUSH1 0x3 NOT ADD SLT PUSH2 0x1A0 JUMPI PUSH1 0x40 MLOAD DUP1 PUSH1 0x20 PUSH1 0x2 SLOAD SWAP3 DUP4 DUP2 MSTORE ADD DUP1 SWAP3 PUSH1 0x2 PUSH1 0x0 MSTORE PUSH32 0x405787FA12A823E0F2B7631CC41B3BA8828B3321CA811111FA75CD3AA3BB5ACE SWAP1 PUSH1 0x0 JUMPDEST DUP2 DUP2 LT PUSH2 0xF17 JUMPI POP POP POP DUP2 PUSH2 0xECB SWAP2 SUB DUP3 PUSH2 0x112A JUMP JUMPDEST PUSH1 0x40 MLOAD SWAP2 DUP3 SWAP2 PUSH1 0x20 DUP4 ADD SWAP1 PUSH1 0x20 DUP5 MSTORE MLOAD DUP1 SWAP2 MSTORE PUSH1 0x40 DUP4 ADD SWAP2 SWAP1 PUSH1 0x0 JUMPDEST DUP2 DUP2 LT PUSH2 0xEF5 JUMPI POP POP POP SUB SWAP1 RETURN JUMPDEST DUP3 MLOAD PUSH1 0x1 PUSH1 0x1 PUSH1 0xA0 SHL SUB AND DUP5 MSTORE DUP6 SWAP5 POP PUSH1 0x20 SWAP4 DUP5 ADD SWAP4 SWAP1 SWAP3 ADD SWAP2 PUSH1 0x1 ADD PUSH2 0xEE7 JUMP JUMPDEST DUP3 SLOAD PUSH1 0x1 PUSH1 0x1 PUSH1 0xA0 SHL SUB AND DUP5 MSTORE PUSH1 0x20 SWAP1 SWAP4 ADD SWAP3 PUSH1 0x1 SWAP3 DUP4 ADD SWAP3 ADD PUSH2 0xEB5 JUMP JUMPDEST CALLVALUE PUSH2 0x1A0 JUMPI PUSH1 0x20 CALLDATASIZE PUSH1 0x3 NOT ADD SLT PUSH2 0x1A0 JUMPI PUSH1 0x20 PUSH2 0xF63 PUSH1 0x4 CALLDATALOAD PUSH1 0x0 MSTORE PUSH1 0x0 PUSH1 0x20 MSTORE PUSH1 0x1 PUSH1 0x40 PUSH1 0x0 KECCAK256 ADD SLOAD SWAP1 JUMP JUMPDEST PUSH1 0x40 MLOAD SWAP1 DUP2 MSTORE RETURN JUMPDEST CALLVALUE PUSH2 0x1A0 JUMPI PUSH1 0x60 CALLDATASIZE PUSH1 0x3 NOT ADD SLT PUSH2 0x1A0 JUMPI PUSH2 0xF84 PUSH2 0x1065 JUMP JUMPDEST PUSH2 0xF8C PUSH2 0x107B JUMP JUMPDEST PUSH32 0xA92FF919B850E4909AB2261D907EF955F11BC1716733A6CBECE38D163A69AF8A PUSH1 0x20 PUSH1 0x44 CALLDATALOAD SWAP4 PUSH2 0xFBB PUSH2 0x12F4 JUMP JUMPDEST PUSH1 0x40 MLOAD PUSH4 0xA9059CBB PUSH1 0xE0 SHL DUP4 DUP3 ADD MSTORE PUSH1 0x1 PUSH1 0x1 PUSH1 0xA0 SHL SUB DUP6 DUP2 AND PUSH1 0x24 DUP4 ADD MSTORE PUSH1 0x44 DUP1 DUP4 ADD DUP9 SWAP1 MSTORE DUP3 MSTORE SWAP2 SWAP1 SWAP2 AND SWAP4 SWAP1 PUSH2 0xFFF SWAP1 PUSH2 0xFF9 PUSH1 0x64 DUP3 PUSH2 0x112A JUMP JUMPDEST DUP6 PUSH2 0x1427 JUMP JUMPDEST PUSH1 0x40 MLOAD SWAP5 DUP6 MSTORE PUSH1 0x1 PUSH1 0x1 PUSH1 0xA0 SHL SUB AND SWAP4 LOG3 STOP JUMPDEST CALLVALUE PUSH2 0x1A0 JUMPI PUSH1 0x20 CALLDATASIZE PUSH1 0x3 NOT ADD SLT PUSH2 0x1A0 JUMPI PUSH1 0x4 CALLDATALOAD SWAP1 PUSH4 0xFFFFFFFF PUSH1 0xE0 SHL DUP3 AND DUP1 SWAP3 SUB PUSH2 0x1A0 JUMPI PUSH1 0x20 SWAP2 PUSH4 0x7965DB0B PUSH1 0xE0 SHL DUP2 EQ SWAP1 DUP2 ISZERO PUSH2 0x1054 JUMPI JUMPDEST POP ISZERO ISZERO DUP2 MSTORE RETURN JUMPDEST PUSH4 0x1FFC9A7 PUSH1 0xE0 SHL EQ SWAP1 POP DUP4 PUSH2 0x104D JUMP JUMPDEST PUSH1 0x4 CALLDATALOAD SWAP1 PUSH1 0x1 PUSH1 0x1 PUSH1 0xA0 SHL SUB DUP3 AND DUP3 SUB PUSH2 0x1A0 JUMPI JUMP JUMPDEST PUSH1 0x24 CALLDATALOAD SWAP1 PUSH1 0x1 PUSH1 0x1 PUSH1 0xA0 SHL SUB DUP3 AND DUP3 SUB PUSH2 0x1A0 JUMPI JUMP JUMPDEST SWAP2 DUP2 PUSH1 0x1F DUP5 ADD SLT ISZERO PUSH2 0x1A0 JUMPI DUP3 CALLDATALOAD SWAP2 PUSH8 0xFFFFFFFFFFFFFFFF DUP4 GT PUSH2 0x1A0 JUMPI PUSH1 0x20 DUP4 DUP2 DUP7 ADD SWAP6 ADD ADD GT PUSH2 0x1A0 JUMPI JUMP JUMPDEST PUSH1 0x2 SLOAD DUP2 LT ISZERO PUSH2 0x10DA JUMPI PUSH1 0x2 PUSH1 0x0 MSTORE PUSH1 0x20 PUSH1 0x0 KECCAK256 ADD SWAP1 PUSH1 0x0 SWAP1 JUMP JUMPDEST PUSH4 0x4E487B71 PUSH1 0xE0 SHL PUSH1 0x0 MSTORE PUSH1 0x32 PUSH1 0x4 MSTORE PUSH1 0x24 PUSH1 0x0 REVERT JUMPDEST SWAP1 PUSH1 0x1 DUP3 DUP2 SHR SWAP3 AND DUP1 ISZERO PUSH2 0x1120 JUMPI JUMPDEST PUSH1 0x20 DUP4 LT EQ PUSH2 0x110A JUMPI JUMP JUMPDEST PUSH4 0x4E487B71 PUSH1 0xE0 SHL PUSH1 0x0 MSTORE PUSH1 0x22 PUSH1 0x4 MSTORE PUSH1 0x24 PUSH1 0x0 REVERT JUMPDEST SWAP2 PUSH1 0x7F AND SWAP2 PUSH2 0x10FF JUMP JUMPDEST SWAP1 PUSH1 0x1F DUP1 NOT SWAP2 ADD AND DUP2 ADD SWAP1 DUP2 LT PUSH8 0xFFFFFFFFFFFFFFFF DUP3 GT OR PUSH2 0x4B5 JUMPI PUSH1 0x40 MSTORE JUMP JUMPDEST SWAP1 PUSH1 0x40 MLOAD SWAP2 DUP3 PUSH1 0x0 DUP3 SLOAD SWAP3 PUSH2 0x1160 DUP5 PUSH2 0x10F0 JUMP JUMPDEST DUP1 DUP5 MSTORE SWAP4 PUSH1 0x1 DUP2 AND SWAP1 DUP2 ISZERO PUSH2 0x11CE JUMPI POP PUSH1 0x1 EQ PUSH2 0x1187 JUMPI JUMPDEST POP PUSH2 0x1185 SWAP3 POP SUB DUP4 PUSH2 0x112A JUMP JUMPDEST JUMP JUMPDEST SWAP1 POP PUSH1 0x0 SWAP3 SWAP2 SWAP3 MSTORE PUSH1 0x20 PUSH1 0x0 KECCAK256 SWAP1 PUSH1 0x0 SWAP2 JUMPDEST DUP2 DUP4 LT PUSH2 0x11B2 JUMPI POP POP SWAP1 PUSH1 0x20 PUSH2 0x1185 SWAP3 DUP3 ADD ADD CODESIZE PUSH2 0x1178 JUMP JUMPDEST PUSH1 0x20 SWAP2 SWAP4 POP DUP1 PUSH1 0x1 SWAP2 SLOAD DUP4 DUP6 DUP10 ADD ADD MSTORE ADD SWAP2 ADD SWAP1 SWAP2 DUP5 SWAP3 PUSH2 0x1199 JUMP JUMPDEST SWAP1 POP PUSH1 0x20 SWAP3 POP PUSH2 0x1185 SWAP5 SWAP2 POP PUSH1 0xFF NOT AND DUP3 DUP5 ADD MSTORE ISZERO ISZERO PUSH1 0x5 SHL DUP3 ADD ADD CODESIZE PUSH2 0x1178 JUMP JUMPDEST PUSH1 0x0 JUMPDEST DUP4 DUP2 LT PUSH2 0x1203 JUMPI POP POP PUSH1 0x0 SWAP2 ADD MSTORE JUMP JUMPDEST DUP2 DUP2 ADD MLOAD DUP4 DUP3 ADD MSTORE PUSH1 0x20 ADD PUSH2 0x11F3 JUMP JUMPDEST SWAP1 PUSH1 0x20 SWAP2 PUSH2 0x122C DUP2 MLOAD DUP1 SWAP3 DUP2 DUP6 MSTORE DUP6 DUP1 DUP7 ADD SWAP2 ADD PUSH2 0x11F0 JUMP JUMPDEST PUSH1 0x1F ADD PUSH1 0x1F NOT AND ADD ADD SWAP1 JUMP JUMPDEST SWAP1 DUP2 PUSH1 0x20 SWAP2 SUB SLT PUSH2 0x1A0 JUMPI MLOAD DUP1 ISZERO ISZERO DUP2 SUB PUSH2 0x1A0 JUMPI SWAP1 JUMP JUMPDEST PUSH8 0xFFFFFFFFFFFFFFFF DUP2 GT PUSH2 0x4B5 JUMPI PUSH1 0x1F ADD PUSH1 0x1F NOT AND PUSH1 0x20 ADD SWAP1 JUMP JUMPDEST RETURNDATASIZE ISZERO PUSH2 0x1297 JUMPI RETURNDATASIZE SWAP1 PUSH2 0x127D DUP3 PUSH2 0x1250 JUMP JUMPDEST SWAP2 PUSH2 0x128B PUSH1 0x40 MLOAD SWAP4 DUP5 PUSH2 0x112A JUMP JUMPDEST DUP3 MSTORE RETURNDATASIZE PUSH1 0x0 PUSH1 0x20 DUP5 ADD RETURNDATACOPY JUMP JUMPDEST PUSH1 0x60 SWAP1 JUMP JUMPDEST SWAP1 DUP1 PUSH1 0x20 SWAP4 SWAP3 DUP2 DUP5 MSTORE DUP5 DUP5 ADD CALLDATACOPY PUSH1 0x0 DUP3 DUP3 ADD DUP5 ADD MSTORE PUSH1 0x1F ADD PUSH1 0x1F NOT AND ADD ADD SWAP1 JUMP JUMPDEST SWAP3 SWAP2 SWAP3 PUSH2 0x12C9 DUP3 PUSH2 0x1250 JUMP JUMPDEST SWAP2 PUSH2 0x12D7 PUSH1 0x40 MLOAD SWAP4 DUP5 PUSH2 0x112A JUMP JUMPDEST DUP3 SWAP5 DUP2 DUP5 MSTORE DUP2 DUP4 ADD GT PUSH2 0x1A0 JUMPI DUP3 DUP2 PUSH1 0x20 SWAP4 DUP5 PUSH1 0x0 SWAP7 ADD CALLDATACOPY ADD ADD MSTORE JUMP JUMPDEST CALLER PUSH1 0x0 SWAP1 DUP2 MSTORE PUSH32 0x6F3B488CAA0DC03E5F3D9FD6A25FA8755AFCFD62CCFFB6E436C696BFA6B866DE PUSH1 0x20 MSTORE PUSH1 0x40 SWAP1 KECCAK256 SLOAD PUSH1 0xFF AND ISZERO PUSH2 0x132D JUMPI JUMP JUMPDEST PUSH2 0xA49 PUSH2 0x1339 CALLER PUSH2 0x1524 JUMP JUMPDEST PUSH2 0xA29 PUSH1 0x11 PUSH2 0x9A7 PUSH32 0x7935BD0AE54BC31F548C14DBA4D37C5C64B3F8CA900CB468FB8ABD54D5894F55 PUSH2 0x1664 JUMP JUMPDEST PUSH1 0x0 DUP2 DUP2 MSTORE PUSH1 0x20 DUP2 DUP2 MSTORE PUSH1 0x40 DUP1 DUP4 KECCAK256 CALLER DUP5 MSTORE SWAP1 SWAP2 MSTORE SWAP1 KECCAK256 SLOAD PUSH1 0xFF AND ISZERO PUSH2 0x138A JUMPI POP JUMP JUMPDEST PUSH2 0xA49 SWAP1 PUSH2 0xA29 PUSH1 0x11 PUSH2 0x9A7 PUSH2 0x139F CALLER PUSH2 0x1524 JUMP JUMPDEST SWAP4 PUSH2 0x1664 JUMP JUMPDEST PUSH1 0x0 DUP2 DUP2 MSTORE PUSH1 0x20 DUP2 DUP2 MSTORE PUSH1 0x40 DUP1 DUP4 KECCAK256 PUSH1 0x1 PUSH1 0x1 PUSH1 0xA0 SHL SUB DUP7 AND DUP5 MSTORE SWAP1 SWAP2 MSTORE SWAP1 KECCAK256 SLOAD PUSH1 0xFF AND PUSH2 0x13D1 JUMPI POP POP JUMP JUMPDEST PUSH1 0x0 DUP2 DUP2 MSTORE PUSH1 0x20 DUP2 DUP2 MSTORE PUSH1 0x40 DUP1 DUP4 KECCAK256 PUSH1 0x1 PUSH1 0x1 PUSH1 0xA0 SHL SUB SWAP6 SWAP1 SWAP6 AND DUP1 DUP5 MSTORE SWAP5 SWAP1 SWAP2 MSTORE DUP2 KECCAK256 DUP1 SLOAD PUSH1 0xFF NOT AND SWAP1 SSTORE CALLER SWAP3 SWAP2 SWAP1 PUSH32 0xF6391F5C32D9C69D2A47EA670B442974B53935D1EDC7FD64EB21E047A839171B SWAP1 DUP1 LOG4 JUMP JUMPDEST PUSH1 0x40 DUP1 MLOAD SWAP1 SWAP3 PUSH2 0x148C SWAP3 PUSH1 0x1 PUSH1 0x1 PUSH1 0xA0 SHL SUB AND SWAP1 PUSH1 0x0 SWAP1 DUP2 SWAP1 PUSH2 0x144A DUP8 DUP7 PUSH2 0x112A JUMP JUMPDEST PUSH1 0x20 DUP6 MSTORE PUSH32 0x5361666545524332303A206C6F772D6C6576656C2063616C6C206661696C6564 PUSH1 0x20 DUP7 ADD MSTORE PUSH1 0x20 DUP2 MLOAD SWAP2 ADD DUP3 DUP6 GAS CALL PUSH2 0x1486 PUSH2 0x126C JUMP JUMPDEST SWAP2 PUSH2 0x1710 JUMP JUMPDEST DUP1 MLOAD SWAP1 DUP2 ISZERO SWAP2 DUP3 ISZERO PUSH2 0x14F9 JUMPI JUMPDEST POP POP ISZERO PUSH2 0x14A3 JUMPI POP JUMP JUMPDEST MLOAD PUSH3 0x461BCD PUSH1 0xE5 SHL DUP2 MSTORE PUSH1 0x20 PUSH1 0x4 DUP3 ADD MSTORE PUSH1 0x2A PUSH1 0x24 DUP3 ADD MSTORE PUSH32 0x5361666545524332303A204552433230206F7065726174696F6E20646964206E PUSH1 0x44 DUP3 ADD MSTORE PUSH10 0x1BDD081CDD58D8D95959 PUSH1 0xB2 SHL PUSH1 0x64 DUP3 ADD MSTORE PUSH1 0x84 SWAP1 REVERT JUMPDEST PUSH2 0x150C SWAP3 POP PUSH1 0x20 DUP1 SWAP2 DUP4 ADD ADD SWAP2 ADD PUSH2 0x1238 JUMP JUMPDEST CODESIZE DUP1 PUSH2 0x1499 JUMP JUMPDEST SWAP1 DUP2 MLOAD DUP2 LT ISZERO PUSH2 0x10DA JUMPI ADD PUSH1 0x20 ADD SWAP1 JUMP JUMPDEST PUSH1 0x0 SWAP1 PUSH2 0x1531 PUSH1 0x2A PUSH2 0x1250 JUMP JUMPDEST SWAP2 PUSH2 0x153F PUSH1 0x40 MLOAD SWAP4 DUP5 PUSH2 0x112A JUMP JUMPDEST PUSH1 0x2A DUP4 MSTORE PUSH2 0x154D PUSH1 0x2A PUSH2 0x1250 JUMP JUMPDEST PUSH1 0x20 DUP5 ADD SWAP1 PUSH1 0x1F NOT ADD CALLDATASIZE DUP3 CALLDATACOPY DUP4 MLOAD ISZERO PUSH2 0x1650 JUMPI PUSH1 0x30 SWAP1 MSTORE8 DUP3 MLOAD PUSH1 0x1 LT ISZERO PUSH2 0x163C JUMPI PUSH1 0x78 PUSH1 0x21 DUP5 ADD MSTORE8 POP PUSH1 0x29 PUSH1 0x0 JUMPDEST PUSH1 0x1 DUP3 GT PUSH2 0x15D0 JUMPI POP POP PUSH2 0x158C JUMPI SWAP1 JUMP JUMPDEST PUSH1 0x64 PUSH1 0x40 MLOAD PUSH3 0x461BCD PUSH1 0xE5 SHL DUP2 MSTORE PUSH1 0x20 PUSH1 0x4 DUP3 ADD MSTORE PUSH1 0x20 PUSH1 0x24 DUP3 ADD MSTORE PUSH32 0x537472696E67733A20686578206C656E67746820696E73756666696369656E74 PUSH1 0x44 DUP3 ADD MSTORE REVERT JUMPDEST SWAP1 SWAP2 PUSH1 0xF DUP2 AND PUSH1 0x10 DUP2 LT ISZERO PUSH2 0x1628 JUMPI PUSH16 0x181899199A1A9B1B9C1CB0B131B232B3 PUSH1 0x81 SHL SWAP1 BYTE PUSH2 0x15FF DUP5 DUP7 PUSH2 0x1513 JUMP JUMPDEST MSTORE8 PUSH1 0x4 SHR SWAP2 DUP1 ISZERO PUSH2 0x1614 JUMPI PUSH1 0x0 NOT ADD SWAP1 PUSH2 0x157B JUMP JUMPDEST PUSH4 0x4E487B71 PUSH1 0xE0 SHL DUP3 MSTORE PUSH1 0x11 PUSH1 0x4 MSTORE PUSH1 0x24 DUP3 REVERT JUMPDEST PUSH4 0x4E487B71 PUSH1 0xE0 SHL DUP4 MSTORE PUSH1 0x32 PUSH1 0x4 MSTORE PUSH1 0x24 DUP4 REVERT JUMPDEST PUSH4 0x4E487B71 PUSH1 0xE0 SHL DUP2 MSTORE PUSH1 0x32 PUSH1 0x4 MSTORE PUSH1 0x24 SWAP1 REVERT JUMPDEST PUSH4 0x4E487B71 PUSH1 0xE0 SHL DUP3 MSTORE PUSH1 0x32 PUSH1 0x4 MSTORE PUSH1 0x24 DUP3 REVERT JUMPDEST PUSH1 0x0 SWAP1 PUSH2 0x1671 PUSH1 0x42 PUSH2 0x1250 JUMP JUMPDEST SWAP2 PUSH2 0x167F PUSH1 0x40 MLOAD SWAP4 DUP5 PUSH2 0x112A JUMP JUMPDEST PUSH1 0x42 DUP4 MSTORE PUSH2 0x168D PUSH1 0x42 PUSH2 0x1250 JUMP JUMPDEST PUSH1 0x20 DUP5 ADD SWAP1 PUSH1 0x1F NOT ADD CALLDATASIZE DUP3 CALLDATACOPY DUP4 MLOAD ISZERO PUSH2 0x1650 JUMPI PUSH1 0x30 SWAP1 MSTORE8 DUP3 MLOAD PUSH1 0x1 LT ISZERO PUSH2 0x163C JUMPI PUSH1 0x78 PUSH1 0x21 DUP5 ADD MSTORE8 POP PUSH1 0x41 PUSH1 0x0 JUMPDEST PUSH1 0x1 DUP3 GT PUSH2 0x16CC JUMPI POP POP PUSH2 0x158C JUMPI SWAP1 JUMP JUMPDEST SWAP1 SWAP2 PUSH1 0xF DUP2 AND PUSH1 0x10 DUP2 LT ISZERO PUSH2 0x1628 JUMPI PUSH16 0x181899199A1A9B1B9C1CB0B131B232B3 PUSH1 0x81 SHL SWAP1 BYTE PUSH2 0x16FB DUP5 DUP7 PUSH2 0x1513 JUMP JUMPDEST MSTORE8 PUSH1 0x4 SHR SWAP2 DUP1 ISZERO PUSH2 0x1614 JUMPI PUSH1 0x0 NOT ADD SWAP1 PUSH2 0x16BB JUMP JUMPDEST SWAP2 SWAP3 SWAP1 ISZERO PUSH2 0x1772 JUMPI POP DUP2 MLOAD ISZERO PUSH2 0x1724 JUMPI POP SWAP1 JUMP JUMPDEST EXTCODESIZE ISZERO PUSH2 0x172D JUMPI SWAP1 JUMP JUMPDEST PUSH1 0x40 MLOAD PUSH3 0x461BCD PUSH1 0xE5 SHL DUP2 MSTORE PUSH1 0x20 PUSH1 0x4 DUP3 ADD MSTORE PUSH1 0x1D PUSH1 0x24 DUP3 ADD MSTORE PUSH32 0x416464726573733A2063616C6C20746F206E6F6E2D636F6E7472616374000000 PUSH1 0x44 DUP3 ADD MSTORE PUSH1 0x64 SWAP1 REVERT JUMPDEST DUP3 MLOAD SWAP1 SWAP2 POP ISZERO PUSH2 0x1785 JUMPI POP DUP1 MLOAD SWAP1 PUSH1 0x20 ADD REVERT JUMPDEST PUSH1 0x40 MLOAD PUSH3 0x461BCD PUSH1 0xE5 SHL DUP2 MSTORE PUSH1 0x20 PUSH1 0x4 DUP3 ADD MSTORE SWAP1 DUP2 SWAP1 PUSH2 0xA49 SWAP1 PUSH1 0x24 DUP4 ADD SWAP1 PUSH2 0x1213 JUMP INVALID LOG2 PUSH5 0x6970667358 0x22 SLT KECCAK256 0xED PUSH32 0x212688B727272BED6EF50D458661066431ACE993BEEFB62AEF81B599C9986473 PUSH16 0x6C634300081C00332F8788117E7EFF1D DUP3 0xE9 0x26 0xEC PUSH26 0x4901D17C78024A50270940304540A733656F0D6F3B488CAA0DC0 RETURNDATACOPY PUSH0 RETURNDATASIZE SWAP16 0xD6 LOG2 PUSH0 0xA8 PUSH22 0x5AFCFD62CCFFB6E436C696BFA6B866DEAD3228B676F7 0xD3 0xCD TIMESTAMP DUP5 0xA5 PREVRANDAO EXTCODEHASH OR CALL SWAP7 0x2B CALLDATASIZE 0xE4 SWAP2 0xB3 EXP BLOCKHASH 0xB2 BLOCKHASH PC BLOBHASH 0xE5 SWAP8 0xBA PUSH0 0xB5 "},"methodIdentifiers":{"AI_CONTROLLER_ROLE()":"66975a48","DEFAULT_ADMIN_ROLE()":"a217fddf","GOVERNOR_ROLE()":"ccc57490","addAsset(address,string,string)":"9c65707c","assetList(uint256)":"a0b4b301","assets(address)":"f11b8188","depositFunds(address,uint256)":"921b004b","executeInvestment(address,address,uint256,bytes)":"3fefa369","getAllAssets()":"2acada4d","getRoleAdmin(bytes32)":"248a9ca3","getTokenBalance(address)":"3aecd0e3","grantRole(bytes32,address)":"2f2ff15d","hasRole(bytes32,address)":"91d14854","renounceRole(bytes32,address)":"36568abe","revokeRole(bytes32,address)":"d547741f","setAIController(address)":"656ef02b","supportsInterface(bytes4)":"01ffc9a7","withdrawFunds(address,address,uint256)":"1c20fadd"}}}}}