{
  "_format": "hh-sol-artifact-1",
  "contractName": "SilicaGovernor",
  "sourceName": "contracts/SilicaGovernor.sol",
  "abi": [
    {
      "inputs": [
        {
          "internalType": "contract IVotes",
          "name": "_token",
          "type": "address"
        },
        {
          "internalType": "contract TimelockController",
          "name": "_timelock",
          "type": "address"
        },
        {
          "internalType": "uint256",
          "name": "_votingDelay",
          "type": "uint256"
        },
        {
          "internalType": "uint256",
          "name": "_votingPeriod",
          "type": "uint256"
        },
        {
          "internalType": "uint256",
          "name": "_quorumPercentage",
          "type": "uint256"
        }
      ],
      "stateMutability": "nonpayable",
      "type": "constructor"
    },
    {
      "inputs": [],
      "name": "Empty",
      "type": "error"
    },
    {
      "inputs": [],
      "name": "InvalidShortString",
      "type": "error"
    },
    {
      "inputs": [
        {
          "internalType": "string",
          "name": "str",
          "type": "string"
        }
      ],
      "name": "StringTooLong",
      "type": "error"
    },
    {
      "anonymous": false,
      "inputs": [],
      "name": "EIP712DomainChanged",
      "type": "event"
    },
    {
      "anonymous": false,
      "inputs": [
        {
          "indexed": false,
          "internalType": "uint256",
          "name": "proposalId",
          "type": "uint256"
        }
      ],
      "name": "ProposalCanceled",
      "type": "event"
    },
    {
      "anonymous": false,
      "inputs": [
        {
          "indexed": false,
          "internalType": "uint256",
          "name": "proposalId",
          "type": "uint256"
        },
        {
          "indexed": false,
          "internalType": "address",
          "name": "proposer",
          "type": "address"
        },
        {
          "indexed": false,
          "internalType": "address[]",
          "name": "targets",
          "type": "address[]"
        },
        {
          "indexed": false,
          "internalType": "uint256[]",
          "name": "values",
          "type": "uint256[]"
        },
        {
          "indexed": false,
          "internalType": "string[]",
          "name": "signatures",
          "type": "string[]"
        },
        {
          "indexed": false,
          "internalType": "bytes[]",
          "name": "calldatas",
          "type": "bytes[]"
        },
        {
          "indexed": false,
          "internalType": "uint256",
          "name": "voteStart",
          "type": "uint256"
        },
        {
          "indexed": false,
          "internalType": "uint256",
          "name": "voteEnd",
          "type": "uint256"
        },
        {
          "indexed": false,
          "internalType": "string",
          "name": "description",
          "type": "string"
        }
      ],
      "name": "ProposalCreated",
      "type": "event"
    },
    {
      "anonymous": false,
      "inputs": [
        {
          "indexed": false,
          "internalType": "uint256",
          "name": "proposalId",
          "type": "uint256"
        }
      ],
      "name": "ProposalExecuted",
      "type": "event"
    },
    {
      "anonymous": false,
      "inputs": [
        {
          "indexed": false,
          "internalType": "uint256",
          "name": "proposalId",
          "type": "uint256"
        },
        {
          "indexed": false,
          "internalType": "uint256",
          "name": "eta",
          "type": "uint256"
        }
      ],
      "name": "ProposalQueued",
      "type": "event"
    },
    {
      "anonymous": false,
      "inputs": [
        {
          "indexed": false,
          "internalType": "uint256",
          "name": "oldProposalThreshold",
          "type": "uint256"
        },
        {
          "indexed": false,
          "internalType": "uint256",
          "name": "newProposalThreshold",
          "type": "uint256"
        }
      ],
      "name": "ProposalThresholdSet",
      "type": "event"
    },
    {
      "anonymous": false,
      "inputs": [
        {
          "indexed": false,
          "internalType": "uint256",
          "name": "oldQuorumNumerator",
          "type": "uint256"
        },
        {
          "indexed": false,
          "internalType": "uint256",
          "name": "newQuorumNumerator",
          "type": "uint256"
        }
      ],
      "name": "QuorumNumeratorUpdated",
      "type": "event"
    },
    {
      "anonymous": false,
      "inputs": [
        {
          "indexed": false,
          "internalType": "address",
          "name": "oldTimelock",
          "type": "address"
        },
        {
          "indexed": false,
          "internalType": "address",
          "name": "newTimelock",
          "type": "address"
        }
      ],
      "name": "TimelockChange",
      "type": "event"
    },
    {
      "anonymous": false,
      "inputs": [
        {
          "indexed": true,
          "internalType": "address",
          "name": "voter",
          "type": "address"
        },
        {
          "indexed": false,
          "internalType": "uint256",
          "name": "proposalId",
          "type": "uint256"
        },
        {
          "indexed": false,
          "internalType": "uint8",
          "name": "support",
          "type": "uint8"
        },
        {
          "indexed": false,
          "internalType": "uint256",
          "name": "weight",
          "type": "uint256"
        },
        {
          "indexed": false,
          "internalType": "string",
          "name": "reason",
          "type": "string"
        }
      ],
      "name": "VoteCast",
      "type": "event"
    },
    {
      "anonymous": false,
      "inputs": [
        {
          "indexed": true,
          "internalType": "address",
          "name": "voter",
          "type": "address"
        },
        {
          "indexed": false,
          "internalType": "uint256",
          "name": "proposalId",
          "type": "uint256"
        },
        {
          "indexed": false,
          "internalType": "uint8",
          "name": "support",
          "type": "uint8"
        },
        {
          "indexed": false,
          "internalType": "uint256",
          "name": "weight",
          "type": "uint256"
        },
        {
          "indexed": false,
          "internalType": "string",
          "name": "reason",
          "type": "string"
        },
        {
          "indexed": false,
          "internalType": "bytes",
          "name": "params",
          "type": "bytes"
        }
      ],
      "name": "VoteCastWithParams",
      "type": "event"
    },
    {
      "anonymous": false,
      "inputs": [
        {
          "indexed": false,
          "internalType": "uint256",
          "name": "oldVotingDelay",
          "type": "uint256"
        },
        {
          "indexed": false,
          "internalType": "uint256",
          "name": "newVotingDelay",
          "type": "uint256"
        }
      ],
      "name": "VotingDelaySet",
      "type": "event"
    },
    {
      "anonymous": false,
      "inputs": [
        {
          "indexed": false,
          "internalType": "uint256",
          "name": "oldVotingPeriod",
          "type": "uint256"
        },
        {
          "indexed": false,
          "internalType": "uint256",
          "name": "newVotingPeriod",
          "type": "uint256"
        }
      ],
      "name": "VotingPeriodSet",
      "type": "event"
    },
    {
      "inputs": [],
      "name": "BALLOT_TYPEHASH",
      "outputs": [
        {
          "internalType": "bytes32",
          "name": "",
          "type": "bytes32"
        }
      ],
      "stateMutability": "view",
      "type": "function"
    },
    {
      "inputs": [],
      "name": "CLOCK_MODE",
      "outputs": [
        {
          "internalType": "string",
          "name": "",
          "type": "string"
        }
      ],
      "stateMutability": "view",
      "type": "function"
    },
    {
      "inputs": [],
      "name": "COUNTING_MODE",
      "outputs": [
        {
          "internalType": "string",
          "name": "",
          "type": "string"
        }
      ],
      "stateMutability": "pure",
      "type": "function"
    },
    {
      "inputs": [],
      "name": "EXTENDED_BALLOT_TYPEHASH",
      "outputs": [
        {
          "internalType": "bytes32",
          "name": "",
          "type": "bytes32"
        }
      ],
      "stateMutability": "view",
      "type": "function"
    },
    {
      "inputs": [
        {
          "internalType": "address[]",
          "name": "targets",
          "type": "address[]"
        },
        {
          "internalType": "uint256[]",
          "name": "values",
          "type": "uint256[]"
        },
        {
          "internalType": "bytes[]",
          "name": "calldatas",
          "type": "bytes[]"
        },
        {
          "internalType": "bytes32",
          "name": "descriptionHash",
          "type": "bytes32"
        }
      ],
      "name": "cancel",
      "outputs": [
        {
          "internalType": "uint256",
          "name": "",
          "type": "uint256"
        }
      ],
      "stateMutability": "nonpayable",
      "type": "function"
    },
    {
      "inputs": [
        {
          "internalType": "uint256",
          "name": "proposalId",
          "type": "uint256"
        },
        {
          "internalType": "uint8",
          "name": "support",
          "type": "uint8"
        }
      ],
      "name": "castVote",
      "outputs": [
        {
          "internalType": "uint256",
          "name": "",
          "type": "uint256"
        }
      ],
      "stateMutability": "nonpayable",
      "type": "function"
    },
    {
      "inputs": [
        {
          "internalType": "uint256",
          "name": "proposalId",
          "type": "uint256"
        },
        {
          "internalType": "uint8",
          "name": "support",
          "type": "uint8"
        },
        {
          "internalType": "uint8",
          "name": "v",
          "type": "uint8"
        },
        {
          "internalType": "bytes32",
          "name": "r",
          "type": "bytes32"
        },
        {
          "internalType": "bytes32",
          "name": "s",
          "type": "bytes32"
        }
      ],
      "name": "castVoteBySig",
      "outputs": [
        {
          "internalType": "uint256",
          "name": "",
          "type": "uint256"
        }
      ],
      "stateMutability": "nonpayable",
      "type": "function"
    },
    {
      "inputs": [
        {
          "internalType": "uint256",
          "name": "proposalId",
          "type": "uint256"
        },
        {
          "internalType": "uint8",
          "name": "support",
          "type": "uint8"
        },
        {
          "internalType": "string",
          "name": "reason",
          "type": "string"
        }
      ],
      "name": "castVoteWithReason",
      "outputs": [
        {
          "internalType": "uint256",
          "name": "",
          "type": "uint256"
        }
      ],
      "stateMutability": "nonpayable",
      "type": "function"
    },
    {
      "inputs": [
        {
          "internalType": "uint256",
          "name": "proposalId",
          "type": "uint256"
        },
        {
          "internalType": "uint8",
          "name": "support",
          "type": "uint8"
        },
        {
          "internalType": "string",
          "name": "reason",
          "type": "string"
        },
        {
          "internalType": "bytes",
          "name": "params",
          "type": "bytes"
        }
      ],
      "name": "castVoteWithReasonAndParams",
      "outputs": [
        {
          "internalType": "uint256",
          "name": "",
          "type": "uint256"
        }
      ],
      "stateMutability": "nonpayable",
      "type": "function"
    },
    {
      "inputs": [
        {
          "internalType": "uint256",
          "name": "proposalId",
          "type": "uint256"
        },
        {
          "internalType": "uint8",
          "name": "support",
          "type": "uint8"
        },
        {
          "internalType": "string",
          "name": "reason",
          "type": "string"
        },
        {
          "internalType": "bytes",
          "name": "params",
          "type": "bytes"
        },
        {
          "internalType": "uint8",
          "name": "v",
          "type": "uint8"
        },
        {
          "internalType": "bytes32",
          "name": "r",
          "type": "bytes32"
        },
        {
          "internalType": "bytes32",
          "name": "s",
          "type": "bytes32"
        }
      ],
      "name": "castVoteWithReasonAndParamsBySig",
      "outputs": [
        {
          "internalType": "uint256",
          "name": "",
          "type": "uint256"
        }
      ],
      "stateMutability": "nonpayable",
      "type": "function"
    },
    {
      "inputs": [],
      "name": "clock",
      "outputs": [
        {
          "internalType": "uint48",
          "name": "",
          "type": "uint48"
        }
      ],
      "stateMutability": "view",
      "type": "function"
    },
    {
      "inputs": [],
      "name": "eip712Domain",
      "outputs": [
        {
          "internalType": "bytes1",
          "name": "fields",
          "type": "bytes1"
        },
        {
          "internalType": "string",
          "name": "name",
          "type": "string"
        },
        {
          "internalType": "string",
          "name": "version",
          "type": "string"
        },
        {
          "internalType": "uint256",
          "name": "chainId",
          "type": "uint256"
        },
        {
          "internalType": "address",
          "name": "verifyingContract",
          "type": "address"
        },
        {
          "internalType": "bytes32",
          "name": "salt",
          "type": "bytes32"
        },
        {
          "internalType": "uint256[]",
          "name": "extensions",
          "type": "uint256[]"
        }
      ],
      "stateMutability": "view",
      "type": "function"
    },
    {
      "inputs": [
        {
          "internalType": "address[]",
          "name": "targets",
          "type": "address[]"
        },
        {
          "internalType": "uint256[]",
          "name": "values",
          "type": "uint256[]"
        },
        {
          "internalType": "bytes[]",
          "name": "calldatas",
          "type": "bytes[]"
        },
        {
          "internalType": "bytes32",
          "name": "descriptionHash",
          "type": "bytes32"
        }
      ],
      "name": "execute",
      "outputs": [
        {
          "internalType": "uint256",
          "name": "",
          "type": "uint256"
        }
      ],
      "stateMutability": "payable",
      "type": "function"
    },
    {
      "inputs": [
        {
          "internalType": "address",
          "name": "account",
          "type": "address"
        },
        {
          "internalType": "uint256",
          "name": "timepoint",
          "type": "uint256"
        }
      ],
      "name": "getVotes",
      "outputs": [
        {
          "internalType": "uint256",
          "name": "",
          "type": "uint256"
        }
      ],
      "stateMutability": "view",
      "type": "function"
    },
    {
      "inputs": [
        {
          "internalType": "address",
          "name": "account",
          "type": "address"
        },
        {
          "internalType": "uint256",
          "name": "timepoint",
          "type": "uint256"
        },
        {
          "internalType": "bytes",
          "name": "params",
          "type": "bytes"
        }
      ],
      "name": "getVotesWithParams",
      "outputs": [
        {
          "internalType": "uint256",
          "name": "",
          "type": "uint256"
        }
      ],
      "stateMutability": "view",
      "type": "function"
    },
    {
      "inputs": [
        {
          "internalType": "uint256",
          "name": "proposalId",
          "type": "uint256"
        },
        {
          "internalType": "address",
          "name": "account",
          "type": "address"
        }
      ],
      "name": "hasVoted",
      "outputs": [
        {
          "internalType": "bool",
          "name": "",
          "type": "bool"
        }
      ],
      "stateMutability": "view",
      "type": "function"
    },
    {
      "inputs": [
        {
          "internalType": "address[]",
          "name": "targets",
          "type": "address[]"
        },
        {
          "internalType": "uint256[]",
          "name": "values",
          "type": "uint256[]"
        },
        {
          "internalType": "bytes[]",
          "name": "calldatas",
          "type": "bytes[]"
        },
        {
          "internalType": "bytes32",
          "name": "descriptionHash",
          "type": "bytes32"
        }
      ],
      "name": "hashProposal",
      "outputs": [
        {
          "internalType": "uint256",
          "name": "",
          "type": "uint256"
        }
      ],
      "stateMutability": "pure",
      "type": "function"
    },
    {
      "inputs": [],
      "name": "name",
      "outputs": [
        {
          "internalType": "string",
          "name": "",
          "type": "string"
        }
      ],
      "stateMutability": "view",
      "type": "function"
    },
    {
      "inputs": [
        {
          "internalType": "address",
          "name": "",
          "type": "address"
        },
        {
          "internalType": "address",
          "name": "",
          "type": "address"
        },
        {
          "internalType": "uint256[]",
          "name": "",
          "type": "uint256[]"
        },
        {
          "internalType": "uint256[]",
          "name": "",
          "type": "uint256[]"
        },
        {
          "internalType": "bytes",
          "name": "",
          "type": "bytes"
        }
      ],
      "name": "onERC1155BatchReceived",
      "outputs": [
        {
          "internalType": "bytes4",
          "name": "",
          "type": "bytes4"
        }
      ],
      "stateMutability": "nonpayable",
      "type": "function"
    },
    {
      "inputs": [
        {
          "internalType": "address",
          "name": "",
          "type": "address"
        },
        {
          "internalType": "address",
          "name": "",
          "type": "address"
        },
        {
          "internalType": "uint256",
          "name": "",
          "type": "uint256"
        },
        {
          "internalType": "uint256",
          "name": "",
          "type": "uint256"
        },
        {
          "internalType": "bytes",
          "name": "",
          "type": "bytes"
        }
      ],
      "name": "onERC1155Received",
      "outputs": [
        {
          "internalType": "bytes4",
          "name": "",
          "type": "bytes4"
        }
      ],
      "stateMutability": "nonpayable",
      "type": "function"
    },
    {
      "inputs": [
        {
          "internalType": "address",
          "name": "",
          "type": "address"
        },
        {
          "internalType": "address",
          "name": "",
          "type": "address"
        },
        {
          "internalType": "uint256",
          "name": "",
          "type": "uint256"
        },
        {
          "internalType": "bytes",
          "name": "",
          "type": "bytes"
        }
      ],
      "name": "onERC721Received",
      "outputs": [
        {
          "internalType": "bytes4",
          "name": "",
          "type": "bytes4"
        }
      ],
      "stateMutability": "nonpayable",
      "type": "function"
    },
    {
      "inputs": [
        {
          "internalType": "uint256",
          "name": "proposalId",
          "type": "uint256"
        }
      ],
      "name": "proposalDeadline",
      "outputs": [
        {
          "internalType": "uint256",
          "name": "",
          "type": "uint256"
        }
      ],
      "stateMutability": "view",
      "type": "function"
    },
    {
      "inputs": [
        {
          "internalType": "uint256",
          "name": "proposalId",
          "type": "uint256"
        }
      ],
      "name": "proposalEta",
      "outputs": [
        {
          "internalType": "uint256",
          "name": "",
          "type": "uint256"
        }
      ],
      "stateMutability": "view",
      "type": "function"
    },
    {
      "inputs": [
        {
          "internalType": "uint256",
          "name": "proposalId",
          "type": "uint256"
        }
      ],
      "name": "proposalProposer",
      "outputs": [
        {
          "internalType": "address",
          "name": "",
          "type": "address"
        }
      ],
      "stateMutability": "view",
      "type": "function"
    },
    {
      "inputs": [
        {
          "internalType": "uint256",
          "name": "proposalId",
          "type": "uint256"
        }
      ],
      "name": "proposalSnapshot",
      "outputs": [
        {
          "internalType": "uint256",
          "name": "",
          "type": "uint256"
        }
      ],
      "stateMutability": "view",
      "type": "function"
    },
    {
      "inputs": [],
      "name": "proposalThreshold",
      "outputs": [
        {
          "internalType": "uint256",
          "name": "",
          "type": "uint256"
        }
      ],
      "stateMutability": "view",
      "type": "function"
    },
    {
      "inputs": [
        {
          "internalType": "uint256",
          "name": "proposalId",
          "type": "uint256"
        }
      ],
      "name": "proposalVotes",
      "outputs": [
        {
          "internalType": "uint256",
          "name": "againstVotes",
          "type": "uint256"
        },
        {
          "internalType": "uint256",
          "name": "forVotes",
          "type": "uint256"
        },
        {
          "internalType": "uint256",
          "name": "abstainVotes",
          "type": "uint256"
        }
      ],
      "stateMutability": "view",
      "type": "function"
    },
    {
      "inputs": [
        {
          "internalType": "address[]",
          "name": "targets",
          "type": "address[]"
        },
        {
          "internalType": "uint256[]",
          "name": "values",
          "type": "uint256[]"
        },
        {
          "internalType": "bytes[]",
          "name": "calldatas",
          "type": "bytes[]"
        },
        {
          "internalType": "string",
          "name": "description",
          "type": "string"
        }
      ],
      "name": "propose",
      "outputs": [
        {
          "internalType": "uint256",
          "name": "",
          "type": "uint256"
        }
      ],
      "stateMutability": "nonpayable",
      "type": "function"
    },
    {
      "inputs": [
        {
          "internalType": "address[]",
          "name": "targets",
          "type": "address[]"
        },
        {
          "internalType": "uint256[]",
          "name": "values",
          "type": "uint256[]"
        },
        {
          "internalType": "bytes[]",
          "name": "calldatas",
          "type": "bytes[]"
        },
        {
          "internalType": "bytes32",
          "name": "descriptionHash",
          "type": "bytes32"
        }
      ],
      "name": "queue",
      "outputs": [
        {
          "internalType": "uint256",
          "name": "",
          "type": "uint256"
        }
      ],
      "stateMutability": "nonpayable",
      "type": "function"
    },
    {
      "inputs": [
        {
          "internalType": "uint256",
          "name": "blockNumber",
          "type": "uint256"
        }
      ],
      "name": "quorum",
      "outputs": [
        {
          "internalType": "uint256",
          "name": "",
          "type": "uint256"
        }
      ],
      "stateMutability": "view",
      "type": "function"
    },
    {
      "inputs": [],
      "name": "quorumDenominator",
      "outputs": [
        {
          "internalType": "uint256",
          "name": "",
          "type": "uint256"
        }
      ],
      "stateMutability": "view",
      "type": "function"
    },
    {
      "inputs": [
        {
          "internalType": "uint256",
          "name": "timepoint",
          "type": "uint256"
        }
      ],
      "name": "quorumNumerator",
      "outputs": [
        {
          "internalType": "uint256",
          "name": "",
          "type": "uint256"
        }
      ],
      "stateMutability": "view",
      "type": "function"
    },
    {
      "inputs": [],
      "name": "quorumNumerator",
      "outputs": [
        {
          "internalType": "uint256",
          "name": "",
          "type": "uint256"
        }
      ],
      "stateMutability": "view",
      "type": "function"
    },
    {
      "inputs": [
        {
          "internalType": "address",
          "name": "target",
          "type": "address"
        },
        {
          "internalType": "uint256",
          "name": "value",
          "type": "uint256"
        },
        {
          "internalType": "bytes",
          "name": "data",
          "type": "bytes"
        }
      ],
      "name": "relay",
      "outputs": [],
      "stateMutability": "payable",
      "type": "function"
    },
    {
      "inputs": [
        {
          "internalType": "uint256",
          "name": "newProposalThreshold",
          "type": "uint256"
        }
      ],
      "name": "setProposalThreshold",
      "outputs": [],
      "stateMutability": "nonpayable",
      "type": "function"
    },
    {
      "inputs": [
        {
          "internalType": "uint256",
          "name": "newVotingDelay",
          "type": "uint256"
        }
      ],
      "name": "setVotingDelay",
      "outputs": [],
      "stateMutability": "nonpayable",
      "type": "function"
    },
    {
      "inputs": [
        {
          "internalType": "uint256",
          "name": "newVotingPeriod",
          "type": "uint256"
        }
      ],
      "name": "setVotingPeriod",
      "outputs": [],
      "stateMutability": "nonpayable",
      "type": "function"
    },
    {
      "inputs": [
        {
          "internalType": "uint256",
          "name": "proposalId",
          "type": "uint256"
        }
      ],
      "name": "state",
      "outputs": [
        {
          "internalType": "enum IGovernor.ProposalState",
          "name": "",
          "type": "uint8"
        }
      ],
      "stateMutability": "view",
      "type": "function"
    },
    {
      "inputs": [
        {
          "internalType": "bytes4",
          "name": "interfaceId",
          "type": "bytes4"
        }
      ],
      "name": "supportsInterface",
      "outputs": [
        {
          "internalType": "bool",
          "name": "",
          "type": "bool"
        }
      ],
      "stateMutability": "view",
      "type": "function"
    },
    {
      "inputs": [],
      "name": "timelock",
      "outputs": [
        {
          "internalType": "address",
          "name": "",
          "type": "address"
        }
      ],
      "stateMutability": "view",
      "type": "function"
    },
    {
      "inputs": [],
      "name": "token",
      "outputs": [
        {
          "internalType": "contract IERC5805",
          "name": "",
          "type": "address"
        }
      ],
      "stateMutability": "view",
      "type": "function"
    },
    {
      "inputs": [
        {
          "internalType": "uint256",
          "name": "newQuorumNumerator",
          "type": "uint256"
        }
      ],
      "name": "updateQuorumNumerator",
      "outputs": [],
      "stateMutability": "nonpayable",
      "type": "function"
    },
    {
      "inputs": [
        {
          "internalType": "contract TimelockController",
          "name": "newTimelock",
          "type": "address"
        }
      ],
      "name": "updateTimelock",
      "outputs": [],
      "stateMutability": "nonpayable",
      "type": "function"
    },
    {
      "inputs": [],
      "name": "version",
      "outputs": [
        {
          "internalType": "string",
          "name": "",
          "type": "string"
        }
      ],
      "stateMutability": "view",
      "type": "function"
    },
    {
      "inputs": [],
      "name": "votingDelay",
      "outputs": [
        {
          "internalType": "uint256",
          "name": "",
          "type": "uint256"
        }
      ],
      "stateMutability": "view",
      "type": "function"
    },
    {
      "inputs": [],
      "name": "votingPeriod",
      "outputs": [
        {
          "internalType": "uint256",
          "name": "",
          "type": "uint256"
        }
      ],
      "stateMutability": "view",
      "type": "function"
    },
    {
      "stateMutability": "payable",
      "type": "receive"
    }
  ],
  "bytecode": "0x610180604052346100b15761001e610015610116565b93929092610198565b60405161419f9081610e03823960805181613436015260a051816134ed015260c05181613400015260e05181613485015261010051816134ab01526101205181611491015261014051816114bd01526101605181818161160901528181611c5201528181611ddf01528181611e80015281816122c0015281816124b6015281816126310152818161334c0152613fde0152f35b600080fd5b634e487b7160e01b600052604160045260246000fd5b601f909101601f19168101906001600160401b038211908210176100ef57604052565b6100b6565b604051906101036040836100cc565b565b6001600160a01b038116036100b157565b614fa29060a0823803928360405194859261013182856100cc565b8339810103126100b15781519161014783610105565b60208101519261015684610105565b60408201519260806060840151930151919493929190565b6040519061017d6040836100cc565b600e8252565b604051906101926040836100cc565b60018252565b6102796101039592946102746102939561026f6101b361016e565b602081016d29b4b634b1b0a3b7bb32b93737b960911b81526101d3610183565b906020820190603160f81b82526101e984610776565b610120526101f683610870565b6101405283519020918260e05251902080610100524660a0526040519060208201927f8b73c3c69bb8fe3d512ecc4cf759cc79239f7b179b0ffacaa9a75d522b39400f8452604083015260608201524660808201523060a082015260a0815261026060c0826100cc565b5190206080523060c052610324565b61066e565b6106a7565b61028161073b565b6001600160a01b031661016052610532565b61040e565b90600182811c921680156102c8575b60208310146102b257565b634e487b7160e01b600052602260045260246000fd5b91607f16916102a7565b601f82116102df57505050565b6000526020600020906020601f840160051c8301931061031a575b601f0160051c01905b81811061030e575050565b60008155600101610303565b90915081906102fa565b80519091906001600160401b0381116100ef5761034d81610346600254610298565b60026102d2565b602092601f821160011461038f5761037f92938291600092610384575b50508160011b916000199060031b1c19161790565b600255565b01519050388061036a565b6002600052601f198216937f405787fa12a823e0f2b7631cc41b3ba8828b3321ca811111fa75cd3aa3bb5ace9160005b8681106103f657508360019596106103dd575b505050811b01600255565b015160001960f88460031b161c191690553880806103d2565b919260206001819286850151815501940192016103bf565b600c54604080516001600160a01b03808416825290931660208401819052927f08f74ea46ef7894f65eabfb5e6e695de773a000b47c529ab559178069b2264019190a16001600160a01b03191617600c55565b600b5490680100000000000000008210156100ef576001820180600b558210156104cd57600b600052805160209182015190911b63ffffffff191663ffffffff91909116177f0175b7a638427703f0dbe7bb9bbf987a2551717b34e79f33b5b1008d1fa01db990910155565b634e487b7160e01b600052603260045260246000fd5b908154680100000000000000008110156100ef57600181018084558110156104cd57600092835260209283902082519284015190931b63ffffffff191663ffffffff9290921691909117910155565b606481116105f7577f0553476bf02ef2726e8ce5ced78d63e26e602e4a2257b1f559418e24b463399790610564610968565b801515806105ed575b6105b6575b6105a261059361058e610583610a37565b65ffffffffffff1690565b610ac0565b61059c846109c8565b90610cd0565b5050604080519182526020820192909252a1565b6105e86105c2826109c8565b6105e36105cd6100f4565b600081526001600160e01b039092166020830152565b610461565b610572565b50600b541561056d565b60405162461bcd60e51b815260206004820152604360248201527f476f7665726e6f72566f74657351756f72756d4672616374696f6e3a2071756f60448201527f72756d4e756d657261746f72206f7665722071756f72756d44656e6f6d696e616064820152623a37b960e91b608482015260a490fd5b60065460408051918252602082018390527fc565b045403dc03c2eea82b81a0465edad9e2e7fc4d97e11421c209da93d7a9391a1600655565b80156106e65760075460408051918252602082018390527f7e3f7f0708a84de9203036abaa450dccc85ad5ff52f78c170f3edb55cf5e882891a1600755565b60405162461bcd60e51b815260206004820152602760248201527f476f7665726e6f7253657474696e67733a20766f74696e6720706572696f6420604482015266746f6f206c6f7760c81b6064820152608490fd5b60085460408051918252600060208301527fccb45da8d5717e6c4544694297c4ba5cf151d455c9bb0ed4fc7a38411bc0546191a16000600855565b9081516020811060001461079257509061078f90610b4b565b90565b6001600160401b0381116100ef576107b6816107af600054610298565b60006102d2565b602092601f82116001146107ef576107e7929382916000926103845750508160011b916000199060031b1c19161790565b60005560ff90565b60008052601f198216937f290decd9548b62a8d60345a988386fc84ba6bc95484008f6362f93160ef3e5639160005b868110610858575083600195961061083f575b505050811b0160005560ff90565b015160001960f88460031b161c19169055388080610831565b9192602060018192868501518155019401920161081e565b9081516020811060001461088957509061078f90610b4b565b6001600160401b0381116100ef576108ad816108a6600154610298565b60016102d2565b602092601f82116001146108e6576108de929382916000926103845750508160011b916000199060031b1c19161790565b60015560ff90565b6001600052601f198216937fb10e2d527612073b26eecdfd717e6a320cf44b4afac2b0732d9fcbe2b7fa0cf69160005b8681106109505750836001959610610937575b505050811b0160015560ff90565b015160001960f88460031b161c19169055388080610929565b91926020600181928685015181550194019201610916565b600b546000908061097b575050600a5490565b806000198101116109b457600b9091527f0175b7a638427703f0dbe7bb9bbf987a2551717b34e79f33b5b1008d1fa01db8015460201c90565b634e487b7160e01b82526011600452602482fd5b6001600160e01b0381116109e2576001600160e01b031690565b60405162461bcd60e51b815260206004820152602760248201527f53616665436173743a2076616c756520646f65736e27742066697420696e20326044820152663234206269747360c81b6064820152608490fd5b610160516040516324776b7d60e21b815290602090829060049082906001600160a01b03165afa8091600091610a78575b509061078f575061078f43610be4565b6020813d602011610ab8575b81610a91602093836100cc565b81010312610ab457519065ffffffffffff82168203610ab1575038610a68565b80fd5b5080fd5b3d9150610a84565b63ffffffff8111610ad45763ffffffff1690565b60405162461bcd60e51b815260206004820152602660248201527f53616665436173743a2076616c756520646f65736e27742066697420696e203360448201526532206269747360d01b6064820152608490fd5b602081519101519060208110610b3c575090565b6000199060200360031b1b1690565b601f815111610b6357610b5d81610b28565b90511790565b6040519063305a27a960e01b8252602060048301528181519182602483015260005b838110610ba75750508160006044809484010152601f80199101168101030190fd5b60208282018101516044878401015285935001610b85565b600019810191908211610bce57565b634e487b7160e01b600052601160045260246000fd5b65ffffffffffff8111610bfc5765ffffffffffff1690565b60405162461bcd60e51b815260206004820152602660248201527f53616665436173743a2076616c756520646f65736e27742066697420696e203460448201526538206269747360d01b6064820152608490fd5b604080519192919081016001600160401b038111828210176100ef57604052602081935463ffffffff81168352811c910152565b15610c8b57565b60405162461bcd60e51b815260206004820152601b60248201527f436865636b706f696e743a2064656372656173696e67206b65797300000000006044820152606490fd5b600b549192918015610dd857610d9b918185610d22610d1d610cf3602096610bbf565b600b6000527f0175b7a638427703f0dbe7bb9bbf987a2551717b34e79f33b5b1008d1fa01db90190565b610c50565b9263ffffffff610d47610d39865163ffffffff1690565b828416928391161115610c84565b610d61610d58865163ffffffff1690565b63ffffffff1690565b03610d9f5750610d76610cf3610d8d93610bbf565b9063ffffffff82549181199060201b169116179055565b01516001600160e01b031690565b9190565b9050610dd39150610dbd610db16100f4565b63ffffffff9092168252565b6001600160e01b038716818501525b600b6104e3565b610d8d565b50610dfc90610de8610db16100f4565b6001600160e01b0384166020820152610dcc565b6000919056fe60806040526004361015610023575b361561001957600080fd5b61002161267c565b005b60003560e01c806301ffc9a71461030357806302a251a3146102fe57806303420181146102f957806306f3f9e6146102f457806306fdde03146102ef578063143489d0146102ea578063150b7a02146102e5578063160cbed7146102e05780632656227d146102db5780632d63f693146102d65780632fe3e261146102d15780633932abb1146102cc5780633bccf4fd146102c75780633e4f49e6146102c257806343859632146102bd578063452115d6146102b85780634bf5d7e9146102b3578063544ffc9c146102ae57806354fd4d50146102a957806356781388146102a45780635f398a141461029f57806360c4247f1461029a57806370b0f660146102955780637b3c71d3146102905780637d5e81e21461028b57806384b0196e1461028657806391ddadf41461028157806397c3d3341461027c5780639a802a6d14610277578063a7713a7014610272578063a890c9101461026d578063ab58fb8e14610268578063b58131b014610263578063bc197c811461025e578063c01f9e3714610259578063c28bc2fa14610254578063c59057e41461024f578063d33219b41461024a578063dd4e2ba514610245578063deaaa7cc14610240578063ea0217cf1461023b578063eb9019d414610236578063ece40cc114610231578063f23a6e611461022c578063f8ce560a146102275763fc0c546a0361000e57611e6a565b611dae565b611d55565b611cb6565b611bed565b611af3565b611ab8565b611a59565b611a30565b611a14565b6118e2565b6118ac565b611813565b6117f5565b61174a565b611688565b61166d565b611597565b61157b565b611550565b611479565b611397565b611342565b6112a3565b611285565b611205565b6111c3565b611180565b61113d565b61110d565b611056565b610ffd565b610fce565b610efe565b610ee0565b610ea5565b610e70565b610d13565b610b25565b610904565b6108bc565b6107e3565b6105e4565b610554565b6103e8565b346103d85760203660031901126103d8576004356001600160e01b03198116908181036103d85761035491636e665ced60e01b8114918215610358575b505060405190151581529081906020820190565b0390f35b63bf26d89760e01b821492509082156103c7575b82156103b6575b82156103a5575b50811561038a575b503880610340565b6301ffc9a760e01b91506001600160e01b0319161438610382565b630271189760e51b1491503861037a565b63288ace0360e11b81149250610373565b6379dd796f60e01b8114925061036c565b600080fd5b60009103126103d857565b346103d85760003660031901126103d8576020600754604051908152f35b6024359060ff821682036103d857565b6044359060ff821682036103d857565b9181601f840112156103d8578235916001600160401b0383116103d857602083818601950101116103d857565b634e487b7160e01b600052604160045260246000fd5b90601f801991011681019081106001600160401b0382111761048a57604052565b610453565b6040519061049e604083610469565b565b6040519061049e60e083610469565b6001600160401b03811161048a57601f01601f191660200190565b9190916104d6816104af565b6104e36040519182610469565b809382825282116103d857818160009384602080950137010152565b92919261050b826104af565b916105196040519384610469565b8294818452818301116103d8578281602093846000960137010152565b9080601f830112156103d857816020610551933591016104ff565b90565b346103d85760e03660031901126103d857600435610570610406565b6044356001600160401b0381116103d85761058f903690600401610426565b9290916064356001600160401b0381116103d8576105b1903690600401610536565b6084359060ff821682036103d857610354956105d49560a4359460c43596611eaf565b6040519081529081906020820190565b346103d85760203660031901126103d857600435600c54610613906001600160a01b039081165b163314611f44565b600c54306001600160a01b0390911603610764575b606481116106ed577f0553476bf02ef2726e8ce5ced78d63e26e602e4a2257b1f559418e24b46339979061065a61253b565b801515806106e3575b6106ac575b6106986106896106846106796124a1565b65ffffffffffff1690565b612b4a565b6106928461383d565b90613e8d565b5050604080519182526020820192909252a1005b6106de6106b88261383d565b6106d96106c361048f565b600081526001600160e01b039092166020830152565b612901565b610668565b50600b5415610663565b60405162461bcd60e51b815260206004820152604360248201527f476f7665726e6f72566f74657351756f72756d4672616374696f6e3a2071756f60448201527f72756d4e756d657261746f72206f7665722071756f72756d44656e6f6d696e616064820152623a37b960e91b608482015260a490fd5b61076e36366104ca565b602081519101205b8061077f612892565b036107765750610628565b60005b83811061079d5750506000910152565b818101518382015260200161078d565b906020916107c68151809281855285808601910161078a565b601f01601f1916010190565b9060206105519281815201906107ad565b346103d85760003660031901126103d857604051600060025461080581611f90565b80845290600181169081156108985750600114610839575b6103548361082d81850382610469565b604051918291826107d2565b600260009081527f405787fa12a823e0f2b7631cc41b3ba8828b3321ca811111fa75cd3aa3bb5ace939250905b80821061087e5750909150810160200161082d61081d565b919260018160209254838588010152019101909291610866565b60ff191660208086019190915291151560051b8401909101915061082d905061081d565b346103d85760203660031901126103d8576004356000526003602052602060018060a01b0360406000205460401c16604051908152f35b6001600160a01b038116036103d857565b346103d85760803660031901126103d8576109206004356108f3565b61092b6024356108f3565b6064356001600160401b0381116103d85761094a903690600401610536565b50604051630a85bd0160e11b8152602090f35b6001600160401b03811161048a5760051b60200190565b9080601f830112156103d857813561098b8161095d565b926109996040519485610469565b81845260208085019260051b8201019283116103d857602001905b8282106109c15750505090565b6020809183356109d0816108f3565b8152019101906109b4565b9080601f830112156103d85781356109f28161095d565b92610a006040519485610469565b81845260208085019260051b8201019283116103d857602001905b828210610a285750505090565b8135815260209182019101610a1b565b9080601f830112156103d8578135610a4f8161095d565b92610a5d6040519485610469565b81845260208085019260051b820101918383116103d85760208201905b838210610a8957505050505090565b81356001600160401b0381116103d857602091610aab87848094880101610536565b815201910190610a7a565b60806003198201126103d8576004356001600160401b0381116103d85781610ae091600401610974565b916024356001600160401b0381116103d85782610aff916004016109db565b91604435906001600160401b0382116103d857610b1e91600401610a38565b9060643590565b346103d857610b3336610ab6565b92610b4384838584969596612586565b92610b616004610b5286612a2e565b610b5b81610fc4565b1461204d565b600c54610b7e906001600160a01b03165b6001600160a01b031690565b60405163793d064960e11b81529390602085600481845afa948515610cbe57600095610cf2575b506020604051809263b1c5f42760e01b82528180610bc98c89898c60048601612154565b03915afa908115610cbe57600091610cc3575b50610bf186600052600d602052604060002090565b55600c54610c07906001600160a01b0316610b72565b90813b156103d85760008094610c34876040519a8b97889687956308f2a0bb60e41b87526004870161219a565b03925af1928315610cbe57610c787f9a2e42fd6722813d69113e7d0079d3d940171428df7373df9c7f7617cfda289292610c909261035496610ca3575b504261220c565b60408051858152602081019290925290918291820190565b0390a16040519081529081906020820190565b80610cb26000610cb893610469565b806103dd565b38610c71565b6120b2565b610ce5915060203d602011610ceb575b610cdd8183610469565b8101906120a3565b38610bdc565b503d610cd3565b610d0c91955060203d602011610ceb57610cdd8183610469565b9338610ba5565b610d1c36610ab6565b90610d2982828587612586565b92610d3384612a2e565b6008811015610e6b57806004610d529214908115610e57575b5061204d565b610d796002610d6b866000526003602052604060002090565b01805460ff19166001179055565b7f712ae1383f79ac853f8d882153778e0260ef8f03b504e2866e0593e04d2b291f6020604051868152a1600c546001600160a01b03163003610dcd575b90610dc59291610354956138ac565b6105d46129c8565b92909160005b8551811015610e4c5780610de9600192886129b4565b828060a01b039051163014610dff575b01610dd3565b610e0981866129b4565b516020815191012060045460801d906040600083600f0b8152600560205220556001600160801b0360045491848219910160801b601f0b16911617600455610df9565b509092909190610db6565b60059150610e6481610fc4565b1438610d4c565b610fae565b346103d85760203660031901126103d857600435600052600360205260206001600160401b0360406000205416604051908152f35b346103d85760003660031901126103d85760206040517fb3b3f3b703cd84ce352197dcff232b1b5d3cfb2025ce47cf04742d0651f1af888152f35b346103d85760003660031901126103d8576020600654604051908152f35b346103d85760a03660031901126103d8576103546105d4600435610f20610406565b610f96610f8e610f2e610416565b60643560843591610f8960405160208101907f150214d74d59b7d1e90c73fc22ef3d991dd0a76b046543d4d80ab92d2a50328f825289604082015260ff8916606082015260608152610f81608082610469565b5190206126d7565b613513565b91909161359d565b60405192610fa5602085610469565b600084526129f8565b634e487b7160e01b600052602160045260246000fd5b60081115610e6b57565b346103d85760203660031901126103d857610fea600435612a2e565b6040516008821015610e6b576020918152f35b346103d85760403660031901126103d857602060ff61104a602435600435611024826108f3565b6000526009845260036040600020019060018060a01b0316600052602052604060002090565b54166040519015158152f35b346103d85761106436610ab6565b9061107182828587612586565b9261107b84612a2e565b6008811015610e6b576110c857610354946110c36110bc610b726110ac6105d4986000526003602052604060002090565b5460401c6001600160a01b031690565b3314612219565b613a37565b60405162461bcd60e51b815260206004820152601c60248201527f476f7665726e6f723a20746f6f206c61746520746f2063616e63656c000000006044820152606490fd5b346103d85760003660031901126103d8576103546111296122ab565b6040519182916020835260208301906107ad565b346103d85760203660031901126103d857600435600052600960205260606040600020805490600260018201549101549060405192835260208301526040820152f35b346103d85760003660031901126103d85761035460408051906111a38183610469565b60018252603160f81b6020830152519182916020835260208301906107ad565b346103d85760403660031901126103d85760206111fd6004356111e4610406565b604051916111f28584610469565b6000835233906129f8565b604051908152f35b346103d85760803660031901126103d857600435611221610406565b906044356001600160401b0381116103d857611241903690600401610426565b9190926064356001600160401b0381116103d85761127a9461126a611272923690600401610536565b9436916104ff565b91339061275d565b604051908152602090f35b346103d85760203660031901126103d85760206111fd60043561240b565b346103d85760203660031901126103d857600435600c546112ce906001600160a01b0390811661060b565b600c54306001600160a01b039091160361131c575b60065460408051918252602082018390527fc565b045403dc03c2eea82b81a0465edad9e2e7fc4d97e11421c209da93d7a9391a1600655005b61132636366104ca565b602081519101205b80611337612892565b0361132e57506112e3565b346103d85760603660031901126103d85760043561135e610406565b90604435906001600160401b0382116103d85760209261138f6113886111fd943690600401610426565b36916104ff565b9133906129f8565b346103d85760803660031901126103d8576004356001600160401b0381116103d8576113c7903690600401610974565b6024356001600160401b0381116103d8576113e69036906004016109db565b906044356001600160401b0381116103d857611406903690600401610a38565b90606435916001600160401b0383116103d857366023840112156103d8576103549361143f6105d49436906024816004013591016104ff565b9261308e565b906020808351928381520192019060005b8181106114635750505090565b8251845260209384019390920191600101611456565b346103d85760003660031901126103d85760e06114b57f0000000000000000000000000000000000000000000000000000000000000000613214565b6103546114e17f0000000000000000000000000000000000000000000000000000000000000000613278565b9161152f602093611521604051936114f98786610469565b60008552601f1987013688870137604051978897600f60f81b895288015260e08701906107ad565b9085820360408701526107ad565b90466060850152306080850152600060a085015283820360c0850152611445565b346103d85760003660031901126103d857602061156b6124a1565b65ffffffffffff60405191168152f35b346103d85760003660031901126103d857602060405160648152f35b346103d85760603660031901126103d8576004356115b4816108f3565b6024356044356001600160401b0381116103d8576115d6903690600401610536565b50604051630748d63560e31b81526001600160a01b039283166004820152602481019190915290602090829060449082907f0000000000000000000000000000000000000000000000000000000000000000165afa8015610cbe576103549160009161164e575b506040519081529081906020820190565b611667915060203d602011610ceb57610cdd8183610469565b3861163d565b346103d85760003660031901126103d85760206111fd61253b565b346103d85760203660031901126103d8576004356116a5816108f3565b600c546116bc906001600160a01b0390811661060b565b600c54306001600160a01b0390911603611724575b600c54604080516001600160a01b03808416825290931660208401819052927f08f74ea46ef7894f65eabfb5e6e695de773a000b47c529ab559178069b2264019190a16001600160a01b03191617600c55005b61172e36366104ca565b602081519101205b8061173f612892565b0361173657506116d1565b346103d85760203660031901126103d8576117a4602060043561178260018060a01b03600c541691600052600d602052604060002090565b5490604051808095819463d45c443560e01b8352600483019190602083019252565b03915afa908115610cbe576000916117d6575b50600181036117cd575060405160008152602090f35b610354906105d4565b6117ef915060203d602011610ceb57610cdd8183610469565b386117b7565b346103d85760003660031901126103d8576020600854604051908152f35b346103d85760a03660031901126103d85761182f6004356108f3565b61183a6024356108f3565b6044356001600160401b0381116103d8576118599036906004016109db565b506064356001600160401b0381116103d8576118799036906004016109db565b506084356001600160401b0381116103d857611899903690600401610536565b5060405163bc197c8160e01b8152602090f35b346103d85760203660031901126103d85760206111fd60043560005260036020526001600160401b036001604060002001541690565b60603660031901126103d8576004356118fa816108f3565b6024356044356001600160401b0381116103d85761191c903690600401610426565b600c5490929190611937906001600160a01b0390811661060b565b600c54306001600160a01b03909116036119e8575b9282600093926100219585946040519384928337810185815203925af13d156119e1573d611979816104af565b906119876040519283610469565b81523d6000602083013e5b604051916119a1606084610469565b602883527f476f7665726e6f723a2072656c617920726576657274656420776974686f7574602084015267206d65737361676560c01b6040840152613399565b6060611992565b9091926119f536366104ca565b602081519101205b80611a06612892565b036119fd575092919061194c565b346103d85760206111fd611a2736610ab6565b92919091612586565b346103d85760003660031901126103d857600c546040516001600160a01b039091168152602090f35b346103d85760003660031901126103d8576103546040805190611a7c8183610469565b602082527f737570706f72743d627261766f2671756f72756d3d666f722c6162737461696e6020830152519182916020835260208301906107ad565b346103d85760003660031901126103d85760206040517f150214d74d59b7d1e90c73fc22ef3d991dd0a76b046543d4d80ab92d2a50328f8152f35b346103d85760203660031901126103d857600435600c54611b1e906001600160a01b0390811661060b565b600c54306001600160a01b0390911603611bc7575b8015611b725760075460408051918252602082018390527f7e3f7f0708a84de9203036abaa450dccc85ad5ff52f78c170f3edb55cf5e882891a1600755005b60405162461bcd60e51b815260206004820152602760248201527f476f7665726e6f7253657474696e67733a20766f74696e6720706572696f6420604482015266746f6f206c6f7760c81b6064820152608490fd5b611bd136366104ca565b602081519101205b80611be2612892565b03611bd95750611b33565b346103d85760403660031901126103d857600435611c0a816108f3565b602435906020916000604051611c208582610469565b52604051630748d63560e31b81526001600160a01b0392831660048201526024810191909152908290829060449082907f0000000000000000000000000000000000000000000000000000000000000000165afa908115610cbe5761035492600092611c99575b50506040519081529081906020820190565b611caf9250803d10610ceb57610cdd8183610469565b3880611c87565b346103d85760203660031901126103d857600435600c54611ce1906001600160a01b0390811661060b565b600c54306001600160a01b0390911603611d2f575b60085460408051918252602082018390527fccb45da8d5717e6c4544694297c4ba5cf151d455c9bb0ed4fc7a38411bc0546191a1600855005b611d3936366104ca565b602081519101205b80611d4a612892565b03611d415750611cf6565b346103d85760a03660031901126103d857611d716004356108f3565b611d7c6024356108f3565b6084356001600160401b0381116103d857611d9b903690600401610536565b5060405163f23a6e6160e01b8152602090f35b346103d85760203660031901126103d857600435604051632394e7a360e21b815260048101829052906020826024817f00000000000000000000000000000000000000000000000000000000000000006001600160a01b03165afa918215610cbe57600092611e45575b50611e229061240b565b90818102918183041490151715611e405761035490606490046105d4565b6121e8565b611e22919250611e639060203d602011610ceb57610cdd8183610469565b9190611e18565b346103d85760003660031901126103d8576040517f00000000000000000000000000000000000000000000000000000000000000006001600160a01b03168152602090f35b9492611f3661055198611f3e9493969861138896610f898a8a8d611ed4368a8c6104ff565b6020815191012090602081519101209060ff6040519360208501957fb3b3f3b703cd84ce352197dcff232b1b5d3cfb2025ce47cf04742d0651f1af8887526040860152166060840152608083015260a082015260a08152610f8160c082610469565b94909461359d565b9261275d565b15611f4b57565b60405162461bcd60e51b815260206004820152601860248201527f476f7665726e6f723a206f6e6c79476f7665726e616e636500000000000000006044820152606490fd5b90600182811c92168015611fc0575b6020831014611faa57565b634e487b7160e01b600052602260045260246000fd5b91607f1691611f9f565b60009291815491611fda83611f90565b80835292600181169081156120305750600114611ff657505050565b60009081526020812093945091925b838310612016575060209250010190565b600181602092949394548385870101520191019190612005565b915050602093945060ff929192191683830152151560051b010190565b1561205457565b60405162461bcd60e51b815260206004820152602160248201527f476f7665726e6f723a2070726f706f73616c206e6f74207375636365737366756044820152601b60fa1b6064820152608490fd5b908160209103126103d8575190565b6040513d6000823e3d90fd5b906020808351928381520192019060005b8181106120dc5750505090565b82516001600160a01b03168452602093840193909201916001016120cf565b9080602083519182815201916020808360051b8301019401926000915b83831061212757505050505090565b9091929394602080612145600193601f1986820301875289516107ad565b97019301930191939290612118565b94939261218060809361217261218e9460a08a5260a08a01906120be565b9088820360208a0152611445565b9086820360408801526120fb565b93600060608201520152565b91926121c960a0946121bb6121d7949998979960c0875260c08701906120be565b908582036020870152611445565b9083820360408501526120fb565b946000606083015260808201520152565b634e487b7160e01b600052601160045260246000fd5b9060018201809211611e4057565b91908201809211611e4057565b1561222057565b60405162461bcd60e51b815260206004820152602260248201527f476f7665726e6f723a206f6e6c792070726f706f7365722063616e2063616e63604482015261195b60f21b6064820152608490fd5b6040519061227f604083610469565b601d82527f6d6f64653d626c6f636b6e756d6265722666726f6d3d64656661756c740000006020830152565b604051634bf5d7e960e01b81526000816004817f00000000000000000000000000000000000000000000000000000000000000006001600160a01b03165afa60009181612301575b506105515750610551612270565b90913d8082843e6123128184610469565b820191602081840312612380578051906001600160401b038211612384570182601f8201121561238057805191612348836104af565b936123566040519586610469565b8385526020848401011161237d575090612376916020808501910161078a565b90386122f3565b80fd5b5080fd5b8280fd5b600019810191908211611e4057565b602719810191908211611e4057565b634e487b7160e01b600052603260045260246000fd5b80548210156123d45760005260206000200190600090565b6123a6565b90604051604081018181106001600160401b0382111761048a57604052602081935463ffffffff81168352811c910152565b600b548015612499576000198101818111611e40578111156123d4577f0175b7a638427703f0dbe7bb9bbf987a2551717b34e79f33b5b1008d1fa01db861245791600b600052016123d9565b805163ffffffff16821015612487575061247b61247661055192612b4a565b612bb2565b6001600160e01b031690565b602001516001600160e01b0316905090565b5050600a5490565b6040516324776b7d60e21b81526020816004817f00000000000000000000000000000000000000000000000000000000000000006001600160a01b03165afa80916000916124fa575b50906105515750610551436132af565b6020813d602011612533575b8161251360209383610469565b8101031261238057519065ffffffffffff8216820361237d5750386124ea565b3d9150612506565b600b546000908061254e575050600a5490565b80600019810111611e4057600b7f0175b7a638427703f0dbe7bb9bbf987a2551717b34e79f33b5b1008d1fa01db89252015460201c90565b92906125e7916125d36125c1946040519586946125af602087019960808b5260a08801906120be565b868103601f1901604088015290611445565b848103601f19016060860152906120fb565b90608083015203601f198101835282610469565b51902090565b60209160006040516125ff8582610469565b52604051630748d63560e31b81526001600160a01b0392831660048201526024810191909152908290829060449082907f0000000000000000000000000000000000000000000000000000000000000000165afa918215610cbe5760009261266657505090565b6105519250803d10610ceb57610cdd8183610469565b600c54306001600160a01b039091160361269257565b60405162461bcd60e51b815260206004820152601f60248201527f476f7665726e6f723a206d7573742073656e6420746f206578656375746f72006044820152606490fd5b6042906126e26133fd565b906040519161190160f01b8352600283015260228201522090565b93909260ff6127299361055197958752166020860152604085015260a0606085015260a08401906107ad565b9160808184039101526107ad565b909260ff60809361055196958452166020830152604082015281606082015201906107ad565b9291908360005260036020526040600020600161277986612a2e565b61278281610fc4565b03612841576127aa61279e6127b092546001600160401b031690565b6001600160401b031690565b8261331b565b946127bd86848488613719565b805161280557506127ff7fb8e138887d0aa13bab447e82de9d5c1777041ecd21ca36ba824ff1e6c07ddda4938660405194859460018060a01b03169785612737565b0390a290565b6127ff907fe2babfbac5889a709b63bb7f598b324e08bc5a4fb9ec647fb3cbc9ec07eb8712948760405195869560018060a01b031698866126fd565b60405162461bcd60e51b815260206004820152602360248201527f476f7665726e6f723a20766f7465206e6f742063757272656e746c792061637460448201526269766560e81b6064820152608490fd5b60045480600f0b9060801d600f0b13156128f05760048054600f0b60008181526005602052604081208054919055825460019092016001600160801b03166fffffffffffffffffffffffffffffffff19929092169190911790915590565b631ed9509560e11b60005260046000fd5b600b54600160401b81101561048a5760018101600b556000600b548210156123d457600b905260008051602061414a83398151915201815160209283015190921b63ffffffff191663ffffffff92909216919091179055565b634e487b7160e01b600052600060045260246000fd5b8054600160401b81101561048a5761298d916001820181556123bc565b61295a57815160209283015190921b63ffffffff191663ffffffff92909216919091179055565b80518210156123d45760209160051b010190565b600c546001600160a01b031630036129dc57565b60045480600f0b9060801d600f0b136129f157565b6000600455565b91610551939160405193612a0d602086610469565b6000855261275d565b908160209103126103d8575180151581036103d85790565b612a3781613911565b90612a4182610fc4565b60048203612b4657612a5d90600052600d602052604060002090565b5480612a67575090565b600c54909150612a7f906001600160a01b0316610b72565b604051632ab0f52960e01b815260048101839052602081602481855afa908115610cbe57600091612b27575b5015612ab8575050600790565b604051632c258a9f60e11b81526004810192909252602090829060249082905afa908115610cbe57600091612af8575b5015612af357600590565b600290565b612b1a915060203d602011612b20575b612b128183610469565b810190612a16565b38612ae8565b503d612b08565b612b40915060203d602011612b2057612b128183610469565b38612aab565b5090565b63ffffffff8111612b5e5763ffffffff1690565b60405162461bcd60e51b815260206004820152602660248201527f53616665436173743a2076616c756520646f65736e27742066697420696e203360448201526532206269747360d01b6064820152608490fd5b600b54906000918060058111612c67575b509163ffffffff600092165b838210612c125750505080612be45750600090565b612c0b612bf361055192612388565b600b60005260008051602061414a8339815191520190565b5460201c90565b9091928083169080841860011c8201809211611e4057600b855260008051602061414a83398151915282015463ffffffff16831015612c555750925b9190612bcf565b939250612c61906121fe565b91612c4e565b90612c7182613b95565b8203918211611e4057600b60005260008051602061414a83398151915282015463ffffffff9081169084161015612caa57505b38612bc3565b9250612cb5906121fe565b91612ca4565b15612cc257565b60405162461bcd60e51b815260206004820152601d60248201527f476f7665726e6f723a2070726f706f73657220726573747269637465640000006044820152606490fd5b15612d0e57565b60405162461bcd60e51b815260206004820152603160248201527f476f7665726e6f723a2070726f706f73657220766f7465732062656c6f7720706044820152701c9bdc1bdcd85b081d1a1c995cda1bdb19607a1b6064820152608490fd5b15612d7457565b60405162461bcd60e51b815260206004820152602160248201527f476f7665726e6f723a20696e76616c69642070726f706f73616c206c656e67746044820152600d60fb1b6064820152608490fd5b15612dca57565b60405162461bcd60e51b815260206004820152601860248201527f476f7665726e6f723a20656d7074792070726f706f73616c00000000000000006044820152606490fd5b15612e1657565b60405162461bcd60e51b815260206004820152602160248201527f476f7665726e6f723a2070726f706f73616c20616c72656164792065786973746044820152607360f81b6064820152608490fd5b90612f6160c0600261049e94612e9b6001600160401b0386511682906001600160401b03166001600160401b0319825416179055565b602085015181546040808801516001600160e01b03191668010000000000000000600160e01b039390911b929092166001600160401b0390911617178155612f3660018201612f14612ef760608901516001600160401b031690565b825467ffffffffffffffff19166001600160401b03909116178255565b608087015181546001600160401b031667ffffffffffffffff19909116179055565b0192612f5a612f4860a0830151151590565b859060ff801983541691151516179055565b0151151590565b815461ff00191690151560081b61ff0016179055565b90612f818261095d565b612f8e6040519182610469565b8281528092612f9f601f199161095d565b019060005b828110612fb057505050565b806060602080938501015201612fa4565b95999896979493919261300293612ff492885260018060a01b0316602088015261012060408801526101208701906120be565b908582036060870152611445565b968388036080850152815180895260208901906020808260051b8c01019401916000905b8282106130625750505050610551969750906130499184820360a08601526120fb565b9360c083015260e08201526101008184039101526107ad565b909192946020806130806001938f601f1990820301865289516107ad565b970192019201909291613026565b61320e7f7d84a6263ae0d98d3329bd7b46bb4e8d6f98cd35a7adb45c274c8b7fd5ebd5e093946130c66130c18233613d1b565b612cbb565b6130d16106796124a1565b956130f16130e76130e189612388565b336125ed565b6008541115612d07565b61316c61310683516020850120838888612586565b976131148651885114612d6d565b6131218651845114612d6d565b61312d86511515612dc3565b6131636001600160401b0361315c61314f8c6000526003602052604060002090565b546001600160401b031690565b1615612e0f565b6006549061220c565b6131786007548261220c565b916131f661318583613dd3565b6131c861319186613dd3565b6131ab61319c6104a0565b6001600160401b039094168452565b336020840152600060408401526001600160401b03166060830152565b60006080820152600060a0820152600060c08201526131f18b6000526003602052604060002090565b612e65565b6132008651612f77565b604051978897338c8a612fc1565b0390a190565b60ff811461325e5760ff811690601f821161324d5760408051926132388285610469565b6020808552840191601f190136833783525290565b632cd44ac360e21b60005260046000fd5b5060405161055181613271816000611fca565b0382610469565b60ff811461329c5760ff811690601f821161324d5760408051926132388285610469565b5060405161055181613271816001611fca565b65ffffffffffff81116132c75765ffffffffffff1690565b60405162461bcd60e51b815260206004820152602660248201527f53616665436173743a2076616c756520646f65736e27742066697420696e203460448201526538206269747360d01b6064820152608490fd5b604051630748d63560e31b81526001600160a01b0391821660048201526024810192909252602090829060449082907f0000000000000000000000000000000000000000000000000000000000000000165afa908115610cbe57600091613380575090565b610551915060203d602011610ceb57610cdd8183610469565b909190156133a5575090565b8151156133b55750805190602001fd5b60405162461bcd60e51b8152602060048201529081906133d99060248301906107ad565b0390fd5b81156133e7570490565b634e487b7160e01b600052601260045260246000fd5b307f00000000000000000000000000000000000000000000000000000000000000006001600160a01b031614806134ea575b15613458577f000000000000000000000000000000000000000000000000000000000000000090565b60405160208101907f8b73c3c69bb8fe3d512ecc4cf759cc79239f7b179b0ffacaa9a75d522b39400f82527f000000000000000000000000000000000000000000000000000000000000000060408201527f000000000000000000000000000000000000000000000000000000000000000060608201524660808201523060a082015260a081526125e760c082610469565b507f0000000000000000000000000000000000000000000000000000000000000000461461342f565b7f7fffffffffffffffffffffffffffffff5d576e7357a4501ddfe92f46681b20a084116135875760209360009360ff60809460405194855216868401526040830152606082015282805260015afa15610cbe576000516001600160a01b0381161561357e5790600090565b50600090600190565b50505050600090600390565b60051115610e6b57565b6135a681613593565b806135ae5750565b6135b781613593565b600181036136045760405162461bcd60e51b815260206004820152601860248201527f45434453413a20696e76616c6964207369676e617475726500000000000000006044820152606490fd5b61360d81613593565b6002810361365a5760405162461bcd60e51b815260206004820152601f60248201527f45434453413a20696e76616c6964207369676e6174757265206c656e677468006044820152606490fd5b80613666600392613593565b1461366d57565b60405162461bcd60e51b815260206004820152602260248201527f45434453413a20696e76616c6964207369676e6174757265202773272076616c604482015261756560f01b6064820152608490fd5b156136c457565b60405162461bcd60e51b815260206004820152602760248201527f476f7665726e6f72566f74696e6753696d706c653a20766f746520616c726561604482015266191e4818d85cdd60ca1b6064820152608490fd5b9161379561378861373760ff94956000526009602052604060002090565b946003860161377161376c61376861376185859060018060a01b0316600052602052604060002090565b5460ff1690565b1590565b6136bd565b9060018060a01b0316600052602052604060002090565b805460ff19166001179055565b16806137ac5750906137a890825461220c565b9055565b600181036137c4575060016137a8910191825461220c565b6002036137da5760026137a8910191825461220c565b60405162461bcd60e51b815260206004820152603560248201527f476f7665726e6f72566f74696e6753696d706c653a20696e76616c69642076616044820152746c756520666f7220656e756d20566f74655479706560581b6064820152608490fd5b6001600160e01b038111613857576001600160e01b031690565b60405162461bcd60e51b815260206004820152602760248201527f53616665436173743a2076616c756520646f65736e27742066697420696e20326044820152663234206269747360c81b6064820152608490fd5b600c5460009493926001600160a01b0390911691823b1561390d5790859392916138ec6040519687958694859463e38335e560e01b865260048601612154565b039134905af18015610cbe57613900575050565b8161390a91610469565b50565b8580fd5b6002613927826000526003602052604060002090565b015460ff8116613a305760081c60ff16613a2a5761395561279e61314f836000526003602052604060002090565b80156139e5576139666106796124a1565b809110156139de5761398f8260005260036020526001600160401b036001604060002001541690565b10156139d85761399e81613f95565b90816139b5575b50156139b057600490565b600390565b6139d2915060005260096020526040600020600181015490541090565b386139a5565b50600190565b5050600090565b60405162461bcd60e51b815260206004820152601d60248201527f476f7665726e6f723a20756e6b6e6f776e2070726f706f73616c2069640000006044820152606490fd5b50600290565b5050600790565b90613a43939291612586565b613a4c81612a2e565b6008811015610e6b57806002613a719214159081613b7f575b81613b6a575b5061406d565b613a9a6002613a8a836000526003602052604060002090565b01805461ff001916610100179055565b6040518181527f789cf55be980739dad1d0699b93b58e806b51c9d96619bfa8fe0a28abaa7b30c90602090a1613ada81600052600d602052604060002090565b54613ae25790565b600c54613af7906001600160a01b0316610b72565b613b0b82600052600d602052604060002090565b5490803b156103d85760405163c4d252f560e01b815260048101929092526000908290602490829084905af18015610cbe57613b55575b506000818152600d602052604081205590565b80610cb26000613b6493610469565b38613b42565b60079150613b7781610fc4565b141538613a6b565b9050613b8a81610fc4565b600681141590613a65565b8015613d045761055190613c9a613c93613c89613c7f613c75613c6b613c61613c576001613c4560008b608081901c80613cf6575b5080613bd9613c3b9260401c90565b80613ce9575b50613bea8160201c90565b80613cdc575b50613bfb8160101c90565b80613ccf575b50613c0c8160081c90565b80613cc2575b50613c1d8160041c90565b80613cb5575b50613c2e8160021c90565b80613ca8575b5060011c90565b613ca05760011c90565b1b613c50818b6133dd565b0160011c90565b613c50818a6133dd565b613c5081896133dd565b613c5081886133dd565b613c5081876133dd565b613c5081866133dd565b613c5081856133dd565b80926133dd565b906140b9565b820160011c90565b6002915092019138613c34565b6004915092019138613c23565b6008915092019138613c12565b6010915092019138613c01565b6020915092019138613bf0565b6040915092019138613bdf565b608092509050613c3b613bca565b50600090565b9081518110156123d4570160200190565b815160348110613dcb5760131981840101516001600160a01b0319166b1b91f1b211f2119351b859f160a31b01613dcb5791600092613d5981612397565b915b818310613d76575050506001600160a01b0391821691161490565b909193613d9c613d97613d898785613d0a565b516001600160f81b03191690565b6140cb565b9015613dc05760019160ff9060041b6010600160a01b031691161794019190613d5b565b505050505050600190565b505050600190565b6001600160401b038111613ded576001600160401b031690565b60405162461bcd60e51b815260206004820152602660248201527f53616665436173743a2076616c756520646f65736e27742066697420696e203660448201526534206269747360d01b6064820152608490fd5b15613e4857565b60405162461bcd60e51b815260206004820152601b60248201527f436865636b706f696e743a2064656372656173696e67206b65797300000000006044820152606490fd5b600b549192918015613f6b57613f2e918185613eb5613eb0612bf3602096612388565b6123d9565b9263ffffffff613eda613ecc865163ffffffff1690565b828416928391161115613e41565b613ef4613eeb865163ffffffff1690565b63ffffffff1690565b03613f325750613f09612bf3613f2093612388565b9063ffffffff82549181199060201b169116179055565b01516001600160e01b031690565b9190565b9050613f669150613f50613f4461048f565b63ffffffff9092168252565b6001600160e01b038716818501525b600b612970565b613f20565b50613f8f90613f7b613f4461048f565b6001600160e01b0384166020820152613f5f565b60009190565b80600052600960205260406000209060005260036020526001600160401b036040600020541660405190632394e7a360e21b825280600483015260208260248160018060a01b037f0000000000000000000000000000000000000000000000000000000000000000165afa918215610cbe57600092614048575b506140199061240b565b90818102918183041490151715611e4057614043906064900491600260018201549101549061220c565b101590565b6140199192506140669060203d602011610ceb57610cdd8183610469565b919061400f565b1561407457565b60405162461bcd60e51b815260206004820152601d60248201527f476f7665726e6f723a2070726f706f73616c206e6f74206163746976650000006044820152606490fd5b90808210156140c6575090565b905090565b60f81c9081602f108061413f575b156140eb57600191602f190160ff1690565b8160401080614135575b15614107576001916036190160ff1690565b816060108061412b575b15614123576001916056190160ff1690565b600091508190565b5060678210614111565b50604782106140f5565b50603a82106140d956fe0175b7a638427703f0dbe7bb9bbf987a2551717b34e79f33b5b1008d1fa01db9a26469706673582212208aa4eb0f1fd8a2926b33c88e279cb5c613e463838c89d14230461393c621db6d64736f6c634300081c0033",
  "linkReferences": {},
  "deployedLinkReferences": {}
}